{"contracts/HanumanWaterTokenV2.sol":{"HanumanWaterTokenV2":{"abi":[{"inputs":[{"internalType":"address","name":"_developmentTeamWallet","type":"address"},{"internalType":"address","name":"_liquidityReserveWallet","type":"address"},{"internalType":"address","name":"_strategicPartnershipsWallet","type":"address"}],"stateMutability":"nonpayable","type":"constructor"},{"inputs":[{"internalType":"address","name":"spender","type":"address"},{"internalType":"uint256","name":"allowance","type":"uint256"},{"internalType":"uint256","name":"needed","type":"uint256"}],"name":"ERC20InsufficientAllowance","type":"error"},{"inputs":[{"internalType":"address","name":"sender","type":"address"},{"internalType":"uint256","name":"balance","type":"uint256"},{"internalType":"uint256","name":"needed","type":"uint256"}],"name":"ERC20InsufficientBalance","type":"error"},{"inputs":[{"internalType":"address","name":"approver","type":"address"}],"name":"ERC20InvalidApprover","type":"error"},{"inputs":[{"internalType":"address","name":"receiver","type":"address"}],"name":"ERC20InvalidReceiver","type":"error"},{"inputs":[{"internalType":"address","name":"sender","type":"address"}],"name":"ERC20InvalidSender","type":"error"},{"inputs":[{"internalType":"address","name":"spender","type":"address"}],"name":"ERC20InvalidSpender","type":"error"},{"inputs":[],"name":"EnforcedPause","type":"error"},{"inputs":[],"name":"ExpectedPause","type":"error"},{"inputs":[{"internalType":"address","name":"owner","type":"address"}],"name":"OwnableInvalidOwner","type":"error"},{"inputs":[{"internalType":"address","name":"account","type":"address"}],"name":"OwnableUnauthorizedAccount","type":"error"},{"inputs":[],"name":"ReentrancyGuardReentrantCall","type":"error"},{"anonymous":false,"inputs":[{"indexed":true,"internalType":"address","name":"owner","type":"address"},{"indexed":true,"internalType":"address","name":"spender","type":"address"},{"indexed":false,"internalType":"uint256","name":"value","type":"uint256"}],"name":"Approval","type":"event"},{"anonymous":false,"inputs":[{"indexed":true,"internalType":"address","name":"user","type":"address"},{"indexed":false,"internalType":"bool","name":"status","type":"bool"}],"name":"KycStatusUpdated","type":"event"},{"anonymous":false,"inputs":[{"indexed":true,"internalType":"address","name":"previousOwner","type":"address"},{"indexed":true,"internalType":"address","name":"newOwner","type":"address"}],"name":"OwnershipTransferred","type":"event"},{"anonymous":false,"inputs":[{"indexed":false,"internalType":"address","name":"account","type":"address"}],"name":"Paused","type":"event"},{"anonymous":false,"inputs":[{"indexed":false,"internalType":"address","name":"oldPresaleContract","type":"address"},{"indexed":false,"internalType":"address","name":"newPresaleContract","type":"address"}],"name":"PresaleContractUpdated","type":"event"},{"anonymous":false,"inputs":[{"indexed":false,"internalType":"uint256","name":"oldEndTime","type":"uint256"},{"indexed":false,"internalType":"uint256","name":"newEndTime","type":"uint256"}],"name":"PresaleExtended","type":"event"},{"anonymous":false,"inputs":[{"indexed":true,"internalType":"address","name":"buyer","type":"address"},{"indexed":false,"internalType":"uint256","name":"amount","type":"uint256"},{"indexed":false,"internalType":"string","name":"paymentMethod","type":"string"}],"name":"TokensPurchased","type":"event"},{"anonymous":false,"inputs":[{"indexed":true,"internalType":"address","name":"from","type":"address"},{"indexed":true,"internalType":"address","name":"to","type":"address"},{"indexed":false,"internalType":"uint256","name":"value","type":"uint256"}],"name":"Transfer","type":"event"},{"anonymous":false,"inputs":[{"indexed":false,"internalType":"address","name":"account","type":"address"}],"name":"Unpaused","type":"event"},{"anonymous":false,"inputs":[{"indexed":false,"internalType":"address","name":"newDevelopmentTeamWallet","type":"address"},{"indexed":false,"internalType":"address","name":"newLiquidityReserveWallet","type":"address"},{"indexed":false,"internalType":"address","name":"newStrategicPartnershipsWallet","type":"address"}],"name":"WalletsUpdated","type":"event"},{"anonymous":false,"inputs":[{"indexed":true,"internalType":"address","name":"redeemer","type":"address"},{"indexed":false,"internalType":"uint256","name":"tokenAmount","type":"uint256"},{"indexed":false,"internalType":"uint256","name":"waterAmount","type":"uint256"}],"name":"WaterRedeemed","type":"event"},{"inputs":[],"name":"MAX_COMMUNITY_ALLOCATION","outputs":[{"internalType":"uint256","name":"","type":"uint256"}],"stateMutability":"view","type":"function"},{"inputs":[],"name":"MAX_CONSULTANTS_ALLOCATION","outputs":[{"internalType":"uint256","name":"","type":"uint256"}],"stateMutability":"view","type":"function"},{"inputs":[],"name":"MAX_LIQUIDITY_ALLOCATION","outputs":[{"internalType":"uint256","name":"","type":"uint256"}],"stateMutability":"view","type":"function"},{"inputs":[],"name":"MAX_PARTNERSHIPS_ALLOCATION","outputs":[{"internalType":"uint256","name":"","type":"uint256"}],"stateMutability":"view","type":"function"},{"inputs":[],"name":"MAX_PUBLIC_ALLOCATION","outputs":[{"internalType":"uint256","name":"","type":"uint256"}],"stateMutability":"view","type":"function"},{"inputs":[],"name":"MAX_SUPPLY","outputs":[{"internalType":"uint256","name":"","type":"uint256"}],"stateMutability":"view","type":"function"},{"inputs":[],"name":"MAX_TEAM_ALLOCATION","outputs":[{"internalType":"uint256","name":"","type":"uint256"}],"stateMutability":"view","type":"function"},{"inputs":[],"name":"MIN_REDEMPTION_AMOUNT","outputs":[{"internalType":"uint256","name":"","type":"uint256"}],"stateMutability":"view","type":"function"},{"inputs":[],"name":"PUBLIC_ALLOCATION_PERCENTAGE","outputs":[{"internalType":"uint256","name":"","type":"uint256"}],"stateMutability":"view","type":"function"},{"inputs":[],"name":"TOKEN_PRICE_USD","outputs":[{"internalType":"uint256","name":"","type":"uint256"}],"stateMutability":"view","type":"function"},{"inputs":[{"internalType":"address","name":"owner","type":"address"},{"internalType":"address","name":"spender","type":"address"}],"name":"allowance","outputs":[{"internalType":"uint256","name":"","type":"uint256"}],"stateMutability":"view","type":"function"},{"inputs":[{"internalType":"address","name":"spender","type":"address"},{"internalType":"uint256","name":"value","type":"uint256"}],"name":"approve","outputs":[{"internalType":"bool","name":"","type":"bool"}],"stateMutability":"nonpayable","type":"function"},{"inputs":[{"internalType":"address","name":"account","type":"address"}],"name":"balanceOf","outputs":[{"internalType":"uint256","name":"","type":"uint256"}],"stateMutability":"view","type":"function"},{"inputs":[{"internalType":"address[]","name":"_addresses","type":"address[]"},{"internalType":"bool","name":"_status","type":"bool"}],"name":"batchUpdateKycStatus","outputs":[],"stateMutability":"nonpayable","type":"function"},{"inputs":[{"internalType":"uint256","name":"value","type":"uint256"}],"name":"burn","outputs":[],"stateMutability":"nonpayable","type":"function"},{"inputs":[{"internalType":"address","name":"account","type":"address"},{"internalType":"uint256","name":"value","type":"uint256"}],"name":"burnFrom","outputs":[],"stateMutability":"nonpayable","type":"function"},{"inputs":[],"name":"decimals","outputs":[{"internalType":"uint8","name":"","type":"uint8"}],"stateMutability":"view","type":"function"},{"inputs":[],"name":"developmentTeamWallet","outputs":[{"internalType":"address","name":"","type":"address"}],"stateMutability":"view","type":"function"},{"inputs":[{"internalType":"uint256","name":"_newEndTime","type":"uint256"}],"name":"extendPresale","outputs":[],"stateMutability":"nonpayable","type":"function"},{"inputs":[{"internalType":"address","name":"","type":"address"}],"name":"kycApproved","outputs":[{"internalType":"bool","name":"","type":"bool"}],"stateMutability":"view","type":"function"},{"inputs":[],"name":"liquidityReserveWallet","outputs":[{"internalType":"address","name":"","type":"address"}],"stateMutability":"view","type":"function"},{"inputs":[{"internalType":"address","name":"to","type":"address"},{"internalType":"uint256","name":"amount","type":"uint256"}],"name":"mintCommunityTokens","outputs":[],"stateMutability":"nonpayable","type":"function"},{"inputs":[{"internalType":"address","name":"to","type":"address"},{"internalType":"uint256","name":"amount","type":"uint256"}],"name":"mintConsultantsTokens","outputs":[],"stateMutability":"nonpayable","type":"function"},{"inputs":[{"internalType":"uint256","name":"amount","type":"uint256"}],"name":"mintLiquidityTokens","outputs":[],"stateMutability":"nonpayable","type":"function"},{"inputs":[{"internalType":"uint256","name":"amount","type":"uint256"}],"name":"mintPartnershipsTokens","outputs":[],"stateMutability":"nonpayable","type":"function"},{"inputs":[{"internalType":"address","name":"to","type":"address"},{"internalType":"uint256","name":"amount","type":"uint256"}],"name":"mintPresaleTokens","outputs":[],"stateMutability":"nonpayable","type":"function"},{"inputs":[{"internalType":"uint256","name":"amount","type":"uint256"}],"name":"mintTeamTokens","outputs":[],"stateMutability":"nonpayable","type":"function"},{"inputs":[],"name":"name","outputs":[{"internalType":"string","name":"","type":"string"}],"stateMutability":"view","type":"function"},{"inputs":[],"name":"owner","outputs":[{"internalType":"address","name":"","type":"address"}],"stateMutability":"view","type":"function"},{"inputs":[],"name":"pause","outputs":[],"stateMutability":"nonpayable","type":"function"},{"inputs":[],"name":"paused","outputs":[{"internalType":"bool","name":"","type":"bool"}],"stateMutability":"view","type":"function"},{"inputs":[],"name":"presaleContractAddress","outputs":[{"internalType":"address","name":"","type":"address"}],"stateMutability":"view","type":"function"},{"inputs":[],"name":"presaleEndTime","outputs":[{"internalType":"uint256","name":"","type":"uint256"}],"stateMutability":"view","type":"function"},{"inputs":[{"internalType":"address","name":"buyer","type":"address"},{"internalType":"uint256","name":"amount","type":"uint256"},{"internalType":"string","name":"paymentMethod","type":"string"}],"name":"recordPurchase","outputs":[],"stateMutability":"nonpayable","type":"function"},{"inputs":[{"internalType":"uint256","name":"amount","type":"uint256"}],"name":"redeemWater","outputs":[],"stateMutability":"nonpayable","type":"function"},{"inputs":[],"name":"renounceOwnership","outputs":[],"stateMutability":"nonpayable","type":"function"},{"inputs":[],"name":"strategicPartnershipsWallet","outputs":[{"internalType":"address","name":"","type":"address"}],"stateMutability":"view","type":"function"},{"inputs":[],"name":"symbol","outputs":[{"internalType":"string","name":"","type":"string"}],"stateMutability":"view","type":"function"},{"inputs":[],"name":"totalCommunityAllocation","outputs":[{"internalType":"uint256","name":"","type":"uint256"}],"stateMutability":"view","type":"function"},{"inputs":[],"name":"totalConsultantsAllocation","outputs":[{"internalType":"uint256","name":"","type":"uint256"}],"stateMutability":"view","type":"function"},{"inputs":[],"name":"totalLiquidityAllocation","outputs":[{"internalType":"uint256","name":"","type":"uint256"}],"stateMutability":"view","type":"function"},{"inputs":[],"name":"totalPartnershipsAllocation","outputs":[{"internalType":"uint256","name":"","type":"uint256"}],"stateMutability":"view","type":"function"},{"inputs":[],"name":"totalPublicAllocation","outputs":[{"internalType":"uint256","name":"","type":"uint256"}],"stateMutability":"view","type":"function"},{"inputs":[],"name":"totalSupply","outputs":[{"internalType":"uint256","name":"","type":"uint256"}],"stateMutability":"view","type":"function"},{"inputs":[],"name":"totalTeamAllocation","outputs":[{"internalType":"uint256","name":"","type":"uint256"}],"stateMutability":"view","type":"function"},{"inputs":[{"internalType":"address","name":"to","type":"address"},{"internalType":"uint256","name":"value","type":"uint256"}],"name":"transfer","outputs":[{"internalType":"bool","name":"","type":"bool"}],"stateMutability":"nonpayable","type":"function"},{"inputs":[{"internalType":"address","name":"from","type":"address"},{"internalType":"address","name":"to","type":"address"},{"internalType":"uint256","name":"value","type":"uint256"}],"name":"transferFrom","outputs":[{"internalType":"bool","name":"","type":"bool"}],"stateMutability":"nonpayable","type":"function"},{"inputs":[{"internalType":"address","name":"newOwner","type":"address"}],"name":"transferOwnership","outputs":[],"stateMutability":"nonpayable","type":"function"},{"inputs":[],"name":"unpause","outputs":[],"stateMutability":"nonpayable","type":"function"},{"inputs":[{"internalType":"address","name":"_address","type":"address"},{"internalType":"bool","name":"_status","type":"bool"}],"name":"updateKycStatus","outputs":[],"stateMutability":"nonpayable","type":"function"},{"inputs":[{"internalType":"address","name":"_presaleContractAddress","type":"address"}],"name":"updatePresaleContract","outputs":[],"stateMutability":"nonpayable","type":"function"},{"inputs":[{"internalType":"address","name":"_developmentTeamWallet","type":"address"},{"internalType":"address","name":"_liquidityReserveWallet","type":"address"},{"internalType":"address","name":"_strategicPartnershipsWallet","type":"address"}],"name":"updateWallets","outputs":[],"stateMutability":"nonpayable","type":"function"}],"evm":{"bytecode":{"linkReferences":{},"object":"60806040523480156200001157600080fd5b506040516200475d3803806200475d8339818101604052810190620000379190620004de565b336040518060400160405280601381526020017f48616e756d616e20576174657220546f6b656e000000000000000000000000008152506040518060400160405280600381526020017f48575400000000000000000000000000000000000000000000000000000000008152508160039081620000b59190620007b4565b508060049081620000c79190620007b4565b505050600073ffffffffffffffffffffffffffffffffffffffff168173ffffffffffffffffffffffffffffffffffffffff16036200013f5760006040517f1e4fbdf7000000000000000000000000000000000000000000000000000000008152600401620001369190620008ac565b60405180910390fd5b6200015081620003ae60201b60201c565b506000600560146101000a81548160ff0219169083151502179055506001600681905550600073ffffffffffffffffffffffffffffffffffffffff168373ffffffffffffffffffffffffffffffffffffffff1603620001e6576040517f08c379a0000000000000000000000000000000000000000000000000000000008152600401620001dd9062000950565b60405180910390fd5b600073ffffffffffffffffffffffffffffffffffffffff168273ffffffffffffffffffffffffffffffffffffffff160362000258576040517f08c379a00000000000000000000000000000000000000000000000000000000081526004016200024f90620009e8565b60405180910390fd5b600073ffffffffffffffffffffffffffffffffffffffff168173ffffffffffffffffffffffffffffffffffffffff1603620002ca576040517f08c379a0000000000000000000000000000000000000000000000000000000008152600401620002c19062000a80565b60405180910390fd5b82600860006101000a81548173ffffffffffffffffffffffffffffffffffffffff021916908373ffffffffffffffffffffffffffffffffffffffff16021790555081600960006101000a81548173ffffffffffffffffffffffffffffffffffffffff021916908373ffffffffffffffffffffffffffffffffffffffff16021790555080600a60006101000a81548173ffffffffffffffffffffffffffffffffffffffff021916908373ffffffffffffffffffffffffffffffffffffffff1602179055506309660180426200039f919062000ad1565b60078190555050505062000b0c565b6000600560009054906101000a900473ffffffffffffffffffffffffffffffffffffffff16905081600560006101000a81548173ffffffffffffffffffffffffffffffffffffffff021916908373ffffffffffffffffffffffffffffffffffffffff1602179055508173ffffffffffffffffffffffffffffffffffffffff168173ffffffffffffffffffffffffffffffffffffffff167f8be0079c531659141344cd1fd0a4f28419497f9722a3daafe3b4186f6b6457e060405160405180910390a35050565b600080fd5b600073ffffffffffffffffffffffffffffffffffffffff82169050919050565b6000620004a68262000479565b9050919050565b620004b88162000499565b8114620004c457600080fd5b50565b600081519050620004d881620004ad565b92915050565b600080600060608486031215620004fa57620004f962000474565b5b60006200050a86828701620004c7565b93505060206200051d86828701620004c7565b92505060406200053086828701620004c7565b9150509250925092565b600081519050919050565b7f4e487b7100000000000000000000000000000000000000000000000000000000600052604160045260246000fd5b7f4e487b7100000000000000000000000000000000000000000000000000000000600052602260045260246000fd5b60006002820490506001821680620005bc57607f821691505b602082108103620005d257620005d162000574565b5b50919050565b60008190508160005260206000209050919050565b60006020601f8301049050919050565b600082821b905092915050565b6000600883026200063c7fffffffffffffffffffffffffffffffffffffffffffffffffffffffffffffffff82620005fd565b620006488683620005fd565b95508019841693508086168417925050509392505050565b6000819050919050565b6000819050919050565b6000620006956200068f620006898462000660565b6200066a565b62000660565b9050919050565b6000819050919050565b620006b18362000674565b620006c9620006c0826200069c565b8484546200060a565b825550505050565b600090565b620006e0620006d1565b620006ed818484620006a6565b505050565b5b81811015620007155762000709600082620006d6565b600181019050620006f3565b5050565b601f82111562000764576200072e81620005d8565b6200073984620005ed565b8101602085101562000749578190505b620007616200075885620005ed565b830182620006f2565b50505b505050565b600082821c905092915050565b6000620007896000198460080262000769565b1980831691505092915050565b6000620007a4838362000776565b9150826002028217905092915050565b620007bf826200053a565b67ffffffffffffffff811115620007db57620007da62000545565b5b620007e78254620005a3565b620007f482828562000719565b600060209050601f8311600181146200082c576000841562000817578287015190505b62000823858262000796565b86555062000893565b601f1984166200083c86620005d8565b60005b8281101562000866578489015182556001820191506020850194506020810190506200083f565b8683101562000886578489015162000882601f89168262000776565b8355505b6001600288020188555050505b505050505050565b620008a68162000499565b82525050565b6000602082019050620008c360008301846200089b565b92915050565b600082825260208201905092915050565b7f446576656c6f706d656e74207465616d2077616c6c65742063616e6e6f74206260008201527f65207a65726f2061646472657373000000000000000000000000000000000000602082015250565b600062000938602e83620008c9565b91506200094582620008da565b604082019050919050565b600060208201905081810360008301526200096b8162000929565b9050919050565b7f4c697175696469747920726573657276652077616c6c65742063616e6e6f742060008201527f6265207a65726f20616464726573730000000000000000000000000000000000602082015250565b6000620009d0602f83620008c9565b9150620009dd8262000972565b604082019050919050565b6000602082019050818103600083015262000a0381620009c1565b9050919050565b7f53747261746567696320706172746e657273686970732077616c6c657420636160008201527f6e6e6f74206265207a65726f2061646472657373000000000000000000000000602082015250565b600062000a68603483620008c9565b915062000a758262000a0a565b604082019050919050565b6000602082019050818103600083015262000a9b8162000a59565b9050919050565b7f4e487b7100000000000000000000000000000000000000000000000000000000600052601160045260246000fd5b600062000ade8262000660565b915062000aeb8362000660565b925082820190508082111562000b065762000b0562000aa2565b5b92915050565b613c418062000b1c6000396000f3fe608060405234801561001057600080fd5b506004361061030c5760003560e01c80636ce282151161019d57806395d89b41116100e9578063dc3a771d116100a2578063edc2f6b11161007c578063edc2f6b1146108c5578063f00126ce146108e1578063f2fde38b146108ff578063f7a182f51461091b5761030c565b8063dc3a771d1461085b578063dd62ed3e14610879578063dd76c8b7146108a95761030c565b806395d89b4114610795578063980be474146107b3578063a9059cbb146107d1578063bf44eb0314610801578063bfa194161461081f578063ce25af151461083d5761030c565b806379cc6790116101565780638ab58e5a116101305780638ab58e5a1461071f5780638d4283981461073d5780638da5cb5b1461075b5780638ed7eea8146107795761030c565b806379cc6790146106dd5780637d81d14c146106f95780638456cb59146107155761030c565b80636ce282151461062f5780636f5975531461064d57806370a082311461066957806370d8c02a14610699578063715018a6146106b757806373d0fdf8146106c15761030c565b8063313ce5671161025c578063497cd096116102155780635c975abb116101ef5780635c975abb146105a95780636641cc64146105c757806368b8b628146105f75780636a229698146106135761030c565b8063497cd096146105515780634c4c62f71461056f5780635c27cdc31461058d5761030c565b8063313ce567146104b357806332cb6b0c146104d157806336957556146104ef57806339c485561461050d5780633f4ba83a1461052b57806342966c68146105355761030c565b8063147c9f6d116102c957806321345f1f116102a357806321345f1f1461042b57806323b872dd14610449578063249b7c191461047957806330b2b8aa146104975761030c565b8063147c9f6d146103d357806318160ddd146103ef5780631a8459aa1461040d5761030c565b8063018c65c21461031157806306fdde031461032f578063095ea7b31461034d5780630ee324ec1461037d5780631124f7dd1461039b57806311a9240a146103b7575b600080fd5b610319610939565b6040516103269190612a3a565b60405180910390f35b61033761093f565b6040516103449190612ae5565b60405180910390f35b61036760048036038101906103629190612b9b565b6109d1565b6040516103749190612bf6565b60405180910390f35b6103856109f4565b6040516103929190612a3a565b60405180910390f35b6103b560048036038101906103b09190612c11565b6109fa565b005b6103d160048036038101906103cc9190612c6a565b610b10565b005b6103ed60048036038101906103e89190612caa565b610bc1565b005b6103f7610e19565b6040516104049190612a3a565b60405180910390f35b610415610e23565b6040516104229190612a3a565b60405180910390f35b610433610e4b565b6040516104409190612d0c565b60405180910390f35b610463600480360381019061045e9190612d27565b610e71565b6040516104709190612bf6565b60405180910390f35b610481610ea0565b60405161048e9190612a3a565b60405180910390f35b6104b160048036038101906104ac9190612b9b565b610ea6565b005b6104bb611141565b6040516104c89190612d96565b60405180910390f35b6104d961114a565b6040516104e69190612a3a565b60405180910390f35b6104f761115a565b6040516105049190612a3a565b60405180910390f35b610515611182565b6040516105229190612a3a565b60405180910390f35b6105336111aa565b005b61054f600480360381019061054a9190612db1565b6111bc565b005b6105596111d0565b6040516105669190612a3a565b60405180910390f35b6105776111f8565b6040516105849190612a3a565b60405180910390f35b6105a760048036038101906105a29190612db1565b6111fd565b005b6105b161131c565b6040516105be9190612bf6565b60405180910390f35b6105e160048036038101906105dc9190612c11565b611333565b6040516105ee9190612bf6565b60405180910390f35b610611600480360381019061060c9190612b9b565b611353565b005b61062d60048036038101906106289190612db1565b6114c0565b005b6106376115df565b6040516106449190612a3a565b60405180910390f35b61066760048036038101906106629190612e43565b6115e5565b005b610683600480360381019061067e9190612c11565b611754565b6040516106909190612a3a565b60405180910390f35b6106a161179c565b6040516106ae9190612a3a565b60405180910390f35b6106bf6117a2565b005b6106db60048036038101906106d69190612db1565b6117b6565b005b6106f760048036038101906106f29190612b9b565b6118d5565b005b610713600480360381019061070e9190612db1565b6118f5565b005b61071d61198c565b005b61072761199e565b6040516107349190612d0c565b60405180910390f35b6107456119c4565b6040516107529190612a3a565b60405180910390f35b6107636119c9565b6040516107709190612d0c565b60405180910390f35b610793600480360381019061078e9190612b9b565b6119f3565b005b61079d611b60565b6040516107aa9190612ae5565b60405180910390f35b6107bb611bf2565b6040516107c89190612a3a565b60405180910390f35b6107eb60048036038101906107e69190612b9b565b611bf8565b6040516107f89190612bf6565b60405180910390f35b610809611c1b565b6040516108169190612d0c565b60405180910390f35b610827611c41565b6040516108349190612a3a565b60405180910390f35b610845611c69565b6040516108529190612a3a565b60405180910390f35b610863611c91565b6040516108709190612a3a565b60405180910390f35b610893600480360381019061088e9190612eb7565b611c97565b6040516108a09190612a3a565b60405180910390f35b6108c360048036038101906108be9190612db1565b611d1e565b005b6108df60048036038101906108da9190612f4d565b611eb0565b005b6108e9611fd2565b6040516108f69190612d0c565b60405180910390f35b61091960048036038101906109149190612c11565b611ff8565b005b61092361207e565b6040516109309190612a3a565b60405180910390f35b600c5481565b60606003805461094e90612fdc565b80601f016020809104026020016040519081016040528092919081815260200182805461097a90612fdc565b80156109c75780601f1061099c576101008083540402835291602001916109c7565b820191906000526020600020905b8154815290600101906020018083116109aa57829003601f168201915b5050505050905090565b6000806109dc612083565b90506109e981858561208b565b600191505092915050565b60105481565b610a0261209d565b600073ffffffffffffffffffffffffffffffffffffffff168173ffffffffffffffffffffffffffffffffffffffff1603610a71576040517f08c379a0000000000000000000000000000000000000000000000000000000008152600401610a689061307f565b60405180910390fd5b7f48db9733cbf86a2d1f8a2f6382ba5ecb3521f61be8171c2f9ed84dcb1a250b0d600b60009054906101000a900473ffffffffffffffffffffffffffffffffffffffff1682604051610ac492919061309f565b60405180910390a180600b60006101000a81548173ffffffffffffffffffffffffffffffffffffffff021916908373ffffffffffffffffffffffffffffffffffffffff16021790555050565b610b1861209d565b80601260008473ffffffffffffffffffffffffffffffffffffffff1673ffffffffffffffffffffffffffffffffffffffff16815260200190815260200160002060006101000a81548160ff0219169083151502179055508173ffffffffffffffffffffffffffffffffffffffff167f68f988a99a662709db2880bcf3565145de442766ee59e35b587df59dd619bd3d82604051610bb59190612bf6565b60405180910390a25050565b610bc961209d565b600073ffffffffffffffffffffffffffffffffffffffff168373ffffffffffffffffffffffffffffffffffffffff1603610c38576040517f08c379a0000000000000000000000000000000000000000000000000000000008152600401610c2f9061313a565b60405180910390fd5b600073ffffffffffffffffffffffffffffffffffffffff168273ffffffffffffffffffffffffffffffffffffffff1603610ca7576040517f08c379a0000000000000000000000000000000000000000000000000000000008152600401610c9e906131cc565b60405180910390fd5b600073ffffffffffffffffffffffffffffffffffffffff168173ffffffffffffffffffffffffffffffffffffffff1603610d16576040517f08c379a0000000000000000000000000000000000000000000000000000000008152600401610d0d9061325e565b60405180910390fd5b82600860006101000a81548173ffffffffffffffffffffffffffffffffffffffff021916908373ffffffffffffffffffffffffffffffffffffffff16021790555081600960006101000a81548173ffffffffffffffffffffffffffffffffffffffff021916908373ffffffffffffffffffffffffffffffffffffffff16021790555080600a60006101000a81548173ffffffffffffffffffffffffffffffffffffffff021916908373ffffffffffffffffffffffffffffffffffffffff1602179055507f2d4c6aa48812a0ea09474a961613c1a3ae652d39a1580cb1ac46ff277e6d385d838383604051610e0c9392919061327e565b60405180910390a1505050565b6000600254905090565b606460036b019d971e4fe8401e74000000610e3e91906132e4565b610e489190613355565b81565b600b60009054906101000a900473ffffffffffffffffffffffffffffffffffffffff1681565b600080610e7c612083565b9050610e89858285612124565b610e948585856121b8565b60019150509392505050565b60075481565b600b60009054906101000a900473ffffffffffffffffffffffffffffffffffffffff1673ffffffffffffffffffffffffffffffffffffffff163373ffffffffffffffffffffffffffffffffffffffff1614610f36576040517f08c379a0000000000000000000000000000000000000000000000000000000008152600401610f2d906133f8565b60405180910390fd5b600754421115610f7b576040517f08c379a0000000000000000000000000000000000000000000000000000000008152600401610f7290613464565b60405180910390fd5b610f836122ac565b610f8b6122ed565b600073ffffffffffffffffffffffffffffffffffffffff168273ffffffffffffffffffffffffffffffffffffffff1603610ffa576040517f08c379a0000000000000000000000000000000000000000000000000000000008152600401610ff1906134d0565b60405180910390fd5b6000811161103d576040517f08c379a00000000000000000000000000000000000000000000000000000000081526004016110349061353c565b60405180910390fd5b6b019d971e4fe8401e7400000081611053610e19565b61105d919061355c565b111561109e576040517f08c379a0000000000000000000000000000000000000000000000000000000008152600401611095906135dc565b60405180910390fd5b606460506b019d971e4fe8401e740000006110b991906132e4565b6110c39190613355565b81600c546110d1919061355c565b1115611112576040517f08c379a000000000000000000000000000000000000000000000000000000000815260040161110990613648565b60405180910390fd5b80600c6000828254611124919061355c565b925050819055506111358282612333565b61113d6123b5565b5050565b60006012905090565b6b019d971e4fe8401e7400000081565b606460056b019d971e4fe8401e7400000061117591906132e4565b61117f9190613355565b81565b606460036b019d971e4fe8401e7400000061119d91906132e4565b6111a79190613355565b81565b6111b261209d565b6111ba6123bf565b565b6111cd6111c7612083565b82612422565b50565b606460066b019d971e4fe8401e740000006111eb91906132e4565b6111f59190613355565b81565b605081565b61120561209d565b61120d6122ac565b6112156122ed565b60008111611258576040517f08c379a000000000000000000000000000000000000000000000000000000000815260040161124f9061353c565b60405180910390fd5b606460066b019d971e4fe8401e7400000061127391906132e4565b61127d9190613355565b81600d5461128b919061355c565b11156112cc576040517f08c379a00000000000000000000000000000000000000000000000000000000081526004016112c3906136b4565b60405180910390fd5b80600d60008282546112de919061355c565b92505081905550611311600860009054906101000a900473ffffffffffffffffffffffffffffffffffffffff1682612333565b6113196123b5565b50565b6000600560149054906101000a900460ff16905090565b60126020528060005260406000206000915054906101000a900460ff1681565b61135b61209d565b6113636122ac565b61136b6122ed565b600073ffffffffffffffffffffffffffffffffffffffff168273ffffffffffffffffffffffffffffffffffffffff16036113da576040517f08c379a00000000000000000000000000000000000000000000000000000000081526004016113d1906134d0565b60405180910390fd5b6000811161141d576040517f08c379a00000000000000000000000000000000000000000000000000000000081526004016114149061353c565b60405180910390fd5b606460036b019d971e4fe8401e7400000061143891906132e4565b6114429190613355565b81601054611450919061355c565b1115611491576040517f08c379a000000000000000000000000000000000000000000000000000000000815260040161148890613720565b60405180910390fd5b80601060008282546114a3919061355c565b925050819055506114b48282612333565b6114bc6123b5565b5050565b6114c861209d565b6114d06122ac565b6114d86122ed565b6000811161151b576040517f08c379a00000000000000000000000000000000000000000000000000000000081526004016115129061353c565b60405180910390fd5b606460056b019d971e4fe8401e7400000061153691906132e4565b6115409190613355565b81600e5461154e919061355c565b111561158f576040517f08c379a00000000000000000000000000000000000000000000000000000000081526004016115869061378c565b60405180910390fd5b80600e60008282546115a1919061355c565b925050819055506115d4600960009054906101000a900473ffffffffffffffffffffffffffffffffffffffff1682612333565b6115dc6123b5565b50565b600d5481565b6115ed61209d565b600754421115611632576040517f08c379a000000000000000000000000000000000000000000000000000000000815260040161162990613464565b60405180910390fd5b61163a6122ac565b6116426122ed565b600073ffffffffffffffffffffffffffffffffffffffff168473ffffffffffffffffffffffffffffffffffffffff16036116b1576040517f08c379a00000000000000000000000000000000000000000000000000000000081526004016116a8906137f8565b60405180910390fd5b600083116116f4576040517f08c379a00000000000000000000000000000000000000000000000000000000081526004016116eb9061353c565b60405180910390fd5b8373ffffffffffffffffffffffffffffffffffffffff167f9ffc61f9a5071474fc516dd5798d66ef34a007da20386052b5351504c0250cfe84848460405161173e93929190613854565b60405180910390a261174e6123b5565b50505050565b60008060008373ffffffffffffffffffffffffffffffffffffffff1673ffffffffffffffffffffffffffffffffffffffff168152602001908152602001600020549050919050565b600e5481565b6117aa61209d565b6117b460006124a4565b565b6117be61209d565b6117c66122ac565b6117ce6122ed565b60008111611811576040517f08c379a00000000000000000000000000000000000000000000000000000000081526004016118089061353c565b60405180910390fd5b606460036b019d971e4fe8401e7400000061182c91906132e4565b6118369190613355565b81600f54611844919061355c565b1115611885576040517f08c379a000000000000000000000000000000000000000000000000000000000815260040161187c906138d2565b60405180910390fd5b80600f6000828254611897919061355c565b925050819055506118ca600a60009054906101000a900473ffffffffffffffffffffffffffffffffffffffff1682612333565b6118d26123b5565b50565b6118e7826118e1612083565b83612124565b6118f18282612422565b5050565b6118fd61209d565b6007548111611941576040517f08c379a000000000000000000000000000000000000000000000000000000000815260040161193890613964565b60405180910390fd5b60006007549050816007819055507f36590996dea047dc12d17ec2643248f8b86eb37e78941b43d9e9049180efb7b08183604051611980929190613984565b60405180910390a15050565b61199461209d565b61199c61256a565b565b600a60009054906101000a900473ffffffffffffffffffffffffffffffffffffffff1681565b606481565b6000600560009054906101000a900473ffffffffffffffffffffffffffffffffffffffff16905090565b6119fb61209d565b611a036122ac565b611a0b6122ed565b600073ffffffffffffffffffffffffffffffffffffffff168273ffffffffffffffffffffffffffffffffffffffff1603611a7a576040517f08c379a0000000000000000000000000000000000000000000000000000000008152600401611a71906134d0565b60405180910390fd5b60008111611abd576040517f08c379a0000000000000000000000000000000000000000000000000000000008152600401611ab49061353c565b60405180910390fd5b606460036b019d971e4fe8401e74000000611ad891906132e4565b611ae29190613355565b81601154611af0919061355c565b1115611b31576040517f08c379a0000000000000000000000000000000000000000000000000000000008152600401611b28906139f9565b60405180910390fd5b8060116000828254611b43919061355c565b92505081905550611b548282612333565b611b5c6123b5565b5050565b606060048054611b6f90612fdc565b80601f0160208091040260200160405190810160405280929190818152602001828054611b9b90612fdc565b8015611be85780601f10611bbd57610100808354040283529160200191611be8565b820191906000526020600020905b815481529060010190602001808311611bcb57829003601f168201915b5050505050905090565b600f5481565b600080611c03612083565b9050611c108185856121b8565b600191505092915050565b600960009054906101000a900473ffffffffffffffffffffffffffffffffffffffff1681565b606460506b019d971e4fe8401e74000000611c5c91906132e4565b611c669190613355565b81565b606460036b019d971e4fe8401e74000000611c8491906132e4565b611c8e9190613355565b81565b60115481565b6000600160008473ffffffffffffffffffffffffffffffffffffffff1673ffffffffffffffffffffffffffffffffffffffff16815260200190815260200160002060008373ffffffffffffffffffffffffffffffffffffffff1673ffffffffffffffffffffffffffffffffffffffff16815260200190815260200160002054905092915050565b611d266122ac565b611d2e6122ed565b33601260008273ffffffffffffffffffffffffffffffffffffffff1673ffffffffffffffffffffffffffffffffffffffff16815260200190815260200160002060009054906101000a900460ff16611dbb576040517f08c379a0000000000000000000000000000000000000000000000000000000008152600401611db290613a65565b60405180910390fd5b6064821015611dff576040517f08c379a0000000000000000000000000000000000000000000000000000000008152600401611df690613ad1565b60405180910390fd5b81611e0933611754565b1015611e4a576040517f08c379a0000000000000000000000000000000000000000000000000000000008152600401611e4190613b3d565b60405180910390fd5b611e543383612422565b3373ffffffffffffffffffffffffffffffffffffffff167f78b07595117bdbf454f87aef02f3a6df3df53883360b91d5ae53fe9809299fbe8384604051611e9c929190613984565b60405180910390a250611ead6123b5565b50565b611eb861209d565b60005b83839050811015611fcc578160126000868685818110611ede57611edd613b5d565b5b9050602002016020810190611ef39190612c11565b73ffffffffffffffffffffffffffffffffffffffff1673ffffffffffffffffffffffffffffffffffffffff16815260200190815260200160002060006101000a81548160ff021916908315150217905550838382818110611f5757611f56613b5d565b5b9050602002016020810190611f6c9190612c11565b73ffffffffffffffffffffffffffffffffffffffff167f68f988a99a662709db2880bcf3565145de442766ee59e35b587df59dd619bd3d83604051611fb19190612bf6565b60405180910390a28080611fc490613b8c565b915050611ebb565b50505050565b600860009054906101000a900473ffffffffffffffffffffffffffffffffffffffff1681565b61200061209d565b600073ffffffffffffffffffffffffffffffffffffffff168173ffffffffffffffffffffffffffffffffffffffff16036120725760006040517f1e4fbdf70000000000000000000000000000000000000000000000000000000081526004016120699190612d0c565b60405180910390fd5b61207b816124a4565b50565b600281565b600033905090565b61209883838360016125cd565b505050565b6120a5612083565b73ffffffffffffffffffffffffffffffffffffffff166120c36119c9565b73ffffffffffffffffffffffffffffffffffffffff1614612122576120e6612083565b6040517f118cdaa70000000000000000000000000000000000000000000000000000000081526004016121199190612d0c565b60405180910390fd5b565b60006121308484611c97565b90507fffffffffffffffffffffffffffffffffffffffffffffffffffffffffffffffff81146121b257818110156121a2578281836040517ffb8f41b200000000000000000000000000000000000000000000000000000000815260040161219993929190613bd4565b60405180910390fd5b6121b1848484840360006125cd565b5b50505050565b600073ffffffffffffffffffffffffffffffffffffffff168373ffffffffffffffffffffffffffffffffffffffff160361222a5760006040517f96c6fd1e0000000000000000000000000000000000000000000000000000000081526004016122219190612d0c565b60405180910390fd5b600073ffffffffffffffffffffffffffffffffffffffff168273ffffffffffffffffffffffffffffffffffffffff160361229c5760006040517fec442f050000000000000000000000000000000000000000000000000000000081526004016122939190612d0c565b60405180910390fd5b6122a78383836127a4565b505050565b6122b461131c565b156122eb576040517fd93c066500000000000000000000000000000000000000000000000000000000815260040160405180910390fd5b565b600260065403612329576040517f3ee5aeb500000000000000000000000000000000000000000000000000000000815260040160405180910390fd5b6002600681905550565b600073ffffffffffffffffffffffffffffffffffffffff168273ffffffffffffffffffffffffffffffffffffffff16036123a55760006040517fec442f0500000000000000000000000000000000000000000000000000000000815260040161239c9190612d0c565b60405180910390fd5b6123b1600083836127a4565b5050565b6001600681905550565b6123c76127bc565b6000600560146101000a81548160ff0219169083151502179055507f5db9ee0a495bf2e6ff9c91a7834c1ba4fdd244a5e8aa4e537bd38aeae4b073aa61240b612083565b6040516124189190612d0c565b60405180910390a1565b600073ffffffffffffffffffffffffffffffffffffffff168273ffffffffffffffffffffffffffffffffffffffff16036124945760006040517f96c6fd1e00000000000000000000000000000000000000000000000000000000815260040161248b9190612d0c565b60405180910390fd5b6124a0826000836127a4565b5050565b6000600560009054906101000a900473ffffffffffffffffffffffffffffffffffffffff16905081600560006101000a81548173ffffffffffffffffffffffffffffffffffffffff021916908373ffffffffffffffffffffffffffffffffffffffff1602179055508173ffffffffffffffffffffffffffffffffffffffff168173ffffffffffffffffffffffffffffffffffffffff167f8be0079c531659141344cd1fd0a4f28419497f9722a3daafe3b4186f6b6457e060405160405180910390a35050565b6125726122ac565b6001600560146101000a81548160ff0219169083151502179055507f62e78cea01bee320cd4e420270b5ea74000d11b0c9f74754ebdbfc544b05a2586125b6612083565b6040516125c39190612d0c565b60405180910390a1565b600073ffffffffffffffffffffffffffffffffffffffff168473ffffffffffffffffffffffffffffffffffffffff160361263f5760006040517fe602df050000000000000000000000000000000000000000000000000000000081526004016126369190612d0c565b60405180910390fd5b600073ffffffffffffffffffffffffffffffffffffffff168373ffffffffffffffffffffffffffffffffffffffff16036126b15760006040517f94280d620000000000000000000000000000000000000000000000000000000081526004016126a89190612d0c565b60405180910390fd5b81600160008673ffffffffffffffffffffffffffffffffffffffff1673ffffffffffffffffffffffffffffffffffffffff16815260200190815260200160002060008573ffffffffffffffffffffffffffffffffffffffff1673ffffffffffffffffffffffffffffffffffffffff16815260200190815260200160002081905550801561279e578273ffffffffffffffffffffffffffffffffffffffff168473ffffffffffffffffffffffffffffffffffffffff167f8c5be1e5ebec7d5bd14f71427d1e84f3dd0314c0f7b2291e5b200ac8c7c3b925846040516127959190612a3a565b60405180910390a35b50505050565b6127ac6122ac565b6127b78383836127fc565b505050565b6127c461131c565b6127fa576040517f8dfc202b00000000000000000000000000000000000000000000000000000000815260040160405180910390fd5b565b600073ffffffffffffffffffffffffffffffffffffffff168373ffffffffffffffffffffffffffffffffffffffff160361284e578060026000828254612842919061355c565b92505081905550612921565b60008060008573ffffffffffffffffffffffffffffffffffffffff1673ffffffffffffffffffffffffffffffffffffffff168152602001908152602001600020549050818110156128da578381836040517fe450d38c0000000000000000000000000000000000000000000000000000000081526004016128d193929190613bd4565b60405180910390fd5b8181036000808673ffffffffffffffffffffffffffffffffffffffff1673ffffffffffffffffffffffffffffffffffffffff16815260200190815260200160002081905550505b600073ffffffffffffffffffffffffffffffffffffffff168273ffffffffffffffffffffffffffffffffffffffff160361296a57806002600082825403925050819055506129b7565b806000808473ffffffffffffffffffffffffffffffffffffffff1673ffffffffffffffffffffffffffffffffffffffff168152602001908152602001600020600082825401925050819055505b8173ffffffffffffffffffffffffffffffffffffffff168373ffffffffffffffffffffffffffffffffffffffff167fddf252ad1be2c89b69c2b068fc378daa952ba7f163c4a11628f55a4df523b3ef83604051612a149190612a3a565b60405180910390a3505050565b6000819050919050565b612a3481612a21565b82525050565b6000602082019050612a4f6000830184612a2b565b92915050565b600081519050919050565b600082825260208201905092915050565b60005b83811015612a8f578082015181840152602081019050612a74565b60008484015250505050565b6000601f19601f8301169050919050565b6000612ab782612a55565b612ac18185612a60565b9350612ad1818560208601612a71565b612ada81612a9b565b840191505092915050565b60006020820190508181036000830152612aff8184612aac565b905092915050565b600080fd5b600080fd5b600073ffffffffffffffffffffffffffffffffffffffff82169050919050565b6000612b3c82612b11565b9050919050565b612b4c81612b31565b8114612b5757600080fd5b50565b600081359050612b6981612b43565b92915050565b612b7881612a21565b8114612b8357600080fd5b50565b600081359050612b9581612b6f565b92915050565b60008060408385031215612bb257612bb1612b07565b5b6000612bc085828601612b5a565b9250506020612bd185828601612b86565b9150509250929050565b60008115159050919050565b612bf081612bdb565b82525050565b6000602082019050612c0b6000830184612be7565b92915050565b600060208284031215612c2757612c26612b07565b5b6000612c3584828501612b5a565b91505092915050565b612c4781612bdb565b8114612c5257600080fd5b50565b600081359050612c6481612c3e565b92915050565b60008060408385031215612c8157612c80612b07565b5b6000612c8f85828601612b5a565b9250506020612ca085828601612c55565b9150509250929050565b600080600060608486031215612cc357612cc2612b07565b5b6000612cd186828701612b5a565b9350506020612ce286828701612b5a565b9250506040612cf386828701612b5a565b9150509250925092565b612d0681612b31565b82525050565b6000602082019050612d216000830184612cfd565b92915050565b600080600060608486031215612d4057612d3f612b07565b5b6000612d4e86828701612b5a565b9350506020612d5f86828701612b5a565b9250506040612d7086828701612b86565b9150509250925092565b600060ff82169050919050565b612d9081612d7a565b82525050565b6000602082019050612dab6000830184612d87565b92915050565b600060208284031215612dc757612dc6612b07565b5b6000612dd584828501612b86565b91505092915050565b600080fd5b600080fd5b600080fd5b60008083601f840112612e0357612e02612dde565b5b8235905067ffffffffffffffff811115612e2057612e1f612de3565b5b602083019150836001820283011115612e3c57612e3b612de8565b5b9250929050565b60008060008060608587031215612e5d57612e5c612b07565b5b6000612e6b87828801612b5a565b9450506020612e7c87828801612b86565b935050604085013567ffffffffffffffff811115612e9d57612e9c612b0c565b5b612ea987828801612ded565b925092505092959194509250565b60008060408385031215612ece57612ecd612b07565b5b6000612edc85828601612b5a565b9250506020612eed85828601612b5a565b9150509250929050565b60008083601f840112612f0d57612f0c612dde565b5b8235905067ffffffffffffffff811115612f2a57612f29612de3565b5b602083019150836020820283011115612f4657612f45612de8565b5b9250929050565b600080600060408486031215612f6657612f65612b07565b5b600084013567ffffffffffffffff811115612f8457612f83612b0c565b5b612f9086828701612ef7565b93509350506020612fa386828701612c55565b9150509250925092565b7f4e487b7100000000000000000000000000000000000000000000000000000000600052602260045260246000fd5b60006002820490506001821680612ff457607f821691505b60208210810361300757613006612fad565b5b50919050565b7f50726573616c6520636f6e74726163742063616e6e6f74206265207a65726f2060008201527f6164647265737300000000000000000000000000000000000000000000000000602082015250565b6000613069602783612a60565b91506130748261300d565b604082019050919050565b600060208201905081810360008301526130988161305c565b9050919050565b60006040820190506130b46000830185612cfd565b6130c16020830184612cfd565b9392505050565b7f446576656c6f706d656e74207465616d2077616c6c65742063616e6e6f74206260008201527f65207a65726f2061646472657373000000000000000000000000000000000000602082015250565b6000613124602e83612a60565b915061312f826130c8565b604082019050919050565b6000602082019050818103600083015261315381613117565b9050919050565b7f4c697175696469747920726573657276652077616c6c65742063616e6e6f742060008201527f6265207a65726f20616464726573730000000000000000000000000000000000602082015250565b60006131b6602f83612a60565b91506131c18261315a565b604082019050919050565b600060208201905081810360008301526131e5816131a9565b9050919050565b7f53747261746567696320706172746e657273686970732077616c6c657420636160008201527f6e6e6f74206265207a65726f2061646472657373000000000000000000000000602082015250565b6000613248603483612a60565b9150613253826131ec565b604082019050919050565b600060208201905081810360008301526132778161323b565b9050919050565b60006060820190506132936000830186612cfd565b6132a06020830185612cfd565b6132ad6040830184612cfd565b949350505050565b7f4e487b7100000000000000000000000000000000000000000000000000000000600052601160045260246000fd5b60006132ef82612a21565b91506132fa83612a21565b925082820261330881612a21565b9150828204841483151761331f5761331e6132b5565b5b5092915050565b7f4e487b7100000000000000000000000000000000000000000000000000000000600052601260045260246000fd5b600061336082612a21565b915061336b83612a21565b92508261337b5761337a613326565b5b828204905092915050565b7f43616c6c6572206973206e6f74207468652070726573616c6520636f6e74726160008201527f6374000000000000000000000000000000000000000000000000000000000000602082015250565b60006133e2602283612a60565b91506133ed82613386565b604082019050919050565b60006020820190508181036000830152613411816133d5565b9050919050565b7f50726573616c6520706572696f642068617320656e6465640000000000000000600082015250565b600061344e601883612a60565b915061345982613418565b602082019050919050565b6000602082019050818103600083015261347d81613441565b9050919050565b7f43616e6e6f74206d696e7420746f207a65726f20616464726573730000000000600082015250565b60006134ba601b83612a60565b91506134c582613484565b602082019050919050565b600060208201905081810360008301526134e9816134ad565b9050919050565b7f416d6f756e74206d7573742062652067726561746572207468616e207a65726f600082015250565b6000613526602083612a60565b9150613531826134f0565b602082019050919050565b6000602082019050818103600083015261355581613519565b9050919050565b600061356782612a21565b915061357283612a21565b925082820190508082111561358a576135896132b5565b5b92915050565b7f45786365656473206d617820737570706c790000000000000000000000000000600082015250565b60006135c6601283612a60565b91506135d182613590565b602082019050919050565b600060208201905081810360008301526135f5816135b9565b9050919050565b7f45786365656473207075626c696320616c6c6f636174696f6e00000000000000600082015250565b6000613632601983612a60565b915061363d826135fc565b602082019050919050565b6000602082019050818103600083015261366181613625565b9050919050565b7f45786365656473207465616d20616c6c6f636174696f6e000000000000000000600082015250565b600061369e601783612a60565b91506136a982613668565b602082019050919050565b600060208201905081810360008301526136cd81613691565b9050919050565b7f4578636565647320636f6d6d756e69747920616c6c6f636174696f6e00000000600082015250565b600061370a601c83612a60565b9150613715826136d4565b602082019050919050565b60006020820190508181036000830152613739816136fd565b9050919050565b7f45786365656473206c697175696469747920616c6c6f636174696f6e00000000600082015250565b6000613776601c83612a60565b915061378182613740565b602082019050919050565b600060208201905081810360008301526137a581613769565b9050919050565b7f42757965722063616e6e6f74206265207a65726f206164647265737300000000600082015250565b60006137e2601c83612a60565b91506137ed826137ac565b602082019050919050565b60006020820190508181036000830152613811816137d5565b9050919050565b82818337600083830152505050565b60006138338385612a60565b9350613840838584613818565b61384983612a9b565b840190509392505050565b60006040820190506138696000830186612a2b565b818103602083015261387c818486613827565b9050949350505050565b7f4578636565647320706172746e6572736869707320616c6c6f636174696f6e00600082015250565b60006138bc601f83612a60565b91506138c782613886565b602082019050919050565b600060208201905081810360008301526138eb816138af565b9050919050565b7f4e657720656e642074696d65206d757374206265206c61746572207468616e2060008201527f63757272656e7400000000000000000000000000000000000000000000000000602082015250565b600061394e602783612a60565b9150613959826138f2565b604082019050919050565b6000602082019050818103600083015261397d81613941565b9050919050565b60006040820190506139996000830185612a2b565b6139a66020830184612a2b565b9392505050565b7f4578636565647320636f6e73756c74616e747320616c6c6f636174696f6e0000600082015250565b60006139e3601e83612a60565b91506139ee826139ad565b602082019050919050565b60006020820190508181036000830152613a12816139d6565b9050919050565b7f41646472657373206e6f74204b594320617070726f7665640000000000000000600082015250565b6000613a4f601883612a60565b9150613a5a82613a19565b602082019050919050565b60006020820190508181036000830152613a7e81613a42565b9050919050565b7f416d6f756e742062656c6f77206d696e696d756d20726564656d7074696f6e00600082015250565b6000613abb601f83612a60565b9150613ac682613a85565b602082019050919050565b60006020820190508181036000830152613aea81613aae565b9050919050565b7f496e73756666696369656e742062616c616e6365000000000000000000000000600082015250565b6000613b27601483612a60565b9150613b3282613af1565b602082019050919050565b60006020820190508181036000830152613b5681613b1a565b9050919050565b7f4e487b7100000000000000000000000000000000000000000000000000000000600052603260045260246000fd5b6000613b9782612a21565b91507fffffffffffffffffffffffffffffffffffffffffffffffffffffffffffffffff8203613bc957613bc86132b5565b5b600182019050919050565b6000606082019050613be96000830186612cfd565b613bf66020830185612a2b565b613c036040830184612a2b565b94935050505056fea2646970667358221220a544f6c355d326ca760c8e5069bab4769fd54ee527a150bdff08f49c6f2149a964736f6c63430008140033","opcodes":"PUSH1 0x80 PUSH1 0x40 MSTORE CALLVALUE DUP1 ISZERO PUSH3 0x11 JUMPI PUSH1 0x0 DUP1 REVERT JUMPDEST POP PUSH1 0x40 MLOAD PUSH3 0x475D CODESIZE SUB DUP1 PUSH3 0x475D DUP4 CODECOPY DUP2 DUP2 ADD PUSH1 0x40 MSTORE DUP2 ADD SWAP1 PUSH3 0x37 SWAP2 SWAP1 PUSH3 0x4DE JUMP JUMPDEST CALLER PUSH1 0x40 MLOAD DUP1 PUSH1 0x40 ADD PUSH1 0x40 MSTORE DUP1 PUSH1 0x13 DUP2 MSTORE PUSH1 0x20 ADD PUSH32 0x48616E756D616E20576174657220546F6B656E00000000000000000000000000 DUP2 MSTORE POP PUSH1 0x40 MLOAD DUP1 PUSH1 0x40 ADD PUSH1 0x40 MSTORE DUP1 PUSH1 0x3 DUP2 MSTORE PUSH1 0x20 ADD PUSH32 0x4857540000000000000000000000000000000000000000000000000000000000 DUP2 MSTORE POP DUP2 PUSH1 0x3 SWAP1 DUP2 PUSH3 0xB5 SWAP2 SWAP1 PUSH3 0x7B4 JUMP JUMPDEST POP DUP1 PUSH1 0x4 SWAP1 DUP2 PUSH3 0xC7 SWAP2 SWAP1 PUSH3 0x7B4 JUMP JUMPDEST POP POP POP PUSH1 0x0 PUSH20 0xFFFFFFFFFFFFFFFFFFFFFFFFFFFFFFFFFFFFFFFF AND DUP2 PUSH20 0xFFFFFFFFFFFFFFFFFFFFFFFFFFFFFFFFFFFFFFFF AND SUB PUSH3 0x13F JUMPI PUSH1 0x0 PUSH1 0x40 MLOAD PUSH32 0x1E4FBDF700000000000000000000000000000000000000000000000000000000 DUP2 MSTORE PUSH1 0x4 ADD PUSH3 0x136 SWAP2 SWAP1 PUSH3 0x8AC JUMP JUMPDEST PUSH1 0x40 MLOAD DUP1 SWAP2 SUB SWAP1 REVERT JUMPDEST PUSH3 0x150 DUP2 PUSH3 0x3AE PUSH1 0x20 SHL PUSH1 0x20 SHR JUMP JUMPDEST POP PUSH1 0x0 PUSH1 0x5 PUSH1 0x14 PUSH2 0x100 EXP DUP2 SLOAD DUP2 PUSH1 0xFF MUL NOT AND SWAP1 DUP4 ISZERO ISZERO MUL OR SWAP1 SSTORE POP PUSH1 0x1 PUSH1 0x6 DUP2 SWAP1 SSTORE POP PUSH1 0x0 PUSH20 0xFFFFFFFFFFFFFFFFFFFFFFFFFFFFFFFFFFFFFFFF AND DUP4 PUSH20 0xFFFFFFFFFFFFFFFFFFFFFFFFFFFFFFFFFFFFFFFF AND SUB PUSH3 0x1E6 JUMPI PUSH1 0x40 MLOAD PUSH32 0x8C379A000000000000000000000000000000000000000000000000000000000 DUP2 MSTORE PUSH1 0x4 ADD PUSH3 0x1DD SWAP1 PUSH3 0x950 JUMP JUMPDEST PUSH1 0x40 MLOAD DUP1 SWAP2 SUB SWAP1 REVERT JUMPDEST PUSH1 0x0 PUSH20 0xFFFFFFFFFFFFFFFFFFFFFFFFFFFFFFFFFFFFFFFF AND DUP3 PUSH20 0xFFFFFFFFFFFFFFFFFFFFFFFFFFFFFFFFFFFFFFFF AND SUB PUSH3 0x258 JUMPI PUSH1 0x40 MLOAD PUSH32 0x8C379A000000000000000000000000000000000000000000000000000000000 DUP2 MSTORE PUSH1 0x4 ADD PUSH3 0x24F SWAP1 PUSH3 0x9E8 JUMP JUMPDEST PUSH1 0x40 MLOAD DUP1 SWAP2 SUB SWAP1 REVERT JUMPDEST PUSH1 0x0 PUSH20 0xFFFFFFFFFFFFFFFFFFFFFFFFFFFFFFFFFFFFFFFF AND DUP2 PUSH20 0xFFFFFFFFFFFFFFFFFFFFFFFFFFFFFFFFFFFFFFFF AND SUB PUSH3 0x2CA JUMPI PUSH1 0x40 MLOAD PUSH32 0x8C379A000000000000000000000000000000000000000000000000000000000 DUP2 MSTORE PUSH1 0x4 ADD PUSH3 0x2C1 SWAP1 PUSH3 0xA80 JUMP JUMPDEST PUSH1 0x40 MLOAD DUP1 SWAP2 SUB SWAP1 REVERT JUMPDEST DUP3 PUSH1 0x8 PUSH1 0x0 PUSH2 0x100 EXP DUP2 SLOAD DUP2 PUSH20 0xFFFFFFFFFFFFFFFFFFFFFFFFFFFFFFFFFFFFFFFF MUL NOT AND SWAP1 DUP4 PUSH20 0xFFFFFFFFFFFFFFFFFFFFFFFFFFFFFFFFFFFFFFFF AND MUL OR SWAP1 SSTORE POP DUP2 PUSH1 0x9 PUSH1 0x0 PUSH2 0x100 EXP DUP2 SLOAD DUP2 PUSH20 0xFFFFFFFFFFFFFFFFFFFFFFFFFFFFFFFFFFFFFFFF MUL NOT AND SWAP1 DUP4 PUSH20 0xFFFFFFFFFFFFFFFFFFFFFFFFFFFFFFFFFFFFFFFF AND MUL OR SWAP1 SSTORE POP DUP1 PUSH1 0xA PUSH1 0x0 PUSH2 0x100 EXP DUP2 SLOAD DUP2 PUSH20 0xFFFFFFFFFFFFFFFFFFFFFFFFFFFFFFFFFFFFFFFF MUL NOT AND SWAP1 DUP4 PUSH20 0xFFFFFFFFFFFFFFFFFFFFFFFFFFFFFFFFFFFFFFFF AND MUL OR SWAP1 SSTORE POP PUSH4 0x9660180 TIMESTAMP PUSH3 0x39F SWAP2 SWAP1 PUSH3 0xAD1 JUMP JUMPDEST PUSH1 0x7 DUP2 SWAP1 SSTORE POP POP POP POP PUSH3 0xB0C JUMP JUMPDEST PUSH1 0x0 PUSH1 0x5 PUSH1 0x0 SWAP1 SLOAD SWAP1 PUSH2 0x100 EXP SWAP1 DIV PUSH20 0xFFFFFFFFFFFFFFFFFFFFFFFFFFFFFFFFFFFFFFFF AND SWAP1 POP DUP2 PUSH1 0x5 PUSH1 0x0 PUSH2 0x100 EXP DUP2 SLOAD DUP2 PUSH20 0xFFFFFFFFFFFFFFFFFFFFFFFFFFFFFFFFFFFFFFFF MUL NOT AND SWAP1 DUP4 PUSH20 0xFFFFFFFFFFFFFFFFFFFFFFFFFFFFFFFFFFFFFFFF AND MUL OR SWAP1 SSTORE POP DUP2 PUSH20 0xFFFFFFFFFFFFFFFFFFFFFFFFFFFFFFFFFFFFFFFF AND DUP2 PUSH20 0xFFFFFFFFFFFFFFFFFFFFFFFFFFFFFFFFFFFFFFFF AND PUSH32 0x8BE0079C531659141344CD1FD0A4F28419497F9722A3DAAFE3B4186F6B6457E0 PUSH1 0x40 MLOAD PUSH1 0x40 MLOAD DUP1 SWAP2 SUB SWAP1 LOG3 POP POP JUMP JUMPDEST PUSH1 0x0 DUP1 REVERT JUMPDEST PUSH1 0x0 PUSH20 0xFFFFFFFFFFFFFFFFFFFFFFFFFFFFFFFFFFFFFFFF DUP3 AND SWAP1 POP SWAP2 SWAP1 POP JUMP JUMPDEST PUSH1 0x0 PUSH3 0x4A6 DUP3 PUSH3 0x479 JUMP JUMPDEST SWAP1 POP SWAP2 SWAP1 POP JUMP JUMPDEST PUSH3 0x4B8 DUP2 PUSH3 0x499 JUMP JUMPDEST DUP2 EQ PUSH3 0x4C4 JUMPI PUSH1 0x0 DUP1 REVERT JUMPDEST POP JUMP JUMPDEST PUSH1 0x0 DUP2 MLOAD SWAP1 POP PUSH3 0x4D8 DUP2 PUSH3 0x4AD JUMP JUMPDEST SWAP3 SWAP2 POP POP JUMP JUMPDEST PUSH1 0x0 DUP1 PUSH1 0x0 PUSH1 0x60 DUP5 DUP7 SUB SLT ISZERO PUSH3 0x4FA JUMPI PUSH3 0x4F9 PUSH3 0x474 JUMP JUMPDEST JUMPDEST PUSH1 0x0 PUSH3 0x50A DUP7 DUP3 DUP8 ADD PUSH3 0x4C7 JUMP JUMPDEST SWAP4 POP POP PUSH1 0x20 PUSH3 0x51D DUP7 DUP3 DUP8 ADD PUSH3 0x4C7 JUMP JUMPDEST SWAP3 POP POP PUSH1 0x40 PUSH3 0x530 DUP7 DUP3 DUP8 ADD PUSH3 0x4C7 JUMP JUMPDEST SWAP2 POP POP SWAP3 POP SWAP3 POP SWAP3 JUMP JUMPDEST PUSH1 0x0 DUP2 MLOAD SWAP1 POP SWAP2 SWAP1 POP JUMP JUMPDEST PUSH32 0x4E487B7100000000000000000000000000000000000000000000000000000000 PUSH1 0x0 MSTORE PUSH1 0x41 PUSH1 0x4 MSTORE PUSH1 0x24 PUSH1 0x0 REVERT JUMPDEST PUSH32 0x4E487B7100000000000000000000000000000000000000000000000000000000 PUSH1 0x0 MSTORE PUSH1 0x22 PUSH1 0x4 MSTORE PUSH1 0x24 PUSH1 0x0 REVERT JUMPDEST PUSH1 0x0 PUSH1 0x2 DUP3 DIV SWAP1 POP PUSH1 0x1 DUP3 AND DUP1 PUSH3 0x5BC JUMPI PUSH1 0x7F DUP3 AND SWAP2 POP JUMPDEST PUSH1 0x20 DUP3 LT DUP2 SUB PUSH3 0x5D2 JUMPI PUSH3 0x5D1 PUSH3 0x574 JUMP JUMPDEST JUMPDEST POP SWAP2 SWAP1 POP JUMP JUMPDEST PUSH1 0x0 DUP2 SWAP1 POP DUP2 PUSH1 0x0 MSTORE PUSH1 0x20 PUSH1 0x0 KECCAK256 SWAP1 POP SWAP2 SWAP1 POP JUMP JUMPDEST PUSH1 0x0 PUSH1 0x20 PUSH1 0x1F DUP4 ADD DIV SWAP1 POP SWAP2 SWAP1 POP JUMP JUMPDEST PUSH1 0x0 DUP3 DUP3 SHL SWAP1 POP SWAP3 SWAP2 POP POP JUMP JUMPDEST PUSH1 0x0 PUSH1 0x8 DUP4 MUL PUSH3 0x63C PUSH32 0xFFFFFFFFFFFFFFFFFFFFFFFFFFFFFFFFFFFFFFFFFFFFFFFFFFFFFFFFFFFFFFFF DUP3 PUSH3 0x5FD JUMP JUMPDEST PUSH3 0x648 DUP7 DUP4 PUSH3 0x5FD JUMP JUMPDEST SWAP6 POP DUP1 NOT DUP5 AND SWAP4 POP DUP1 DUP7 AND DUP5 OR SWAP3 POP POP POP SWAP4 SWAP3 POP POP POP JUMP JUMPDEST PUSH1 0x0 DUP2 SWAP1 POP SWAP2 SWAP1 POP JUMP JUMPDEST PUSH1 0x0 DUP2 SWAP1 POP SWAP2 SWAP1 POP JUMP JUMPDEST PUSH1 0x0 PUSH3 0x695 PUSH3 0x68F PUSH3 0x689 DUP5 PUSH3 0x660 JUMP JUMPDEST PUSH3 0x66A JUMP JUMPDEST PUSH3 0x660 JUMP JUMPDEST SWAP1 POP SWAP2 SWAP1 POP JUMP JUMPDEST PUSH1 0x0 DUP2 SWAP1 POP SWAP2 SWAP1 POP JUMP JUMPDEST PUSH3 0x6B1 DUP4 PUSH3 0x674 JUMP JUMPDEST PUSH3 0x6C9 PUSH3 0x6C0 DUP3 PUSH3 0x69C JUMP JUMPDEST DUP5 DUP5 SLOAD PUSH3 0x60A JUMP JUMPDEST DUP3 SSTORE POP POP POP POP JUMP JUMPDEST PUSH1 0x0 SWAP1 JUMP JUMPDEST PUSH3 0x6E0 PUSH3 0x6D1 JUMP JUMPDEST PUSH3 0x6ED DUP2 DUP5 DUP5 PUSH3 0x6A6 JUMP JUMPDEST POP POP POP JUMP JUMPDEST JUMPDEST DUP2 DUP2 LT ISZERO PUSH3 0x715 JUMPI PUSH3 0x709 PUSH1 0x0 DUP3 PUSH3 0x6D6 JUMP JUMPDEST PUSH1 0x1 DUP2 ADD SWAP1 POP PUSH3 0x6F3 JUMP JUMPDEST POP POP JUMP JUMPDEST PUSH1 0x1F DUP3 GT ISZERO PUSH3 0x764 JUMPI PUSH3 0x72E DUP2 PUSH3 0x5D8 JUMP JUMPDEST PUSH3 0x739 DUP5 PUSH3 0x5ED JUMP JUMPDEST DUP2 ADD PUSH1 0x20 DUP6 LT ISZERO PUSH3 0x749 JUMPI DUP2 SWAP1 POP JUMPDEST PUSH3 0x761 PUSH3 0x758 DUP6 PUSH3 0x5ED JUMP JUMPDEST DUP4 ADD DUP3 PUSH3 0x6F2 JUMP JUMPDEST POP POP JUMPDEST POP POP POP JUMP JUMPDEST PUSH1 0x0 DUP3 DUP3 SHR SWAP1 POP SWAP3 SWAP2 POP POP JUMP JUMPDEST PUSH1 0x0 PUSH3 0x789 PUSH1 0x0 NOT DUP5 PUSH1 0x8 MUL PUSH3 0x769 JUMP JUMPDEST NOT DUP1 DUP4 AND SWAP2 POP POP SWAP3 SWAP2 POP POP JUMP JUMPDEST PUSH1 0x0 PUSH3 0x7A4 DUP4 DUP4 PUSH3 0x776 JUMP JUMPDEST SWAP2 POP DUP3 PUSH1 0x2 MUL DUP3 OR SWAP1 POP SWAP3 SWAP2 POP POP JUMP JUMPDEST PUSH3 0x7BF DUP3 PUSH3 0x53A JUMP JUMPDEST PUSH8 0xFFFFFFFFFFFFFFFF DUP2 GT ISZERO PUSH3 0x7DB JUMPI PUSH3 0x7DA PUSH3 0x545 JUMP JUMPDEST JUMPDEST PUSH3 0x7E7 DUP3 SLOAD PUSH3 0x5A3 JUMP JUMPDEST PUSH3 0x7F4 DUP3 DUP3 DUP6 PUSH3 0x719 JUMP JUMPDEST PUSH1 0x0 PUSH1 0x20 SWAP1 POP PUSH1 0x1F DUP4 GT PUSH1 0x1 DUP2 EQ PUSH3 0x82C JUMPI PUSH1 0x0 DUP5 ISZERO PUSH3 0x817 JUMPI DUP3 DUP8 ADD MLOAD SWAP1 POP JUMPDEST PUSH3 0x823 DUP6 DUP3 PUSH3 0x796 JUMP JUMPDEST DUP7 SSTORE POP PUSH3 0x893 JUMP JUMPDEST PUSH1 0x1F NOT DUP5 AND PUSH3 0x83C DUP7 PUSH3 0x5D8 JUMP JUMPDEST PUSH1 0x0 JUMPDEST DUP3 DUP2 LT ISZERO PUSH3 0x866 JUMPI DUP5 DUP10 ADD MLOAD DUP3 SSTORE PUSH1 0x1 DUP3 ADD SWAP2 POP PUSH1 0x20 DUP6 ADD SWAP5 POP PUSH1 0x20 DUP2 ADD SWAP1 POP PUSH3 0x83F JUMP JUMPDEST DUP7 DUP4 LT ISZERO PUSH3 0x886 JUMPI DUP5 DUP10 ADD MLOAD PUSH3 0x882 PUSH1 0x1F DUP10 AND DUP3 PUSH3 0x776 JUMP JUMPDEST DUP4 SSTORE POP JUMPDEST PUSH1 0x1 PUSH1 0x2 DUP9 MUL ADD DUP9 SSTORE POP POP POP JUMPDEST POP POP POP POP POP POP JUMP JUMPDEST PUSH3 0x8A6 DUP2 PUSH3 0x499 JUMP JUMPDEST DUP3 MSTORE POP POP JUMP JUMPDEST PUSH1 0x0 PUSH1 0x20 DUP3 ADD SWAP1 POP PUSH3 0x8C3 PUSH1 0x0 DUP4 ADD DUP5 PUSH3 0x89B JUMP JUMPDEST SWAP3 SWAP2 POP POP JUMP JUMPDEST PUSH1 0x0 DUP3 DUP3 MSTORE PUSH1 0x20 DUP3 ADD SWAP1 POP SWAP3 SWAP2 POP POP JUMP JUMPDEST PUSH32 0x446576656C6F706D656E74207465616D2077616C6C65742063616E6E6F742062 PUSH1 0x0 DUP3 ADD MSTORE PUSH32 0x65207A65726F2061646472657373000000000000000000000000000000000000 PUSH1 0x20 DUP3 ADD MSTORE POP JUMP JUMPDEST PUSH1 0x0 PUSH3 0x938 PUSH1 0x2E DUP4 PUSH3 0x8C9 JUMP JUMPDEST SWAP2 POP PUSH3 0x945 DUP3 PUSH3 0x8DA JUMP JUMPDEST PUSH1 0x40 DUP3 ADD SWAP1 POP SWAP2 SWAP1 POP JUMP JUMPDEST PUSH1 0x0 PUSH1 0x20 DUP3 ADD SWAP1 POP DUP2 DUP2 SUB PUSH1 0x0 DUP4 ADD MSTORE PUSH3 0x96B DUP2 PUSH3 0x929 JUMP JUMPDEST SWAP1 POP SWAP2 SWAP1 POP JUMP JUMPDEST PUSH32 0x4C697175696469747920726573657276652077616C6C65742063616E6E6F7420 PUSH1 0x0 DUP3 ADD MSTORE PUSH32 0x6265207A65726F20616464726573730000000000000000000000000000000000 PUSH1 0x20 DUP3 ADD MSTORE POP JUMP JUMPDEST PUSH1 0x0 PUSH3 0x9D0 PUSH1 0x2F DUP4 PUSH3 0x8C9 JUMP JUMPDEST SWAP2 POP PUSH3 0x9DD DUP3 PUSH3 0x972 JUMP JUMPDEST PUSH1 0x40 DUP3 ADD SWAP1 POP SWAP2 SWAP1 POP JUMP JUMPDEST PUSH1 0x0 PUSH1 0x20 DUP3 ADD SWAP1 POP DUP2 DUP2 SUB PUSH1 0x0 DUP4 ADD MSTORE PUSH3 0xA03 DUP2 PUSH3 0x9C1 JUMP JUMPDEST SWAP1 POP SWAP2 SWAP1 POP JUMP JUMPDEST PUSH32 0x53747261746567696320706172746E657273686970732077616C6C6574206361 PUSH1 0x0 DUP3 ADD MSTORE PUSH32 0x6E6E6F74206265207A65726F2061646472657373000000000000000000000000 PUSH1 0x20 DUP3 ADD MSTORE POP JUMP JUMPDEST PUSH1 0x0 PUSH3 0xA68 PUSH1 0x34 DUP4 PUSH3 0x8C9 JUMP JUMPDEST SWAP2 POP PUSH3 0xA75 DUP3 PUSH3 0xA0A JUMP JUMPDEST PUSH1 0x40 DUP3 ADD SWAP1 POP SWAP2 SWAP1 POP JUMP JUMPDEST PUSH1 0x0 PUSH1 0x20 DUP3 ADD SWAP1 POP DUP2 DUP2 SUB PUSH1 0x0 DUP4 ADD MSTORE PUSH3 0xA9B DUP2 PUSH3 0xA59 JUMP JUMPDEST SWAP1 POP SWAP2 SWAP1 POP JUMP JUMPDEST PUSH32 0x4E487B7100000000000000000000000000000000000000000000000000000000 PUSH1 0x0 MSTORE PUSH1 0x11 PUSH1 0x4 MSTORE PUSH1 0x24 PUSH1 0x0 REVERT JUMPDEST PUSH1 0x0 PUSH3 0xADE DUP3 PUSH3 0x660 JUMP JUMPDEST SWAP2 POP PUSH3 0xAEB DUP4 PUSH3 0x660 JUMP JUMPDEST SWAP3 POP DUP3 DUP3 ADD SWAP1 POP DUP1 DUP3 GT ISZERO PUSH3 0xB06 JUMPI PUSH3 0xB05 PUSH3 0xAA2 JUMP JUMPDEST JUMPDEST SWAP3 SWAP2 POP POP JUMP JUMPDEST PUSH2 0x3C41 DUP1 PUSH3 0xB1C PUSH1 0x0 CODECOPY PUSH1 0x0 RETURN INVALID PUSH1 0x80 PUSH1 0x40 MSTORE CALLVALUE DUP1 ISZERO PUSH2 0x10 JUMPI PUSH1 0x0 DUP1 REVERT JUMPDEST POP PUSH1 0x4 CALLDATASIZE LT PUSH2 0x30C JUMPI PUSH1 0x0 CALLDATALOAD PUSH1 0xE0 SHR DUP1 PUSH4 0x6CE28215 GT PUSH2 0x19D JUMPI DUP1 PUSH4 0x95D89B41 GT PUSH2 0xE9 JUMPI DUP1 PUSH4 0xDC3A771D GT PUSH2 0xA2 JUMPI DUP1 PUSH4 0xEDC2F6B1 GT PUSH2 0x7C JUMPI DUP1 PUSH4 0xEDC2F6B1 EQ PUSH2 0x8C5 JUMPI DUP1 PUSH4 0xF00126CE EQ PUSH2 0x8E1 JUMPI DUP1 PUSH4 0xF2FDE38B EQ PUSH2 0x8FF JUMPI DUP1 PUSH4 0xF7A182F5 EQ PUSH2 0x91B JUMPI PUSH2 0x30C JUMP JUMPDEST DUP1 PUSH4 0xDC3A771D EQ PUSH2 0x85B JUMPI DUP1 PUSH4 0xDD62ED3E EQ PUSH2 0x879 JUMPI DUP1 PUSH4 0xDD76C8B7 EQ PUSH2 0x8A9 JUMPI PUSH2 0x30C JUMP JUMPDEST DUP1 PUSH4 0x95D89B41 EQ PUSH2 0x795 JUMPI DUP1 PUSH4 0x980BE474 EQ PUSH2 0x7B3 JUMPI DUP1 PUSH4 0xA9059CBB EQ PUSH2 0x7D1 JUMPI DUP1 PUSH4 0xBF44EB03 EQ PUSH2 0x801 JUMPI DUP1 PUSH4 0xBFA19416 EQ PUSH2 0x81F JUMPI DUP1 PUSH4 0xCE25AF15 EQ PUSH2 0x83D JUMPI PUSH2 0x30C JUMP JUMPDEST DUP1 PUSH4 0x79CC6790 GT PUSH2 0x156 JUMPI DUP1 PUSH4 0x8AB58E5A GT PUSH2 0x130 JUMPI DUP1 PUSH4 0x8AB58E5A EQ PUSH2 0x71F JUMPI DUP1 PUSH4 0x8D428398 EQ PUSH2 0x73D JUMPI DUP1 PUSH4 0x8DA5CB5B EQ PUSH2 0x75B JUMPI DUP1 PUSH4 0x8ED7EEA8 EQ PUSH2 0x779 JUMPI PUSH2 0x30C JUMP JUMPDEST DUP1 PUSH4 0x79CC6790 EQ PUSH2 0x6DD JUMPI DUP1 PUSH4 0x7D81D14C EQ PUSH2 0x6F9 JUMPI DUP1 PUSH4 0x8456CB59 EQ PUSH2 0x715 JUMPI PUSH2 0x30C JUMP JUMPDEST DUP1 PUSH4 0x6CE28215 EQ PUSH2 0x62F JUMPI DUP1 PUSH4 0x6F597553 EQ PUSH2 0x64D JUMPI DUP1 PUSH4 0x70A08231 EQ PUSH2 0x669 JUMPI DUP1 PUSH4 0x70D8C02A EQ PUSH2 0x699 JUMPI DUP1 PUSH4 0x715018A6 EQ PUSH2 0x6B7 JUMPI DUP1 PUSH4 0x73D0FDF8 EQ PUSH2 0x6C1 JUMPI PUSH2 0x30C JUMP JUMPDEST DUP1 PUSH4 0x313CE567 GT PUSH2 0x25C JUMPI DUP1 PUSH4 0x497CD096 GT PUSH2 0x215 JUMPI DUP1 PUSH4 0x5C975ABB GT PUSH2 0x1EF JUMPI DUP1 PUSH4 0x5C975ABB EQ PUSH2 0x5A9 JUMPI DUP1 PUSH4 0x6641CC64 EQ PUSH2 0x5C7 JUMPI DUP1 PUSH4 0x68B8B628 EQ PUSH2 0x5F7 JUMPI DUP1 PUSH4 0x6A229698 EQ PUSH2 0x613 JUMPI PUSH2 0x30C JUMP JUMPDEST DUP1 PUSH4 0x497CD096 EQ PUSH2 0x551 JUMPI DUP1 PUSH4 0x4C4C62F7 EQ PUSH2 0x56F JUMPI DUP1 PUSH4 0x5C27CDC3 EQ PUSH2 0x58D JUMPI PUSH2 0x30C JUMP JUMPDEST DUP1 PUSH4 0x313CE567 EQ PUSH2 0x4B3 JUMPI DUP1 PUSH4 0x32CB6B0C EQ PUSH2 0x4D1 JUMPI DUP1 PUSH4 0x36957556 EQ PUSH2 0x4EF JUMPI DUP1 PUSH4 0x39C48556 EQ PUSH2 0x50D JUMPI DUP1 PUSH4 0x3F4BA83A EQ PUSH2 0x52B JUMPI DUP1 PUSH4 0x42966C68 EQ PUSH2 0x535 JUMPI PUSH2 0x30C JUMP JUMPDEST DUP1 PUSH4 0x147C9F6D GT PUSH2 0x2C9 JUMPI DUP1 PUSH4 0x21345F1F GT PUSH2 0x2A3 JUMPI DUP1 PUSH4 0x21345F1F EQ PUSH2 0x42B JUMPI DUP1 PUSH4 0x23B872DD EQ PUSH2 0x449 JUMPI DUP1 PUSH4 0x249B7C19 EQ PUSH2 0x479 JUMPI DUP1 PUSH4 0x30B2B8AA EQ PUSH2 0x497 JUMPI PUSH2 0x30C JUMP JUMPDEST DUP1 PUSH4 0x147C9F6D EQ PUSH2 0x3D3 JUMPI DUP1 PUSH4 0x18160DDD EQ PUSH2 0x3EF JUMPI DUP1 PUSH4 0x1A8459AA EQ PUSH2 0x40D JUMPI PUSH2 0x30C JUMP JUMPDEST DUP1 PUSH4 0x18C65C2 EQ PUSH2 0x311 JUMPI DUP1 PUSH4 0x6FDDE03 EQ PUSH2 0x32F JUMPI DUP1 PUSH4 0x95EA7B3 EQ PUSH2 0x34D JUMPI DUP1 PUSH4 0xEE324EC EQ PUSH2 0x37D JUMPI DUP1 PUSH4 0x1124F7DD EQ PUSH2 0x39B JUMPI DUP1 PUSH4 0x11A9240A EQ PUSH2 0x3B7 JUMPI JUMPDEST PUSH1 0x0 DUP1 REVERT JUMPDEST PUSH2 0x319 PUSH2 0x939 JUMP JUMPDEST PUSH1 0x40 MLOAD PUSH2 0x326 SWAP2 SWAP1 PUSH2 0x2A3A JUMP JUMPDEST PUSH1 0x40 MLOAD DUP1 SWAP2 SUB SWAP1 RETURN JUMPDEST PUSH2 0x337 PUSH2 0x93F JUMP JUMPDEST PUSH1 0x40 MLOAD PUSH2 0x344 SWAP2 SWAP1 PUSH2 0x2AE5 JUMP JUMPDEST PUSH1 0x40 MLOAD DUP1 SWAP2 SUB SWAP1 RETURN JUMPDEST PUSH2 0x367 PUSH1 0x4 DUP1 CALLDATASIZE SUB DUP2 ADD SWAP1 PUSH2 0x362 SWAP2 SWAP1 PUSH2 0x2B9B JUMP JUMPDEST PUSH2 0x9D1 JUMP JUMPDEST PUSH1 0x40 MLOAD PUSH2 0x374 SWAP2 SWAP1 PUSH2 0x2BF6 JUMP JUMPDEST PUSH1 0x40 MLOAD DUP1 SWAP2 SUB SWAP1 RETURN JUMPDEST PUSH2 0x385 PUSH2 0x9F4 JUMP JUMPDEST PUSH1 0x40 MLOAD PUSH2 0x392 SWAP2 SWAP1 PUSH2 0x2A3A JUMP JUMPDEST PUSH1 0x40 MLOAD DUP1 SWAP2 SUB SWAP1 RETURN JUMPDEST PUSH2 0x3B5 PUSH1 0x4 DUP1 CALLDATASIZE SUB DUP2 ADD SWAP1 PUSH2 0x3B0 SWAP2 SWAP1 PUSH2 0x2C11 JUMP JUMPDEST PUSH2 0x9FA JUMP JUMPDEST STOP JUMPDEST PUSH2 0x3D1 PUSH1 0x4 DUP1 CALLDATASIZE SUB DUP2 ADD SWAP1 PUSH2 0x3CC SWAP2 SWAP1 PUSH2 0x2C6A JUMP JUMPDEST PUSH2 0xB10 JUMP JUMPDEST STOP JUMPDEST PUSH2 0x3ED PUSH1 0x4 DUP1 CALLDATASIZE SUB DUP2 ADD SWAP1 PUSH2 0x3E8 SWAP2 SWAP1 PUSH2 0x2CAA JUMP JUMPDEST PUSH2 0xBC1 JUMP JUMPDEST STOP JUMPDEST PUSH2 0x3F7 PUSH2 0xE19 JUMP JUMPDEST PUSH1 0x40 MLOAD PUSH2 0x404 SWAP2 SWAP1 PUSH2 0x2A3A JUMP JUMPDEST PUSH1 0x40 MLOAD DUP1 SWAP2 SUB SWAP1 RETURN JUMPDEST PUSH2 0x415 PUSH2 0xE23 JUMP JUMPDEST PUSH1 0x40 MLOAD PUSH2 0x422 SWAP2 SWAP1 PUSH2 0x2A3A JUMP JUMPDEST PUSH1 0x40 MLOAD DUP1 SWAP2 SUB SWAP1 RETURN JUMPDEST PUSH2 0x433 PUSH2 0xE4B JUMP JUMPDEST PUSH1 0x40 MLOAD PUSH2 0x440 SWAP2 SWAP1 PUSH2 0x2D0C JUMP JUMPDEST PUSH1 0x40 MLOAD DUP1 SWAP2 SUB SWAP1 RETURN JUMPDEST PUSH2 0x463 PUSH1 0x4 DUP1 CALLDATASIZE SUB DUP2 ADD SWAP1 PUSH2 0x45E SWAP2 SWAP1 PUSH2 0x2D27 JUMP JUMPDEST PUSH2 0xE71 JUMP JUMPDEST PUSH1 0x40 MLOAD PUSH2 0x470 SWAP2 SWAP1 PUSH2 0x2BF6 JUMP JUMPDEST PUSH1 0x40 MLOAD DUP1 SWAP2 SUB SWAP1 RETURN JUMPDEST PUSH2 0x481 PUSH2 0xEA0 JUMP JUMPDEST PUSH1 0x40 MLOAD PUSH2 0x48E SWAP2 SWAP1 PUSH2 0x2A3A JUMP JUMPDEST PUSH1 0x40 MLOAD DUP1 SWAP2 SUB SWAP1 RETURN JUMPDEST PUSH2 0x4B1 PUSH1 0x4 DUP1 CALLDATASIZE SUB DUP2 ADD SWAP1 PUSH2 0x4AC SWAP2 SWAP1 PUSH2 0x2B9B JUMP JUMPDEST PUSH2 0xEA6 JUMP JUMPDEST STOP JUMPDEST PUSH2 0x4BB PUSH2 0x1141 JUMP JUMPDEST PUSH1 0x40 MLOAD PUSH2 0x4C8 SWAP2 SWAP1 PUSH2 0x2D96 JUMP JUMPDEST PUSH1 0x40 MLOAD DUP1 SWAP2 SUB SWAP1 RETURN JUMPDEST PUSH2 0x4D9 PUSH2 0x114A JUMP JUMPDEST PUSH1 0x40 MLOAD PUSH2 0x4E6 SWAP2 SWAP1 PUSH2 0x2A3A JUMP JUMPDEST PUSH1 0x40 MLOAD DUP1 SWAP2 SUB SWAP1 RETURN JUMPDEST PUSH2 0x4F7 PUSH2 0x115A JUMP JUMPDEST PUSH1 0x40 MLOAD PUSH2 0x504 SWAP2 SWAP1 PUSH2 0x2A3A JUMP JUMPDEST PUSH1 0x40 MLOAD DUP1 SWAP2 SUB SWAP1 RETURN JUMPDEST PUSH2 0x515 PUSH2 0x1182 JUMP JUMPDEST PUSH1 0x40 MLOAD PUSH2 0x522 SWAP2 SWAP1 PUSH2 0x2A3A JUMP JUMPDEST PUSH1 0x40 MLOAD DUP1 SWAP2 SUB SWAP1 RETURN JUMPDEST PUSH2 0x533 PUSH2 0x11AA JUMP JUMPDEST STOP JUMPDEST PUSH2 0x54F PUSH1 0x4 DUP1 CALLDATASIZE SUB DUP2 ADD SWAP1 PUSH2 0x54A SWAP2 SWAP1 PUSH2 0x2DB1 JUMP JUMPDEST PUSH2 0x11BC JUMP JUMPDEST STOP JUMPDEST PUSH2 0x559 PUSH2 0x11D0 JUMP JUMPDEST PUSH1 0x40 MLOAD PUSH2 0x566 SWAP2 SWAP1 PUSH2 0x2A3A JUMP JUMPDEST PUSH1 0x40 MLOAD DUP1 SWAP2 SUB SWAP1 RETURN JUMPDEST PUSH2 0x577 PUSH2 0x11F8 JUMP JUMPDEST PUSH1 0x40 MLOAD PUSH2 0x584 SWAP2 SWAP1 PUSH2 0x2A3A JUMP JUMPDEST PUSH1 0x40 MLOAD DUP1 SWAP2 SUB SWAP1 RETURN JUMPDEST PUSH2 0x5A7 PUSH1 0x4 DUP1 CALLDATASIZE SUB DUP2 ADD SWAP1 PUSH2 0x5A2 SWAP2 SWAP1 PUSH2 0x2DB1 JUMP JUMPDEST PUSH2 0x11FD JUMP JUMPDEST STOP JUMPDEST PUSH2 0x5B1 PUSH2 0x131C JUMP JUMPDEST PUSH1 0x40 MLOAD PUSH2 0x5BE SWAP2 SWAP1 PUSH2 0x2BF6 JUMP JUMPDEST PUSH1 0x40 MLOAD DUP1 SWAP2 SUB SWAP1 RETURN JUMPDEST PUSH2 0x5E1 PUSH1 0x4 DUP1 CALLDATASIZE SUB DUP2 ADD SWAP1 PUSH2 0x5DC SWAP2 SWAP1 PUSH2 0x2C11 JUMP JUMPDEST PUSH2 0x1333 JUMP JUMPDEST PUSH1 0x40 MLOAD PUSH2 0x5EE SWAP2 SWAP1 PUSH2 0x2BF6 JUMP JUMPDEST PUSH1 0x40 MLOAD DUP1 SWAP2 SUB SWAP1 RETURN JUMPDEST PUSH2 0x611 PUSH1 0x4 DUP1 CALLDATASIZE SUB DUP2 ADD SWAP1 PUSH2 0x60C SWAP2 SWAP1 PUSH2 0x2B9B JUMP JUMPDEST PUSH2 0x1353 JUMP JUMPDEST STOP JUMPDEST PUSH2 0x62D PUSH1 0x4 DUP1 CALLDATASIZE SUB DUP2 ADD SWAP1 PUSH2 0x628 SWAP2 SWAP1 PUSH2 0x2DB1 JUMP JUMPDEST PUSH2 0x14C0 JUMP JUMPDEST STOP JUMPDEST PUSH2 0x637 PUSH2 0x15DF JUMP JUMPDEST PUSH1 0x40 MLOAD PUSH2 0x644 SWAP2 SWAP1 PUSH2 0x2A3A JUMP JUMPDEST PUSH1 0x40 MLOAD DUP1 SWAP2 SUB SWAP1 RETURN JUMPDEST PUSH2 0x667 PUSH1 0x4 DUP1 CALLDATASIZE SUB DUP2 ADD SWAP1 PUSH2 0x662 SWAP2 SWAP1 PUSH2 0x2E43 JUMP JUMPDEST PUSH2 0x15E5 JUMP JUMPDEST STOP JUMPDEST PUSH2 0x683 PUSH1 0x4 DUP1 CALLDATASIZE SUB DUP2 ADD SWAP1 PUSH2 0x67E SWAP2 SWAP1 PUSH2 0x2C11 JUMP JUMPDEST PUSH2 0x1754 JUMP JUMPDEST PUSH1 0x40 MLOAD PUSH2 0x690 SWAP2 SWAP1 PUSH2 0x2A3A JUMP JUMPDEST PUSH1 0x40 MLOAD DUP1 SWAP2 SUB SWAP1 RETURN JUMPDEST PUSH2 0x6A1 PUSH2 0x179C JUMP JUMPDEST PUSH1 0x40 MLOAD PUSH2 0x6AE SWAP2 SWAP1 PUSH2 0x2A3A JUMP JUMPDEST PUSH1 0x40 MLOAD DUP1 SWAP2 SUB SWAP1 RETURN JUMPDEST PUSH2 0x6BF PUSH2 0x17A2 JUMP JUMPDEST STOP JUMPDEST PUSH2 0x6DB PUSH1 0x4 DUP1 CALLDATASIZE SUB DUP2 ADD SWAP1 PUSH2 0x6D6 SWAP2 SWAP1 PUSH2 0x2DB1 JUMP JUMPDEST PUSH2 0x17B6 JUMP JUMPDEST STOP JUMPDEST PUSH2 0x6F7 PUSH1 0x4 DUP1 CALLDATASIZE SUB DUP2 ADD SWAP1 PUSH2 0x6F2 SWAP2 SWAP1 PUSH2 0x2B9B JUMP JUMPDEST PUSH2 0x18D5 JUMP JUMPDEST STOP JUMPDEST PUSH2 0x713 PUSH1 0x4 DUP1 CALLDATASIZE SUB DUP2 ADD SWAP1 PUSH2 0x70E SWAP2 SWAP1 PUSH2 0x2DB1 JUMP JUMPDEST PUSH2 0x18F5 JUMP JUMPDEST STOP JUMPDEST PUSH2 0x71D PUSH2 0x198C JUMP JUMPDEST STOP JUMPDEST PUSH2 0x727 PUSH2 0x199E JUMP JUMPDEST PUSH1 0x40 MLOAD PUSH2 0x734 SWAP2 SWAP1 PUSH2 0x2D0C JUMP JUMPDEST PUSH1 0x40 MLOAD DUP1 SWAP2 SUB SWAP1 RETURN JUMPDEST PUSH2 0x745 PUSH2 0x19C4 JUMP JUMPDEST PUSH1 0x40 MLOAD PUSH2 0x752 SWAP2 SWAP1 PUSH2 0x2A3A JUMP JUMPDEST PUSH1 0x40 MLOAD DUP1 SWAP2 SUB SWAP1 RETURN JUMPDEST PUSH2 0x763 PUSH2 0x19C9 JUMP JUMPDEST PUSH1 0x40 MLOAD PUSH2 0x770 SWAP2 SWAP1 PUSH2 0x2D0C JUMP JUMPDEST PUSH1 0x40 MLOAD DUP1 SWAP2 SUB SWAP1 RETURN JUMPDEST PUSH2 0x793 PUSH1 0x4 DUP1 CALLDATASIZE SUB DUP2 ADD SWAP1 PUSH2 0x78E SWAP2 SWAP1 PUSH2 0x2B9B JUMP JUMPDEST PUSH2 0x19F3 JUMP JUMPDEST STOP JUMPDEST PUSH2 0x79D PUSH2 0x1B60 JUMP JUMPDEST PUSH1 0x40 MLOAD PUSH2 0x7AA SWAP2 SWAP1 PUSH2 0x2AE5 JUMP JUMPDEST PUSH1 0x40 MLOAD DUP1 SWAP2 SUB SWAP1 RETURN JUMPDEST PUSH2 0x7BB PUSH2 0x1BF2 JUMP JUMPDEST PUSH1 0x40 MLOAD PUSH2 0x7C8 SWAP2 SWAP1 PUSH2 0x2A3A JUMP JUMPDEST PUSH1 0x40 MLOAD DUP1 SWAP2 SUB SWAP1 RETURN JUMPDEST PUSH2 0x7EB PUSH1 0x4 DUP1 CALLDATASIZE SUB DUP2 ADD SWAP1 PUSH2 0x7E6 SWAP2 SWAP1 PUSH2 0x2B9B JUMP JUMPDEST PUSH2 0x1BF8 JUMP JUMPDEST PUSH1 0x40 MLOAD PUSH2 0x7F8 SWAP2 SWAP1 PUSH2 0x2BF6 JUMP JUMPDEST PUSH1 0x40 MLOAD DUP1 SWAP2 SUB SWAP1 RETURN JUMPDEST PUSH2 0x809 PUSH2 0x1C1B JUMP JUMPDEST PUSH1 0x40 MLOAD PUSH2 0x816 SWAP2 SWAP1 PUSH2 0x2D0C JUMP JUMPDEST PUSH1 0x40 MLOAD DUP1 SWAP2 SUB SWAP1 RETURN JUMPDEST PUSH2 0x827 PUSH2 0x1C41 JUMP JUMPDEST PUSH1 0x40 MLOAD PUSH2 0x834 SWAP2 SWAP1 PUSH2 0x2A3A JUMP JUMPDEST PUSH1 0x40 MLOAD DUP1 SWAP2 SUB SWAP1 RETURN JUMPDEST PUSH2 0x845 PUSH2 0x1C69 JUMP JUMPDEST PUSH1 0x40 MLOAD PUSH2 0x852 SWAP2 SWAP1 PUSH2 0x2A3A JUMP JUMPDEST PUSH1 0x40 MLOAD DUP1 SWAP2 SUB SWAP1 RETURN JUMPDEST PUSH2 0x863 PUSH2 0x1C91 JUMP JUMPDEST PUSH1 0x40 MLOAD PUSH2 0x870 SWAP2 SWAP1 PUSH2 0x2A3A JUMP JUMPDEST PUSH1 0x40 MLOAD DUP1 SWAP2 SUB SWAP1 RETURN JUMPDEST PUSH2 0x893 PUSH1 0x4 DUP1 CALLDATASIZE SUB DUP2 ADD SWAP1 PUSH2 0x88E SWAP2 SWAP1 PUSH2 0x2EB7 JUMP JUMPDEST PUSH2 0x1C97 JUMP JUMPDEST PUSH1 0x40 MLOAD PUSH2 0x8A0 SWAP2 SWAP1 PUSH2 0x2A3A JUMP JUMPDEST PUSH1 0x40 MLOAD DUP1 SWAP2 SUB SWAP1 RETURN JUMPDEST PUSH2 0x8C3 PUSH1 0x4 DUP1 CALLDATASIZE SUB DUP2 ADD SWAP1 PUSH2 0x8BE SWAP2 SWAP1 PUSH2 0x2DB1 JUMP JUMPDEST PUSH2 0x1D1E JUMP JUMPDEST STOP JUMPDEST PUSH2 0x8DF PUSH1 0x4 DUP1 CALLDATASIZE SUB DUP2 ADD SWAP1 PUSH2 0x8DA SWAP2 SWAP1 PUSH2 0x2F4D JUMP JUMPDEST PUSH2 0x1EB0 JUMP JUMPDEST STOP JUMPDEST PUSH2 0x8E9 PUSH2 0x1FD2 JUMP JUMPDEST PUSH1 0x40 MLOAD PUSH2 0x8F6 SWAP2 SWAP1 PUSH2 0x2D0C JUMP JUMPDEST PUSH1 0x40 MLOAD DUP1 SWAP2 SUB SWAP1 RETURN JUMPDEST PUSH2 0x919 PUSH1 0x4 DUP1 CALLDATASIZE SUB DUP2 ADD SWAP1 PUSH2 0x914 SWAP2 SWAP1 PUSH2 0x2C11 JUMP JUMPDEST PUSH2 0x1FF8 JUMP JUMPDEST STOP JUMPDEST PUSH2 0x923 PUSH2 0x207E JUMP JUMPDEST PUSH1 0x40 MLOAD PUSH2 0x930 SWAP2 SWAP1 PUSH2 0x2A3A JUMP JUMPDEST PUSH1 0x40 MLOAD DUP1 SWAP2 SUB SWAP1 RETURN JUMPDEST PUSH1 0xC SLOAD DUP2 JUMP JUMPDEST PUSH1 0x60 PUSH1 0x3 DUP1 SLOAD PUSH2 0x94E SWAP1 PUSH2 0x2FDC JUMP JUMPDEST DUP1 PUSH1 0x1F ADD PUSH1 0x20 DUP1 SWAP2 DIV MUL PUSH1 0x20 ADD PUSH1 0x40 MLOAD SWAP1 DUP2 ADD PUSH1 0x40 MSTORE DUP1 SWAP3 SWAP2 SWAP1 DUP2 DUP2 MSTORE PUSH1 0x20 ADD DUP3 DUP1 SLOAD PUSH2 0x97A SWAP1 PUSH2 0x2FDC JUMP JUMPDEST DUP1 ISZERO PUSH2 0x9C7 JUMPI DUP1 PUSH1 0x1F LT PUSH2 0x99C JUMPI PUSH2 0x100 DUP1 DUP4 SLOAD DIV MUL DUP4 MSTORE SWAP2 PUSH1 0x20 ADD SWAP2 PUSH2 0x9C7 JUMP JUMPDEST DUP3 ADD SWAP2 SWAP1 PUSH1 0x0 MSTORE PUSH1 0x20 PUSH1 0x0 KECCAK256 SWAP1 JUMPDEST DUP2 SLOAD DUP2 MSTORE SWAP1 PUSH1 0x1 ADD SWAP1 PUSH1 0x20 ADD DUP1 DUP4 GT PUSH2 0x9AA JUMPI DUP3 SWAP1 SUB PUSH1 0x1F AND DUP3 ADD SWAP2 JUMPDEST POP POP POP POP POP SWAP1 POP SWAP1 JUMP JUMPDEST PUSH1 0x0 DUP1 PUSH2 0x9DC PUSH2 0x2083 JUMP JUMPDEST SWAP1 POP PUSH2 0x9E9 DUP2 DUP6 DUP6 PUSH2 0x208B JUMP JUMPDEST PUSH1 0x1 SWAP2 POP POP SWAP3 SWAP2 POP POP JUMP JUMPDEST PUSH1 0x10 SLOAD DUP2 JUMP JUMPDEST PUSH2 0xA02 PUSH2 0x209D JUMP JUMPDEST PUSH1 0x0 PUSH20 0xFFFFFFFFFFFFFFFFFFFFFFFFFFFFFFFFFFFFFFFF AND DUP2 PUSH20 0xFFFFFFFFFFFFFFFFFFFFFFFFFFFFFFFFFFFFFFFF AND SUB PUSH2 0xA71 JUMPI PUSH1 0x40 MLOAD PUSH32 0x8C379A000000000000000000000000000000000000000000000000000000000 DUP2 MSTORE PUSH1 0x4 ADD PUSH2 0xA68 SWAP1 PUSH2 0x307F JUMP JUMPDEST PUSH1 0x40 MLOAD DUP1 SWAP2 SUB SWAP1 REVERT JUMPDEST PUSH32 0x48DB9733CBF86A2D1F8A2F6382BA5ECB3521F61BE8171C2F9ED84DCB1A250B0D PUSH1 0xB PUSH1 0x0 SWAP1 SLOAD SWAP1 PUSH2 0x100 EXP SWAP1 DIV PUSH20 0xFFFFFFFFFFFFFFFFFFFFFFFFFFFFFFFFFFFFFFFF AND DUP3 PUSH1 0x40 MLOAD PUSH2 0xAC4 SWAP3 SWAP2 SWAP1 PUSH2 0x309F JUMP JUMPDEST PUSH1 0x40 MLOAD DUP1 SWAP2 SUB SWAP1 LOG1 DUP1 PUSH1 0xB PUSH1 0x0 PUSH2 0x100 EXP DUP2 SLOAD DUP2 PUSH20 0xFFFFFFFFFFFFFFFFFFFFFFFFFFFFFFFFFFFFFFFF MUL NOT AND SWAP1 DUP4 PUSH20 0xFFFFFFFFFFFFFFFFFFFFFFFFFFFFFFFFFFFFFFFF AND MUL OR SWAP1 SSTORE POP POP JUMP JUMPDEST PUSH2 0xB18 PUSH2 0x209D JUMP JUMPDEST DUP1 PUSH1 0x12 PUSH1 0x0 DUP5 PUSH20 0xFFFFFFFFFFFFFFFFFFFFFFFFFFFFFFFFFFFFFFFF AND PUSH20 0xFFFFFFFFFFFFFFFFFFFFFFFFFFFFFFFFFFFFFFFF AND DUP2 MSTORE PUSH1 0x20 ADD SWAP1 DUP2 MSTORE PUSH1 0x20 ADD PUSH1 0x0 KECCAK256 PUSH1 0x0 PUSH2 0x100 EXP DUP2 SLOAD DUP2 PUSH1 0xFF MUL NOT AND SWAP1 DUP4 ISZERO ISZERO MUL OR SWAP1 SSTORE POP DUP2 PUSH20 0xFFFFFFFFFFFFFFFFFFFFFFFFFFFFFFFFFFFFFFFF AND PUSH32 0x68F988A99A662709DB2880BCF3565145DE442766EE59E35B587DF59DD619BD3D DUP3 PUSH1 0x40 MLOAD PUSH2 0xBB5 SWAP2 SWAP1 PUSH2 0x2BF6 JUMP JUMPDEST PUSH1 0x40 MLOAD DUP1 SWAP2 SUB SWAP1 LOG2 POP POP JUMP JUMPDEST PUSH2 0xBC9 PUSH2 0x209D JUMP JUMPDEST PUSH1 0x0 PUSH20 0xFFFFFFFFFFFFFFFFFFFFFFFFFFFFFFFFFFFFFFFF AND DUP4 PUSH20 0xFFFFFFFFFFFFFFFFFFFFFFFFFFFFFFFFFFFFFFFF AND SUB PUSH2 0xC38 JUMPI PUSH1 0x40 MLOAD PUSH32 0x8C379A000000000000000000000000000000000000000000000000000000000 DUP2 MSTORE PUSH1 0x4 ADD PUSH2 0xC2F SWAP1 PUSH2 0x313A JUMP JUMPDEST PUSH1 0x40 MLOAD DUP1 SWAP2 SUB SWAP1 REVERT JUMPDEST PUSH1 0x0 PUSH20 0xFFFFFFFFFFFFFFFFFFFFFFFFFFFFFFFFFFFFFFFF AND DUP3 PUSH20 0xFFFFFFFFFFFFFFFFFFFFFFFFFFFFFFFFFFFFFFFF AND SUB PUSH2 0xCA7 JUMPI PUSH1 0x40 MLOAD PUSH32 0x8C379A000000000000000000000000000000000000000000000000000000000 DUP2 MSTORE PUSH1 0x4 ADD PUSH2 0xC9E SWAP1 PUSH2 0x31CC JUMP JUMPDEST PUSH1 0x40 MLOAD DUP1 SWAP2 SUB SWAP1 REVERT JUMPDEST PUSH1 0x0 PUSH20 0xFFFFFFFFFFFFFFFFFFFFFFFFFFFFFFFFFFFFFFFF AND DUP2 PUSH20 0xFFFFFFFFFFFFFFFFFFFFFFFFFFFFFFFFFFFFFFFF AND SUB PUSH2 0xD16 JUMPI PUSH1 0x40 MLOAD PUSH32 0x8C379A000000000000000000000000000000000000000000000000000000000 DUP2 MSTORE PUSH1 0x4 ADD PUSH2 0xD0D SWAP1 PUSH2 0x325E JUMP JUMPDEST PUSH1 0x40 MLOAD DUP1 SWAP2 SUB SWAP1 REVERT JUMPDEST DUP3 PUSH1 0x8 PUSH1 0x0 PUSH2 0x100 EXP DUP2 SLOAD DUP2 PUSH20 0xFFFFFFFFFFFFFFFFFFFFFFFFFFFFFFFFFFFFFFFF MUL NOT AND SWAP1 DUP4 PUSH20 0xFFFFFFFFFFFFFFFFFFFFFFFFFFFFFFFFFFFFFFFF AND MUL OR SWAP1 SSTORE POP DUP2 PUSH1 0x9 PUSH1 0x0 PUSH2 0x100 EXP DUP2 SLOAD DUP2 PUSH20 0xFFFFFFFFFFFFFFFFFFFFFFFFFFFFFFFFFFFFFFFF MUL NOT AND SWAP1 DUP4 PUSH20 0xFFFFFFFFFFFFFFFFFFFFFFFFFFFFFFFFFFFFFFFF AND MUL OR SWAP1 SSTORE POP DUP1 PUSH1 0xA PUSH1 0x0 PUSH2 0x100 EXP DUP2 SLOAD DUP2 PUSH20 0xFFFFFFFFFFFFFFFFFFFFFFFFFFFFFFFFFFFFFFFF MUL NOT AND SWAP1 DUP4 PUSH20 0xFFFFFFFFFFFFFFFFFFFFFFFFFFFFFFFFFFFFFFFF AND MUL OR SWAP1 SSTORE POP PUSH32 0x2D4C6AA48812A0EA09474A961613C1A3AE652D39A1580CB1AC46FF277E6D385D DUP4 DUP4 DUP4 PUSH1 0x40 MLOAD PUSH2 0xE0C SWAP4 SWAP3 SWAP2 SWAP1 PUSH2 0x327E JUMP JUMPDEST PUSH1 0x40 MLOAD DUP1 SWAP2 SUB SWAP1 LOG1 POP POP POP JUMP JUMPDEST PUSH1 0x0 PUSH1 0x2 SLOAD SWAP1 POP SWAP1 JUMP JUMPDEST PUSH1 0x64 PUSH1 0x3 PUSH12 0x19D971E4FE8401E74000000 PUSH2 0xE3E SWAP2 SWAP1 PUSH2 0x32E4 JUMP JUMPDEST PUSH2 0xE48 SWAP2 SWAP1 PUSH2 0x3355 JUMP JUMPDEST DUP2 JUMP JUMPDEST PUSH1 0xB PUSH1 0x0 SWAP1 SLOAD SWAP1 PUSH2 0x100 EXP SWAP1 DIV PUSH20 0xFFFFFFFFFFFFFFFFFFFFFFFFFFFFFFFFFFFFFFFF AND DUP2 JUMP JUMPDEST PUSH1 0x0 DUP1 PUSH2 0xE7C PUSH2 0x2083 JUMP JUMPDEST SWAP1 POP PUSH2 0xE89 DUP6 DUP3 DUP6 PUSH2 0x2124 JUMP JUMPDEST PUSH2 0xE94 DUP6 DUP6 DUP6 PUSH2 0x21B8 JUMP JUMPDEST PUSH1 0x1 SWAP2 POP POP SWAP4 SWAP3 POP POP POP JUMP JUMPDEST PUSH1 0x7 SLOAD DUP2 JUMP JUMPDEST PUSH1 0xB PUSH1 0x0 SWAP1 SLOAD SWAP1 PUSH2 0x100 EXP SWAP1 DIV PUSH20 0xFFFFFFFFFFFFFFFFFFFFFFFFFFFFFFFFFFFFFFFF AND PUSH20 0xFFFFFFFFFFFFFFFFFFFFFFFFFFFFFFFFFFFFFFFF AND CALLER PUSH20 0xFFFFFFFFFFFFFFFFFFFFFFFFFFFFFFFFFFFFFFFF AND EQ PUSH2 0xF36 JUMPI PUSH1 0x40 MLOAD PUSH32 0x8C379A000000000000000000000000000000000000000000000000000000000 DUP2 MSTORE PUSH1 0x4 ADD PUSH2 0xF2D SWAP1 PUSH2 0x33F8 JUMP JUMPDEST PUSH1 0x40 MLOAD DUP1 SWAP2 SUB SWAP1 REVERT JUMPDEST PUSH1 0x7 SLOAD TIMESTAMP GT ISZERO PUSH2 0xF7B JUMPI PUSH1 0x40 MLOAD PUSH32 0x8C379A000000000000000000000000000000000000000000000000000000000 DUP2 MSTORE PUSH1 0x4 ADD PUSH2 0xF72 SWAP1 PUSH2 0x3464 JUMP JUMPDEST PUSH1 0x40 MLOAD DUP1 SWAP2 SUB SWAP1 REVERT JUMPDEST PUSH2 0xF83 PUSH2 0x22AC JUMP JUMPDEST PUSH2 0xF8B PUSH2 0x22ED JUMP JUMPDEST PUSH1 0x0 PUSH20 0xFFFFFFFFFFFFFFFFFFFFFFFFFFFFFFFFFFFFFFFF AND DUP3 PUSH20 0xFFFFFFFFFFFFFFFFFFFFFFFFFFFFFFFFFFFFFFFF AND SUB PUSH2 0xFFA JUMPI PUSH1 0x40 MLOAD PUSH32 0x8C379A000000000000000000000000000000000000000000000000000000000 DUP2 MSTORE PUSH1 0x4 ADD PUSH2 0xFF1 SWAP1 PUSH2 0x34D0 JUMP JUMPDEST PUSH1 0x40 MLOAD DUP1 SWAP2 SUB SWAP1 REVERT JUMPDEST PUSH1 0x0 DUP2 GT PUSH2 0x103D JUMPI PUSH1 0x40 MLOAD PUSH32 0x8C379A000000000000000000000000000000000000000000000000000000000 DUP2 MSTORE PUSH1 0x4 ADD PUSH2 0x1034 SWAP1 PUSH2 0x353C JUMP JUMPDEST PUSH1 0x40 MLOAD DUP1 SWAP2 SUB SWAP1 REVERT JUMPDEST PUSH12 0x19D971E4FE8401E74000000 DUP2 PUSH2 0x1053 PUSH2 0xE19 JUMP JUMPDEST PUSH2 0x105D SWAP2 SWAP1 PUSH2 0x355C JUMP JUMPDEST GT ISZERO PUSH2 0x109E JUMPI PUSH1 0x40 MLOAD PUSH32 0x8C379A000000000000000000000000000000000000000000000000000000000 DUP2 MSTORE PUSH1 0x4 ADD PUSH2 0x1095 SWAP1 PUSH2 0x35DC JUMP JUMPDEST PUSH1 0x40 MLOAD DUP1 SWAP2 SUB SWAP1 REVERT JUMPDEST PUSH1 0x64 PUSH1 0x50 PUSH12 0x19D971E4FE8401E74000000 PUSH2 0x10B9 SWAP2 SWAP1 PUSH2 0x32E4 JUMP JUMPDEST PUSH2 0x10C3 SWAP2 SWAP1 PUSH2 0x3355 JUMP JUMPDEST DUP2 PUSH1 0xC SLOAD PUSH2 0x10D1 SWAP2 SWAP1 PUSH2 0x355C JUMP JUMPDEST GT ISZERO PUSH2 0x1112 JUMPI PUSH1 0x40 MLOAD PUSH32 0x8C379A000000000000000000000000000000000000000000000000000000000 DUP2 MSTORE PUSH1 0x4 ADD PUSH2 0x1109 SWAP1 PUSH2 0x3648 JUMP JUMPDEST PUSH1 0x40 MLOAD DUP1 SWAP2 SUB SWAP1 REVERT JUMPDEST DUP1 PUSH1 0xC PUSH1 0x0 DUP3 DUP3 SLOAD PUSH2 0x1124 SWAP2 SWAP1 PUSH2 0x355C JUMP JUMPDEST SWAP3 POP POP DUP2 SWAP1 SSTORE POP PUSH2 0x1135 DUP3 DUP3 PUSH2 0x2333 JUMP JUMPDEST PUSH2 0x113D PUSH2 0x23B5 JUMP JUMPDEST POP POP JUMP JUMPDEST PUSH1 0x0 PUSH1 0x12 SWAP1 POP SWAP1 JUMP JUMPDEST PUSH12 0x19D971E4FE8401E74000000 DUP2 JUMP JUMPDEST PUSH1 0x64 PUSH1 0x5 PUSH12 0x19D971E4FE8401E74000000 PUSH2 0x1175 SWAP2 SWAP1 PUSH2 0x32E4 JUMP JUMPDEST PUSH2 0x117F SWAP2 SWAP1 PUSH2 0x3355 JUMP JUMPDEST DUP2 JUMP JUMPDEST PUSH1 0x64 PUSH1 0x3 PUSH12 0x19D971E4FE8401E74000000 PUSH2 0x119D SWAP2 SWAP1 PUSH2 0x32E4 JUMP JUMPDEST PUSH2 0x11A7 SWAP2 SWAP1 PUSH2 0x3355 JUMP JUMPDEST DUP2 JUMP JUMPDEST PUSH2 0x11B2 PUSH2 0x209D JUMP JUMPDEST PUSH2 0x11BA PUSH2 0x23BF JUMP JUMPDEST JUMP JUMPDEST PUSH2 0x11CD PUSH2 0x11C7 PUSH2 0x2083 JUMP JUMPDEST DUP3 PUSH2 0x2422 JUMP JUMPDEST POP JUMP JUMPDEST PUSH1 0x64 PUSH1 0x6 PUSH12 0x19D971E4FE8401E74000000 PUSH2 0x11EB SWAP2 SWAP1 PUSH2 0x32E4 JUMP JUMPDEST PUSH2 0x11F5 SWAP2 SWAP1 PUSH2 0x3355 JUMP JUMPDEST DUP2 JUMP JUMPDEST PUSH1 0x50 DUP2 JUMP JUMPDEST PUSH2 0x1205 PUSH2 0x209D JUMP JUMPDEST PUSH2 0x120D PUSH2 0x22AC JUMP JUMPDEST PUSH2 0x1215 PUSH2 0x22ED JUMP JUMPDEST PUSH1 0x0 DUP2 GT PUSH2 0x1258 JUMPI PUSH1 0x40 MLOAD PUSH32 0x8C379A000000000000000000000000000000000000000000000000000000000 DUP2 MSTORE PUSH1 0x4 ADD PUSH2 0x124F SWAP1 PUSH2 0x353C JUMP JUMPDEST PUSH1 0x40 MLOAD DUP1 SWAP2 SUB SWAP1 REVERT JUMPDEST PUSH1 0x64 PUSH1 0x6 PUSH12 0x19D971E4FE8401E74000000 PUSH2 0x1273 SWAP2 SWAP1 PUSH2 0x32E4 JUMP JUMPDEST PUSH2 0x127D SWAP2 SWAP1 PUSH2 0x3355 JUMP JUMPDEST DUP2 PUSH1 0xD SLOAD PUSH2 0x128B SWAP2 SWAP1 PUSH2 0x355C JUMP JUMPDEST GT ISZERO PUSH2 0x12CC JUMPI PUSH1 0x40 MLOAD PUSH32 0x8C379A000000000000000000000000000000000000000000000000000000000 DUP2 MSTORE PUSH1 0x4 ADD PUSH2 0x12C3 SWAP1 PUSH2 0x36B4 JUMP JUMPDEST PUSH1 0x40 MLOAD DUP1 SWAP2 SUB SWAP1 REVERT JUMPDEST DUP1 PUSH1 0xD PUSH1 0x0 DUP3 DUP3 SLOAD PUSH2 0x12DE SWAP2 SWAP1 PUSH2 0x355C JUMP JUMPDEST SWAP3 POP POP DUP2 SWAP1 SSTORE POP PUSH2 0x1311 PUSH1 0x8 PUSH1 0x0 SWAP1 SLOAD SWAP1 PUSH2 0x100 EXP SWAP1 DIV PUSH20 0xFFFFFFFFFFFFFFFFFFFFFFFFFFFFFFFFFFFFFFFF AND DUP3 PUSH2 0x2333 JUMP JUMPDEST PUSH2 0x1319 PUSH2 0x23B5 JUMP JUMPDEST POP JUMP JUMPDEST PUSH1 0x0 PUSH1 0x5 PUSH1 0x14 SWAP1 SLOAD SWAP1 PUSH2 0x100 EXP SWAP1 DIV PUSH1 0xFF AND SWAP1 POP SWAP1 JUMP JUMPDEST PUSH1 0x12 PUSH1 0x20 MSTORE DUP1 PUSH1 0x0 MSTORE PUSH1 0x40 PUSH1 0x0 KECCAK256 PUSH1 0x0 SWAP2 POP SLOAD SWAP1 PUSH2 0x100 EXP SWAP1 DIV PUSH1 0xFF AND DUP2 JUMP JUMPDEST PUSH2 0x135B PUSH2 0x209D JUMP JUMPDEST PUSH2 0x1363 PUSH2 0x22AC JUMP JUMPDEST PUSH2 0x136B PUSH2 0x22ED JUMP JUMPDEST PUSH1 0x0 PUSH20 0xFFFFFFFFFFFFFFFFFFFFFFFFFFFFFFFFFFFFFFFF AND DUP3 PUSH20 0xFFFFFFFFFFFFFFFFFFFFFFFFFFFFFFFFFFFFFFFF AND SUB PUSH2 0x13DA JUMPI PUSH1 0x40 MLOAD PUSH32 0x8C379A000000000000000000000000000000000000000000000000000000000 DUP2 MSTORE PUSH1 0x4 ADD PUSH2 0x13D1 SWAP1 PUSH2 0x34D0 JUMP JUMPDEST PUSH1 0x40 MLOAD DUP1 SWAP2 SUB SWAP1 REVERT JUMPDEST PUSH1 0x0 DUP2 GT PUSH2 0x141D JUMPI PUSH1 0x40 MLOAD PUSH32 0x8C379A000000000000000000000000000000000000000000000000000000000 DUP2 MSTORE PUSH1 0x4 ADD PUSH2 0x1414 SWAP1 PUSH2 0x353C JUMP JUMPDEST PUSH1 0x40 MLOAD DUP1 SWAP2 SUB SWAP1 REVERT JUMPDEST PUSH1 0x64 PUSH1 0x3 PUSH12 0x19D971E4FE8401E74000000 PUSH2 0x1438 SWAP2 SWAP1 PUSH2 0x32E4 JUMP JUMPDEST PUSH2 0x1442 SWAP2 SWAP1 PUSH2 0x3355 JUMP JUMPDEST DUP2 PUSH1 0x10 SLOAD PUSH2 0x1450 SWAP2 SWAP1 PUSH2 0x355C JUMP JUMPDEST GT ISZERO PUSH2 0x1491 JUMPI PUSH1 0x40 MLOAD PUSH32 0x8C379A000000000000000000000000000000000000000000000000000000000 DUP2 MSTORE PUSH1 0x4 ADD PUSH2 0x1488 SWAP1 PUSH2 0x3720 JUMP JUMPDEST PUSH1 0x40 MLOAD DUP1 SWAP2 SUB SWAP1 REVERT JUMPDEST DUP1 PUSH1 0x10 PUSH1 0x0 DUP3 DUP3 SLOAD PUSH2 0x14A3 SWAP2 SWAP1 PUSH2 0x355C JUMP JUMPDEST SWAP3 POP POP DUP2 SWAP1 SSTORE POP PUSH2 0x14B4 DUP3 DUP3 PUSH2 0x2333 JUMP JUMPDEST PUSH2 0x14BC PUSH2 0x23B5 JUMP JUMPDEST POP POP JUMP JUMPDEST PUSH2 0x14C8 PUSH2 0x209D JUMP JUMPDEST PUSH2 0x14D0 PUSH2 0x22AC JUMP JUMPDEST PUSH2 0x14D8 PUSH2 0x22ED JUMP JUMPDEST PUSH1 0x0 DUP2 GT PUSH2 0x151B JUMPI PUSH1 0x40 MLOAD PUSH32 0x8C379A000000000000000000000000000000000000000000000000000000000 DUP2 MSTORE PUSH1 0x4 ADD PUSH2 0x1512 SWAP1 PUSH2 0x353C JUMP JUMPDEST PUSH1 0x40 MLOAD DUP1 SWAP2 SUB SWAP1 REVERT JUMPDEST PUSH1 0x64 PUSH1 0x5 PUSH12 0x19D971E4FE8401E74000000 PUSH2 0x1536 SWAP2 SWAP1 PUSH2 0x32E4 JUMP JUMPDEST PUSH2 0x1540 SWAP2 SWAP1 PUSH2 0x3355 JUMP JUMPDEST DUP2 PUSH1 0xE SLOAD PUSH2 0x154E SWAP2 SWAP1 PUSH2 0x355C JUMP JUMPDEST GT ISZERO PUSH2 0x158F JUMPI PUSH1 0x40 MLOAD PUSH32 0x8C379A000000000000000000000000000000000000000000000000000000000 DUP2 MSTORE PUSH1 0x4 ADD PUSH2 0x1586 SWAP1 PUSH2 0x378C JUMP JUMPDEST PUSH1 0x40 MLOAD DUP1 SWAP2 SUB SWAP1 REVERT JUMPDEST DUP1 PUSH1 0xE PUSH1 0x0 DUP3 DUP3 SLOAD PUSH2 0x15A1 SWAP2 SWAP1 PUSH2 0x355C JUMP JUMPDEST SWAP3 POP POP DUP2 SWAP1 SSTORE POP PUSH2 0x15D4 PUSH1 0x9 PUSH1 0x0 SWAP1 SLOAD SWAP1 PUSH2 0x100 EXP SWAP1 DIV PUSH20 0xFFFFFFFFFFFFFFFFFFFFFFFFFFFFFFFFFFFFFFFF AND DUP3 PUSH2 0x2333 JUMP JUMPDEST PUSH2 0x15DC PUSH2 0x23B5 JUMP JUMPDEST POP JUMP JUMPDEST PUSH1 0xD SLOAD DUP2 JUMP JUMPDEST PUSH2 0x15ED PUSH2 0x209D JUMP JUMPDEST PUSH1 0x7 SLOAD TIMESTAMP GT ISZERO PUSH2 0x1632 JUMPI PUSH1 0x40 MLOAD PUSH32 0x8C379A000000000000000000000000000000000000000000000000000000000 DUP2 MSTORE PUSH1 0x4 ADD PUSH2 0x1629 SWAP1 PUSH2 0x3464 JUMP JUMPDEST PUSH1 0x40 MLOAD DUP1 SWAP2 SUB SWAP1 REVERT JUMPDEST PUSH2 0x163A PUSH2 0x22AC JUMP JUMPDEST PUSH2 0x1642 PUSH2 0x22ED JUMP JUMPDEST PUSH1 0x0 PUSH20 0xFFFFFFFFFFFFFFFFFFFFFFFFFFFFFFFFFFFFFFFF AND DUP5 PUSH20 0xFFFFFFFFFFFFFFFFFFFFFFFFFFFFFFFFFFFFFFFF AND SUB PUSH2 0x16B1 JUMPI PUSH1 0x40 MLOAD PUSH32 0x8C379A000000000000000000000000000000000000000000000000000000000 DUP2 MSTORE PUSH1 0x4 ADD PUSH2 0x16A8 SWAP1 PUSH2 0x37F8 JUMP JUMPDEST PUSH1 0x40 MLOAD DUP1 SWAP2 SUB SWAP1 REVERT JUMPDEST PUSH1 0x0 DUP4 GT PUSH2 0x16F4 JUMPI PUSH1 0x40 MLOAD PUSH32 0x8C379A000000000000000000000000000000000000000000000000000000000 DUP2 MSTORE PUSH1 0x4 ADD PUSH2 0x16EB SWAP1 PUSH2 0x353C JUMP JUMPDEST PUSH1 0x40 MLOAD DUP1 SWAP2 SUB SWAP1 REVERT JUMPDEST DUP4 PUSH20 0xFFFFFFFFFFFFFFFFFFFFFFFFFFFFFFFFFFFFFFFF AND PUSH32 0x9FFC61F9A5071474FC516DD5798D66EF34A007DA20386052B5351504C0250CFE DUP5 DUP5 DUP5 PUSH1 0x40 MLOAD PUSH2 0x173E SWAP4 SWAP3 SWAP2 SWAP1 PUSH2 0x3854 JUMP JUMPDEST PUSH1 0x40 MLOAD DUP1 SWAP2 SUB SWAP1 LOG2 PUSH2 0x174E PUSH2 0x23B5 JUMP JUMPDEST POP POP POP POP JUMP JUMPDEST PUSH1 0x0 DUP1 PUSH1 0x0 DUP4 PUSH20 0xFFFFFFFFFFFFFFFFFFFFFFFFFFFFFFFFFFFFFFFF AND PUSH20 0xFFFFFFFFFFFFFFFFFFFFFFFFFFFFFFFFFFFFFFFF AND DUP2 MSTORE PUSH1 0x20 ADD SWAP1 DUP2 MSTORE PUSH1 0x20 ADD PUSH1 0x0 KECCAK256 SLOAD SWAP1 POP SWAP2 SWAP1 POP JUMP JUMPDEST PUSH1 0xE SLOAD DUP2 JUMP JUMPDEST PUSH2 0x17AA PUSH2 0x209D JUMP JUMPDEST PUSH2 0x17B4 PUSH1 0x0 PUSH2 0x24A4 JUMP JUMPDEST JUMP JUMPDEST PUSH2 0x17BE PUSH2 0x209D JUMP JUMPDEST PUSH2 0x17C6 PUSH2 0x22AC JUMP JUMPDEST PUSH2 0x17CE PUSH2 0x22ED JUMP JUMPDEST PUSH1 0x0 DUP2 GT PUSH2 0x1811 JUMPI PUSH1 0x40 MLOAD PUSH32 0x8C379A000000000000000000000000000000000000000000000000000000000 DUP2 MSTORE PUSH1 0x4 ADD PUSH2 0x1808 SWAP1 PUSH2 0x353C JUMP JUMPDEST PUSH1 0x40 MLOAD DUP1 SWAP2 SUB SWAP1 REVERT JUMPDEST PUSH1 0x64 PUSH1 0x3 PUSH12 0x19D971E4FE8401E74000000 PUSH2 0x182C SWAP2 SWAP1 PUSH2 0x32E4 JUMP JUMPDEST PUSH2 0x1836 SWAP2 SWAP1 PUSH2 0x3355 JUMP JUMPDEST DUP2 PUSH1 0xF SLOAD PUSH2 0x1844 SWAP2 SWAP1 PUSH2 0x355C JUMP JUMPDEST GT ISZERO PUSH2 0x1885 JUMPI PUSH1 0x40 MLOAD PUSH32 0x8C379A000000000000000000000000000000000000000000000000000000000 DUP2 MSTORE PUSH1 0x4 ADD PUSH2 0x187C SWAP1 PUSH2 0x38D2 JUMP JUMPDEST PUSH1 0x40 MLOAD DUP1 SWAP2 SUB SWAP1 REVERT JUMPDEST DUP1 PUSH1 0xF PUSH1 0x0 DUP3 DUP3 SLOAD PUSH2 0x1897 SWAP2 SWAP1 PUSH2 0x355C JUMP JUMPDEST SWAP3 POP POP DUP2 SWAP1 SSTORE POP PUSH2 0x18CA PUSH1 0xA PUSH1 0x0 SWAP1 SLOAD SWAP1 PUSH2 0x100 EXP SWAP1 DIV PUSH20 0xFFFFFFFFFFFFFFFFFFFFFFFFFFFFFFFFFFFFFFFF AND DUP3 PUSH2 0x2333 JUMP JUMPDEST PUSH2 0x18D2 PUSH2 0x23B5 JUMP JUMPDEST POP JUMP JUMPDEST PUSH2 0x18E7 DUP3 PUSH2 0x18E1 PUSH2 0x2083 JUMP JUMPDEST DUP4 PUSH2 0x2124 JUMP JUMPDEST PUSH2 0x18F1 DUP3 DUP3 PUSH2 0x2422 JUMP JUMPDEST POP POP JUMP JUMPDEST PUSH2 0x18FD PUSH2 0x209D JUMP JUMPDEST PUSH1 0x7 SLOAD DUP2 GT PUSH2 0x1941 JUMPI PUSH1 0x40 MLOAD PUSH32 0x8C379A000000000000000000000000000000000000000000000000000000000 DUP2 MSTORE PUSH1 0x4 ADD PUSH2 0x1938 SWAP1 PUSH2 0x3964 JUMP JUMPDEST PUSH1 0x40 MLOAD DUP1 SWAP2 SUB SWAP1 REVERT JUMPDEST PUSH1 0x0 PUSH1 0x7 SLOAD SWAP1 POP DUP2 PUSH1 0x7 DUP2 SWAP1 SSTORE POP PUSH32 0x36590996DEA047DC12D17EC2643248F8B86EB37E78941B43D9E9049180EFB7B0 DUP2 DUP4 PUSH1 0x40 MLOAD PUSH2 0x1980 SWAP3 SWAP2 SWAP1 PUSH2 0x3984 JUMP JUMPDEST PUSH1 0x40 MLOAD DUP1 SWAP2 SUB SWAP1 LOG1 POP POP JUMP JUMPDEST PUSH2 0x1994 PUSH2 0x209D JUMP JUMPDEST PUSH2 0x199C PUSH2 0x256A JUMP JUMPDEST JUMP JUMPDEST PUSH1 0xA PUSH1 0x0 SWAP1 SLOAD SWAP1 PUSH2 0x100 EXP SWAP1 DIV PUSH20 0xFFFFFFFFFFFFFFFFFFFFFFFFFFFFFFFFFFFFFFFF AND DUP2 JUMP JUMPDEST PUSH1 0x64 DUP2 JUMP JUMPDEST PUSH1 0x0 PUSH1 0x5 PUSH1 0x0 SWAP1 SLOAD SWAP1 PUSH2 0x100 EXP SWAP1 DIV PUSH20 0xFFFFFFFFFFFFFFFFFFFFFFFFFFFFFFFFFFFFFFFF AND SWAP1 POP SWAP1 JUMP JUMPDEST PUSH2 0x19FB PUSH2 0x209D JUMP JUMPDEST PUSH2 0x1A03 PUSH2 0x22AC JUMP JUMPDEST PUSH2 0x1A0B PUSH2 0x22ED JUMP JUMPDEST PUSH1 0x0 PUSH20 0xFFFFFFFFFFFFFFFFFFFFFFFFFFFFFFFFFFFFFFFF AND DUP3 PUSH20 0xFFFFFFFFFFFFFFFFFFFFFFFFFFFFFFFFFFFFFFFF AND SUB PUSH2 0x1A7A JUMPI PUSH1 0x40 MLOAD PUSH32 0x8C379A000000000000000000000000000000000000000000000000000000000 DUP2 MSTORE PUSH1 0x4 ADD PUSH2 0x1A71 SWAP1 PUSH2 0x34D0 JUMP JUMPDEST PUSH1 0x40 MLOAD DUP1 SWAP2 SUB SWAP1 REVERT JUMPDEST PUSH1 0x0 DUP2 GT PUSH2 0x1ABD JUMPI PUSH1 0x40 MLOAD PUSH32 0x8C379A000000000000000000000000000000000000000000000000000000000 DUP2 MSTORE PUSH1 0x4 ADD PUSH2 0x1AB4 SWAP1 PUSH2 0x353C JUMP JUMPDEST PUSH1 0x40 MLOAD DUP1 SWAP2 SUB SWAP1 REVERT JUMPDEST PUSH1 0x64 PUSH1 0x3 PUSH12 0x19D971E4FE8401E74000000 PUSH2 0x1AD8 SWAP2 SWAP1 PUSH2 0x32E4 JUMP JUMPDEST PUSH2 0x1AE2 SWAP2 SWAP1 PUSH2 0x3355 JUMP JUMPDEST DUP2 PUSH1 0x11 SLOAD PUSH2 0x1AF0 SWAP2 SWAP1 PUSH2 0x355C JUMP JUMPDEST GT ISZERO PUSH2 0x1B31 JUMPI PUSH1 0x40 MLOAD PUSH32 0x8C379A000000000000000000000000000000000000000000000000000000000 DUP2 MSTORE PUSH1 0x4 ADD PUSH2 0x1B28 SWAP1 PUSH2 0x39F9 JUMP JUMPDEST PUSH1 0x40 MLOAD DUP1 SWAP2 SUB SWAP1 REVERT JUMPDEST DUP1 PUSH1 0x11 PUSH1 0x0 DUP3 DUP3 SLOAD PUSH2 0x1B43 SWAP2 SWAP1 PUSH2 0x355C JUMP JUMPDEST SWAP3 POP POP DUP2 SWAP1 SSTORE POP PUSH2 0x1B54 DUP3 DUP3 PUSH2 0x2333 JUMP JUMPDEST PUSH2 0x1B5C PUSH2 0x23B5 JUMP JUMPDEST POP POP JUMP JUMPDEST PUSH1 0x60 PUSH1 0x4 DUP1 SLOAD PUSH2 0x1B6F SWAP1 PUSH2 0x2FDC JUMP JUMPDEST DUP1 PUSH1 0x1F ADD PUSH1 0x20 DUP1 SWAP2 DIV MUL PUSH1 0x20 ADD PUSH1 0x40 MLOAD SWAP1 DUP2 ADD PUSH1 0x40 MSTORE DUP1 SWAP3 SWAP2 SWAP1 DUP2 DUP2 MSTORE PUSH1 0x20 ADD DUP3 DUP1 SLOAD PUSH2 0x1B9B SWAP1 PUSH2 0x2FDC JUMP JUMPDEST DUP1 ISZERO PUSH2 0x1BE8 JUMPI DUP1 PUSH1 0x1F LT PUSH2 0x1BBD JUMPI PUSH2 0x100 DUP1 DUP4 SLOAD DIV MUL DUP4 MSTORE SWAP2 PUSH1 0x20 ADD SWAP2 PUSH2 0x1BE8 JUMP JUMPDEST DUP3 ADD SWAP2 SWAP1 PUSH1 0x0 MSTORE PUSH1 0x20 PUSH1 0x0 KECCAK256 SWAP1 JUMPDEST DUP2 SLOAD DUP2 MSTORE SWAP1 PUSH1 0x1 ADD SWAP1 PUSH1 0x20 ADD DUP1 DUP4 GT PUSH2 0x1BCB JUMPI DUP3 SWAP1 SUB PUSH1 0x1F AND DUP3 ADD SWAP2 JUMPDEST POP POP POP POP POP SWAP1 POP SWAP1 JUMP JUMPDEST PUSH1 0xF SLOAD DUP2 JUMP JUMPDEST PUSH1 0x0 DUP1 PUSH2 0x1C03 PUSH2 0x2083 JUMP JUMPDEST SWAP1 POP PUSH2 0x1C10 DUP2 DUP6 DUP6 PUSH2 0x21B8 JUMP JUMPDEST PUSH1 0x1 SWAP2 POP POP SWAP3 SWAP2 POP POP JUMP JUMPDEST PUSH1 0x9 PUSH1 0x0 SWAP1 SLOAD SWAP1 PUSH2 0x100 EXP SWAP1 DIV PUSH20 0xFFFFFFFFFFFFFFFFFFFFFFFFFFFFFFFFFFFFFFFF AND DUP2 JUMP JUMPDEST PUSH1 0x64 PUSH1 0x50 PUSH12 0x19D971E4FE8401E74000000 PUSH2 0x1C5C SWAP2 SWAP1 PUSH2 0x32E4 JUMP JUMPDEST PUSH2 0x1C66 SWAP2 SWAP1 PUSH2 0x3355 JUMP JUMPDEST DUP2 JUMP JUMPDEST PUSH1 0x64 PUSH1 0x3 PUSH12 0x19D971E4FE8401E74000000 PUSH2 0x1C84 SWAP2 SWAP1 PUSH2 0x32E4 JUMP JUMPDEST PUSH2 0x1C8E SWAP2 SWAP1 PUSH2 0x3355 JUMP JUMPDEST DUP2 JUMP JUMPDEST PUSH1 0x11 SLOAD DUP2 JUMP JUMPDEST PUSH1 0x0 PUSH1 0x1 PUSH1 0x0 DUP5 PUSH20 0xFFFFFFFFFFFFFFFFFFFFFFFFFFFFFFFFFFFFFFFF AND PUSH20 0xFFFFFFFFFFFFFFFFFFFFFFFFFFFFFFFFFFFFFFFF AND DUP2 MSTORE PUSH1 0x20 ADD SWAP1 DUP2 MSTORE PUSH1 0x20 ADD PUSH1 0x0 KECCAK256 PUSH1 0x0 DUP4 PUSH20 0xFFFFFFFFFFFFFFFFFFFFFFFFFFFFFFFFFFFFFFFF AND PUSH20 0xFFFFFFFFFFFFFFFFFFFFFFFFFFFFFFFFFFFFFFFF AND DUP2 MSTORE PUSH1 0x20 ADD SWAP1 DUP2 MSTORE PUSH1 0x20 ADD PUSH1 0x0 KECCAK256 SLOAD SWAP1 POP SWAP3 SWAP2 POP POP JUMP JUMPDEST PUSH2 0x1D26 PUSH2 0x22AC JUMP JUMPDEST PUSH2 0x1D2E PUSH2 0x22ED JUMP JUMPDEST CALLER PUSH1 0x12 PUSH1 0x0 DUP3 PUSH20 0xFFFFFFFFFFFFFFFFFFFFFFFFFFFFFFFFFFFFFFFF AND PUSH20 0xFFFFFFFFFFFFFFFFFFFFFFFFFFFFFFFFFFFFFFFF AND DUP2 MSTORE PUSH1 0x20 ADD SWAP1 DUP2 MSTORE PUSH1 0x20 ADD PUSH1 0x0 KECCAK256 PUSH1 0x0 SWAP1 SLOAD SWAP1 PUSH2 0x100 EXP SWAP1 DIV PUSH1 0xFF AND PUSH2 0x1DBB JUMPI PUSH1 0x40 MLOAD PUSH32 0x8C379A000000000000000000000000000000000000000000000000000000000 DUP2 MSTORE PUSH1 0x4 ADD PUSH2 0x1DB2 SWAP1 PUSH2 0x3A65 JUMP JUMPDEST PUSH1 0x40 MLOAD DUP1 SWAP2 SUB SWAP1 REVERT JUMPDEST PUSH1 0x64 DUP3 LT ISZERO PUSH2 0x1DFF JUMPI PUSH1 0x40 MLOAD PUSH32 0x8C379A000000000000000000000000000000000000000000000000000000000 DUP2 MSTORE PUSH1 0x4 ADD PUSH2 0x1DF6 SWAP1 PUSH2 0x3AD1 JUMP JUMPDEST PUSH1 0x40 MLOAD DUP1 SWAP2 SUB SWAP1 REVERT JUMPDEST DUP2 PUSH2 0x1E09 CALLER PUSH2 0x1754 JUMP JUMPDEST LT ISZERO PUSH2 0x1E4A JUMPI PUSH1 0x40 MLOAD PUSH32 0x8C379A000000000000000000000000000000000000000000000000000000000 DUP2 MSTORE PUSH1 0x4 ADD PUSH2 0x1E41 SWAP1 PUSH2 0x3B3D JUMP JUMPDEST PUSH1 0x40 MLOAD DUP1 SWAP2 SUB SWAP1 REVERT JUMPDEST PUSH2 0x1E54 CALLER DUP4 PUSH2 0x2422 JUMP JUMPDEST CALLER PUSH20 0xFFFFFFFFFFFFFFFFFFFFFFFFFFFFFFFFFFFFFFFF AND PUSH32 0x78B07595117BDBF454F87AEF02F3A6DF3DF53883360B91D5AE53FE9809299FBE DUP4 DUP5 PUSH1 0x40 MLOAD PUSH2 0x1E9C SWAP3 SWAP2 SWAP1 PUSH2 0x3984 JUMP JUMPDEST PUSH1 0x40 MLOAD DUP1 SWAP2 SUB SWAP1 LOG2 POP PUSH2 0x1EAD PUSH2 0x23B5 JUMP JUMPDEST POP JUMP JUMPDEST PUSH2 0x1EB8 PUSH2 0x209D JUMP JUMPDEST PUSH1 0x0 JUMPDEST DUP4 DUP4 SWAP1 POP DUP2 LT ISZERO PUSH2 0x1FCC JUMPI DUP2 PUSH1 0x12 PUSH1 0x0 DUP7 DUP7 DUP6 DUP2 DUP2 LT PUSH2 0x1EDE JUMPI PUSH2 0x1EDD PUSH2 0x3B5D JUMP JUMPDEST JUMPDEST SWAP1 POP PUSH1 0x20 MUL ADD PUSH1 0x20 DUP2 ADD SWAP1 PUSH2 0x1EF3 SWAP2 SWAP1 PUSH2 0x2C11 JUMP JUMPDEST PUSH20 0xFFFFFFFFFFFFFFFFFFFFFFFFFFFFFFFFFFFFFFFF AND PUSH20 0xFFFFFFFFFFFFFFFFFFFFFFFFFFFFFFFFFFFFFFFF AND DUP2 MSTORE PUSH1 0x20 ADD SWAP1 DUP2 MSTORE PUSH1 0x20 ADD PUSH1 0x0 KECCAK256 PUSH1 0x0 PUSH2 0x100 EXP DUP2 SLOAD DUP2 PUSH1 0xFF MUL NOT AND SWAP1 DUP4 ISZERO ISZERO MUL OR SWAP1 SSTORE POP DUP4 DUP4 DUP3 DUP2 DUP2 LT PUSH2 0x1F57 JUMPI PUSH2 0x1F56 PUSH2 0x3B5D JUMP JUMPDEST JUMPDEST SWAP1 POP PUSH1 0x20 MUL ADD PUSH1 0x20 DUP2 ADD SWAP1 PUSH2 0x1F6C SWAP2 SWAP1 PUSH2 0x2C11 JUMP JUMPDEST PUSH20 0xFFFFFFFFFFFFFFFFFFFFFFFFFFFFFFFFFFFFFFFF AND PUSH32 0x68F988A99A662709DB2880BCF3565145DE442766EE59E35B587DF59DD619BD3D DUP4 PUSH1 0x40 MLOAD PUSH2 0x1FB1 SWAP2 SWAP1 PUSH2 0x2BF6 JUMP JUMPDEST PUSH1 0x40 MLOAD DUP1 SWAP2 SUB SWAP1 LOG2 DUP1 DUP1 PUSH2 0x1FC4 SWAP1 PUSH2 0x3B8C JUMP JUMPDEST SWAP2 POP POP PUSH2 0x1EBB JUMP JUMPDEST POP POP POP POP JUMP JUMPDEST PUSH1 0x8 PUSH1 0x0 SWAP1 SLOAD SWAP1 PUSH2 0x100 EXP SWAP1 DIV PUSH20 0xFFFFFFFFFFFFFFFFFFFFFFFFFFFFFFFFFFFFFFFF AND DUP2 JUMP JUMPDEST PUSH2 0x2000 PUSH2 0x209D JUMP JUMPDEST PUSH1 0x0 PUSH20 0xFFFFFFFFFFFFFFFFFFFFFFFFFFFFFFFFFFFFFFFF AND DUP2 PUSH20 0xFFFFFFFFFFFFFFFFFFFFFFFFFFFFFFFFFFFFFFFF AND SUB PUSH2 0x2072 JUMPI PUSH1 0x0 PUSH1 0x40 MLOAD PUSH32 0x1E4FBDF700000000000000000000000000000000000000000000000000000000 DUP2 MSTORE PUSH1 0x4 ADD PUSH2 0x2069 SWAP2 SWAP1 PUSH2 0x2D0C JUMP JUMPDEST PUSH1 0x40 MLOAD DUP1 SWAP2 SUB SWAP1 REVERT JUMPDEST PUSH2 0x207B DUP2 PUSH2 0x24A4 JUMP JUMPDEST POP JUMP JUMPDEST PUSH1 0x2 DUP2 JUMP JUMPDEST PUSH1 0x0 CALLER SWAP1 POP SWAP1 JUMP JUMPDEST PUSH2 0x2098 DUP4 DUP4 DUP4 PUSH1 0x1 PUSH2 0x25CD JUMP JUMPDEST POP POP POP JUMP JUMPDEST PUSH2 0x20A5 PUSH2 0x2083 JUMP JUMPDEST PUSH20 0xFFFFFFFFFFFFFFFFFFFFFFFFFFFFFFFFFFFFFFFF AND PUSH2 0x20C3 PUSH2 0x19C9 JUMP JUMPDEST PUSH20 0xFFFFFFFFFFFFFFFFFFFFFFFFFFFFFFFFFFFFFFFF AND EQ PUSH2 0x2122 JUMPI PUSH2 0x20E6 PUSH2 0x2083 JUMP JUMPDEST PUSH1 0x40 MLOAD PUSH32 0x118CDAA700000000000000000000000000000000000000000000000000000000 DUP2 MSTORE PUSH1 0x4 ADD PUSH2 0x2119 SWAP2 SWAP1 PUSH2 0x2D0C JUMP JUMPDEST PUSH1 0x40 MLOAD DUP1 SWAP2 SUB SWAP1 REVERT JUMPDEST JUMP JUMPDEST PUSH1 0x0 PUSH2 0x2130 DUP5 DUP5 PUSH2 0x1C97 JUMP JUMPDEST SWAP1 POP PUSH32 0xFFFFFFFFFFFFFFFFFFFFFFFFFFFFFFFFFFFFFFFFFFFFFFFFFFFFFFFFFFFFFFFF DUP2 EQ PUSH2 0x21B2 JUMPI DUP2 DUP2 LT ISZERO PUSH2 0x21A2 JUMPI DUP3 DUP2 DUP4 PUSH1 0x40 MLOAD PUSH32 0xFB8F41B200000000000000000000000000000000000000000000000000000000 DUP2 MSTORE PUSH1 0x4 ADD PUSH2 0x2199 SWAP4 SWAP3 SWAP2 SWAP1 PUSH2 0x3BD4 JUMP JUMPDEST PUSH1 0x40 MLOAD DUP1 SWAP2 SUB SWAP1 REVERT JUMPDEST PUSH2 0x21B1 DUP5 DUP5 DUP5 DUP5 SUB PUSH1 0x0 PUSH2 0x25CD JUMP JUMPDEST JUMPDEST POP POP POP POP JUMP JUMPDEST PUSH1 0x0 PUSH20 0xFFFFFFFFFFFFFFFFFFFFFFFFFFFFFFFFFFFFFFFF AND DUP4 PUSH20 0xFFFFFFFFFFFFFFFFFFFFFFFFFFFFFFFFFFFFFFFF AND SUB PUSH2 0x222A JUMPI PUSH1 0x0 PUSH1 0x40 MLOAD PUSH32 0x96C6FD1E00000000000000000000000000000000000000000000000000000000 DUP2 MSTORE PUSH1 0x4 ADD PUSH2 0x2221 SWAP2 SWAP1 PUSH2 0x2D0C JUMP JUMPDEST PUSH1 0x40 MLOAD DUP1 SWAP2 SUB SWAP1 REVERT JUMPDEST PUSH1 0x0 PUSH20 0xFFFFFFFFFFFFFFFFFFFFFFFFFFFFFFFFFFFFFFFF AND DUP3 PUSH20 0xFFFFFFFFFFFFFFFFFFFFFFFFFFFFFFFFFFFFFFFF AND SUB PUSH2 0x229C JUMPI PUSH1 0x0 PUSH1 0x40 MLOAD PUSH32 0xEC442F0500000000000000000000000000000000000000000000000000000000 DUP2 MSTORE PUSH1 0x4 ADD PUSH2 0x2293 SWAP2 SWAP1 PUSH2 0x2D0C JUMP JUMPDEST PUSH1 0x40 MLOAD DUP1 SWAP2 SUB SWAP1 REVERT JUMPDEST PUSH2 0x22A7 DUP4 DUP4 DUP4 PUSH2 0x27A4 JUMP JUMPDEST POP POP POP JUMP JUMPDEST PUSH2 0x22B4 PUSH2 0x131C JUMP JUMPDEST ISZERO PUSH2 0x22EB JUMPI PUSH1 0x40 MLOAD PUSH32 0xD93C066500000000000000000000000000000000000000000000000000000000 DUP2 MSTORE PUSH1 0x4 ADD PUSH1 0x40 MLOAD DUP1 SWAP2 SUB SWAP1 REVERT JUMPDEST JUMP JUMPDEST PUSH1 0x2 PUSH1 0x6 SLOAD SUB PUSH2 0x2329 JUMPI PUSH1 0x40 MLOAD PUSH32 0x3EE5AEB500000000000000000000000000000000000000000000000000000000 DUP2 MSTORE PUSH1 0x4 ADD PUSH1 0x40 MLOAD DUP1 SWAP2 SUB SWAP1 REVERT JUMPDEST PUSH1 0x2 PUSH1 0x6 DUP2 SWAP1 SSTORE POP JUMP JUMPDEST PUSH1 0x0 PUSH20 0xFFFFFFFFFFFFFFFFFFFFFFFFFFFFFFFFFFFFFFFF AND DUP3 PUSH20 0xFFFFFFFFFFFFFFFFFFFFFFFFFFFFFFFFFFFFFFFF AND SUB PUSH2 0x23A5 JUMPI PUSH1 0x0 PUSH1 0x40 MLOAD PUSH32 0xEC442F0500000000000000000000000000000000000000000000000000000000 DUP2 MSTORE PUSH1 0x4 ADD PUSH2 0x239C SWAP2 SWAP1 PUSH2 0x2D0C JUMP JUMPDEST PUSH1 0x40 MLOAD DUP1 SWAP2 SUB SWAP1 REVERT JUMPDEST PUSH2 0x23B1 PUSH1 0x0 DUP4 DUP4 PUSH2 0x27A4 JUMP JUMPDEST POP POP JUMP JUMPDEST PUSH1 0x1 PUSH1 0x6 DUP2 SWAP1 SSTORE POP JUMP JUMPDEST PUSH2 0x23C7 PUSH2 0x27BC JUMP JUMPDEST PUSH1 0x0 PUSH1 0x5 PUSH1 0x14 PUSH2 0x100 EXP DUP2 SLOAD DUP2 PUSH1 0xFF MUL NOT AND SWAP1 DUP4 ISZERO ISZERO MUL OR SWAP1 SSTORE POP PUSH32 0x5DB9EE0A495BF2E6FF9C91A7834C1BA4FDD244A5E8AA4E537BD38AEAE4B073AA PUSH2 0x240B PUSH2 0x2083 JUMP JUMPDEST PUSH1 0x40 MLOAD PUSH2 0x2418 SWAP2 SWAP1 PUSH2 0x2D0C JUMP JUMPDEST PUSH1 0x40 MLOAD DUP1 SWAP2 SUB SWAP1 LOG1 JUMP JUMPDEST PUSH1 0x0 PUSH20 0xFFFFFFFFFFFFFFFFFFFFFFFFFFFFFFFFFFFFFFFF AND DUP3 PUSH20 0xFFFFFFFFFFFFFFFFFFFFFFFFFFFFFFFFFFFFFFFF AND SUB PUSH2 0x2494 JUMPI PUSH1 0x0 PUSH1 0x40 MLOAD PUSH32 0x96C6FD1E00000000000000000000000000000000000000000000000000000000 DUP2 MSTORE PUSH1 0x4 ADD PUSH2 0x248B SWAP2 SWAP1 PUSH2 0x2D0C JUMP JUMPDEST PUSH1 0x40 MLOAD DUP1 SWAP2 SUB SWAP1 REVERT JUMPDEST PUSH2 0x24A0 DUP3 PUSH1 0x0 DUP4 PUSH2 0x27A4 JUMP JUMPDEST POP POP JUMP JUMPDEST PUSH1 0x0 PUSH1 0x5 PUSH1 0x0 SWAP1 SLOAD SWAP1 PUSH2 0x100 EXP SWAP1 DIV PUSH20 0xFFFFFFFFFFFFFFFFFFFFFFFFFFFFFFFFFFFFFFFF AND SWAP1 POP DUP2 PUSH1 0x5 PUSH1 0x0 PUSH2 0x100 EXP DUP2 SLOAD DUP2 PUSH20 0xFFFFFFFFFFFFFFFFFFFFFFFFFFFFFFFFFFFFFFFF MUL NOT AND SWAP1 DUP4 PUSH20 0xFFFFFFFFFFFFFFFFFFFFFFFFFFFFFFFFFFFFFFFF AND MUL OR SWAP1 SSTORE POP DUP2 PUSH20 0xFFFFFFFFFFFFFFFFFFFFFFFFFFFFFFFFFFFFFFFF AND DUP2 PUSH20 0xFFFFFFFFFFFFFFFFFFFFFFFFFFFFFFFFFFFFFFFF AND PUSH32 0x8BE0079C531659141344CD1FD0A4F28419497F9722A3DAAFE3B4186F6B6457E0 PUSH1 0x40 MLOAD PUSH1 0x40 MLOAD DUP1 SWAP2 SUB SWAP1 LOG3 POP POP JUMP JUMPDEST PUSH2 0x2572 PUSH2 0x22AC JUMP JUMPDEST PUSH1 0x1 PUSH1 0x5 PUSH1 0x14 PUSH2 0x100 EXP DUP2 SLOAD DUP2 PUSH1 0xFF MUL NOT AND SWAP1 DUP4 ISZERO ISZERO MUL OR SWAP1 SSTORE POP PUSH32 0x62E78CEA01BEE320CD4E420270B5EA74000D11B0C9F74754EBDBFC544B05A258 PUSH2 0x25B6 PUSH2 0x2083 JUMP JUMPDEST PUSH1 0x40 MLOAD PUSH2 0x25C3 SWAP2 SWAP1 PUSH2 0x2D0C JUMP JUMPDEST PUSH1 0x40 MLOAD DUP1 SWAP2 SUB SWAP1 LOG1 JUMP JUMPDEST PUSH1 0x0 PUSH20 0xFFFFFFFFFFFFFFFFFFFFFFFFFFFFFFFFFFFFFFFF AND DUP5 PUSH20 0xFFFFFFFFFFFFFFFFFFFFFFFFFFFFFFFFFFFFFFFF AND SUB PUSH2 0x263F JUMPI PUSH1 0x0 PUSH1 0x40 MLOAD PUSH32 0xE602DF0500000000000000000000000000000000000000000000000000000000 DUP2 MSTORE PUSH1 0x4 ADD PUSH2 0x2636 SWAP2 SWAP1 PUSH2 0x2D0C JUMP JUMPDEST PUSH1 0x40 MLOAD DUP1 SWAP2 SUB SWAP1 REVERT JUMPDEST PUSH1 0x0 PUSH20 0xFFFFFFFFFFFFFFFFFFFFFFFFFFFFFFFFFFFFFFFF AND DUP4 PUSH20 0xFFFFFFFFFFFFFFFFFFFFFFFFFFFFFFFFFFFFFFFF AND SUB PUSH2 0x26B1 JUMPI PUSH1 0x0 PUSH1 0x40 MLOAD PUSH32 0x94280D6200000000000000000000000000000000000000000000000000000000 DUP2 MSTORE PUSH1 0x4 ADD PUSH2 0x26A8 SWAP2 SWAP1 PUSH2 0x2D0C JUMP JUMPDEST PUSH1 0x40 MLOAD DUP1 SWAP2 SUB SWAP1 REVERT JUMPDEST DUP2 PUSH1 0x1 PUSH1 0x0 DUP7 PUSH20 0xFFFFFFFFFFFFFFFFFFFFFFFFFFFFFFFFFFFFFFFF AND PUSH20 0xFFFFFFFFFFFFFFFFFFFFFFFFFFFFFFFFFFFFFFFF AND DUP2 MSTORE PUSH1 0x20 ADD SWAP1 DUP2 MSTORE PUSH1 0x20 ADD PUSH1 0x0 KECCAK256 PUSH1 0x0 DUP6 PUSH20 0xFFFFFFFFFFFFFFFFFFFFFFFFFFFFFFFFFFFFFFFF AND PUSH20 0xFFFFFFFFFFFFFFFFFFFFFFFFFFFFFFFFFFFFFFFF AND DUP2 MSTORE PUSH1 0x20 ADD SWAP1 DUP2 MSTORE PUSH1 0x20 ADD PUSH1 0x0 KECCAK256 DUP2 SWAP1 SSTORE POP DUP1 ISZERO PUSH2 0x279E JUMPI DUP3 PUSH20 0xFFFFFFFFFFFFFFFFFFFFFFFFFFFFFFFFFFFFFFFF AND DUP5 PUSH20 0xFFFFFFFFFFFFFFFFFFFFFFFFFFFFFFFFFFFFFFFF AND PUSH32 0x8C5BE1E5EBEC7D5BD14F71427D1E84F3DD0314C0F7B2291E5B200AC8C7C3B925 DUP5 PUSH1 0x40 MLOAD PUSH2 0x2795 SWAP2 SWAP1 PUSH2 0x2A3A JUMP JUMPDEST PUSH1 0x40 MLOAD DUP1 SWAP2 SUB SWAP1 LOG3 JUMPDEST POP POP POP POP JUMP JUMPDEST PUSH2 0x27AC PUSH2 0x22AC JUMP JUMPDEST PUSH2 0x27B7 DUP4 DUP4 DUP4 PUSH2 0x27FC JUMP JUMPDEST POP POP POP JUMP JUMPDEST PUSH2 0x27C4 PUSH2 0x131C JUMP JUMPDEST PUSH2 0x27FA JUMPI PUSH1 0x40 MLOAD PUSH32 0x8DFC202B00000000000000000000000000000000000000000000000000000000 DUP2 MSTORE PUSH1 0x4 ADD PUSH1 0x40 MLOAD DUP1 SWAP2 SUB SWAP1 REVERT JUMPDEST JUMP JUMPDEST PUSH1 0x0 PUSH20 0xFFFFFFFFFFFFFFFFFFFFFFFFFFFFFFFFFFFFFFFF AND DUP4 PUSH20 0xFFFFFFFFFFFFFFFFFFFFFFFFFFFFFFFFFFFFFFFF AND SUB PUSH2 0x284E JUMPI DUP1 PUSH1 0x2 PUSH1 0x0 DUP3 DUP3 SLOAD PUSH2 0x2842 SWAP2 SWAP1 PUSH2 0x355C JUMP JUMPDEST SWAP3 POP POP DUP2 SWAP1 SSTORE POP PUSH2 0x2921 JUMP JUMPDEST PUSH1 0x0 DUP1 PUSH1 0x0 DUP6 PUSH20 0xFFFFFFFFFFFFFFFFFFFFFFFFFFFFFFFFFFFFFFFF AND PUSH20 0xFFFFFFFFFFFFFFFFFFFFFFFFFFFFFFFFFFFFFFFF AND DUP2 MSTORE PUSH1 0x20 ADD SWAP1 DUP2 MSTORE PUSH1 0x20 ADD PUSH1 0x0 KECCAK256 SLOAD SWAP1 POP DUP2 DUP2 LT ISZERO PUSH2 0x28DA JUMPI DUP4 DUP2 DUP4 PUSH1 0x40 MLOAD PUSH32 0xE450D38C00000000000000000000000000000000000000000000000000000000 DUP2 MSTORE PUSH1 0x4 ADD PUSH2 0x28D1 SWAP4 SWAP3 SWAP2 SWAP1 PUSH2 0x3BD4 JUMP JUMPDEST PUSH1 0x40 MLOAD DUP1 SWAP2 SUB SWAP1 REVERT JUMPDEST DUP2 DUP2 SUB PUSH1 0x0 DUP1 DUP7 PUSH20 0xFFFFFFFFFFFFFFFFFFFFFFFFFFFFFFFFFFFFFFFF AND PUSH20 0xFFFFFFFFFFFFFFFFFFFFFFFFFFFFFFFFFFFFFFFF AND DUP2 MSTORE PUSH1 0x20 ADD SWAP1 DUP2 MSTORE PUSH1 0x20 ADD PUSH1 0x0 KECCAK256 DUP2 SWAP1 SSTORE POP POP JUMPDEST PUSH1 0x0 PUSH20 0xFFFFFFFFFFFFFFFFFFFFFFFFFFFFFFFFFFFFFFFF AND DUP3 PUSH20 0xFFFFFFFFFFFFFFFFFFFFFFFFFFFFFFFFFFFFFFFF AND SUB PUSH2 0x296A JUMPI DUP1 PUSH1 0x2 PUSH1 0x0 DUP3 DUP3 SLOAD SUB SWAP3 POP POP DUP2 SWAP1 SSTORE POP PUSH2 0x29B7 JUMP JUMPDEST DUP1 PUSH1 0x0 DUP1 DUP5 PUSH20 0xFFFFFFFFFFFFFFFFFFFFFFFFFFFFFFFFFFFFFFFF AND PUSH20 0xFFFFFFFFFFFFFFFFFFFFFFFFFFFFFFFFFFFFFFFF AND DUP2 MSTORE PUSH1 0x20 ADD SWAP1 DUP2 MSTORE PUSH1 0x20 ADD PUSH1 0x0 KECCAK256 PUSH1 0x0 DUP3 DUP3 SLOAD ADD SWAP3 POP POP DUP2 SWAP1 SSTORE POP JUMPDEST DUP2 PUSH20 0xFFFFFFFFFFFFFFFFFFFFFFFFFFFFFFFFFFFFFFFF AND DUP4 PUSH20 0xFFFFFFFFFFFFFFFFFFFFFFFFFFFFFFFFFFFFFFFF AND PUSH32 0xDDF252AD1BE2C89B69C2B068FC378DAA952BA7F163C4A11628F55A4DF523B3EF DUP4 PUSH1 0x40 MLOAD PUSH2 0x2A14 SWAP2 SWAP1 PUSH2 0x2A3A JUMP JUMPDEST PUSH1 0x40 MLOAD DUP1 SWAP2 SUB SWAP1 LOG3 POP POP POP JUMP JUMPDEST PUSH1 0x0 DUP2 SWAP1 POP SWAP2 SWAP1 POP JUMP JUMPDEST PUSH2 0x2A34 DUP2 PUSH2 0x2A21 JUMP JUMPDEST DUP3 MSTORE POP POP JUMP JUMPDEST PUSH1 0x0 PUSH1 0x20 DUP3 ADD SWAP1 POP PUSH2 0x2A4F PUSH1 0x0 DUP4 ADD DUP5 PUSH2 0x2A2B JUMP JUMPDEST SWAP3 SWAP2 POP POP JUMP JUMPDEST PUSH1 0x0 DUP2 MLOAD SWAP1 POP SWAP2 SWAP1 POP JUMP JUMPDEST PUSH1 0x0 DUP3 DUP3 MSTORE PUSH1 0x20 DUP3 ADD SWAP1 POP SWAP3 SWAP2 POP POP JUMP JUMPDEST PUSH1 0x0 JUMPDEST DUP4 DUP2 LT ISZERO PUSH2 0x2A8F JUMPI DUP1 DUP3 ADD MLOAD DUP2 DUP5 ADD MSTORE PUSH1 0x20 DUP2 ADD SWAP1 POP PUSH2 0x2A74 JUMP JUMPDEST PUSH1 0x0 DUP5 DUP5 ADD MSTORE POP POP POP POP JUMP JUMPDEST PUSH1 0x0 PUSH1 0x1F NOT PUSH1 0x1F DUP4 ADD AND SWAP1 POP SWAP2 SWAP1 POP JUMP JUMPDEST PUSH1 0x0 PUSH2 0x2AB7 DUP3 PUSH2 0x2A55 JUMP JUMPDEST PUSH2 0x2AC1 DUP2 DUP6 PUSH2 0x2A60 JUMP JUMPDEST SWAP4 POP PUSH2 0x2AD1 DUP2 DUP6 PUSH1 0x20 DUP7 ADD PUSH2 0x2A71 JUMP JUMPDEST PUSH2 0x2ADA DUP2 PUSH2 0x2A9B JUMP JUMPDEST DUP5 ADD SWAP2 POP POP SWAP3 SWAP2 POP POP JUMP JUMPDEST PUSH1 0x0 PUSH1 0x20 DUP3 ADD SWAP1 POP DUP2 DUP2 SUB PUSH1 0x0 DUP4 ADD MSTORE PUSH2 0x2AFF DUP2 DUP5 PUSH2 0x2AAC JUMP JUMPDEST SWAP1 POP SWAP3 SWAP2 POP POP JUMP JUMPDEST PUSH1 0x0 DUP1 REVERT JUMPDEST PUSH1 0x0 DUP1 REVERT JUMPDEST PUSH1 0x0 PUSH20 0xFFFFFFFFFFFFFFFFFFFFFFFFFFFFFFFFFFFFFFFF DUP3 AND SWAP1 POP SWAP2 SWAP1 POP JUMP JUMPDEST PUSH1 0x0 PUSH2 0x2B3C DUP3 PUSH2 0x2B11 JUMP JUMPDEST SWAP1 POP SWAP2 SWAP1 POP JUMP JUMPDEST PUSH2 0x2B4C DUP2 PUSH2 0x2B31 JUMP JUMPDEST DUP2 EQ PUSH2 0x2B57 JUMPI PUSH1 0x0 DUP1 REVERT JUMPDEST POP JUMP JUMPDEST PUSH1 0x0 DUP2 CALLDATALOAD SWAP1 POP PUSH2 0x2B69 DUP2 PUSH2 0x2B43 JUMP JUMPDEST SWAP3 SWAP2 POP POP JUMP JUMPDEST PUSH2 0x2B78 DUP2 PUSH2 0x2A21 JUMP JUMPDEST DUP2 EQ PUSH2 0x2B83 JUMPI PUSH1 0x0 DUP1 REVERT JUMPDEST POP JUMP JUMPDEST PUSH1 0x0 DUP2 CALLDATALOAD SWAP1 POP PUSH2 0x2B95 DUP2 PUSH2 0x2B6F JUMP JUMPDEST SWAP3 SWAP2 POP POP JUMP JUMPDEST PUSH1 0x0 DUP1 PUSH1 0x40 DUP4 DUP6 SUB SLT ISZERO PUSH2 0x2BB2 JUMPI PUSH2 0x2BB1 PUSH2 0x2B07 JUMP JUMPDEST JUMPDEST PUSH1 0x0 PUSH2 0x2BC0 DUP6 DUP3 DUP7 ADD PUSH2 0x2B5A JUMP JUMPDEST SWAP3 POP POP PUSH1 0x20 PUSH2 0x2BD1 DUP6 DUP3 DUP7 ADD PUSH2 0x2B86 JUMP JUMPDEST SWAP2 POP POP SWAP3 POP SWAP3 SWAP1 POP JUMP JUMPDEST PUSH1 0x0 DUP2 ISZERO ISZERO SWAP1 POP SWAP2 SWAP1 POP JUMP JUMPDEST PUSH2 0x2BF0 DUP2 PUSH2 0x2BDB JUMP JUMPDEST DUP3 MSTORE POP POP JUMP JUMPDEST PUSH1 0x0 PUSH1 0x20 DUP3 ADD SWAP1 POP PUSH2 0x2C0B PUSH1 0x0 DUP4 ADD DUP5 PUSH2 0x2BE7 JUMP JUMPDEST SWAP3 SWAP2 POP POP JUMP JUMPDEST PUSH1 0x0 PUSH1 0x20 DUP3 DUP5 SUB SLT ISZERO PUSH2 0x2C27 JUMPI PUSH2 0x2C26 PUSH2 0x2B07 JUMP JUMPDEST JUMPDEST PUSH1 0x0 PUSH2 0x2C35 DUP5 DUP3 DUP6 ADD PUSH2 0x2B5A JUMP JUMPDEST SWAP2 POP POP SWAP3 SWAP2 POP POP JUMP JUMPDEST PUSH2 0x2C47 DUP2 PUSH2 0x2BDB JUMP JUMPDEST DUP2 EQ PUSH2 0x2C52 JUMPI PUSH1 0x0 DUP1 REVERT JUMPDEST POP JUMP JUMPDEST PUSH1 0x0 DUP2 CALLDATALOAD SWAP1 POP PUSH2 0x2C64 DUP2 PUSH2 0x2C3E JUMP JUMPDEST SWAP3 SWAP2 POP POP JUMP JUMPDEST PUSH1 0x0 DUP1 PUSH1 0x40 DUP4 DUP6 SUB SLT ISZERO PUSH2 0x2C81 JUMPI PUSH2 0x2C80 PUSH2 0x2B07 JUMP JUMPDEST JUMPDEST PUSH1 0x0 PUSH2 0x2C8F DUP6 DUP3 DUP7 ADD PUSH2 0x2B5A JUMP JUMPDEST SWAP3 POP POP PUSH1 0x20 PUSH2 0x2CA0 DUP6 DUP3 DUP7 ADD PUSH2 0x2C55 JUMP JUMPDEST SWAP2 POP POP SWAP3 POP SWAP3 SWAP1 POP JUMP JUMPDEST PUSH1 0x0 DUP1 PUSH1 0x0 PUSH1 0x60 DUP5 DUP7 SUB SLT ISZERO PUSH2 0x2CC3 JUMPI PUSH2 0x2CC2 PUSH2 0x2B07 JUMP JUMPDEST JUMPDEST PUSH1 0x0 PUSH2 0x2CD1 DUP7 DUP3 DUP8 ADD PUSH2 0x2B5A JUMP JUMPDEST SWAP4 POP POP PUSH1 0x20 PUSH2 0x2CE2 DUP7 DUP3 DUP8 ADD PUSH2 0x2B5A JUMP JUMPDEST SWAP3 POP POP PUSH1 0x40 PUSH2 0x2CF3 DUP7 DUP3 DUP8 ADD PUSH2 0x2B5A JUMP JUMPDEST SWAP2 POP POP SWAP3 POP SWAP3 POP SWAP3 JUMP JUMPDEST PUSH2 0x2D06 DUP2 PUSH2 0x2B31 JUMP JUMPDEST DUP3 MSTORE POP POP JUMP JUMPDEST PUSH1 0x0 PUSH1 0x20 DUP3 ADD SWAP1 POP PUSH2 0x2D21 PUSH1 0x0 DUP4 ADD DUP5 PUSH2 0x2CFD JUMP JUMPDEST SWAP3 SWAP2 POP POP JUMP JUMPDEST PUSH1 0x0 DUP1 PUSH1 0x0 PUSH1 0x60 DUP5 DUP7 SUB SLT ISZERO PUSH2 0x2D40 JUMPI PUSH2 0x2D3F PUSH2 0x2B07 JUMP JUMPDEST JUMPDEST PUSH1 0x0 PUSH2 0x2D4E DUP7 DUP3 DUP8 ADD PUSH2 0x2B5A JUMP JUMPDEST SWAP4 POP POP PUSH1 0x20 PUSH2 0x2D5F DUP7 DUP3 DUP8 ADD PUSH2 0x2B5A JUMP JUMPDEST SWAP3 POP POP PUSH1 0x40 PUSH2 0x2D70 DUP7 DUP3 DUP8 ADD PUSH2 0x2B86 JUMP JUMPDEST SWAP2 POP POP SWAP3 POP SWAP3 POP SWAP3 JUMP JUMPDEST PUSH1 0x0 PUSH1 0xFF DUP3 AND SWAP1 POP SWAP2 SWAP1 POP JUMP JUMPDEST PUSH2 0x2D90 DUP2 PUSH2 0x2D7A JUMP JUMPDEST DUP3 MSTORE POP POP JUMP JUMPDEST PUSH1 0x0 PUSH1 0x20 DUP3 ADD SWAP1 POP PUSH2 0x2DAB PUSH1 0x0 DUP4 ADD DUP5 PUSH2 0x2D87 JUMP JUMPDEST SWAP3 SWAP2 POP POP JUMP JUMPDEST PUSH1 0x0 PUSH1 0x20 DUP3 DUP5 SUB SLT ISZERO PUSH2 0x2DC7 JUMPI PUSH2 0x2DC6 PUSH2 0x2B07 JUMP JUMPDEST JUMPDEST PUSH1 0x0 PUSH2 0x2DD5 DUP5 DUP3 DUP6 ADD PUSH2 0x2B86 JUMP JUMPDEST SWAP2 POP POP SWAP3 SWAP2 POP POP JUMP JUMPDEST PUSH1 0x0 DUP1 REVERT JUMPDEST PUSH1 0x0 DUP1 REVERT JUMPDEST PUSH1 0x0 DUP1 REVERT JUMPDEST PUSH1 0x0 DUP1 DUP4 PUSH1 0x1F DUP5 ADD SLT PUSH2 0x2E03 JUMPI PUSH2 0x2E02 PUSH2 0x2DDE JUMP JUMPDEST JUMPDEST DUP3 CALLDATALOAD SWAP1 POP PUSH8 0xFFFFFFFFFFFFFFFF DUP2 GT ISZERO PUSH2 0x2E20 JUMPI PUSH2 0x2E1F PUSH2 0x2DE3 JUMP JUMPDEST JUMPDEST PUSH1 0x20 DUP4 ADD SWAP2 POP DUP4 PUSH1 0x1 DUP3 MUL DUP4 ADD GT ISZERO PUSH2 0x2E3C JUMPI PUSH2 0x2E3B PUSH2 0x2DE8 JUMP JUMPDEST JUMPDEST SWAP3 POP SWAP3 SWAP1 POP JUMP JUMPDEST PUSH1 0x0 DUP1 PUSH1 0x0 DUP1 PUSH1 0x60 DUP6 DUP8 SUB SLT ISZERO PUSH2 0x2E5D JUMPI PUSH2 0x2E5C PUSH2 0x2B07 JUMP JUMPDEST JUMPDEST PUSH1 0x0 PUSH2 0x2E6B DUP8 DUP3 DUP9 ADD PUSH2 0x2B5A JUMP JUMPDEST SWAP5 POP POP PUSH1 0x20 PUSH2 0x2E7C DUP8 DUP3 DUP9 ADD PUSH2 0x2B86 JUMP JUMPDEST SWAP4 POP POP PUSH1 0x40 DUP6 ADD CALLDATALOAD PUSH8 0xFFFFFFFFFFFFFFFF DUP2 GT ISZERO PUSH2 0x2E9D JUMPI PUSH2 0x2E9C PUSH2 0x2B0C JUMP JUMPDEST JUMPDEST PUSH2 0x2EA9 DUP8 DUP3 DUP9 ADD PUSH2 0x2DED JUMP JUMPDEST SWAP3 POP SWAP3 POP POP SWAP3 SWAP6 SWAP2 SWAP5 POP SWAP3 POP JUMP JUMPDEST PUSH1 0x0 DUP1 PUSH1 0x40 DUP4 DUP6 SUB SLT ISZERO PUSH2 0x2ECE JUMPI PUSH2 0x2ECD PUSH2 0x2B07 JUMP JUMPDEST JUMPDEST PUSH1 0x0 PUSH2 0x2EDC DUP6 DUP3 DUP7 ADD PUSH2 0x2B5A JUMP JUMPDEST SWAP3 POP POP PUSH1 0x20 PUSH2 0x2EED DUP6 DUP3 DUP7 ADD PUSH2 0x2B5A JUMP JUMPDEST SWAP2 POP POP SWAP3 POP SWAP3 SWAP1 POP JUMP JUMPDEST PUSH1 0x0 DUP1 DUP4 PUSH1 0x1F DUP5 ADD SLT PUSH2 0x2F0D JUMPI PUSH2 0x2F0C PUSH2 0x2DDE JUMP JUMPDEST JUMPDEST DUP3 CALLDATALOAD SWAP1 POP PUSH8 0xFFFFFFFFFFFFFFFF DUP2 GT ISZERO PUSH2 0x2F2A JUMPI PUSH2 0x2F29 PUSH2 0x2DE3 JUMP JUMPDEST JUMPDEST PUSH1 0x20 DUP4 ADD SWAP2 POP DUP4 PUSH1 0x20 DUP3 MUL DUP4 ADD GT ISZERO PUSH2 0x2F46 JUMPI PUSH2 0x2F45 PUSH2 0x2DE8 JUMP JUMPDEST JUMPDEST SWAP3 POP SWAP3 SWAP1 POP JUMP JUMPDEST PUSH1 0x0 DUP1 PUSH1 0x0 PUSH1 0x40 DUP5 DUP7 SUB SLT ISZERO PUSH2 0x2F66 JUMPI PUSH2 0x2F65 PUSH2 0x2B07 JUMP JUMPDEST JUMPDEST PUSH1 0x0 DUP5 ADD CALLDATALOAD PUSH8 0xFFFFFFFFFFFFFFFF DUP2 GT ISZERO PUSH2 0x2F84 JUMPI PUSH2 0x2F83 PUSH2 0x2B0C JUMP JUMPDEST JUMPDEST PUSH2 0x2F90 DUP7 DUP3 DUP8 ADD PUSH2 0x2EF7 JUMP JUMPDEST SWAP4 POP SWAP4 POP POP PUSH1 0x20 PUSH2 0x2FA3 DUP7 DUP3 DUP8 ADD PUSH2 0x2C55 JUMP JUMPDEST SWAP2 POP POP SWAP3 POP SWAP3 POP SWAP3 JUMP JUMPDEST PUSH32 0x4E487B7100000000000000000000000000000000000000000000000000000000 PUSH1 0x0 MSTORE PUSH1 0x22 PUSH1 0x4 MSTORE PUSH1 0x24 PUSH1 0x0 REVERT JUMPDEST PUSH1 0x0 PUSH1 0x2 DUP3 DIV SWAP1 POP PUSH1 0x1 DUP3 AND DUP1 PUSH2 0x2FF4 JUMPI PUSH1 0x7F DUP3 AND SWAP2 POP JUMPDEST PUSH1 0x20 DUP3 LT DUP2 SUB PUSH2 0x3007 JUMPI PUSH2 0x3006 PUSH2 0x2FAD JUMP JUMPDEST JUMPDEST POP SWAP2 SWAP1 POP JUMP JUMPDEST PUSH32 0x50726573616C6520636F6E74726163742063616E6E6F74206265207A65726F20 PUSH1 0x0 DUP3 ADD MSTORE PUSH32 0x6164647265737300000000000000000000000000000000000000000000000000 PUSH1 0x20 DUP3 ADD MSTORE POP JUMP JUMPDEST PUSH1 0x0 PUSH2 0x3069 PUSH1 0x27 DUP4 PUSH2 0x2A60 JUMP JUMPDEST SWAP2 POP PUSH2 0x3074 DUP3 PUSH2 0x300D JUMP JUMPDEST PUSH1 0x40 DUP3 ADD SWAP1 POP SWAP2 SWAP1 POP JUMP JUMPDEST PUSH1 0x0 PUSH1 0x20 DUP3 ADD SWAP1 POP DUP2 DUP2 SUB PUSH1 0x0 DUP4 ADD MSTORE PUSH2 0x3098 DUP2 PUSH2 0x305C JUMP JUMPDEST SWAP1 POP SWAP2 SWAP1 POP JUMP JUMPDEST PUSH1 0x0 PUSH1 0x40 DUP3 ADD SWAP1 POP PUSH2 0x30B4 PUSH1 0x0 DUP4 ADD DUP6 PUSH2 0x2CFD JUMP JUMPDEST PUSH2 0x30C1 PUSH1 0x20 DUP4 ADD DUP5 PUSH2 0x2CFD JUMP JUMPDEST SWAP4 SWAP3 POP POP POP JUMP JUMPDEST PUSH32 0x446576656C6F706D656E74207465616D2077616C6C65742063616E6E6F742062 PUSH1 0x0 DUP3 ADD MSTORE PUSH32 0x65207A65726F2061646472657373000000000000000000000000000000000000 PUSH1 0x20 DUP3 ADD MSTORE POP JUMP JUMPDEST PUSH1 0x0 PUSH2 0x3124 PUSH1 0x2E DUP4 PUSH2 0x2A60 JUMP JUMPDEST SWAP2 POP PUSH2 0x312F DUP3 PUSH2 0x30C8 JUMP JUMPDEST PUSH1 0x40 DUP3 ADD SWAP1 POP SWAP2 SWAP1 POP JUMP JUMPDEST PUSH1 0x0 PUSH1 0x20 DUP3 ADD SWAP1 POP DUP2 DUP2 SUB PUSH1 0x0 DUP4 ADD MSTORE PUSH2 0x3153 DUP2 PUSH2 0x3117 JUMP JUMPDEST SWAP1 POP SWAP2 SWAP1 POP JUMP JUMPDEST PUSH32 0x4C697175696469747920726573657276652077616C6C65742063616E6E6F7420 PUSH1 0x0 DUP3 ADD MSTORE PUSH32 0x6265207A65726F20616464726573730000000000000000000000000000000000 PUSH1 0x20 DUP3 ADD MSTORE POP JUMP JUMPDEST PUSH1 0x0 PUSH2 0x31B6 PUSH1 0x2F DUP4 PUSH2 0x2A60 JUMP JUMPDEST SWAP2 POP PUSH2 0x31C1 DUP3 PUSH2 0x315A JUMP JUMPDEST PUSH1 0x40 DUP3 ADD SWAP1 POP SWAP2 SWAP1 POP JUMP JUMPDEST PUSH1 0x0 PUSH1 0x20 DUP3 ADD SWAP1 POP DUP2 DUP2 SUB PUSH1 0x0 DUP4 ADD MSTORE PUSH2 0x31E5 DUP2 PUSH2 0x31A9 JUMP JUMPDEST SWAP1 POP SWAP2 SWAP1 POP JUMP JUMPDEST PUSH32 0x53747261746567696320706172746E657273686970732077616C6C6574206361 PUSH1 0x0 DUP3 ADD MSTORE PUSH32 0x6E6E6F74206265207A65726F2061646472657373000000000000000000000000 PUSH1 0x20 DUP3 ADD MSTORE POP JUMP JUMPDEST PUSH1 0x0 PUSH2 0x3248 PUSH1 0x34 DUP4 PUSH2 0x2A60 JUMP JUMPDEST SWAP2 POP PUSH2 0x3253 DUP3 PUSH2 0x31EC JUMP JUMPDEST PUSH1 0x40 DUP3 ADD SWAP1 POP SWAP2 SWAP1 POP JUMP JUMPDEST PUSH1 0x0 PUSH1 0x20 DUP3 ADD SWAP1 POP DUP2 DUP2 SUB PUSH1 0x0 DUP4 ADD MSTORE PUSH2 0x3277 DUP2 PUSH2 0x323B JUMP JUMPDEST SWAP1 POP SWAP2 SWAP1 POP JUMP JUMPDEST PUSH1 0x0 PUSH1 0x60 DUP3 ADD SWAP1 POP PUSH2 0x3293 PUSH1 0x0 DUP4 ADD DUP7 PUSH2 0x2CFD JUMP JUMPDEST PUSH2 0x32A0 PUSH1 0x20 DUP4 ADD DUP6 PUSH2 0x2CFD JUMP JUMPDEST PUSH2 0x32AD PUSH1 0x40 DUP4 ADD DUP5 PUSH2 0x2CFD JUMP JUMPDEST SWAP5 SWAP4 POP POP POP POP JUMP JUMPDEST PUSH32 0x4E487B7100000000000000000000000000000000000000000000000000000000 PUSH1 0x0 MSTORE PUSH1 0x11 PUSH1 0x4 MSTORE PUSH1 0x24 PUSH1 0x0 REVERT JUMPDEST PUSH1 0x0 PUSH2 0x32EF DUP3 PUSH2 0x2A21 JUMP JUMPDEST SWAP2 POP PUSH2 0x32FA DUP4 PUSH2 0x2A21 JUMP JUMPDEST SWAP3 POP DUP3 DUP3 MUL PUSH2 0x3308 DUP2 PUSH2 0x2A21 JUMP JUMPDEST SWAP2 POP DUP3 DUP3 DIV DUP5 EQ DUP4 ISZERO OR PUSH2 0x331F JUMPI PUSH2 0x331E PUSH2 0x32B5 JUMP JUMPDEST JUMPDEST POP SWAP3 SWAP2 POP POP JUMP JUMPDEST PUSH32 0x4E487B7100000000000000000000000000000000000000000000000000000000 PUSH1 0x0 MSTORE PUSH1 0x12 PUSH1 0x4 MSTORE PUSH1 0x24 PUSH1 0x0 REVERT JUMPDEST PUSH1 0x0 PUSH2 0x3360 DUP3 PUSH2 0x2A21 JUMP JUMPDEST SWAP2 POP PUSH2 0x336B DUP4 PUSH2 0x2A21 JUMP JUMPDEST SWAP3 POP DUP3 PUSH2 0x337B JUMPI PUSH2 0x337A PUSH2 0x3326 JUMP JUMPDEST JUMPDEST DUP3 DUP3 DIV SWAP1 POP SWAP3 SWAP2 POP POP JUMP JUMPDEST PUSH32 0x43616C6C6572206973206E6F74207468652070726573616C6520636F6E747261 PUSH1 0x0 DUP3 ADD MSTORE PUSH32 0x6374000000000000000000000000000000000000000000000000000000000000 PUSH1 0x20 DUP3 ADD MSTORE POP JUMP JUMPDEST PUSH1 0x0 PUSH2 0x33E2 PUSH1 0x22 DUP4 PUSH2 0x2A60 JUMP JUMPDEST SWAP2 POP PUSH2 0x33ED DUP3 PUSH2 0x3386 JUMP JUMPDEST PUSH1 0x40 DUP3 ADD SWAP1 POP SWAP2 SWAP1 POP JUMP JUMPDEST PUSH1 0x0 PUSH1 0x20 DUP3 ADD SWAP1 POP DUP2 DUP2 SUB PUSH1 0x0 DUP4 ADD MSTORE PUSH2 0x3411 DUP2 PUSH2 0x33D5 JUMP JUMPDEST SWAP1 POP SWAP2 SWAP1 POP JUMP JUMPDEST PUSH32 0x50726573616C6520706572696F642068617320656E6465640000000000000000 PUSH1 0x0 DUP3 ADD MSTORE POP JUMP JUMPDEST PUSH1 0x0 PUSH2 0x344E PUSH1 0x18 DUP4 PUSH2 0x2A60 JUMP JUMPDEST SWAP2 POP PUSH2 0x3459 DUP3 PUSH2 0x3418 JUMP JUMPDEST PUSH1 0x20 DUP3 ADD SWAP1 POP SWAP2 SWAP1 POP JUMP JUMPDEST PUSH1 0x0 PUSH1 0x20 DUP3 ADD SWAP1 POP DUP2 DUP2 SUB PUSH1 0x0 DUP4 ADD MSTORE PUSH2 0x347D DUP2 PUSH2 0x3441 JUMP JUMPDEST SWAP1 POP SWAP2 SWAP1 POP JUMP JUMPDEST PUSH32 0x43616E6E6F74206D696E7420746F207A65726F20616464726573730000000000 PUSH1 0x0 DUP3 ADD MSTORE POP JUMP JUMPDEST PUSH1 0x0 PUSH2 0x34BA PUSH1 0x1B DUP4 PUSH2 0x2A60 JUMP JUMPDEST SWAP2 POP PUSH2 0x34C5 DUP3 PUSH2 0x3484 JUMP JUMPDEST PUSH1 0x20 DUP3 ADD SWAP1 POP SWAP2 SWAP1 POP JUMP JUMPDEST PUSH1 0x0 PUSH1 0x20 DUP3 ADD SWAP1 POP DUP2 DUP2 SUB PUSH1 0x0 DUP4 ADD MSTORE PUSH2 0x34E9 DUP2 PUSH2 0x34AD JUMP JUMPDEST SWAP1 POP SWAP2 SWAP1 POP JUMP JUMPDEST PUSH32 0x416D6F756E74206D7573742062652067726561746572207468616E207A65726F PUSH1 0x0 DUP3 ADD MSTORE POP JUMP JUMPDEST PUSH1 0x0 PUSH2 0x3526 PUSH1 0x20 DUP4 PUSH2 0x2A60 JUMP JUMPDEST SWAP2 POP PUSH2 0x3531 DUP3 PUSH2 0x34F0 JUMP JUMPDEST PUSH1 0x20 DUP3 ADD SWAP1 POP SWAP2 SWAP1 POP JUMP JUMPDEST PUSH1 0x0 PUSH1 0x20 DUP3 ADD SWAP1 POP DUP2 DUP2 SUB PUSH1 0x0 DUP4 ADD MSTORE PUSH2 0x3555 DUP2 PUSH2 0x3519 JUMP JUMPDEST SWAP1 POP SWAP2 SWAP1 POP JUMP JUMPDEST PUSH1 0x0 PUSH2 0x3567 DUP3 PUSH2 0x2A21 JUMP JUMPDEST SWAP2 POP PUSH2 0x3572 DUP4 PUSH2 0x2A21 JUMP JUMPDEST SWAP3 POP DUP3 DUP3 ADD SWAP1 POP DUP1 DUP3 GT ISZERO PUSH2 0x358A JUMPI PUSH2 0x3589 PUSH2 0x32B5 JUMP JUMPDEST JUMPDEST SWAP3 SWAP2 POP POP JUMP JUMPDEST PUSH32 0x45786365656473206D617820737570706C790000000000000000000000000000 PUSH1 0x0 DUP3 ADD MSTORE POP JUMP JUMPDEST PUSH1 0x0 PUSH2 0x35C6 PUSH1 0x12 DUP4 PUSH2 0x2A60 JUMP JUMPDEST SWAP2 POP PUSH2 0x35D1 DUP3 PUSH2 0x3590 JUMP JUMPDEST PUSH1 0x20 DUP3 ADD SWAP1 POP SWAP2 SWAP1 POP JUMP JUMPDEST PUSH1 0x0 PUSH1 0x20 DUP3 ADD SWAP1 POP DUP2 DUP2 SUB PUSH1 0x0 DUP4 ADD MSTORE PUSH2 0x35F5 DUP2 PUSH2 0x35B9 JUMP JUMPDEST SWAP1 POP SWAP2 SWAP1 POP JUMP JUMPDEST PUSH32 0x45786365656473207075626C696320616C6C6F636174696F6E00000000000000 PUSH1 0x0 DUP3 ADD MSTORE POP JUMP JUMPDEST PUSH1 0x0 PUSH2 0x3632 PUSH1 0x19 DUP4 PUSH2 0x2A60 JUMP JUMPDEST SWAP2 POP PUSH2 0x363D DUP3 PUSH2 0x35FC JUMP JUMPDEST PUSH1 0x20 DUP3 ADD SWAP1 POP SWAP2 SWAP1 POP JUMP JUMPDEST PUSH1 0x0 PUSH1 0x20 DUP3 ADD SWAP1 POP DUP2 DUP2 SUB PUSH1 0x0 DUP4 ADD MSTORE PUSH2 0x3661 DUP2 PUSH2 0x3625 JUMP JUMPDEST SWAP1 POP SWAP2 SWAP1 POP JUMP JUMPDEST PUSH32 0x45786365656473207465616D20616C6C6F636174696F6E000000000000000000 PUSH1 0x0 DUP3 ADD MSTORE POP JUMP JUMPDEST PUSH1 0x0 PUSH2 0x369E PUSH1 0x17 DUP4 PUSH2 0x2A60 JUMP JUMPDEST SWAP2 POP PUSH2 0x36A9 DUP3 PUSH2 0x3668 JUMP JUMPDEST PUSH1 0x20 DUP3 ADD SWAP1 POP SWAP2 SWAP1 POP JUMP JUMPDEST PUSH1 0x0 PUSH1 0x20 DUP3 ADD SWAP1 POP DUP2 DUP2 SUB PUSH1 0x0 DUP4 ADD MSTORE PUSH2 0x36CD DUP2 PUSH2 0x3691 JUMP JUMPDEST SWAP1 POP SWAP2 SWAP1 POP JUMP JUMPDEST PUSH32 0x4578636565647320636F6D6D756E69747920616C6C6F636174696F6E00000000 PUSH1 0x0 DUP3 ADD MSTORE POP JUMP JUMPDEST PUSH1 0x0 PUSH2 0x370A PUSH1 0x1C DUP4 PUSH2 0x2A60 JUMP JUMPDEST SWAP2 POP PUSH2 0x3715 DUP3 PUSH2 0x36D4 JUMP JUMPDEST PUSH1 0x20 DUP3 ADD SWAP1 POP SWAP2 SWAP1 POP JUMP JUMPDEST PUSH1 0x0 PUSH1 0x20 DUP3 ADD SWAP1 POP DUP2 DUP2 SUB PUSH1 0x0 DUP4 ADD MSTORE PUSH2 0x3739 DUP2 PUSH2 0x36FD JUMP JUMPDEST SWAP1 POP SWAP2 SWAP1 POP JUMP JUMPDEST PUSH32 0x45786365656473206C697175696469747920616C6C6F636174696F6E00000000 PUSH1 0x0 DUP3 ADD MSTORE POP JUMP JUMPDEST PUSH1 0x0 PUSH2 0x3776 PUSH1 0x1C DUP4 PUSH2 0x2A60 JUMP JUMPDEST SWAP2 POP PUSH2 0x3781 DUP3 PUSH2 0x3740 JUMP JUMPDEST PUSH1 0x20 DUP3 ADD SWAP1 POP SWAP2 SWAP1 POP JUMP JUMPDEST PUSH1 0x0 PUSH1 0x20 DUP3 ADD SWAP1 POP DUP2 DUP2 SUB PUSH1 0x0 DUP4 ADD MSTORE PUSH2 0x37A5 DUP2 PUSH2 0x3769 JUMP JUMPDEST SWAP1 POP SWAP2 SWAP1 POP JUMP JUMPDEST PUSH32 0x42757965722063616E6E6F74206265207A65726F206164647265737300000000 PUSH1 0x0 DUP3 ADD MSTORE POP JUMP JUMPDEST PUSH1 0x0 PUSH2 0x37E2 PUSH1 0x1C DUP4 PUSH2 0x2A60 JUMP JUMPDEST SWAP2 POP PUSH2 0x37ED DUP3 PUSH2 0x37AC JUMP JUMPDEST PUSH1 0x20 DUP3 ADD SWAP1 POP SWAP2 SWAP1 POP JUMP JUMPDEST PUSH1 0x0 PUSH1 0x20 DUP3 ADD SWAP1 POP DUP2 DUP2 SUB PUSH1 0x0 DUP4 ADD MSTORE PUSH2 0x3811 DUP2 PUSH2 0x37D5 JUMP JUMPDEST SWAP1 POP SWAP2 SWAP1 POP JUMP JUMPDEST DUP3 DUP2 DUP4 CALLDATACOPY PUSH1 0x0 DUP4 DUP4 ADD MSTORE POP POP POP JUMP JUMPDEST PUSH1 0x0 PUSH2 0x3833 DUP4 DUP6 PUSH2 0x2A60 JUMP JUMPDEST SWAP4 POP PUSH2 0x3840 DUP4 DUP6 DUP5 PUSH2 0x3818 JUMP JUMPDEST PUSH2 0x3849 DUP4 PUSH2 0x2A9B JUMP JUMPDEST DUP5 ADD SWAP1 POP SWAP4 SWAP3 POP POP POP JUMP JUMPDEST PUSH1 0x0 PUSH1 0x40 DUP3 ADD SWAP1 POP PUSH2 0x3869 PUSH1 0x0 DUP4 ADD DUP7 PUSH2 0x2A2B JUMP JUMPDEST DUP2 DUP2 SUB PUSH1 0x20 DUP4 ADD MSTORE PUSH2 0x387C DUP2 DUP5 DUP7 PUSH2 0x3827 JUMP JUMPDEST SWAP1 POP SWAP5 SWAP4 POP POP POP POP JUMP JUMPDEST PUSH32 0x4578636565647320706172746E6572736869707320616C6C6F636174696F6E00 PUSH1 0x0 DUP3 ADD MSTORE POP JUMP JUMPDEST PUSH1 0x0 PUSH2 0x38BC PUSH1 0x1F DUP4 PUSH2 0x2A60 JUMP JUMPDEST SWAP2 POP PUSH2 0x38C7 DUP3 PUSH2 0x3886 JUMP JUMPDEST PUSH1 0x20 DUP3 ADD SWAP1 POP SWAP2 SWAP1 POP JUMP JUMPDEST PUSH1 0x0 PUSH1 0x20 DUP3 ADD SWAP1 POP DUP2 DUP2 SUB PUSH1 0x0 DUP4 ADD MSTORE PUSH2 0x38EB DUP2 PUSH2 0x38AF JUMP JUMPDEST SWAP1 POP SWAP2 SWAP1 POP JUMP JUMPDEST PUSH32 0x4E657720656E642074696D65206D757374206265206C61746572207468616E20 PUSH1 0x0 DUP3 ADD MSTORE PUSH32 0x63757272656E7400000000000000000000000000000000000000000000000000 PUSH1 0x20 DUP3 ADD MSTORE POP JUMP JUMPDEST PUSH1 0x0 PUSH2 0x394E PUSH1 0x27 DUP4 PUSH2 0x2A60 JUMP JUMPDEST SWAP2 POP PUSH2 0x3959 DUP3 PUSH2 0x38F2 JUMP JUMPDEST PUSH1 0x40 DUP3 ADD SWAP1 POP SWAP2 SWAP1 POP JUMP JUMPDEST PUSH1 0x0 PUSH1 0x20 DUP3 ADD SWAP1 POP DUP2 DUP2 SUB PUSH1 0x0 DUP4 ADD MSTORE PUSH2 0x397D DUP2 PUSH2 0x3941 JUMP JUMPDEST SWAP1 POP SWAP2 SWAP1 POP JUMP JUMPDEST PUSH1 0x0 PUSH1 0x40 DUP3 ADD SWAP1 POP PUSH2 0x3999 PUSH1 0x0 DUP4 ADD DUP6 PUSH2 0x2A2B JUMP JUMPDEST PUSH2 0x39A6 PUSH1 0x20 DUP4 ADD DUP5 PUSH2 0x2A2B JUMP JUMPDEST SWAP4 SWAP3 POP POP POP JUMP JUMPDEST PUSH32 0x4578636565647320636F6E73756C74616E747320616C6C6F636174696F6E0000 PUSH1 0x0 DUP3 ADD MSTORE POP JUMP JUMPDEST PUSH1 0x0 PUSH2 0x39E3 PUSH1 0x1E DUP4 PUSH2 0x2A60 JUMP JUMPDEST SWAP2 POP PUSH2 0x39EE DUP3 PUSH2 0x39AD JUMP JUMPDEST PUSH1 0x20 DUP3 ADD SWAP1 POP SWAP2 SWAP1 POP JUMP JUMPDEST PUSH1 0x0 PUSH1 0x20 DUP3 ADD SWAP1 POP DUP2 DUP2 SUB PUSH1 0x0 DUP4 ADD MSTORE PUSH2 0x3A12 DUP2 PUSH2 0x39D6 JUMP JUMPDEST SWAP1 POP SWAP2 SWAP1 POP JUMP JUMPDEST PUSH32 0x41646472657373206E6F74204B594320617070726F7665640000000000000000 PUSH1 0x0 DUP3 ADD MSTORE POP JUMP JUMPDEST PUSH1 0x0 PUSH2 0x3A4F PUSH1 0x18 DUP4 PUSH2 0x2A60 JUMP JUMPDEST SWAP2 POP PUSH2 0x3A5A DUP3 PUSH2 0x3A19 JUMP JUMPDEST PUSH1 0x20 DUP3 ADD SWAP1 POP SWAP2 SWAP1 POP JUMP JUMPDEST PUSH1 0x0 PUSH1 0x20 DUP3 ADD SWAP1 POP DUP2 DUP2 SUB PUSH1 0x0 DUP4 ADD MSTORE PUSH2 0x3A7E DUP2 PUSH2 0x3A42 JUMP JUMPDEST SWAP1 POP SWAP2 SWAP1 POP JUMP JUMPDEST PUSH32 0x416D6F756E742062656C6F77206D696E696D756D20726564656D7074696F6E00 PUSH1 0x0 DUP3 ADD MSTORE POP JUMP JUMPDEST PUSH1 0x0 PUSH2 0x3ABB PUSH1 0x1F DUP4 PUSH2 0x2A60 JUMP JUMPDEST SWAP2 POP PUSH2 0x3AC6 DUP3 PUSH2 0x3A85 JUMP JUMPDEST PUSH1 0x20 DUP3 ADD SWAP1 POP SWAP2 SWAP1 POP JUMP JUMPDEST PUSH1 0x0 PUSH1 0x20 DUP3 ADD SWAP1 POP DUP2 DUP2 SUB PUSH1 0x0 DUP4 ADD MSTORE PUSH2 0x3AEA DUP2 PUSH2 0x3AAE JUMP JUMPDEST SWAP1 POP SWAP2 SWAP1 POP JUMP JUMPDEST PUSH32 0x496E73756666696369656E742062616C616E6365000000000000000000000000 PUSH1 0x0 DUP3 ADD MSTORE POP JUMP JUMPDEST PUSH1 0x0 PUSH2 0x3B27 PUSH1 0x14 DUP4 PUSH2 0x2A60 JUMP JUMPDEST SWAP2 POP PUSH2 0x3B32 DUP3 PUSH2 0x3AF1 JUMP JUMPDEST PUSH1 0x20 DUP3 ADD SWAP1 POP SWAP2 SWAP1 POP JUMP JUMPDEST PUSH1 0x0 PUSH1 0x20 DUP3 ADD SWAP1 POP DUP2 DUP2 SUB PUSH1 0x0 DUP4 ADD MSTORE PUSH2 0x3B56 DUP2 PUSH2 0x3B1A JUMP JUMPDEST SWAP1 POP SWAP2 SWAP1 POP JUMP JUMPDEST PUSH32 0x4E487B7100000000000000000000000000000000000000000000000000000000 PUSH1 0x0 MSTORE PUSH1 0x32 PUSH1 0x4 MSTORE PUSH1 0x24 PUSH1 0x0 REVERT JUMPDEST PUSH1 0x0 PUSH2 0x3B97 DUP3 PUSH2 0x2A21 JUMP JUMPDEST SWAP2 POP PUSH32 0xFFFFFFFFFFFFFFFFFFFFFFFFFFFFFFFFFFFFFFFFFFFFFFFFFFFFFFFFFFFFFFFF DUP3 SUB PUSH2 0x3BC9 JUMPI PUSH2 0x3BC8 PUSH2 0x32B5 JUMP JUMPDEST JUMPDEST PUSH1 0x1 DUP3 ADD SWAP1 POP SWAP2 SWAP1 POP JUMP JUMPDEST PUSH1 0x0 PUSH1 0x60 DUP3 ADD SWAP1 POP PUSH2 0x3BE9 PUSH1 0x0 DUP4 ADD DUP7 PUSH2 0x2CFD JUMP JUMPDEST PUSH2 0x3BF6 PUSH1 0x20 DUP4 ADD DUP6 PUSH2 0x2A2B JUMP JUMPDEST PUSH2 0x3C03 PUSH1 0x40 DUP4 ADD DUP5 PUSH2 0x2A2B JUMP JUMPDEST SWAP5 SWAP4 POP POP POP POP JUMP INVALID LOG2 PUSH5 0x6970667358 0x22 SLT KECCAK256 0xA5 PREVRANDAO 0xF6 0xC3 SSTORE 0xD3 0x26 0xCA PUSH23 0xC8E5069BAB4769FD54EE527A150BDFF08F49C6F2149A9 PUSH5 0x736F6C6343 STOP ADDMOD EQ STOP CALLER "},"methodIdentifiers":{"MAX_COMMUNITY_ALLOCATION()":"1a8459aa","MAX_CONSULTANTS_ALLOCATION()":"ce25af15","MAX_LIQUIDITY_ALLOCATION()":"36957556","MAX_PARTNERSHIPS_ALLOCATION()":"39c48556","MAX_PUBLIC_ALLOCATION()":"bfa19416","MAX_SUPPLY()":"32cb6b0c","MAX_TEAM_ALLOCATION()":"497cd096","MIN_REDEMPTION_AMOUNT()":"8d428398","PUBLIC_ALLOCATION_PERCENTAGE()":"4c4c62f7","TOKEN_PRICE_USD()":"f7a182f5","allowance(address,address)":"dd62ed3e","approve(address,uint256)":"095ea7b3","balanceOf(address)":"70a08231","batchUpdateKycStatus(address[],bool)":"edc2f6b1","burn(uint256)":"42966c68","burnFrom(address,uint256)":"79cc6790","decimals()":"313ce567","developmentTeamWallet()":"f00126ce","extendPresale(uint256)":"7d81d14c","kycApproved(address)":"6641cc64","liquidityReserveWallet()":"bf44eb03","mintCommunityTokens(address,uint256)":"68b8b628","mintConsultantsTokens(address,uint256)":"8ed7eea8","mintLiquidityTokens(uint256)":"6a229698","mintPartnershipsTokens(uint256)":"73d0fdf8","mintPresaleTokens(address,uint256)":"30b2b8aa","mintTeamTokens(uint256)":"5c27cdc3","name()":"06fdde03","owner()":"8da5cb5b","pause()":"8456cb59","paused()":"5c975abb","presaleContractAddress()":"21345f1f","presaleEndTime()":"249b7c19","recordPurchase(address,uint256,string)":"6f597553","redeemWater(uint256)":"dd76c8b7","renounceOwnership()":"715018a6","strategicPartnershipsWallet()":"8ab58e5a","symbol()":"95d89b41","totalCommunityAllocation()":"0ee324ec","totalConsultantsAllocation()":"dc3a771d","totalLiquidityAllocation()":"70d8c02a","totalPartnershipsAllocation()":"980be474","totalPublicAllocation()":"018c65c2","totalSupply()":"18160ddd","totalTeamAllocation()":"6ce28215","transfer(address,uint256)":"a9059cbb","transferFrom(address,address,uint256)":"23b872dd","transferOwnership(address)":"f2fde38b","unpause()":"3f4ba83a","updateKycStatus(address,bool)":"11a9240a","updatePresaleContract(address)":"1124f7dd","updateWallets(address,address,address)":"147c9f6d"}}}}}