{
  "_format": "hh-sol-artifact-1",
  "contractName": "HanumanWaterTokenV2",
  "sourceName": "contracts/HanumanWaterTokenV2.sol",
  "abi": [
    {
      "inputs": [
        {
          "internalType": "address",
          "name": "_developmentTeamWallet",
          "type": "address"
        },
        {
          "internalType": "address",
          "name": "_liquidityReserveWallet",
          "type": "address"
        },
        {
          "internalType": "address",
          "name": "_strategicPartnershipsWallet",
          "type": "address"
        },
        {
          "internalType": "address",
          "name": "_deliveryOperator",
          "type": "address"
        }
      ],
      "stateMutability": "nonpayable",
      "type": "constructor"
    },
    {
      "inputs": [
        {
          "internalType": "address",
          "name": "spender",
          "type": "address"
        },
        {
          "internalType": "uint256",
          "name": "allowance",
          "type": "uint256"
        },
        {
          "internalType": "uint256",
          "name": "needed",
          "type": "uint256"
        }
      ],
      "name": "ERC20InsufficientAllowance",
      "type": "error"
    },
    {
      "inputs": [
        {
          "internalType": "address",
          "name": "sender",
          "type": "address"
        },
        {
          "internalType": "uint256",
          "name": "balance",
          "type": "uint256"
        },
        {
          "internalType": "uint256",
          "name": "needed",
          "type": "uint256"
        }
      ],
      "name": "ERC20InsufficientBalance",
      "type": "error"
    },
    {
      "inputs": [
        {
          "internalType": "address",
          "name": "approver",
          "type": "address"
        }
      ],
      "name": "ERC20InvalidApprover",
      "type": "error"
    },
    {
      "inputs": [
        {
          "internalType": "address",
          "name": "receiver",
          "type": "address"
        }
      ],
      "name": "ERC20InvalidReceiver",
      "type": "error"
    },
    {
      "inputs": [
        {
          "internalType": "address",
          "name": "sender",
          "type": "address"
        }
      ],
      "name": "ERC20InvalidSender",
      "type": "error"
    },
    {
      "inputs": [
        {
          "internalType": "address",
          "name": "spender",
          "type": "address"
        }
      ],
      "name": "ERC20InvalidSpender",
      "type": "error"
    },
    {
      "inputs": [],
      "name": "EnforcedPause",
      "type": "error"
    },
    {
      "inputs": [],
      "name": "ExpectedPause",
      "type": "error"
    },
    {
      "inputs": [
        {
          "internalType": "address",
          "name": "owner",
          "type": "address"
        }
      ],
      "name": "OwnableInvalidOwner",
      "type": "error"
    },
    {
      "inputs": [
        {
          "internalType": "address",
          "name": "account",
          "type": "address"
        }
      ],
      "name": "OwnableUnauthorizedAccount",
      "type": "error"
    },
    {
      "inputs": [],
      "name": "ReentrancyGuardReentrantCall",
      "type": "error"
    },
    {
      "anonymous": false,
      "inputs": [
        {
          "indexed": true,
          "internalType": "address",
          "name": "owner",
          "type": "address"
        },
        {
          "indexed": true,
          "internalType": "address",
          "name": "spender",
          "type": "address"
        },
        {
          "indexed": false,
          "internalType": "uint256",
          "name": "value",
          "type": "uint256"
        }
      ],
      "name": "Approval",
      "type": "event"
    },
    {
      "anonymous": false,
      "inputs": [
        {
          "indexed": true,
          "internalType": "address",
          "name": "user",
          "type": "address"
        },
        {
          "indexed": false,
          "internalType": "bool",
          "name": "status",
          "type": "bool"
        }
      ],
      "name": "KycStatusUpdated",
      "type": "event"
    },
    {
      "anonymous": false,
      "inputs": [
        {
          "indexed": true,
          "internalType": "address",
          "name": "previousOwner",
          "type": "address"
        },
        {
          "indexed": true,
          "internalType": "address",
          "name": "newOwner",
          "type": "address"
        }
      ],
      "name": "OwnershipTransferred",
      "type": "event"
    },
    {
      "anonymous": false,
      "inputs": [
        {
          "indexed": false,
          "internalType": "address",
          "name": "account",
          "type": "address"
        }
      ],
      "name": "Paused",
      "type": "event"
    },
    {
      "anonymous": false,
      "inputs": [
        {
          "indexed": false,
          "internalType": "address",
          "name": "oldPresaleContract",
          "type": "address"
        },
        {
          "indexed": false,
          "internalType": "address",
          "name": "newPresaleContract",
          "type": "address"
        }
      ],
      "name": "PresaleContractUpdated",
      "type": "event"
    },
    {
      "anonymous": false,
      "inputs": [
        {
          "indexed": false,
          "internalType": "uint256",
          "name": "oldEndTime",
          "type": "uint256"
        },
        {
          "indexed": false,
          "internalType": "uint256",
          "name": "newEndTime",
          "type": "uint256"
        }
      ],
      "name": "PresaleExtended",
      "type": "event"
    },
    {
      "anonymous": false,
      "inputs": [
        {
          "indexed": true,
          "internalType": "address",
          "name": "buyer",
          "type": "address"
        },
        {
          "indexed": false,
          "internalType": "uint256",
          "name": "amount",
          "type": "uint256"
        },
        {
          "indexed": false,
          "internalType": "string",
          "name": "paymentMethod",
          "type": "string"
        }
      ],
      "name": "TokensPurchased",
      "type": "event"
    },
    {
      "anonymous": false,
      "inputs": [
        {
          "indexed": true,
          "internalType": "address",
          "name": "from",
          "type": "address"
        },
        {
          "indexed": true,
          "internalType": "address",
          "name": "to",
          "type": "address"
        },
        {
          "indexed": false,
          "internalType": "uint256",
          "name": "value",
          "type": "uint256"
        }
      ],
      "name": "Transfer",
      "type": "event"
    },
    {
      "anonymous": false,
      "inputs": [
        {
          "indexed": false,
          "internalType": "address",
          "name": "account",
          "type": "address"
        }
      ],
      "name": "Unpaused",
      "type": "event"
    },
    {
      "anonymous": false,
      "inputs": [
        {
          "indexed": false,
          "internalType": "address",
          "name": "newDevelopmentTeamWallet",
          "type": "address"
        },
        {
          "indexed": false,
          "internalType": "address",
          "name": "newLiquidityReserveWallet",
          "type": "address"
        },
        {
          "indexed": false,
          "internalType": "address",
          "name": "newStrategicPartnershipsWallet",
          "type": "address"
        }
      ],
      "name": "WalletsUpdated",
      "type": "event"
    },
    {
      "anonymous": false,
      "inputs": [
        {
          "indexed": true,
          "internalType": "address",
          "name": "redeemer",
          "type": "address"
        },
        {
          "indexed": false,
          "internalType": "uint256",
          "name": "tokenAmount",
          "type": "uint256"
        },
        {
          "indexed": false,
          "internalType": "uint256",
          "name": "waterAmount",
          "type": "uint256"
        },
        {
          "indexed": false,
          "internalType": "uint256",
          "name": "redemptionId",
          "type": "uint256"
        }
      ],
      "name": "WaterRedeemed",
      "type": "event"
    },
    {
      "anonymous": false,
      "inputs": [
        {
          "indexed": true,
          "internalType": "uint256",
          "name": "redemptionId",
          "type": "uint256"
        },
        {
          "indexed": true,
          "internalType": "address",
          "name": "redeemer",
          "type": "address"
        },
        {
          "indexed": false,
          "internalType": "uint256",
          "name": "amount",
          "type": "uint256"
        },
        {
          "indexed": false,
          "internalType": "string",
          "name": "reason",
          "type": "string"
        }
      ],
      "name": "WaterRedemptionCancelled",
      "type": "event"
    },
    {
      "anonymous": false,
      "inputs": [
        {
          "indexed": true,
          "internalType": "uint256",
          "name": "redemptionId",
          "type": "uint256"
        },
        {
          "indexed": true,
          "internalType": "address",
          "name": "redeemer",
          "type": "address"
        },
        {
          "indexed": false,
          "internalType": "uint256",
          "name": "amount",
          "type": "uint256"
        }
      ],
      "name": "WaterRedemptionConfirmed",
      "type": "event"
    },
    {
      "anonymous": false,
      "inputs": [
        {
          "indexed": true,
          "internalType": "uint256",
          "name": "redemptionId",
          "type": "uint256"
        },
        {
          "indexed": true,
          "internalType": "address",
          "name": "redeemer",
          "type": "address"
        },
        {
          "indexed": false,
          "internalType": "uint256",
          "name": "amount",
          "type": "uint256"
        }
      ],
      "name": "WaterRedemptionRefunded",
      "type": "event"
    },
    {
      "inputs": [],
      "name": "MAX_BATCH_SIZE",
      "outputs": [
        {
          "internalType": "uint256",
          "name": "",
          "type": "uint256"
        }
      ],
      "stateMutability": "view",
      "type": "function"
    },
    {
      "inputs": [],
      "name": "MAX_COMMUNITY_ALLOCATION",
      "outputs": [
        {
          "internalType": "uint256",
          "name": "",
          "type": "uint256"
        }
      ],
      "stateMutability": "view",
      "type": "function"
    },
    {
      "inputs": [],
      "name": "MAX_CONSULTANTS_ALLOCATION",
      "outputs": [
        {
          "internalType": "uint256",
          "name": "",
          "type": "uint256"
        }
      ],
      "stateMutability": "view",
      "type": "function"
    },
    {
      "inputs": [],
      "name": "MAX_LIQUIDITY_ALLOCATION",
      "outputs": [
        {
          "internalType": "uint256",
          "name": "",
          "type": "uint256"
        }
      ],
      "stateMutability": "view",
      "type": "function"
    },
    {
      "inputs": [],
      "name": "MAX_PARTNERSHIPS_ALLOCATION",
      "outputs": [
        {
          "internalType": "uint256",
          "name": "",
          "type": "uint256"
        }
      ],
      "stateMutability": "view",
      "type": "function"
    },
    {
      "inputs": [],
      "name": "MAX_PRESALE_DURATION",
      "outputs": [
        {
          "internalType": "uint256",
          "name": "",
          "type": "uint256"
        }
      ],
      "stateMutability": "view",
      "type": "function"
    },
    {
      "inputs": [],
      "name": "MAX_PUBLIC_ALLOCATION",
      "outputs": [
        {
          "internalType": "uint256",
          "name": "",
          "type": "uint256"
        }
      ],
      "stateMutability": "view",
      "type": "function"
    },
    {
      "inputs": [],
      "name": "MAX_SUPPLY",
      "outputs": [
        {
          "internalType": "uint256",
          "name": "",
          "type": "uint256"
        }
      ],
      "stateMutability": "view",
      "type": "function"
    },
    {
      "inputs": [],
      "name": "MAX_TEAM_ALLOCATION",
      "outputs": [
        {
          "internalType": "uint256",
          "name": "",
          "type": "uint256"
        }
      ],
      "stateMutability": "view",
      "type": "function"
    },
    {
      "inputs": [],
      "name": "MIN_REDEMPTION_AMOUNT",
      "outputs": [
        {
          "internalType": "uint256",
          "name": "",
          "type": "uint256"
        }
      ],
      "stateMutability": "view",
      "type": "function"
    },
    {
      "inputs": [],
      "name": "PUBLIC_ALLOCATION_PERCENTAGE",
      "outputs": [
        {
          "internalType": "uint256",
          "name": "",
          "type": "uint256"
        }
      ],
      "stateMutability": "view",
      "type": "function"
    },
    {
      "inputs": [],
      "name": "TOKEN_PRICE_USD",
      "outputs": [
        {
          "internalType": "uint256",
          "name": "",
          "type": "uint256"
        }
      ],
      "stateMutability": "view",
      "type": "function"
    },
    {
      "inputs": [],
      "name": "TOTAL_PRESALE_TOKENS",
      "outputs": [
        {
          "internalType": "uint256",
          "name": "",
          "type": "uint256"
        }
      ],
      "stateMutability": "view",
      "type": "function"
    },
    {
      "inputs": [
        {
          "internalType": "address",
          "name": "owner",
          "type": "address"
        },
        {
          "internalType": "address",
          "name": "spender",
          "type": "address"
        }
      ],
      "name": "allowance",
      "outputs": [
        {
          "internalType": "uint256",
          "name": "",
          "type": "uint256"
        }
      ],
      "stateMutability": "view",
      "type": "function"
    },
    {
      "inputs": [
        {
          "internalType": "address",
          "name": "spender",
          "type": "address"
        },
        {
          "internalType": "uint256",
          "name": "value",
          "type": "uint256"
        }
      ],
      "name": "approve",
      "outputs": [
        {
          "internalType": "bool",
          "name": "",
          "type": "bool"
        }
      ],
      "stateMutability": "nonpayable",
      "type": "function"
    },
    {
      "inputs": [
        {
          "internalType": "address",
          "name": "account",
          "type": "address"
        }
      ],
      "name": "balanceOf",
      "outputs": [
        {
          "internalType": "uint256",
          "name": "",
          "type": "uint256"
        }
      ],
      "stateMutability": "view",
      "type": "function"
    },
    {
      "inputs": [
        {
          "internalType": "address[]",
          "name": "_addresses",
          "type": "address[]"
        },
        {
          "internalType": "bool",
          "name": "_status",
          "type": "bool"
        }
      ],
      "name": "batchUpdateKycStatus",
      "outputs": [],
      "stateMutability": "nonpayable",
      "type": "function"
    },
    {
      "inputs": [
        {
          "internalType": "uint256",
          "name": "value",
          "type": "uint256"
        }
      ],
      "name": "burn",
      "outputs": [],
      "stateMutability": "nonpayable",
      "type": "function"
    },
    {
      "inputs": [
        {
          "internalType": "address",
          "name": "account",
          "type": "address"
        },
        {
          "internalType": "uint256",
          "name": "value",
          "type": "uint256"
        }
      ],
      "name": "burnFrom",
      "outputs": [],
      "stateMutability": "nonpayable",
      "type": "function"
    },
    {
      "inputs": [
        {
          "internalType": "uint256",
          "name": "redemptionId",
          "type": "uint256"
        },
        {
          "internalType": "string",
          "name": "reason",
          "type": "string"
        }
      ],
      "name": "cancelWaterRedemption",
      "outputs": [],
      "stateMutability": "nonpayable",
      "type": "function"
    },
    {
      "inputs": [
        {
          "internalType": "uint256",
          "name": "redemptionId",
          "type": "uint256"
        }
      ],
      "name": "confirmWaterDelivery",
      "outputs": [],
      "stateMutability": "nonpayable",
      "type": "function"
    },
    {
      "inputs": [],
      "name": "decimals",
      "outputs": [
        {
          "internalType": "uint8",
          "name": "",
          "type": "uint8"
        }
      ],
      "stateMutability": "view",
      "type": "function"
    },
    {
      "inputs": [],
      "name": "deliveryOperator",
      "outputs": [
        {
          "internalType": "address",
          "name": "",
          "type": "address"
        }
      ],
      "stateMutability": "view",
      "type": "function"
    },
    {
      "inputs": [],
      "name": "developmentTeamWallet",
      "outputs": [
        {
          "internalType": "address",
          "name": "",
          "type": "address"
        }
      ],
      "stateMutability": "view",
      "type": "function"
    },
    {
      "inputs": [
        {
          "internalType": "uint256",
          "name": "_newEndTime",
          "type": "uint256"
        }
      ],
      "name": "extendPresale",
      "outputs": [],
      "stateMutability": "nonpayable",
      "type": "function"
    },
    {
      "inputs": [
        {
          "internalType": "uint256",
          "name": "redemptionId",
          "type": "uint256"
        }
      ],
      "name": "getWaterRedemptionStatus",
      "outputs": [
        {
          "internalType": "address",
          "name": "redeemer",
          "type": "address"
        },
        {
          "internalType": "uint256",
          "name": "amount",
          "type": "uint256"
        },
        {
          "internalType": "uint256",
          "name": "requestTime",
          "type": "uint256"
        },
        {
          "internalType": "uint256",
          "name": "expiryTime",
          "type": "uint256"
        },
        {
          "internalType": "bool",
          "name": "delivered",
          "type": "bool"
        },
        {
          "internalType": "bool",
          "name": "cancelled",
          "type": "bool"
        },
        {
          "internalType": "bool",
          "name": "refunded",
          "type": "bool"
        }
      ],
      "stateMutability": "view",
      "type": "function"
    },
    {
      "inputs": [
        {
          "internalType": "address",
          "name": "",
          "type": "address"
        }
      ],
      "name": "kycApproved",
      "outputs": [
        {
          "internalType": "bool",
          "name": "",
          "type": "bool"
        }
      ],
      "stateMutability": "view",
      "type": "function"
    },
    {
      "inputs": [],
      "name": "liquidityReserveWallet",
      "outputs": [
        {
          "internalType": "address",
          "name": "",
          "type": "address"
        }
      ],
      "stateMutability": "view",
      "type": "function"
    },
    {
      "inputs": [
        {
          "internalType": "address",
          "name": "to",
          "type": "address"
        },
        {
          "internalType": "uint256",
          "name": "amount",
          "type": "uint256"
        }
      ],
      "name": "mintCommunityTokens",
      "outputs": [],
      "stateMutability": "nonpayable",
      "type": "function"
    },
    {
      "inputs": [
        {
          "internalType": "address",
          "name": "to",
          "type": "address"
        },
        {
          "internalType": "uint256",
          "name": "amount",
          "type": "uint256"
        }
      ],
      "name": "mintConsultantsTokens",
      "outputs": [],
      "stateMutability": "nonpayable",
      "type": "function"
    },
    {
      "inputs": [
        {
          "internalType": "uint256",
          "name": "amount",
          "type": "uint256"
        }
      ],
      "name": "mintLiquidityTokens",
      "outputs": [],
      "stateMutability": "nonpayable",
      "type": "function"
    },
    {
      "inputs": [
        {
          "internalType": "uint256",
          "name": "amount",
          "type": "uint256"
        }
      ],
      "name": "mintPartnershipsTokens",
      "outputs": [],
      "stateMutability": "nonpayable",
      "type": "function"
    },
    {
      "inputs": [
        {
          "internalType": "address",
          "name": "to",
          "type": "address"
        },
        {
          "internalType": "uint256",
          "name": "amount",
          "type": "uint256"
        }
      ],
      "name": "mintPresaleTokens",
      "outputs": [],
      "stateMutability": "nonpayable",
      "type": "function"
    },
    {
      "inputs": [
        {
          "internalType": "uint256",
          "name": "amount",
          "type": "uint256"
        }
      ],
      "name": "mintTeamTokens",
      "outputs": [],
      "stateMutability": "nonpayable",
      "type": "function"
    },
    {
      "inputs": [],
      "name": "name",
      "outputs": [
        {
          "internalType": "string",
          "name": "",
          "type": "string"
        }
      ],
      "stateMutability": "view",
      "type": "function"
    },
    {
      "inputs": [],
      "name": "nextRedemptionId",
      "outputs": [
        {
          "internalType": "uint256",
          "name": "",
          "type": "uint256"
        }
      ],
      "stateMutability": "view",
      "type": "function"
    },
    {
      "inputs": [],
      "name": "owner",
      "outputs": [
        {
          "internalType": "address",
          "name": "",
          "type": "address"
        }
      ],
      "stateMutability": "view",
      "type": "function"
    },
    {
      "inputs": [],
      "name": "pause",
      "outputs": [],
      "stateMutability": "nonpayable",
      "type": "function"
    },
    {
      "inputs": [],
      "name": "paused",
      "outputs": [
        {
          "internalType": "bool",
          "name": "",
          "type": "bool"
        }
      ],
      "stateMutability": "view",
      "type": "function"
    },
    {
      "inputs": [],
      "name": "presaleContractAddress",
      "outputs": [
        {
          "internalType": "address",
          "name": "",
          "type": "address"
        }
      ],
      "stateMutability": "view",
      "type": "function"
    },
    {
      "inputs": [],
      "name": "presaleEndTime",
      "outputs": [
        {
          "internalType": "uint256",
          "name": "",
          "type": "uint256"
        }
      ],
      "stateMutability": "view",
      "type": "function"
    },
    {
      "inputs": [
        {
          "internalType": "address",
          "name": "buyer",
          "type": "address"
        },
        {
          "internalType": "uint256",
          "name": "amount",
          "type": "uint256"
        },
        {
          "internalType": "string",
          "name": "paymentMethod",
          "type": "string"
        }
      ],
      "name": "recordPurchase",
      "outputs": [],
      "stateMutability": "nonpayable",
      "type": "function"
    },
    {
      "inputs": [],
      "name": "redemptionExpiryPeriod",
      "outputs": [
        {
          "internalType": "uint256",
          "name": "",
          "type": "uint256"
        }
      ],
      "stateMutability": "view",
      "type": "function"
    },
    {
      "inputs": [
        {
          "internalType": "uint256",
          "name": "redemptionId",
          "type": "uint256"
        }
      ],
      "name": "refundWaterRedemption",
      "outputs": [],
      "stateMutability": "nonpayable",
      "type": "function"
    },
    {
      "inputs": [],
      "name": "renounceOwnership",
      "outputs": [],
      "stateMutability": "nonpayable",
      "type": "function"
    },
    {
      "inputs": [
        {
          "internalType": "uint256",
          "name": "amount",
          "type": "uint256"
        },
        {
          "internalType": "string",
          "name": "deliveryDetails",
          "type": "string"
        }
      ],
      "name": "requestWaterRedemption",
      "outputs": [
        {
          "internalType": "uint256",
          "name": "redemptionId",
          "type": "uint256"
        }
      ],
      "stateMutability": "nonpayable",
      "type": "function"
    },
    {
      "inputs": [],
      "name": "strategicPartnershipsWallet",
      "outputs": [
        {
          "internalType": "address",
          "name": "",
          "type": "address"
        }
      ],
      "stateMutability": "view",
      "type": "function"
    },
    {
      "inputs": [],
      "name": "symbol",
      "outputs": [
        {
          "internalType": "string",
          "name": "",
          "type": "string"
        }
      ],
      "stateMutability": "view",
      "type": "function"
    },
    {
      "inputs": [],
      "name": "totalCommunityAllocation",
      "outputs": [
        {
          "internalType": "uint256",
          "name": "",
          "type": "uint256"
        }
      ],
      "stateMutability": "view",
      "type": "function"
    },
    {
      "inputs": [],
      "name": "totalConsultantsAllocation",
      "outputs": [
        {
          "internalType": "uint256",
          "name": "",
          "type": "uint256"
        }
      ],
      "stateMutability": "view",
      "type": "function"
    },
    {
      "inputs": [],
      "name": "totalLiquidityAllocation",
      "outputs": [
        {
          "internalType": "uint256",
          "name": "",
          "type": "uint256"
        }
      ],
      "stateMutability": "view",
      "type": "function"
    },
    {
      "inputs": [],
      "name": "totalPartnershipsAllocation",
      "outputs": [
        {
          "internalType": "uint256",
          "name": "",
          "type": "uint256"
        }
      ],
      "stateMutability": "view",
      "type": "function"
    },
    {
      "inputs": [],
      "name": "totalPublicAllocation",
      "outputs": [
        {
          "internalType": "uint256",
          "name": "",
          "type": "uint256"
        }
      ],
      "stateMutability": "view",
      "type": "function"
    },
    {
      "inputs": [],
      "name": "totalSupply",
      "outputs": [
        {
          "internalType": "uint256",
          "name": "",
          "type": "uint256"
        }
      ],
      "stateMutability": "view",
      "type": "function"
    },
    {
      "inputs": [],
      "name": "totalTeamAllocation",
      "outputs": [
        {
          "internalType": "uint256",
          "name": "",
          "type": "uint256"
        }
      ],
      "stateMutability": "view",
      "type": "function"
    },
    {
      "inputs": [
        {
          "internalType": "address",
          "name": "to",
          "type": "address"
        },
        {
          "internalType": "uint256",
          "name": "value",
          "type": "uint256"
        }
      ],
      "name": "transfer",
      "outputs": [
        {
          "internalType": "bool",
          "name": "",
          "type": "bool"
        }
      ],
      "stateMutability": "nonpayable",
      "type": "function"
    },
    {
      "inputs": [
        {
          "internalType": "address",
          "name": "from",
          "type": "address"
        },
        {
          "internalType": "address",
          "name": "to",
          "type": "address"
        },
        {
          "internalType": "uint256",
          "name": "value",
          "type": "uint256"
        }
      ],
      "name": "transferFrom",
      "outputs": [
        {
          "internalType": "bool",
          "name": "",
          "type": "bool"
        }
      ],
      "stateMutability": "nonpayable",
      "type": "function"
    },
    {
      "inputs": [
        {
          "internalType": "address",
          "name": "newOwner",
          "type": "address"
        }
      ],
      "name": "transferOwnership",
      "outputs": [],
      "stateMutability": "nonpayable",
      "type": "function"
    },
    {
      "inputs": [],
      "name": "unpause",
      "outputs": [],
      "stateMutability": "nonpayable",
      "type": "function"
    },
    {
      "inputs": [
        {
          "internalType": "address",
          "name": "_newDeliveryOperator",
          "type": "address"
        }
      ],
      "name": "updateDeliveryOperator",
      "outputs": [],
      "stateMutability": "nonpayable",
      "type": "function"
    },
    {
      "inputs": [
        {
          "internalType": "address",
          "name": "_address",
          "type": "address"
        },
        {
          "internalType": "bool",
          "name": "_status",
          "type": "bool"
        }
      ],
      "name": "updateKycStatus",
      "outputs": [],
      "stateMutability": "nonpayable",
      "type": "function"
    },
    {
      "inputs": [
        {
          "internalType": "address",
          "name": "_presaleContractAddress",
          "type": "address"
        }
      ],
      "name": "updatePresaleContract",
      "outputs": [],
      "stateMutability": "nonpayable",
      "type": "function"
    },
    {
      "inputs": [
        {
          "internalType": "uint256",
          "name": "_newPeriod",
          "type": "uint256"
        }
      ],
      "name": "updateRedemptionExpiryPeriod",
      "outputs": [],
      "stateMutability": "nonpayable",
      "type": "function"
    },
    {
      "inputs": [
        {
          "internalType": "address",
          "name": "_developmentTeamWallet",
          "type": "address"
        },
        {
          "internalType": "address",
          "name": "_liquidityReserveWallet",
          "type": "address"
        },
        {
          "internalType": "address",
          "name": "_strategicPartnershipsWallet",
          "type": "address"
        }
      ],
      "name": "updateWallets",
      "outputs": [],
      "stateMutability": "nonpayable",
      "type": "function"
    },
    {
      "inputs": [
        {
          "internalType": "uint256",
          "name": "",
          "type": "uint256"
        }
      ],
      "name": "waterRedemptions",
      "outputs": [
        {
          "internalType": "address",
          "name": "redeemer",
          "type": "address"
        },
        {
          "internalType": "uint256",
          "name": "amount",
          "type": "uint256"
        },
        {
          "internalType": "uint256",
          "name": "requestTime",
          "type": "uint256"
        },
        {
          "internalType": "uint256",
          "name": "expiryTime",
          "type": "uint256"
        },
        {
          "internalType": "bool",
          "name": "delivered",
          "type": "bool"
        },
        {
          "internalType": "bool",
          "name": "cancelled",
          "type": "bool"
        },
        {
          "internalType": "bool",
          "name": "refunded",
          "type": "bool"
        },
        {
          "internalType": "string",
          "name": "deliveryDetails",
          "type": "string"
        }
      ],
      "stateMutability": "view",
      "type": "function"
    }
  ],
  "bytecode": "0x6080604052600160135562278d006015553480156200001d57600080fd5b506040516200677d3803806200677d833981810160405281019062000043919062000583565b336040518060400160405280601381526020017f48616e756d616e20576174657220546f6b656e000000000000000000000000008152506040518060400160405280600381526020017f48575400000000000000000000000000000000000000000000000000000000008152508160039081620000c191906200086f565b508060049081620000d391906200086f565b505050600073ffffffffffffffffffffffffffffffffffffffff168173ffffffffffffffffffffffffffffffffffffffff16036200014b5760006040517f1e4fbdf700000000000000000000000000000000000000000000000000000000815260040162000142919062000967565b60405180910390fd5b6200015c816200045360201b60201c565b506001600681905550600073ffffffffffffffffffffffffffffffffffffffff168473ffffffffffffffffffffffffffffffffffffffff1603620001d7576040517f08c379a0000000000000000000000000000000000000000000000000000000008152600401620001ce9062000a0b565b60405180910390fd5b600073ffffffffffffffffffffffffffffffffffffffff168373ffffffffffffffffffffffffffffffffffffffff160362000249576040517f08c379a0000000000000000000000000000000000000000000000000000000008152600401620002409062000aa3565b60405180910390fd5b600073ffffffffffffffffffffffffffffffffffffffff168273ffffffffffffffffffffffffffffffffffffffff1603620002bb576040517f08c379a0000000000000000000000000000000000000000000000000000000008152600401620002b29062000b3b565b60405180910390fd5b600073ffffffffffffffffffffffffffffffffffffffff168173ffffffffffffffffffffffffffffffffffffffff16036200032d576040517f08c379a0000000000000000000000000000000000000000000000000000000008152600401620003249062000bd3565b60405180910390fd5b83600860006101000a81548173ffffffffffffffffffffffffffffffffffffffff021916908373ffffffffffffffffffffffffffffffffffffffff16021790555082600960006101000a81548173ffffffffffffffffffffffffffffffffffffffff021916908373ffffffffffffffffffffffffffffffffffffffff16021790555081600a60006101000a81548173ffffffffffffffffffffffffffffffffffffffff021916908373ffffffffffffffffffffffffffffffffffffffff16021790555080601660006101000a81548173ffffffffffffffffffffffffffffffffffffffff021916908373ffffffffffffffffffffffffffffffffffffffff1602179055506301e133804262000443919062000c24565b6007819055505050505062000c5f565b6000600560009054906101000a900473ffffffffffffffffffffffffffffffffffffffff16905081600560006101000a81548173ffffffffffffffffffffffffffffffffffffffff021916908373ffffffffffffffffffffffffffffffffffffffff1602179055508173ffffffffffffffffffffffffffffffffffffffff168173ffffffffffffffffffffffffffffffffffffffff167f8be0079c531659141344cd1fd0a4f28419497f9722a3daafe3b4186f6b6457e060405160405180910390a35050565b600080fd5b600073ffffffffffffffffffffffffffffffffffffffff82169050919050565b60006200054b826200051e565b9050919050565b6200055d816200053e565b81146200056957600080fd5b50565b6000815190506200057d8162000552565b92915050565b60008060008060808587031215620005a0576200059f62000519565b5b6000620005b0878288016200056c565b9450506020620005c3878288016200056c565b9350506040620005d6878288016200056c565b9250506060620005e9878288016200056c565b91505092959194509250565b600081519050919050565b7f4e487b7100000000000000000000000000000000000000000000000000000000600052604160045260246000fd5b7f4e487b7100000000000000000000000000000000000000000000000000000000600052602260045260246000fd5b600060028204905060018216806200067757607f821691505b6020821081036200068d576200068c6200062f565b5b50919050565b60008190508160005260206000209050919050565b60006020601f8301049050919050565b600082821b905092915050565b600060088302620006f77fffffffffffffffffffffffffffffffffffffffffffffffffffffffffffffffff82620006b8565b620007038683620006b8565b95508019841693508086168417925050509392505050565b6000819050919050565b6000819050919050565b6000620007506200074a62000744846200071b565b62000725565b6200071b565b9050919050565b6000819050919050565b6200076c836200072f565b620007846200077b8262000757565b848454620006c5565b825550505050565b600090565b6200079b6200078c565b620007a881848462000761565b505050565b5b81811015620007d057620007c460008262000791565b600181019050620007ae565b5050565b601f8211156200081f57620007e98162000693565b620007f484620006a8565b8101602085101562000804578190505b6200081c6200081385620006a8565b830182620007ad565b50505b505050565b600082821c905092915050565b6000620008446000198460080262000824565b1980831691505092915050565b60006200085f838362000831565b9150826002028217905092915050565b6200087a82620005f5565b67ffffffffffffffff81111562000896576200089562000600565b5b620008a282546200065e565b620008af828285620007d4565b600060209050601f831160018114620008e75760008415620008d2578287015190505b620008de858262000851565b8655506200094e565b601f198416620008f78662000693565b60005b828110156200092157848901518255600182019150602085019450602081019050620008fa565b868310156200094157848901516200093d601f89168262000831565b8355505b6001600288020188555050505b505050505050565b62000961816200053e565b82525050565b60006020820190506200097e600083018462000956565b92915050565b600082825260208201905092915050565b7f446576656c6f706d656e74207465616d2077616c6c65742063616e6e6f74206260008201527f65207a65726f2061646472657373000000000000000000000000000000000000602082015250565b6000620009f3602e8362000984565b915062000a008262000995565b604082019050919050565b6000602082019050818103600083015262000a2681620009e4565b9050919050565b7f4c697175696469747920726573657276652077616c6c65742063616e6e6f742060008201527f6265207a65726f20616464726573730000000000000000000000000000000000602082015250565b600062000a8b602f8362000984565b915062000a988262000a2d565b604082019050919050565b6000602082019050818103600083015262000abe8162000a7c565b9050919050565b7f53747261746567696320706172746e657273686970732077616c6c657420636160008201527f6e6e6f74206265207a65726f2061646472657373000000000000000000000000602082015250565b600062000b2360348362000984565b915062000b308262000ac5565b604082019050919050565b6000602082019050818103600083015262000b568162000b14565b9050919050565b7f44656c6976657279206f70657261746f722063616e6e6f74206265207a65726f60008201527f2061646472657373000000000000000000000000000000000000000000000000602082015250565b600062000bbb60288362000984565b915062000bc88262000b5d565b604082019050919050565b6000602082019050818103600083015262000bee8162000bac565b9050919050565b7f4e487b7100000000000000000000000000000000000000000000000000000000600052601160045260246000fd5b600062000c31826200071b565b915062000c3e836200071b565b925082820190508082111562000c595762000c5862000bf5565b5b92915050565b615b0e8062000c6f6000396000f3fe608060405234801561001057600080fd5b50600436106103db5760003560e01c80636f5975531161020a57806399b589c311610125578063d744b702116100b8578063edc2f6b111610087578063edc2f6b114610b1e578063ef6fa45414610b3a578063f00126ce14610b71578063f2fde38b14610b8f578063f7a182f514610bab576103db565b8063d744b70214610a96578063dc3a771d14610ab4578063dd62ed3e14610ad2578063e234e40314610b02576103db565b8063bfa19416116100f4578063bfa1941614610a0c578063c79a77d014610a2a578063ce25af1514610a5a578063cfdbf25414610a78576103db565b806399b589c314610984578063a9059cbb146109a0578063aa1b6c1c146109d0578063bf44eb03146109ee576103db565b80637d81d14c1161019d5780638da5cb5b1161016c5780638da5cb5b1461090e5780638ed7eea81461092c57806395d89b4114610948578063980be47414610966576103db565b80637d81d14c146108ac5780638456cb59146108c85780638ab58e5a146108d25780638d428398146108f0576103db565b806373d0fdf8116101d957806373d0fdf814610838578063757398cc14610854578063763fd2ab1461087257806379cc679014610890576103db565b80636f597553146107c457806370a08231146107e057806370d8c02a14610810578063715018a61461082e576103db565b806336957556116102fa5780635c27cdc31161028d57806367007d0a1161025c57806367007d0a1461075257806368b8b6281461076e5780636a2296981461078a5780636ce28215146107a6576103db565b80635c27cdc3146106ca5780635c975abb146106e65780636641cc641461070457806366a5da8414610734576103db565b806342966c68116102c957806342966c6814610656578063497cd096146106725780634c4c62f7146106905780635ac66d55146106ae576103db565b806336957556146105da57806339c48556146105f85780633f4ba83a14610616578063419e317c14610620576103db565b806318160ddd11610372578063249b7c1911610341578063249b7c191461056457806330b2b8aa14610582578063313ce5671461059e57806332cb6b0c146105bc576103db565b806318160ddd146104da5780631a8459aa146104f857806321345f1f1461051657806323b872dd14610534576103db565b80630ee324ec116103ae5780630ee324ec146104685780631124f7dd1461048657806311a9240a146104a2578063147c9f6d146104be576103db565b8063018c65c2146103e057806306fdde03146103fe578063079d1a7a1461041c578063095ea7b314610438575b600080fd5b6103e8610bc9565b6040516103f59190613c79565b60405180910390f35b610406610bcf565b6040516104139190613d24565b60405180910390f35b61043660048036038101906104319190613d7c565b610c61565b005b610452600480360381019061044d9190613e07565b610eef565b60405161045f9190613e62565b60405180910390f35b610470610f12565b60405161047d9190613c79565b60405180910390f35b6104a0600480360381019061049b9190613e7d565b610f18565b005b6104bc60048036038101906104b79190613ed6565b61102e565b005b6104d860048036038101906104d39190613f16565b61114e565b005b6104e26113a6565b6040516104ef9190613c79565b60405180910390f35b6105006113b0565b60405161050d9190613c79565b60405180910390f35b61051e6113d8565b60405161052b9190613f78565b60405180910390f35b61054e60048036038101906105499190613f93565b6113fe565b60405161055b9190613e62565b60405180910390f35b61056c61142d565b6040516105799190613c79565b60405180910390f35b61059c60048036038101906105979190613e07565b611433565b005b6105a66116ce565b6040516105b39190614002565b60405180910390f35b6105c46116d7565b6040516105d19190613c79565b60405180910390f35b6105e26116e7565b6040516105ef9190613c79565b60405180910390f35b61060061170f565b60405161060d9190613c79565b60405180910390f35b61061e611737565b005b61063a60048036038101906106359190613d7c565b611749565b60405161064d979695949392919061401d565b60405180910390f35b610670600480360381019061066b9190613d7c565b611881565b005b61067a611895565b6040516106879190613c79565b60405180910390f35b6106986118bd565b6040516106a59190613c79565b60405180910390f35b6106c860048036038101906106c391906140f1565b6118c2565b005b6106e460048036038101906106df9190613d7c565b611ba8565b005b6106ee611cc7565b6040516106fb9190613e62565b60405180910390f35b61071e60048036038101906107199190613e7d565b611cde565b60405161072b9190613e62565b60405180910390f35b61073c611cfe565b6040516107499190613c79565b60405180910390f35b61076c60048036038101906107679190613e7d565b611d04565b005b61078860048036038101906107839190613e07565b611dbf565b005b6107a4600480360381019061079f9190613d7c565b611f2c565b005b6107ae61204b565b6040516107bb9190613c79565b60405180910390f35b6107de60048036038101906107d99190614151565b612051565b005b6107fa60048036038101906107f59190613e7d565b6121c0565b6040516108079190613c79565b60405180910390f35b610818612208565b6040516108259190613c79565b60405180910390f35b61083661220e565b005b610852600480360381019061084d9190613d7c565b612222565b005b61085c612341565b6040516108699190613f78565b60405180910390f35b61087a612367565b6040516108879190613c79565b60405180910390f35b6108aa60048036038101906108a59190613e07565b612376565b005b6108c660048036038101906108c19190613d7c565b612396565b005b6108d06124d4565b005b6108da6124e6565b6040516108e79190613f78565b60405180910390f35b6108f861250c565b6040516109059190613c79565b60405180910390f35b610916612511565b6040516109239190613f78565b60405180910390f35b61094660048036038101906109419190613e07565b61253b565b005b6109506126a8565b60405161095d9190613d24565b60405180910390f35b61096e61273a565b60405161097b9190613c79565b60405180910390f35b61099e60048036038101906109999190613d7c565b612740565b005b6109ba60048036038101906109b59190613e07565b612a67565b6040516109c79190613e62565b60405180910390f35b6109d8612a8a565b6040516109e59190613c79565b60405180910390f35b6109f6612a90565b604051610a039190613f78565b60405180910390f35b610a14612ab6565b604051610a219190613c79565b60405180910390f35b610a446004803603810190610a3f91906140f1565b612ade565b604051610a519190613c79565b60405180910390f35b610a62612e76565b604051610a6f9190613c79565b60405180910390f35b610a80612e9e565b604051610a8d9190613c79565b60405180910390f35b610a9e612ea3565b604051610aab9190613c79565b60405180910390f35b610abc612eab565b604051610ac99190613c79565b60405180910390f35b610aec6004803603810190610ae791906141c5565b612eb1565b604051610af99190613c79565b60405180910390f35b610b1c6004803603810190610b179190613d7c565b612f38565b005b610b386004803603810190610b33919061425b565b612f90565b005b610b546004803603810190610b4f9190613d7c565b6130f9565b604051610b689897969594939291906142bb565b60405180910390f35b610b79613210565b604051610b869190613f78565b60405180910390f35b610ba96004803603810190610ba49190613e7d565b613236565b005b610bb36132bc565b604051610bc09190613c79565b60405180910390f35b600c5481565b606060038054610bde9061436f565b80601f0160208091040260200160405190810160405280929190818152602001828054610c0a9061436f565b8015610c575780601f10610c2c57610100808354040283529160200191610c57565b820191906000526020600020905b815481529060010190602001808311610c3a57829003601f168201915b5050505050905090565b610c696132c1565b610c71613302565b60006014600083815260200190815260200160002090503373ffffffffffffffffffffffffffffffffffffffff168160000160009054906101000a900473ffffffffffffffffffffffffffffffffffffffff1673ffffffffffffffffffffffffffffffffffffffff1614610d1a576040517f08c379a0000000000000000000000000000000000000000000000000000000008152600401610d11906143ec565b60405180910390fd5b8060040160009054906101000a900460ff1615610d6c576040517f08c379a0000000000000000000000000000000000000000000000000000000008152600401610d6390614458565b60405180910390fd5b8060040160029054906101000a900460ff1615610dbe576040517f08c379a0000000000000000000000000000000000000000000000000000000008152600401610db5906144c4565b60405180910390fd5b8060040160019054906101000a900460ff1680610dde5750806003015442115b610e1d576040517f08c379a0000000000000000000000000000000000000000000000000000000008152600401610e1490614556565b60405180910390fd5b60018160040160026101000a81548160ff021916908315150217905550610e6c8160000160009054906101000a900473ffffffffffffffffffffffffffffffffffffffff168260010154613348565b8060000160009054906101000a900473ffffffffffffffffffffffffffffffffffffffff1673ffffffffffffffffffffffffffffffffffffffff16827fbaf4056f72e666e352e50c8707edea47b447b8fbf03737bc09e3a6dffa1bb6288360010154604051610edb9190613c79565b60405180910390a350610eec6133ca565b50565b600080610efa6133d4565b9050610f078185856133dc565b600191505092915050565b60105481565b610f206133ee565b600073ffffffffffffffffffffffffffffffffffffffff168173ffffffffffffffffffffffffffffffffffffffff1603610f8f576040517f08c379a0000000000000000000000000000000000000000000000000000000008152600401610f86906145e8565b60405180910390fd5b7f48db9733cbf86a2d1f8a2f6382ba5ecb3521f61be8171c2f9ed84dcb1a250b0d600b60009054906101000a900473ffffffffffffffffffffffffffffffffffffffff1682604051610fe2929190614608565b60405180910390a180600b60006101000a81548173ffffffffffffffffffffffffffffffffffffffff021916908373ffffffffffffffffffffffffffffffffffffffff16021790555050565b6110366133ee565b600073ffffffffffffffffffffffffffffffffffffffff168273ffffffffffffffffffffffffffffffffffffffff16036110a5576040517f08c379a000000000000000000000000000000000000000000000000000000000815260040161109c9061467d565b60405180910390fd5b80601260008473ffffffffffffffffffffffffffffffffffffffff1673ffffffffffffffffffffffffffffffffffffffff16815260200190815260200160002060006101000a81548160ff0219169083151502179055508173ffffffffffffffffffffffffffffffffffffffff167f68f988a99a662709db2880bcf3565145de442766ee59e35b587df59dd619bd3d826040516111429190613e62565b60405180910390a25050565b6111566133ee565b600073ffffffffffffffffffffffffffffffffffffffff168373ffffffffffffffffffffffffffffffffffffffff16036111c5576040517f08c379a00000000000000000000000000000000000000000000000000000000081526004016111bc9061470f565b60405180910390fd5b600073ffffffffffffffffffffffffffffffffffffffff168273ffffffffffffffffffffffffffffffffffffffff1603611234576040517f08c379a000000000000000000000000000000000000000000000000000000000815260040161122b906147a1565b60405180910390fd5b600073ffffffffffffffffffffffffffffffffffffffff168173ffffffffffffffffffffffffffffffffffffffff16036112a3576040517f08c379a000000000000000000000000000000000000000000000000000000000815260040161129a90614833565b60405180910390fd5b82600860006101000a81548173ffffffffffffffffffffffffffffffffffffffff021916908373ffffffffffffffffffffffffffffffffffffffff16021790555081600960006101000a81548173ffffffffffffffffffffffffffffffffffffffff021916908373ffffffffffffffffffffffffffffffffffffffff16021790555080600a60006101000a81548173ffffffffffffffffffffffffffffffffffffffff021916908373ffffffffffffffffffffffffffffffffffffffff1602179055507f2d4c6aa48812a0ea09474a961613c1a3ae652d39a1580cb1ac46ff277e6d385d83838360405161139993929190614853565b60405180910390a1505050565b6000600254905090565b606460036b019d971e4fe8401e740000006113cb91906148b9565b6113d5919061492a565b81565b600b60009054906101000a900473ffffffffffffffffffffffffffffffffffffffff1681565b6000806114096133d4565b9050611416858285613475565b61142185858561350a565b60019150509392505050565b60075481565b600b60009054906101000a900473ffffffffffffffffffffffffffffffffffffffff1673ffffffffffffffffffffffffffffffffffffffff163373ffffffffffffffffffffffffffffffffffffffff16146114c3576040517f08c379a00000000000000000000000000000000000000000000000000000000081526004016114ba906149cd565b60405180910390fd5b600754421115611508576040517f08c379a00000000000000000000000000000000000000000000000000000000081526004016114ff90614a39565b60405180910390fd5b6115106132c1565b611518613302565b600073ffffffffffffffffffffffffffffffffffffffff168273ffffffffffffffffffffffffffffffffffffffff1603611587576040517f08c379a000000000000000000000000000000000000000000000000000000000815260040161157e90614aa5565b60405180910390fd5b600081116115ca576040517f08c379a00000000000000000000000000000000000000000000000000000000081526004016115c190614b11565b60405180910390fd5b6b019d971e4fe8401e74000000816115e06113a6565b6115ea9190614b31565b111561162b576040517f08c379a000000000000000000000000000000000000000000000000000000000815260040161162290614bb1565b60405180910390fd5b606460506b019d971e4fe8401e7400000061164691906148b9565b611650919061492a565b81600c5461165e9190614b31565b111561169f576040517f08c379a000000000000000000000000000000000000000000000000000000000815260040161169690614c1d565b60405180910390fd5b80600c60008282546116b19190614b31565b925050819055506116c28282613348565b6116ca6133ca565b5050565b60006012905090565b6b019d971e4fe8401e7400000081565b606460056b019d971e4fe8401e7400000061170291906148b9565b61170c919061492a565b81565b606460036b019d971e4fe8401e7400000061172a91906148b9565b611734919061492a565b81565b61173f6133ee565b6117476135fe565b565b600080600080600080600080601460008a81526020019081526020016000209050600073ffffffffffffffffffffffffffffffffffffffff168160000160009054906101000a900473ffffffffffffffffffffffffffffffffffffffff1673ffffffffffffffffffffffffffffffffffffffff16036117fd576040517f08c379a00000000000000000000000000000000000000000000000000000000081526004016117f490614c89565b60405180910390fd5b8060000160009054906101000a900473ffffffffffffffffffffffffffffffffffffffff168160010154826002015483600301548460040160009054906101000a900460ff168560040160019054906101000a900460ff168660040160029054906101000a900460ff16975097509750975097509750975050919395979092949650565b61189261188c6133d4565b82613661565b50565b606460066b019d971e4fe8401e740000006118b091906148b9565b6118ba919061492a565b81565b605081565b6118ca6132c1565b6118d2613302565b601660009054906101000a900473ffffffffffffffffffffffffffffffffffffffff1673ffffffffffffffffffffffffffffffffffffffff163373ffffffffffffffffffffffffffffffffffffffff1614611962576040517f08c379a000000000000000000000000000000000000000000000000000000000815260040161195990614d1b565b60405180910390fd5b6000601460008581526020019081526020016000209050600073ffffffffffffffffffffffffffffffffffffffff168160000160009054906101000a900473ffffffffffffffffffffffffffffffffffffffff1673ffffffffffffffffffffffffffffffffffffffff1603611a0c576040517f08c379a0000000000000000000000000000000000000000000000000000000008152600401611a0390614c89565b60405180910390fd5b8060040160009054906101000a900460ff1615611a5e576040517f08c379a0000000000000000000000000000000000000000000000000000000008152600401611a5590614458565b60405180910390fd5b8060040160019054906101000a900460ff1615611ab0576040517f08c379a0000000000000000000000000000000000000000000000000000000008152600401611aa790614d87565b60405180910390fd5b8060040160029054906101000a900460ff1615611b02576040517f08c379a0000000000000000000000000000000000000000000000000000000008152600401611af990614df3565b60405180910390fd5b60018160040160016101000a81548160ff0219169083151502179055508060000160009054906101000a900473ffffffffffffffffffffffffffffffffffffffff1673ffffffffffffffffffffffffffffffffffffffff16847f58ce9597adf7bf4ba76ec4f3925731b01bea2de781d92444356eca0b012af18683600101548686604051611b9293929190614e4f565b60405180910390a350611ba36133ca565b505050565b611bb06133ee565b611bb86132c1565b611bc0613302565b60008111611c03576040517f08c379a0000000000000000000000000000000000000000000000000000000008152600401611bfa90614b11565b60405180910390fd5b606460066b019d971e4fe8401e74000000611c1e91906148b9565b611c28919061492a565b81600d54611c369190614b31565b1115611c77576040517f08c379a0000000000000000000000000000000000000000000000000000000008152600401611c6e90614ecd565b60405180910390fd5b80600d6000828254611c899190614b31565b92505081905550611cbc600860009054906101000a900473ffffffffffffffffffffffffffffffffffffffff1682613348565b611cc46133ca565b50565b6000600560149054906101000a900460ff16905090565b60126020528060005260406000206000915054906101000a900460ff1681565b60135481565b611d0c6133ee565b600073ffffffffffffffffffffffffffffffffffffffff168173ffffffffffffffffffffffffffffffffffffffff1603611d7b576040517f08c379a0000000000000000000000000000000000000000000000000000000008152600401611d7290614f5f565b60405180910390fd5b80601660006101000a81548173ffffffffffffffffffffffffffffffffffffffff021916908373ffffffffffffffffffffffffffffffffffffffff16021790555050565b611dc76133ee565b611dcf6132c1565b611dd7613302565b600073ffffffffffffffffffffffffffffffffffffffff168273ffffffffffffffffffffffffffffffffffffffff1603611e46576040517f08c379a0000000000000000000000000000000000000000000000000000000008152600401611e3d90614aa5565b60405180910390fd5b60008111611e89576040517f08c379a0000000000000000000000000000000000000000000000000000000008152600401611e8090614b11565b60405180910390fd5b606460036b019d971e4fe8401e74000000611ea491906148b9565b611eae919061492a565b81601054611ebc9190614b31565b1115611efd576040517f08c379a0000000000000000000000000000000000000000000000000000000008152600401611ef490614fcb565b60405180910390fd5b8060106000828254611f0f9190614b31565b92505081905550611f208282613348565b611f286133ca565b5050565b611f346133ee565b611f3c6132c1565b611f44613302565b60008111611f87576040517f08c379a0000000000000000000000000000000000000000000000000000000008152600401611f7e90614b11565b60405180910390fd5b606460056b019d971e4fe8401e74000000611fa291906148b9565b611fac919061492a565b81600e54611fba9190614b31565b1115611ffb576040517f08c379a0000000000000000000000000000000000000000000000000000000008152600401611ff290615037565b60405180910390fd5b80600e600082825461200d9190614b31565b92505081905550612040600960009054906101000a900473ffffffffffffffffffffffffffffffffffffffff1682613348565b6120486133ca565b50565b600d5481565b6120596133ee565b60075442111561209e576040517f08c379a000000000000000000000000000000000000000000000000000000000815260040161209590614a39565b60405180910390fd5b6120a66132c1565b6120ae613302565b600073ffffffffffffffffffffffffffffffffffffffff168473ffffffffffffffffffffffffffffffffffffffff160361211d576040517f08c379a0000000000000000000000000000000000000000000000000000000008152600401612114906150a3565b60405180910390fd5b60008311612160576040517f08c379a000000000000000000000000000000000000000000000000000000000815260040161215790614b11565b60405180910390fd5b8373ffffffffffffffffffffffffffffffffffffffff167f9ffc61f9a5071474fc516dd5798d66ef34a007da20386052b5351504c0250cfe8484846040516121aa93929190614e4f565b60405180910390a26121ba6133ca565b50505050565b60008060008373ffffffffffffffffffffffffffffffffffffffff1673ffffffffffffffffffffffffffffffffffffffff168152602001908152602001600020549050919050565b600e5481565b6122166133ee565b61222060006136e3565b565b61222a6133ee565b6122326132c1565b61223a613302565b6000811161227d576040517f08c379a000000000000000000000000000000000000000000000000000000000815260040161227490614b11565b60405180910390fd5b606460036b019d971e4fe8401e7400000061229891906148b9565b6122a2919061492a565b81600f546122b09190614b31565b11156122f1576040517f08c379a00000000000000000000000000000000000000000000000000000000081526004016122e89061510f565b60405180910390fd5b80600f60008282546123039190614b31565b92505081905550612336600a60009054906101000a900473ffffffffffffffffffffffffffffffffffffffff1682613348565b61233e6133ca565b50565b601660009054906101000a900473ffffffffffffffffffffffffffffffffffffffff1681565b6a52b7d2dcc80cd2e400000081565b612388826123826133d4565b83613475565b6123928282613661565b5050565b61239e6133ee565b60075481116123e2576040517f08c379a00000000000000000000000000000000000000000000000000000000081526004016123d9906151a1565b60405180910390fd5b60006301e13380426123f49190614b31565b905080821115612439576040517f08c379a000000000000000000000000000000000000000000000000000000000815260040161243090615233565b60405180910390fd5b6a52b7d2dcc80cd2e4000000600c5410612488576040517f08c379a000000000000000000000000000000000000000000000000000000000815260040161247f906152c5565b60405180910390fd5b60006007549050826007819055507f36590996dea047dc12d17ec2643248f8b86eb37e78941b43d9e9049180efb7b081846040516124c79291906152e5565b60405180910390a1505050565b6124dc6133ee565b6124e46137a9565b565b600a60009054906101000a900473ffffffffffffffffffffffffffffffffffffffff1681565b606481565b6000600560009054906101000a900473ffffffffffffffffffffffffffffffffffffffff16905090565b6125436133ee565b61254b6132c1565b612553613302565b600073ffffffffffffffffffffffffffffffffffffffff168273ffffffffffffffffffffffffffffffffffffffff16036125c2576040517f08c379a00000000000000000000000000000000000000000000000000000000081526004016125b990614aa5565b60405180910390fd5b60008111612605576040517f08c379a00000000000000000000000000000000000000000000000000000000081526004016125fc90614b11565b60405180910390fd5b606460036b019d971e4fe8401e7400000061262091906148b9565b61262a919061492a565b816011546126389190614b31565b1115612679576040517f08c379a00000000000000000000000000000000000000000000000000000000081526004016126709061535a565b60405180910390fd5b806011600082825461268b9190614b31565b9250508190555061269c8282613348565b6126a46133ca565b5050565b6060600480546126b79061436f565b80601f01602080910402602001604051908101604052809291908181526020018280546126e39061436f565b80156127305780601f1061270557610100808354040283529160200191612730565b820191906000526020600020905b81548152906001019060200180831161271357829003601f168201915b5050505050905090565b600f5481565b6127486132c1565b612750613302565b601660009054906101000a900473ffffffffffffffffffffffffffffffffffffffff1673ffffffffffffffffffffffffffffffffffffffff163373ffffffffffffffffffffffffffffffffffffffff16146127e0576040517f08c379a00000000000000000000000000000000000000000000000000000000081526004016127d790614d1b565b60405180910390fd5b6000601460008381526020019081526020016000209050600073ffffffffffffffffffffffffffffffffffffffff168160000160009054906101000a900473ffffffffffffffffffffffffffffffffffffffff1673ffffffffffffffffffffffffffffffffffffffff160361288a576040517f08c379a000000000000000000000000000000000000000000000000000000000815260040161288190614c89565b60405180910390fd5b8060040160009054906101000a900460ff16156128dc576040517f08c379a00000000000000000000000000000000000000000000000000000000081526004016128d390614458565b60405180910390fd5b8060040160019054906101000a900460ff161561292e576040517f08c379a0000000000000000000000000000000000000000000000000000000008152600401612925906153c6565b60405180910390fd5b8060040160029054906101000a900460ff1615612980576040517f08c379a000000000000000000000000000000000000000000000000000000000815260040161297790615432565b60405180910390fd5b80600301544211156129c7576040517f08c379a00000000000000000000000000000000000000000000000000000000081526004016129be9061549e565b60405180910390fd5b60018160040160006101000a81548160ff0219169083151502179055508060000160009054906101000a900473ffffffffffffffffffffffffffffffffffffffff1673ffffffffffffffffffffffffffffffffffffffff16827f5aabbaa2f6ad8209e2f3574652de383dc6381bf144f8c7174b7d95268c4f436d8360010154604051612a539190613c79565b60405180910390a350612a646133ca565b50565b600080612a726133d4565b9050612a7f81858561350a565b600191505092915050565b60155481565b600960009054906101000a900473ffffffffffffffffffffffffffffffffffffffff1681565b606460506b019d971e4fe8401e74000000612ad191906148b9565b612adb919061492a565b81565b6000612ae86132c1565b612af0613302565b33601260008273ffffffffffffffffffffffffffffffffffffffff1673ffffffffffffffffffffffffffffffffffffffff16815260200190815260200160002060009054906101000a900460ff16612b7d576040517f08c379a0000000000000000000000000000000000000000000000000000000008152600401612b749061550a565b60405180910390fd5b6064851015612bc1576040517f08c379a0000000000000000000000000000000000000000000000000000000008152600401612bb890615576565b60405180910390fd5b84612bcb336121c0565b1015612c0c576040517f08c379a0000000000000000000000000000000000000000000000000000000008152600401612c03906155e2565b60405180910390fd5b60008484905011612c52576040517f08c379a0000000000000000000000000000000000000000000000000000000008152600401612c499061564e565b60405180910390fd5b601354915060136000815480929190612c6a9061566e565b9190505550612c793386613661565b6040518061010001604052803373ffffffffffffffffffffffffffffffffffffffff16815260200186815260200142815260200160155442612cbb9190614b31565b815260200160001515815260200160001515815260200160001515815260200185858080601f016020809104026020016040519081016040528093929190818152602001838380828437600081840152601f19601f820116905080830192505050505050508152506014600084815260200190815260200160002060008201518160000160006101000a81548173ffffffffffffffffffffffffffffffffffffffff021916908373ffffffffffffffffffffffffffffffffffffffff16021790555060208201518160010155604082015181600201556060820151816003015560808201518160040160006101000a81548160ff02191690831515021790555060a08201518160040160016101000a81548160ff02191690831515021790555060c08201518160040160026101000a81548160ff02191690831515021790555060e0820151816005019081612e109190615891565b509050503373ffffffffffffffffffffffffffffffffffffffff167fd91d825440297e55cd7db1b6f9139235e37418ba6075c5593d4106da8e6d4d14868785604051612e5e93929190615963565b60405180910390a250612e6f6133ca565b9392505050565b606460036b019d971e4fe8401e74000000612e9191906148b9565b612e9b919061492a565b81565b606481565b6301e1338081565b60115481565b6000600160008473ffffffffffffffffffffffffffffffffffffffff1673ffffffffffffffffffffffffffffffffffffffff16815260200190815260200160002060008373ffffffffffffffffffffffffffffffffffffffff1673ffffffffffffffffffffffffffffffffffffffff16815260200190815260200160002054905092915050565b612f406133ee565b62093a80811015612f86576040517f08c379a0000000000000000000000000000000000000000000000000000000008152600401612f7d906159e6565b60405180910390fd5b8060158190555050565b612f986133ee565b6064838390501115612fdf576040517f08c379a0000000000000000000000000000000000000000000000000000000008152600401612fd690615a52565b60405180910390fd5b60005b838390508110156130f357816012600086868581811061300557613004615a72565b5b905060200201602081019061301a9190613e7d565b73ffffffffffffffffffffffffffffffffffffffff1673ffffffffffffffffffffffffffffffffffffffff16815260200190815260200160002060006101000a81548160ff02191690831515021790555083838281811061307e5761307d615a72565b5b90506020020160208101906130939190613e7d565b73ffffffffffffffffffffffffffffffffffffffff167f68f988a99a662709db2880bcf3565145de442766ee59e35b587df59dd619bd3d836040516130d89190613e62565b60405180910390a280806130eb9061566e565b915050612fe2565b50505050565b60146020528060005260406000206000915090508060000160009054906101000a900473ffffffffffffffffffffffffffffffffffffffff16908060010154908060020154908060030154908060040160009054906101000a900460ff16908060040160019054906101000a900460ff16908060040160029054906101000a900460ff169080600501805461318d9061436f565b80601f01602080910402602001604051908101604052809291908181526020018280546131b99061436f565b80156132065780601f106131db57610100808354040283529160200191613206565b820191906000526020600020905b8154815290600101906020018083116131e957829003601f168201915b5050505050905088565b600860009054906101000a900473ffffffffffffffffffffffffffffffffffffffff1681565b61323e6133ee565b600073ffffffffffffffffffffffffffffffffffffffff168173ffffffffffffffffffffffffffffffffffffffff16036132b05760006040517f1e4fbdf70000000000000000000000000000000000000000000000000000000081526004016132a79190613f78565b60405180910390fd5b6132b9816136e3565b50565b600281565b6132c9611cc7565b15613300576040517fd93c066500000000000000000000000000000000000000000000000000000000815260040160405180910390fd5b565b60026006540361333e576040517f3ee5aeb500000000000000000000000000000000000000000000000000000000815260040160405180910390fd5b6002600681905550565b600073ffffffffffffffffffffffffffffffffffffffff168273ffffffffffffffffffffffffffffffffffffffff16036133ba5760006040517fec442f050000000000000000000000000000000000000000000000000000000081526004016133b19190613f78565b60405180910390fd5b6133c66000838361380c565b5050565b6001600681905550565b600033905090565b6133e98383836001613824565b505050565b6133f66133d4565b73ffffffffffffffffffffffffffffffffffffffff16613414612511565b73ffffffffffffffffffffffffffffffffffffffff1614613473576134376133d4565b6040517f118cdaa700000000000000000000000000000000000000000000000000000000815260040161346a9190613f78565b60405180910390fd5b565b60006134818484612eb1565b90507fffffffffffffffffffffffffffffffffffffffffffffffffffffffffffffffff81101561350457818110156134f4578281836040517ffb8f41b20000000000000000000000000000000000000000000000000000000081526004016134eb93929190615aa1565b60405180910390fd5b61350384848484036000613824565b5b50505050565b600073ffffffffffffffffffffffffffffffffffffffff168373ffffffffffffffffffffffffffffffffffffffff160361357c5760006040517f96c6fd1e0000000000000000000000000000000000000000000000000000000081526004016135739190613f78565b60405180910390fd5b600073ffffffffffffffffffffffffffffffffffffffff168273ffffffffffffffffffffffffffffffffffffffff16036135ee5760006040517fec442f050000000000000000000000000000000000000000000000000000000081526004016135e59190613f78565b60405180910390fd5b6135f983838361380c565b505050565b6136066139fb565b6000600560146101000a81548160ff0219169083151502179055507f5db9ee0a495bf2e6ff9c91a7834c1ba4fdd244a5e8aa4e537bd38aeae4b073aa61364a6133d4565b6040516136579190613f78565b60405180910390a1565b600073ffffffffffffffffffffffffffffffffffffffff168273ffffffffffffffffffffffffffffffffffffffff16036136d35760006040517f96c6fd1e0000000000000000000000000000000000000000000000000000000081526004016136ca9190613f78565b60405180910390fd5b6136df8260008361380c565b5050565b6000600560009054906101000a900473ffffffffffffffffffffffffffffffffffffffff16905081600560006101000a81548173ffffffffffffffffffffffffffffffffffffffff021916908373ffffffffffffffffffffffffffffffffffffffff1602179055508173ffffffffffffffffffffffffffffffffffffffff168173ffffffffffffffffffffffffffffffffffffffff167f8be0079c531659141344cd1fd0a4f28419497f9722a3daafe3b4186f6b6457e060405160405180910390a35050565b6137b16132c1565b6001600560146101000a81548160ff0219169083151502179055507f62e78cea01bee320cd4e420270b5ea74000d11b0c9f74754ebdbfc544b05a2586137f56133d4565b6040516138029190613f78565b60405180910390a1565b6138146132c1565b61381f838383613a3b565b505050565b600073ffffffffffffffffffffffffffffffffffffffff168473ffffffffffffffffffffffffffffffffffffffff16036138965760006040517fe602df0500000000000000000000000000000000000000000000000000000000815260040161388d9190613f78565b60405180910390fd5b600073ffffffffffffffffffffffffffffffffffffffff168373ffffffffffffffffffffffffffffffffffffffff16036139085760006040517f94280d620000000000000000000000000000000000000000000000000000000081526004016138ff9190613f78565b60405180910390fd5b81600160008673ffffffffffffffffffffffffffffffffffffffff1673ffffffffffffffffffffffffffffffffffffffff16815260200190815260200160002060008573ffffffffffffffffffffffffffffffffffffffff1673ffffffffffffffffffffffffffffffffffffffff1681526020019081526020016000208190555080156139f5578273ffffffffffffffffffffffffffffffffffffffff168473ffffffffffffffffffffffffffffffffffffffff167f8c5be1e5ebec7d5bd14f71427d1e84f3dd0314c0f7b2291e5b200ac8c7c3b925846040516139ec9190613c79565b60405180910390a35b50505050565b613a03611cc7565b613a39576040517f8dfc202b00000000000000000000000000000000000000000000000000000000815260040160405180910390fd5b565b600073ffffffffffffffffffffffffffffffffffffffff168373ffffffffffffffffffffffffffffffffffffffff1603613a8d578060026000828254613a819190614b31565b92505081905550613b60565b60008060008573ffffffffffffffffffffffffffffffffffffffff1673ffffffffffffffffffffffffffffffffffffffff16815260200190815260200160002054905081811015613b19578381836040517fe450d38c000000000000000000000000000000000000000000000000000000008152600401613b1093929190615aa1565b60405180910390fd5b8181036000808673ffffffffffffffffffffffffffffffffffffffff1673ffffffffffffffffffffffffffffffffffffffff16815260200190815260200160002081905550505b600073ffffffffffffffffffffffffffffffffffffffff168273ffffffffffffffffffffffffffffffffffffffff1603613ba95780600260008282540392505081905550613bf6565b806000808473ffffffffffffffffffffffffffffffffffffffff1673ffffffffffffffffffffffffffffffffffffffff168152602001908152602001600020600082825401925050819055505b8173ffffffffffffffffffffffffffffffffffffffff168373ffffffffffffffffffffffffffffffffffffffff167fddf252ad1be2c89b69c2b068fc378daa952ba7f163c4a11628f55a4df523b3ef83604051613c539190613c79565b60405180910390a3505050565b6000819050919050565b613c7381613c60565b82525050565b6000602082019050613c8e6000830184613c6a565b92915050565b600081519050919050565b600082825260208201905092915050565b60005b83811015613cce578082015181840152602081019050613cb3565b60008484015250505050565b6000601f19601f8301169050919050565b6000613cf682613c94565b613d008185613c9f565b9350613d10818560208601613cb0565b613d1981613cda565b840191505092915050565b60006020820190508181036000830152613d3e8184613ceb565b905092915050565b600080fd5b600080fd5b613d5981613c60565b8114613d6457600080fd5b50565b600081359050613d7681613d50565b92915050565b600060208284031215613d9257613d91613d46565b5b6000613da084828501613d67565b91505092915050565b600073ffffffffffffffffffffffffffffffffffffffff82169050919050565b6000613dd482613da9565b9050919050565b613de481613dc9565b8114613def57600080fd5b50565b600081359050613e0181613ddb565b92915050565b60008060408385031215613e1e57613e1d613d46565b5b6000613e2c85828601613df2565b9250506020613e3d85828601613d67565b9150509250929050565b60008115159050919050565b613e5c81613e47565b82525050565b6000602082019050613e776000830184613e53565b92915050565b600060208284031215613e9357613e92613d46565b5b6000613ea184828501613df2565b91505092915050565b613eb381613e47565b8114613ebe57600080fd5b50565b600081359050613ed081613eaa565b92915050565b60008060408385031215613eed57613eec613d46565b5b6000613efb85828601613df2565b9250506020613f0c85828601613ec1565b9150509250929050565b600080600060608486031215613f2f57613f2e613d46565b5b6000613f3d86828701613df2565b9350506020613f4e86828701613df2565b9250506040613f5f86828701613df2565b9150509250925092565b613f7281613dc9565b82525050565b6000602082019050613f8d6000830184613f69565b92915050565b600080600060608486031215613fac57613fab613d46565b5b6000613fba86828701613df2565b9350506020613fcb86828701613df2565b9250506040613fdc86828701613d67565b9150509250925092565b600060ff82169050919050565b613ffc81613fe6565b82525050565b60006020820190506140176000830184613ff3565b92915050565b600060e082019050614032600083018a613f69565b61403f6020830189613c6a565b61404c6040830188613c6a565b6140596060830187613c6a565b6140666080830186613e53565b61407360a0830185613e53565b61408060c0830184613e53565b98975050505050505050565b600080fd5b600080fd5b600080fd5b60008083601f8401126140b1576140b061408c565b5b8235905067ffffffffffffffff8111156140ce576140cd614091565b5b6020830191508360018202830111156140ea576140e9614096565b5b9250929050565b60008060006040848603121561410a57614109613d46565b5b600061411886828701613d67565b935050602084013567ffffffffffffffff81111561413957614138613d4b565b5b6141458682870161409b565b92509250509250925092565b6000806000806060858703121561416b5761416a613d46565b5b600061417987828801613df2565b945050602061418a87828801613d67565b935050604085013567ffffffffffffffff8111156141ab576141aa613d4b565b5b6141b78782880161409b565b925092505092959194509250565b600080604083850312156141dc576141db613d46565b5b60006141ea85828601613df2565b92505060206141fb85828601613df2565b9150509250929050565b60008083601f84011261421b5761421a61408c565b5b8235905067ffffffffffffffff81111561423857614237614091565b5b60208301915083602082028301111561425457614253614096565b5b9250929050565b60008060006040848603121561427457614273613d46565b5b600084013567ffffffffffffffff81111561429257614291613d4b565b5b61429e86828701614205565b935093505060206142b186828701613ec1565b9150509250925092565b6000610100820190506142d1600083018b613f69565b6142de602083018a613c6a565b6142eb6040830189613c6a565b6142f86060830188613c6a565b6143056080830187613e53565b61431260a0830186613e53565b61431f60c0830185613e53565b81810360e08301526143318184613ceb565b90509998505050505050505050565b7f4e487b7100000000000000000000000000000000000000000000000000000000600052602260045260246000fd5b6000600282049050600182168061438757607f821691505b60208210810361439a57614399614340565b5b50919050565b7f4e6f74207468652072656465656d657200000000000000000000000000000000600082015250565b60006143d6601083613c9f565b91506143e1826143a0565b602082019050919050565b60006020820190508181036000830152614405816143c9565b9050919050565b7f526564656d7074696f6e20616c726561647920636f6e6669726d656400000000600082015250565b6000614442601c83613c9f565b915061444d8261440c565b602082019050919050565b6000602082019050818103600083015261447181614435565b9050919050565b7f416c726561647920726566756e64656400000000000000000000000000000000600082015250565b60006144ae601083613c9f565b91506144b982614478565b602082019050919050565b600060208201905081810360008301526144dd816144a1565b9050919050565b7f43616e206f6e6c7920726566756e642063616e63656c6c6564206f722065787060008201527f6972656420726564656d7074696f6e7300000000000000000000000000000000602082015250565b6000614540603083613c9f565b915061454b826144e4565b604082019050919050565b6000602082019050818103600083015261456f81614533565b9050919050565b7f50726573616c6520636f6e74726163742063616e6e6f74206265207a65726f2060008201527f6164647265737300000000000000000000000000000000000000000000000000602082015250565b60006145d2602783613c9f565b91506145dd82614576565b604082019050919050565b60006020820190508181036000830152614601816145c5565b9050919050565b600060408201905061461d6000830185613f69565b61462a6020830184613f69565b9392505050565b7f416464726573732063616e6e6f74206265207a65726f00000000000000000000600082015250565b6000614667601683613c9f565b915061467282614631565b602082019050919050565b600060208201905081810360008301526146968161465a565b9050919050565b7f446576656c6f706d656e74207465616d2077616c6c65742063616e6e6f74206260008201527f65207a65726f2061646472657373000000000000000000000000000000000000602082015250565b60006146f9602e83613c9f565b91506147048261469d565b604082019050919050565b60006020820190508181036000830152614728816146ec565b9050919050565b7f4c697175696469747920726573657276652077616c6c65742063616e6e6f742060008201527f6265207a65726f20616464726573730000000000000000000000000000000000602082015250565b600061478b602f83613c9f565b91506147968261472f565b604082019050919050565b600060208201905081810360008301526147ba8161477e565b9050919050565b7f53747261746567696320706172746e657273686970732077616c6c657420636160008201527f6e6e6f74206265207a65726f2061646472657373000000000000000000000000602082015250565b600061481d603483613c9f565b9150614828826147c1565b604082019050919050565b6000602082019050818103600083015261484c81614810565b9050919050565b60006060820190506148686000830186613f69565b6148756020830185613f69565b6148826040830184613f69565b949350505050565b7f4e487b7100000000000000000000000000000000000000000000000000000000600052601160045260246000fd5b60006148c482613c60565b91506148cf83613c60565b92508282026148dd81613c60565b915082820484148315176148f4576148f361488a565b5b5092915050565b7f4e487b7100000000000000000000000000000000000000000000000000000000600052601260045260246000fd5b600061493582613c60565b915061494083613c60565b9250826149505761494f6148fb565b5b828204905092915050565b7f43616c6c6572206973206e6f74207468652070726573616c6520636f6e74726160008201527f6374000000000000000000000000000000000000000000000000000000000000602082015250565b60006149b7602283613c9f565b91506149c28261495b565b604082019050919050565b600060208201905081810360008301526149e6816149aa565b9050919050565b7f50726573616c6520706572696f642068617320656e6465640000000000000000600082015250565b6000614a23601883613c9f565b9150614a2e826149ed565b602082019050919050565b60006020820190508181036000830152614a5281614a16565b9050919050565b7f43616e6e6f74206d696e7420746f207a65726f20616464726573730000000000600082015250565b6000614a8f601b83613c9f565b9150614a9a82614a59565b602082019050919050565b60006020820190508181036000830152614abe81614a82565b9050919050565b7f416d6f756e74206d7573742062652067726561746572207468616e207a65726f600082015250565b6000614afb602083613c9f565b9150614b0682614ac5565b602082019050919050565b60006020820190508181036000830152614b2a81614aee565b9050919050565b6000614b3c82613c60565b9150614b4783613c60565b9250828201905080821115614b5f57614b5e61488a565b5b92915050565b7f45786365656473206d617820737570706c790000000000000000000000000000600082015250565b6000614b9b601283613c9f565b9150614ba682614b65565b602082019050919050565b60006020820190508181036000830152614bca81614b8e565b9050919050565b7f45786365656473207075626c696320616c6c6f636174696f6e00000000000000600082015250565b6000614c07601983613c9f565b9150614c1282614bd1565b602082019050919050565b60006020820190508181036000830152614c3681614bfa565b9050919050565b7f526564656d7074696f6e20646f6573206e6f7420657869737400000000000000600082015250565b6000614c73601983613c9f565b9150614c7e82614c3d565b602082019050919050565b60006020820190508181036000830152614ca281614c66565b9050919050565b7f43616c6c6572206973206e6f74207468652064656c6976657279206f7065726160008201527f746f720000000000000000000000000000000000000000000000000000000000602082015250565b6000614d05602383613c9f565b9150614d1082614ca9565b604082019050919050565b60006020820190508181036000830152614d3481614cf8565b9050919050565b7f526564656d7074696f6e20616c72656164792063616e63656c6c656400000000600082015250565b6000614d71601c83613c9f565b9150614d7c82614d3b565b602082019050919050565b60006020820190508181036000830152614da081614d64565b9050919050565b7f526564656d7074696f6e20616c726561647920726566756e6465640000000000600082015250565b6000614ddd601b83613c9f565b9150614de882614da7565b602082019050919050565b60006020820190508181036000830152614e0c81614dd0565b9050919050565b82818337600083830152505050565b6000614e2e8385613c9f565b9350614e3b838584614e13565b614e4483613cda565b840190509392505050565b6000604082019050614e646000830186613c6a565b8181036020830152614e77818486614e22565b9050949350505050565b7f45786365656473207465616d20616c6c6f636174696f6e000000000000000000600082015250565b6000614eb7601783613c9f565b9150614ec282614e81565b602082019050919050565b60006020820190508181036000830152614ee681614eaa565b9050919050565b7f44656c6976657279206f70657261746f722063616e6e6f74206265207a65726f60008201527f2061646472657373000000000000000000000000000000000000000000000000602082015250565b6000614f49602883613c9f565b9150614f5482614eed565b604082019050919050565b60006020820190508181036000830152614f7881614f3c565b9050919050565b7f4578636565647320636f6d6d756e69747920616c6c6f636174696f6e00000000600082015250565b6000614fb5601c83613c9f565b9150614fc082614f7f565b602082019050919050565b60006020820190508181036000830152614fe481614fa8565b9050919050565b7f45786365656473206c697175696469747920616c6c6f636174696f6e00000000600082015250565b6000615021601c83613c9f565b915061502c82614feb565b602082019050919050565b6000602082019050818103600083015261505081615014565b9050919050565b7f42757965722063616e6e6f74206265207a65726f206164647265737300000000600082015250565b600061508d601c83613c9f565b915061509882615057565b602082019050919050565b600060208201905081810360008301526150bc81615080565b9050919050565b7f4578636565647320706172746e6572736869707320616c6c6f636174696f6e00600082015250565b60006150f9601f83613c9f565b9150615104826150c3565b602082019050919050565b60006020820190508181036000830152615128816150ec565b9050919050565b7f4e657720656e642074696d65206d757374206265206c61746572207468616e2060008201527f63757272656e7400000000000000000000000000000000000000000000000000602082015250565b600061518b602783613c9f565b91506151968261512f565b604082019050919050565b600060208201905081810360008301526151ba8161517e565b9050919050565b7f43616e6e6f7420657874656e64206265796f6e64206d6178696d756d2070726560008201527f73616c65206475726174696f6e00000000000000000000000000000000000000602082015250565b600061521d602d83613c9f565b9150615228826151c1565b604082019050919050565b6000602082019050818103600083015261524c81615210565b9050919050565b7f416c6c2070726573616c6520746f6b656e732068617665206265656e20736f6c60008201527f6400000000000000000000000000000000000000000000000000000000000000602082015250565b60006152af602183613c9f565b91506152ba82615253565b604082019050919050565b600060208201905081810360008301526152de816152a2565b9050919050565b60006040820190506152fa6000830185613c6a565b6153076020830184613c6a565b9392505050565b7f4578636565647320636f6e73756c74616e747320616c6c6f636174696f6e0000600082015250565b6000615344601e83613c9f565b915061534f8261530e565b602082019050919050565b6000602082019050818103600083015261537381615337565b9050919050565b7f526564656d7074696f6e207761732063616e63656c6c65640000000000000000600082015250565b60006153b0601883613c9f565b91506153bb8261537a565b602082019050919050565b600060208201905081810360008301526153df816153a3565b9050919050565b7f526564656d7074696f6e2077617320726566756e646564000000000000000000600082015250565b600061541c601783613c9f565b9150615427826153e6565b602082019050919050565b6000602082019050818103600083015261544b8161540f565b9050919050565b7f526564656d7074696f6e20657870697265640000000000000000000000000000600082015250565b6000615488601283613c9f565b915061549382615452565b602082019050919050565b600060208201905081810360008301526154b78161547b565b9050919050565b7f41646472657373206e6f74204b594320617070726f7665640000000000000000600082015250565b60006154f4601883613c9f565b91506154ff826154be565b602082019050919050565b60006020820190508181036000830152615523816154e7565b9050919050565b7f416d6f756e742062656c6f77206d696e696d756d20726564656d7074696f6e00600082015250565b6000615560601f83613c9f565b915061556b8261552a565b602082019050919050565b6000602082019050818103600083015261558f81615553565b9050919050565b7f496e73756666696369656e742062616c616e6365000000000000000000000000600082015250565b60006155cc601483613c9f565b91506155d782615596565b602082019050919050565b600060208201905081810360008301526155fb816155bf565b9050919050565b7f44656c69766572792064657461696c7320726571756972656400000000000000600082015250565b6000615638601983613c9f565b915061564382615602565b602082019050919050565b600060208201905081810360008301526156678161562b565b9050919050565b600061567982613c60565b91507fffffffffffffffffffffffffffffffffffffffffffffffffffffffffffffffff82036156ab576156aa61488a565b5b600182019050919050565b7f4e487b7100000000000000000000000000000000000000000000000000000000600052604160045260246000fd5b60008190508160005260206000209050919050565b60006020601f8301049050919050565b600082821b905092915050565b6000600883026157477fffffffffffffffffffffffffffffffffffffffffffffffffffffffffffffffff8261570a565b615751868361570a565b95508019841693508086168417925050509392505050565b6000819050919050565b600061578e61578961578484613c60565b615769565b613c60565b9050919050565b6000819050919050565b6157a883615773565b6157bc6157b482615795565b848454615717565b825550505050565b600090565b6157d16157c4565b6157dc81848461579f565b505050565b5b81811015615800576157f56000826157c9565b6001810190506157e2565b5050565b601f82111561584557615816816156e5565b61581f846156fa565b8101602085101561582e578190505b61584261583a856156fa565b8301826157e1565b50505b505050565b600082821c905092915050565b60006158686000198460080261584a565b1980831691505092915050565b60006158818383615857565b9150826002028217905092915050565b61589a82613c94565b67ffffffffffffffff8111156158b3576158b26156b6565b5b6158bd825461436f565b6158c8828285615804565b600060209050601f8311600181146158fb57600084156158e9578287015190505b6158f38582615875565b86555061595b565b601f198416615909866156e5565b60005b828110156159315784890151825560018201915060208501945060208101905061590c565b8683101561594e578489015161594a601f891682615857565b8355505b6001600288020188555050505b505050505050565b60006060820190506159786000830186613c6a565b6159856020830185613c6a565b6159926040830184613c6a565b949350505050565b7f506572696f64206d757374206265206174206c65617374203720646179730000600082015250565b60006159d0601e83613c9f565b91506159db8261599a565b602082019050919050565b600060208201905081810360008301526159ff816159c3565b9050919050565b7f42617463682073697a652065786365656473206c696d69740000000000000000600082015250565b6000615a3c601883613c9f565b9150615a4782615a06565b602082019050919050565b60006020820190508181036000830152615a6b81615a2f565b9050919050565b7f4e487b7100000000000000000000000000000000000000000000000000000000600052603260045260246000fd5b6000606082019050615ab66000830186613f69565b615ac36020830185613c6a565b615ad06040830184613c6a565b94935050505056fea2646970667358221220393c4835a3627866cb7911e5c691cebd38c1946ef68b0c46ceda442e27b9bae664736f6c63430008140033",
  "linkReferences": {},
  "deployedLinkReferences": {}
}