{
  "_format": "hh-sol-artifact-1",
  "contractName": "HanumanWaterTokenPresale",
  "sourceName": "contracts/HanumanWaterTokenPresale.sol",
  "abi": [
    {
      "inputs": [
        {
          "internalType": "address",
          "name": "_hwtToken",
          "type": "address"
        },
        {
          "internalType": "address",
          "name": "_usdtToken",
          "type": "address"
        },
        {
          "internalType": "address",
          "name": "_ethUsdPriceFeed",
          "type": "address"
        },
        {
          "internalType": "address",
          "name": "_treasuryWallet",
          "type": "address"
        },
        {
          "internalType": "uint256",
          "name": "_presaleDurationDays",
          "type": "uint256"
        }
      ],
      "stateMutability": "nonpayable",
      "type": "constructor"
    },
    {
      "inputs": [],
      "name": "EnforcedPause",
      "type": "error"
    },
    {
      "inputs": [],
      "name": "ExpectedPause",
      "type": "error"
    },
    {
      "inputs": [
        {
          "internalType": "address",
          "name": "owner",
          "type": "address"
        }
      ],
      "name": "OwnableInvalidOwner",
      "type": "error"
    },
    {
      "inputs": [
        {
          "internalType": "address",
          "name": "account",
          "type": "address"
        }
      ],
      "name": "OwnableUnauthorizedAccount",
      "type": "error"
    },
    {
      "inputs": [],
      "name": "ReentrancyGuardReentrantCall",
      "type": "error"
    },
    {
      "anonymous": false,
      "inputs": [
        {
          "indexed": false,
          "internalType": "uint256",
          "name": "amount",
          "type": "uint256"
        }
      ],
      "name": "ETHDeposited",
      "type": "event"
    },
    {
      "anonymous": false,
      "inputs": [
        {
          "indexed": true,
          "internalType": "address",
          "name": "to",
          "type": "address"
        },
        {
          "indexed": false,
          "internalType": "uint256",
          "name": "amount",
          "type": "uint256"
        }
      ],
      "name": "ETHWithdrawn",
      "type": "event"
    },
    {
      "anonymous": false,
      "inputs": [
        {
          "indexed": true,
          "internalType": "address",
          "name": "previousOwner",
          "type": "address"
        },
        {
          "indexed": true,
          "internalType": "address",
          "name": "newOwner",
          "type": "address"
        }
      ],
      "name": "OwnershipTransferred",
      "type": "event"
    },
    {
      "anonymous": false,
      "inputs": [
        {
          "indexed": false,
          "internalType": "address",
          "name": "account",
          "type": "address"
        }
      ],
      "name": "Paused",
      "type": "event"
    },
    {
      "anonymous": false,
      "inputs": [
        {
          "indexed": false,
          "internalType": "uint256",
          "name": "oldEndTime",
          "type": "uint256"
        },
        {
          "indexed": false,
          "internalType": "uint256",
          "name": "newEndTime",
          "type": "uint256"
        }
      ],
      "name": "PresaleExtended",
      "type": "event"
    },
    {
      "anonymous": false,
      "inputs": [
        {
          "indexed": false,
          "internalType": "address",
          "name": "oldPriceFeed",
          "type": "address"
        },
        {
          "indexed": false,
          "internalType": "address",
          "name": "newPriceFeed",
          "type": "address"
        }
      ],
      "name": "PriceFeedUpdated",
      "type": "event"
    },
    {
      "anonymous": false,
      "inputs": [
        {
          "indexed": true,
          "internalType": "address",
          "name": "buyer",
          "type": "address"
        },
        {
          "indexed": false,
          "internalType": "uint256",
          "name": "ethAmount",
          "type": "uint256"
        },
        {
          "indexed": false,
          "internalType": "uint256",
          "name": "tokenAmount",
          "type": "uint256"
        },
        {
          "indexed": false,
          "internalType": "uint256",
          "name": "ethPrice",
          "type": "uint256"
        }
      ],
      "name": "TokensPurchasedWithETH",
      "type": "event"
    },
    {
      "anonymous": false,
      "inputs": [
        {
          "indexed": true,
          "internalType": "address",
          "name": "buyer",
          "type": "address"
        },
        {
          "indexed": false,
          "internalType": "uint256",
          "name": "usdtAmount",
          "type": "uint256"
        },
        {
          "indexed": false,
          "internalType": "uint256",
          "name": "tokenAmount",
          "type": "uint256"
        }
      ],
      "name": "TokensPurchasedWithUSDT",
      "type": "event"
    },
    {
      "anonymous": false,
      "inputs": [
        {
          "indexed": false,
          "internalType": "address",
          "name": "oldWallet",
          "type": "address"
        },
        {
          "indexed": false,
          "internalType": "address",
          "name": "newWallet",
          "type": "address"
        }
      ],
      "name": "TreasuryWalletUpdated",
      "type": "event"
    },
    {
      "anonymous": false,
      "inputs": [
        {
          "indexed": false,
          "internalType": "address",
          "name": "account",
          "type": "address"
        }
      ],
      "name": "Unpaused",
      "type": "event"
    },
    {
      "stateMutability": "payable",
      "type": "fallback"
    },
    {
      "inputs": [],
      "name": "MAX_PRESALE_DURATION",
      "outputs": [
        {
          "internalType": "uint256",
          "name": "",
          "type": "uint256"
        }
      ],
      "stateMutability": "view",
      "type": "function"
    },
    {
      "inputs": [],
      "name": "MAX_PURCHASE_AMOUNT_USD",
      "outputs": [
        {
          "internalType": "uint256",
          "name": "",
          "type": "uint256"
        }
      ],
      "stateMutability": "view",
      "type": "function"
    },
    {
      "inputs": [],
      "name": "MIN_PURCHASE_AMOUNT_USD",
      "outputs": [
        {
          "internalType": "uint256",
          "name": "",
          "type": "uint256"
        }
      ],
      "stateMutability": "view",
      "type": "function"
    },
    {
      "inputs": [],
      "name": "TOKEN_PRICE_USD",
      "outputs": [
        {
          "internalType": "uint256",
          "name": "",
          "type": "uint256"
        }
      ],
      "stateMutability": "view",
      "type": "function"
    },
    {
      "inputs": [],
      "name": "TOTAL_PRESALE_TOKENS",
      "outputs": [
        {
          "internalType": "uint256",
          "name": "",
          "type": "uint256"
        }
      ],
      "stateMutability": "view",
      "type": "function"
    },
    {
      "inputs": [],
      "name": "buyWithETH",
      "outputs": [],
      "stateMutability": "payable",
      "type": "function"
    },
    {
      "inputs": [
        {
          "internalType": "uint256",
          "name": "usdtAmount",
          "type": "uint256"
        }
      ],
      "name": "buyWithUSDT",
      "outputs": [],
      "stateMutability": "nonpayable",
      "type": "function"
    },
    {
      "inputs": [
        {
          "internalType": "uint256",
          "name": "ethAmount",
          "type": "uint256"
        }
      ],
      "name": "calculateTokensForEth",
      "outputs": [
        {
          "internalType": "uint256",
          "name": "",
          "type": "uint256"
        }
      ],
      "stateMutability": "view",
      "type": "function"
    },
    {
      "inputs": [
        {
          "internalType": "uint256",
          "name": "usdtAmount",
          "type": "uint256"
        }
      ],
      "name": "calculateTokensForUsdt",
      "outputs": [
        {
          "internalType": "uint256",
          "name": "",
          "type": "uint256"
        }
      ],
      "stateMutability": "pure",
      "type": "function"
    },
    {
      "inputs": [],
      "name": "calculateTwapPrice",
      "outputs": [
        {
          "internalType": "uint256",
          "name": "",
          "type": "uint256"
        }
      ],
      "stateMutability": "view",
      "type": "function"
    },
    {
      "inputs": [],
      "name": "ethUsdPriceFeed",
      "outputs": [
        {
          "internalType": "contract AggregatorV3Interface",
          "name": "",
          "type": "address"
        }
      ],
      "stateMutability": "view",
      "type": "function"
    },
    {
      "inputs": [
        {
          "internalType": "uint256",
          "name": "_newEndTime",
          "type": "uint256"
        }
      ],
      "name": "extendPresale",
      "outputs": [],
      "stateMutability": "nonpayable",
      "type": "function"
    },
    {
      "inputs": [
        {
          "internalType": "uint256",
          "name": "tokenAmount",
          "type": "uint256"
        }
      ],
      "name": "getEthAmountForTokens",
      "outputs": [
        {
          "internalType": "uint256",
          "name": "",
          "type": "uint256"
        }
      ],
      "stateMutability": "view",
      "type": "function"
    },
    {
      "inputs": [],
      "name": "getEthUsdPrice",
      "outputs": [
        {
          "internalType": "uint256",
          "name": "",
          "type": "uint256"
        }
      ],
      "stateMutability": "view",
      "type": "function"
    },
    {
      "inputs": [],
      "name": "getPendingETHWithdrawals",
      "outputs": [
        {
          "internalType": "uint256",
          "name": "",
          "type": "uint256"
        }
      ],
      "stateMutability": "view",
      "type": "function"
    },
    {
      "inputs": [
        {
          "internalType": "uint256",
          "name": "ethAmount",
          "type": "uint256"
        }
      ],
      "name": "getTokensForEthAmount",
      "outputs": [
        {
          "internalType": "uint256",
          "name": "",
          "type": "uint256"
        }
      ],
      "stateMutability": "view",
      "type": "function"
    },
    {
      "inputs": [
        {
          "internalType": "uint256",
          "name": "usdtAmount",
          "type": "uint256"
        }
      ],
      "name": "getTokensForUsdtAmount",
      "outputs": [
        {
          "internalType": "uint256",
          "name": "",
          "type": "uint256"
        }
      ],
      "stateMutability": "pure",
      "type": "function"
    },
    {
      "inputs": [
        {
          "internalType": "uint256",
          "name": "tokenAmount",
          "type": "uint256"
        }
      ],
      "name": "getUsdtAmountForTokens",
      "outputs": [
        {
          "internalType": "uint256",
          "name": "",
          "type": "uint256"
        }
      ],
      "stateMutability": "pure",
      "type": "function"
    },
    {
      "inputs": [],
      "name": "hwtToken",
      "outputs": [
        {
          "internalType": "contract IHanumanWaterToken",
          "name": "",
          "type": "address"
        }
      ],
      "stateMutability": "view",
      "type": "function"
    },
    {
      "inputs": [],
      "name": "maxPriceAge",
      "outputs": [
        {
          "internalType": "uint256",
          "name": "",
          "type": "uint256"
        }
      ],
      "stateMutability": "view",
      "type": "function"
    },
    {
      "inputs": [],
      "name": "maxPriceDeviation",
      "outputs": [
        {
          "internalType": "uint256",
          "name": "",
          "type": "uint256"
        }
      ],
      "stateMutability": "view",
      "type": "function"
    },
    {
      "inputs": [],
      "name": "owner",
      "outputs": [
        {
          "internalType": "address",
          "name": "",
          "type": "address"
        }
      ],
      "stateMutability": "view",
      "type": "function"
    },
    {
      "inputs": [],
      "name": "pause",
      "outputs": [],
      "stateMutability": "nonpayable",
      "type": "function"
    },
    {
      "inputs": [],
      "name": "paused",
      "outputs": [
        {
          "internalType": "bool",
          "name": "",
          "type": "bool"
        }
      ],
      "stateMutability": "view",
      "type": "function"
    },
    {
      "inputs": [],
      "name": "pendingETHWithdrawals",
      "outputs": [
        {
          "internalType": "uint256",
          "name": "",
          "type": "uint256"
        }
      ],
      "stateMutability": "view",
      "type": "function"
    },
    {
      "inputs": [],
      "name": "presaleEndTime",
      "outputs": [
        {
          "internalType": "uint256",
          "name": "",
          "type": "uint256"
        }
      ],
      "stateMutability": "view",
      "type": "function"
    },
    {
      "inputs": [],
      "name": "renounceOwnership",
      "outputs": [],
      "stateMutability": "nonpayable",
      "type": "function"
    },
    {
      "inputs": [],
      "name": "totalTokensSold",
      "outputs": [
        {
          "internalType": "uint256",
          "name": "",
          "type": "uint256"
        }
      ],
      "stateMutability": "view",
      "type": "function"
    },
    {
      "inputs": [
        {
          "internalType": "address",
          "name": "newOwner",
          "type": "address"
        }
      ],
      "name": "transferOwnership",
      "outputs": [],
      "stateMutability": "nonpayable",
      "type": "function"
    },
    {
      "inputs": [],
      "name": "treasuryWallet",
      "outputs": [
        {
          "internalType": "address",
          "name": "",
          "type": "address"
        }
      ],
      "stateMutability": "view",
      "type": "function"
    },
    {
      "inputs": [],
      "name": "twapWindow",
      "outputs": [
        {
          "internalType": "uint256",
          "name": "",
          "type": "uint256"
        }
      ],
      "stateMutability": "view",
      "type": "function"
    },
    {
      "inputs": [],
      "name": "unpause",
      "outputs": [],
      "stateMutability": "nonpayable",
      "type": "function"
    },
    {
      "inputs": [],
      "name": "updateAndGetTwapPrice",
      "outputs": [
        {
          "internalType": "uint256",
          "name": "",
          "type": "uint256"
        }
      ],
      "stateMutability": "nonpayable",
      "type": "function"
    },
    {
      "inputs": [
        {
          "internalType": "address",
          "name": "_newPriceFeed",
          "type": "address"
        }
      ],
      "name": "updatePriceFeed",
      "outputs": [],
      "stateMutability": "nonpayable",
      "type": "function"
    },
    {
      "inputs": [
        {
          "internalType": "uint256",
          "name": "_maxPriceAge",
          "type": "uint256"
        },
        {
          "internalType": "uint256",
          "name": "_maxPriceDeviation",
          "type": "uint256"
        },
        {
          "internalType": "uint256",
          "name": "_twapWindow",
          "type": "uint256"
        }
      ],
      "name": "updatePriceProtectionParams",
      "outputs": [],
      "stateMutability": "nonpayable",
      "type": "function"
    },
    {
      "inputs": [
        {
          "internalType": "address",
          "name": "_newTreasuryWallet",
          "type": "address"
        }
      ],
      "name": "updateTreasuryWallet",
      "outputs": [],
      "stateMutability": "nonpayable",
      "type": "function"
    },
    {
      "inputs": [],
      "name": "usdtToken",
      "outputs": [
        {
          "internalType": "contract IERC20",
          "name": "",
          "type": "address"
        }
      ],
      "stateMutability": "view",
      "type": "function"
    },
    {
      "inputs": [],
      "name": "withdrawETH",
      "outputs": [],
      "stateMutability": "nonpayable",
      "type": "function"
    },
    {
      "stateMutability": "payable",
      "type": "receive"
    }
  ],
  "bytecode": "0x6080604052610e10600955600a80556003600b5560006012553480156200002557600080fd5b5060405162003a1738038062003a1783398181016040528101906200004b919062000562565b33600073ffffffffffffffffffffffffffffffffffffffff168173ffffffffffffffffffffffffffffffffffffffff1603620000c15760006040517f1e4fbdf7000000000000000000000000000000000000000000000000000000008152600401620000b89190620005fb565b60405180910390fd5b620000d281620003f960201b60201c565b5060018081905550600073ffffffffffffffffffffffffffffffffffffffff168573ffffffffffffffffffffffffffffffffffffffff16036200014c576040517f08c379a0000000000000000000000000000000000000000000000000000000008152600401620001439062000679565b60405180910390fd5b600073ffffffffffffffffffffffffffffffffffffffff168473ffffffffffffffffffffffffffffffffffffffff1603620001be576040517f08c379a0000000000000000000000000000000000000000000000000000000008152600401620001b59062000711565b60405180910390fd5b600073ffffffffffffffffffffffffffffffffffffffff168373ffffffffffffffffffffffffffffffffffffffff160362000230576040517f08c379a00000000000000000000000000000000000000000000000000000000081526004016200022790620007a9565b60405180910390fd5b600073ffffffffffffffffffffffffffffffffffffffff168273ffffffffffffffffffffffffffffffffffffffff1603620002a2576040517f08c379a000000000000000000000000000000000000000000000000000000000815260040162000299906200081b565b60405180910390fd5b84600260016101000a81548173ffffffffffffffffffffffffffffffffffffffff021916908373ffffffffffffffffffffffffffffffffffffffff16021790555083600360006101000a81548173ffffffffffffffffffffffffffffffffffffffff021916908373ffffffffffffffffffffffffffffffffffffffff16021790555082600460006101000a81548173ffffffffffffffffffffffffffffffffffffffff021916908373ffffffffffffffffffffffffffffffffffffffff16021790555081600760006101000a81548173ffffffffffffffffffffffffffffffffffffffff021916908373ffffffffffffffffffffffffffffffffffffffff16021790555060006201518082620003b991906200086c565b905060006301e133808211620003d05781620003d6565b6301e133805b90508042620003e69190620008b7565b60068190555050505050505050620008f2565b60008060009054906101000a900473ffffffffffffffffffffffffffffffffffffffff169050816000806101000a81548173ffffffffffffffffffffffffffffffffffffffff021916908373ffffffffffffffffffffffffffffffffffffffff1602179055508173ffffffffffffffffffffffffffffffffffffffff168173ffffffffffffffffffffffffffffffffffffffff167f8be0079c531659141344cd1fd0a4f28419497f9722a3daafe3b4186f6b6457e060405160405180910390a35050565b600080fd5b600073ffffffffffffffffffffffffffffffffffffffff82169050919050565b6000620004ef82620004c2565b9050919050565b6200050181620004e2565b81146200050d57600080fd5b50565b6000815190506200052181620004f6565b92915050565b6000819050919050565b6200053c8162000527565b81146200054857600080fd5b50565b6000815190506200055c8162000531565b92915050565b600080600080600060a08688031215620005815762000580620004bd565b5b6000620005918882890162000510565b9550506020620005a48882890162000510565b9450506040620005b78882890162000510565b9350506060620005ca8882890162000510565b9250506080620005dd888289016200054b565b9150509295509295909350565b620005f581620004e2565b82525050565b6000602082019050620006126000830184620005ea565b92915050565b600082825260208201905092915050565b7f48575420746f6b656e20616464726573732063616e6e6f74206265207a65726f600082015250565b60006200066160208362000618565b91506200066e8262000629565b602082019050919050565b60006020820190508181036000830152620006948162000652565b9050919050565b7f5553445420746f6b656e20616464726573732063616e6e6f74206265207a657260008201527f6f00000000000000000000000000000000000000000000000000000000000000602082015250565b6000620006f960218362000618565b915062000706826200069b565b604082019050919050565b600060208201905081810360008301526200072c81620006ea565b9050919050565b7f5072696365206665656420616464726573732063616e6e6f74206265207a657260008201527f6f00000000000000000000000000000000000000000000000000000000000000602082015250565b60006200079160218362000618565b91506200079e8262000733565b604082019050919050565b60006020820190508181036000830152620007c48162000782565b9050919050565b7f54726561737572792077616c6c65742063616e6e6f74206265207a65726f0000600082015250565b600062000803601e8362000618565b91506200081082620007cb565b602082019050919050565b600060208201905081810360008301526200083681620007f4565b9050919050565b7f4e487b7100000000000000000000000000000000000000000000000000000000600052601160045260246000fd5b6000620008798262000527565b9150620008868362000527565b9250828202620008968162000527565b91508282048414831517620008b057620008af6200083d565b5b5092915050565b6000620008c48262000527565b9150620008d18362000527565b9250828201905080821115620008ec57620008eb6200083d565b5b92915050565b61311580620009026000396000f3fe6080604052600436106102295760003560e01c80638107e13311610123578063a98ad46c116100ab578063e086e5ec1161006f578063e086e5ec14610834578063e66879831461084b578063f2fde38b14610876578063f7a182f51461089f578063fa2a2b7c146108ca57610269565b8063a98ad46c1461074b578063b26735ae14610776578063bc4056ed146107b3578063c147a55b146107de578063d744b7021461080957610269565b8063975b8662116100f2578063975b8662146106525780639d5df4ca1461067d5780639e880579146106ba578063a0a8045e146106f7578063a7c601601461072257610269565b80638107e133146105bc5780638456cb59146105e75780638da5cb5b146105fe57806395877f781461062957610269565b80633f4ba83a116101b157806363b201171161017557806363b20117146104fd578063715018a614610528578063763fd2ab1461053f5780637d81d14c1461056a578063809d458d1461059357610269565b80633f4ba83a1461043c57806342f6fb29146104535780634626402b1461047e57806353f48812146104a95780635c975abb146104d257610269565b80631f716f77116101f85780631f716f7714610353578063249b7c191461039057806326ab50b4146103bb5780632c2d4af1146103e65780633cdab2a81461041157610269565b806306fd9bf6146102a4578063150d283d146102e15780631584410a146102eb5780631e1721fa1461031657610269565b36610269576040517f08c379a000000000000000000000000000000000000000000000000000000000815260040161026090611f80565b60405180910390fd5b6040517f08c379a000000000000000000000000000000000000000000000000000000000815260040161029b90611fec565b60405180910390fd5b3480156102b057600080fd5b506102cb60048036038101906102c69190612047565b6108f5565b6040516102d89190612083565b60405180910390f35b6102e96109a6565b005b3480156102f757600080fd5b50610300610c79565b60405161030d9190612083565b60405180910390f35b34801561032257600080fd5b5061033d60048036038101906103389190612047565b610c7f565b60405161034a9190612083565b60405180910390f35b34801561035f57600080fd5b5061037a60048036038101906103759190612047565b610c91565b6040516103879190612083565b60405180910390f35b34801561039c57600080fd5b506103a5610ca3565b6040516103b29190612083565b60405180910390f35b3480156103c757600080fd5b506103d0610ca9565b6040516103dd9190612083565b60405180910390f35b3480156103f257600080fd5b506103fb610cb0565b6040516104089190612083565b60405180910390f35b34801561041d57600080fd5b50610426610cb6565b604051610433919061211d565b60405180910390f35b34801561044857600080fd5b50610451610cdc565b005b34801561045f57600080fd5b50610468610cee565b6040516104759190612159565b60405180910390f35b34801561048a57600080fd5b50610493610d14565b6040516104a09190612195565b60405180910390f35b3480156104b557600080fd5b506104d060048036038101906104cb91906121b0565b610d3a565b005b3480156104de57600080fd5b506104e7610e3f565b6040516104f4919061221e565b60405180910390f35b34801561050957600080fd5b50610512610e56565b60405161051f9190612083565b60405180910390f35b34801561053457600080fd5b5061053d610e5c565b005b34801561054b57600080fd5b50610554610e70565b6040516105619190612083565b60405180910390f35b34801561057657600080fd5b50610591600480360381019061058c9190612047565b610e7f565b005b34801561059f57600080fd5b506105ba60048036038101906105b59190612265565b610fbd565b005b3480156105c857600080fd5b506105d16110d9565b6040516105de9190612083565b60405180910390f35b3480156105f357600080fd5b506105fc6110df565b005b34801561060a57600080fd5b506106136110f1565b6040516106209190612195565b60405180910390f35b34801561063557600080fd5b50610650600480360381019061064b9190612265565b61111a565b005b34801561065e57600080fd5b50610667611236565b6040516106749190612083565b60405180910390f35b34801561068957600080fd5b506106a4600480360381019061069f9190612047565b61123c565b6040516106b19190612083565b60405180910390f35b3480156106c657600080fd5b506106e160048036038101906106dc9190612047565b611278565b6040516106ee9190612083565b60405180910390f35b34801561070357600080fd5b5061070c6112f7565b6040516107199190612083565b60405180910390f35b34801561072e57600080fd5b5061074960048036038101906107449190612047565b61142f565b005b34801561075757600080fd5b50610760611779565b60405161076d91906122b3565b60405180910390f35b34801561078257600080fd5b5061079d60048036038101906107989190612047565b61179f565b6040516107aa9190612083565b60405180910390f35b3480156107bf57600080fd5b506107c86117fe565b6040516107d59190612083565b60405180910390f35b3480156107ea57600080fd5b506107f3611803565b6040516108009190612083565b60405180910390f35b34801561081557600080fd5b5061081e61180d565b60405161082b9190612083565b60405180910390f35b34801561084057600080fd5b50610849611815565b005b34801561085757600080fd5b506108606119c8565b60405161086d9190612083565b60405180910390f35b34801561088257600080fd5b5061089d60048036038101906108989190612265565b611ae3565b005b3480156108ab57600080fd5b506108b4611b69565b6040516108c19190612083565b60405180910390f35b3480156108d657600080fd5b506108df611b6e565b6040516108ec9190612083565b60405180910390f35b600080610900611b6e565b90506000670de0b6b3a7640000828561091991906122fd565b610923919061236e565b905060006305f5e100600261093891906122fd565b670de0b6b3a76400008361094c91906122fd565b610956919061236e565b90506000811161099b576040517f08c379a000000000000000000000000000000000000000000000000000000000815260040161099290612411565b60405180910390fd5b809350505050919050565b6006544211156109eb576040517f08c379a00000000000000000000000000000000000000000000000000000000081526004016109e29061247d565b60405180910390fd5b6109f3611c14565b6109fb611c55565b60003411610a3e576040517f08c379a0000000000000000000000000000000000000000000000000000000008152600401610a359061250f565b60405180910390fd5b6000610a486119c8565b90506000610a55346108f5565b90506000670de0b6b3a76400008334610a6e91906122fd565b610a78919061236e565b90506305f5e100600a610a8b91906122fd565b811015610acd576040517f08c379a0000000000000000000000000000000000000000000000000000000008152600401610ac49061257b565b60405180910390fd5b6305f5e100620186a0610ae091906122fd565b811115610b22576040517f08c379a0000000000000000000000000000000000000000000000000000000008152600401610b19906125e7565b60405180910390fd5b3460086000828254610b349190612607565b925050819055507fadb6a3fe015de6cf14b532348b91a6202eb862af051124a853b5935e034cfd7b34604051610b6a9190612083565b60405180910390a1600260019054906101000a900473ffffffffffffffffffffffffffffffffffffffff1673ffffffffffffffffffffffffffffffffffffffff166330b2b8aa33846040518363ffffffff1660e01b8152600401610bcf92919061263b565b600060405180830381600087803b158015610be957600080fd5b505af1158015610bfd573d6000803e3d6000fd5b505050508160056000828254610c139190612607565b925050819055503373ffffffffffffffffffffffffffffffffffffffff167fec6490c6ef89b23df34763d6ade6b4444edea66522e35ce0e085dde9891789ce348486604051610c6493929190612664565b60405180910390a2505050610c77611c9b565b565b60095481565b6000610c8a826108f5565b9050919050565b6000610c9c82611278565b9050919050565b60065481565b620186a081565b60085481565b600260019054906101000a900473ffffffffffffffffffffffffffffffffffffffff1681565b610ce4611ca4565b610cec611d2b565b565b600460009054906101000a900473ffffffffffffffffffffffffffffffffffffffff1681565b600760009054906101000a900473ffffffffffffffffffffffffffffffffffffffff1681565b610d42611ca4565b60008311610d85576040517f08c379a0000000000000000000000000000000000000000000000000000000008152600401610d7c906126e7565b60405180910390fd5b600082118015610d96575060328211155b610dd5576040517f08c379a0000000000000000000000000000000000000000000000000000000008152600401610dcc90612753565b60405180910390fd5b600081118015610de6575060038111155b610e25576040517f08c379a0000000000000000000000000000000000000000000000000000000008152600401610e1c906127bf565b60405180910390fd5b8260098190555081600a8190555080600b81905550505050565b6000600260009054906101000a900460ff16905090565b60055481565b610e64611ca4565b610e6e6000611d8e565b565b6a52b7d2dcc80cd2e400000081565b610e87611ca4565b6006548111610ecb576040517f08c379a0000000000000000000000000000000000000000000000000000000008152600401610ec290612851565b60405180910390fd5b60006301e1338042610edd9190612607565b905080821115610f22576040517f08c379a0000000000000000000000000000000000000000000000000000000008152600401610f19906128e3565b60405180910390fd5b6a52b7d2dcc80cd2e400000060055410610f71576040517f08c379a0000000000000000000000000000000000000000000000000000000008152600401610f6890612975565b60405180910390fd5b60006006549050826006819055507f36590996dea047dc12d17ec2643248f8b86eb37e78941b43d9e9049180efb7b08184604051610fb0929190612995565b60405180910390a1505050565b610fc5611ca4565b600073ffffffffffffffffffffffffffffffffffffffff168173ffffffffffffffffffffffffffffffffffffffff1603611034576040517f08c379a000000000000000000000000000000000000000000000000000000000815260040161102b90612a30565b60405180910390fd5b6000600760009054906101000a900473ffffffffffffffffffffffffffffffffffffffff16905081600760006101000a81548173ffffffffffffffffffffffffffffffffffffffff021916908373ffffffffffffffffffffffffffffffffffffffff1602179055507fa982575859d7ad2f390dc12b23f7dab8bbda047f9d0140ac68344b27bf34bfb481836040516110cd929190612a50565b60405180910390a15050565b600b5481565b6110e7611ca4565b6110ef611e52565b565b60008060009054906101000a900473ffffffffffffffffffffffffffffffffffffffff16905090565b611122611ca4565b600073ffffffffffffffffffffffffffffffffffffffff168173ffffffffffffffffffffffffffffffffffffffff1603611191576040517f08c379a000000000000000000000000000000000000000000000000000000000815260040161118890612aeb565b60405180910390fd5b6000600460009054906101000a900473ffffffffffffffffffffffffffffffffffffffff16905081600460006101000a81548173ffffffffffffffffffffffffffffffffffffffff021916908373ffffffffffffffffffffffffffffffffffffffff1602179055507fa8abe0398416476db5b05737cd4da3b3cbde5012d978a6a6c3fd49d321753536818360405161122a929190612a50565b60405180910390a15050565b600a5481565b600080670de0b6b3a7640000620f424060028561125991906122fd565b61126391906122fd565b61126d919061236e565b905080915050919050565b600080620f4240600261128b91906122fd565b670de0b6b3a76400008461129f91906122fd565b6112a9919061236e565b9050600081116112ee576040517f08c379a00000000000000000000000000000000000000000000000000000000081526004016112e590612411565b60405180910390fd5b80915050919050565b6000806000600460009054906101000a900473ffffffffffffffffffffffffffffffffffffffff1673ffffffffffffffffffffffffffffffffffffffff1663feaf968c6040518163ffffffff1660e01b815260040160a060405180830381865afa158015611369573d6000803e3d6000fd5b505050506040513d601f19601f8201168201806040525081019061138d9190612b98565b50935050925050600082136113d7576040517f08c379a00000000000000000000000000000000000000000000000000000000081526004016113ce90612c5f565b60405180910390fd5b60095481426113e69190612c7f565b1115611427576040517f08c379a000000000000000000000000000000000000000000000000000000000815260040161141e90612cff565b60405180910390fd5b819250505090565b600654421115611474576040517f08c379a000000000000000000000000000000000000000000000000000000000815260040161146b9061247d565b60405180910390fd5b61147c611c14565b611484611c55565b600081116114c7576040517f08c379a00000000000000000000000000000000000000000000000000000000081526004016114be90612d91565b60405180910390fd5b60006114d282611278565b90506000620f4240836114e5919061236e565b9050600a81101561152b576040517f08c379a00000000000000000000000000000000000000000000000000000000081526004016115229061257b565b60405180910390fd5b620186a0811115611571576040517f08c379a0000000000000000000000000000000000000000000000000000000008152600401611568906125e7565b60405180910390fd5b600360009054906101000a900473ffffffffffffffffffffffffffffffffffffffff1673ffffffffffffffffffffffffffffffffffffffff166323b872dd33600760009054906101000a900473ffffffffffffffffffffffffffffffffffffffff16866040518463ffffffff1660e01b81526004016115f293929190612db1565b6020604051808303816000875af1158015611611573d6000803e3d6000fd5b505050506040513d601f19601f820116820180604052508101906116359190612e14565b611674576040517f08c379a000000000000000000000000000000000000000000000000000000000815260040161166b90612e8d565b60405180910390fd5b600260019054906101000a900473ffffffffffffffffffffffffffffffffffffffff1673ffffffffffffffffffffffffffffffffffffffff166330b2b8aa33846040518363ffffffff1660e01b81526004016116d192919061263b565b600060405180830381600087803b1580156116eb57600080fd5b505af11580156116ff573d6000803e3d6000fd5b5050505081600560008282546117159190612607565b925050819055503373ffffffffffffffffffffffffffffffffffffffff167f833d36ff76cee2402a2c098cd9372e97af294378965dbaef4fa1ea739ceb355e8484604051611764929190612995565b60405180910390a25050611776611c9b565b50565b600360009054906101000a900473ffffffffffffffffffffffffffffffffffffffff1681565b6000806117aa611b6e565b905060006002846117bb91906122fd565b90506402540be400816117ce919061236e565b9050600082670de0b6b3a7640000836117e791906122fd565b6117f1919061236e565b9050809350505050919050565b600a81565b6000600854905090565b6301e1338081565b61181d611ca4565b611825611c55565b600060085490506000811161186f576040517f08c379a000000000000000000000000000000000000000000000000000000000815260040161186690612ef9565b60405180910390fd5b60006008819055506000600760009054906101000a900473ffffffffffffffffffffffffffffffffffffffff1673ffffffffffffffffffffffffffffffffffffffff16826040516118bf90612f4a565b60006040518083038185875af1925050503d80600081146118fc576040519150601f19603f3d011682016040523d82523d6000602084013e611901565b606091505b505090508061194c57816008819055506040517f08c379a000000000000000000000000000000000000000000000000000000000815260040161194390612fab565b60405180910390fd5b600760009054906101000a900473ffffffffffffffffffffffffffffffffffffffff1673ffffffffffffffffffffffffffffffffffffffff167f94b2de810873337ed265c5f8cf98c9cffefa06b8607f9a2f1fbaebdfbcfbef1c836040516119b49190612083565b60405180910390a250506119c6611c9b565b565b6000806119d36112f7565b905080600c601254600381106119ec576119eb612fcb565b5b018190555042600f60125460038110611a0857611a07612fcb565b5b0181905550600b546001601254611a1f9190612607565b611a299190612ffa565b6012819055506000611a39611b6e565b9050600082821115611a6f578160648484611a549190612c7f565b611a5e91906122fd565b611a68919061236e565b9050611a95565b8160648385611a7e9190612c7f565b611a8891906122fd565b611a92919061236e565b90505b600a54811115611ada576040517f08c379a0000000000000000000000000000000000000000000000000000000008152600401611ad190613077565b60405180910390fd5b81935050505090565b611aeb611ca4565b600073ffffffffffffffffffffffffffffffffffffffff168173ffffffffffffffffffffffffffffffffffffffff1603611b5d5760006040517f1e4fbdf7000000000000000000000000000000000000000000000000000000008152600401611b549190612195565b60405180910390fd5b611b6681611d8e565b50565b600281565b600080600090506000805b600b54811015611be6576000600f8260038110611b9957611b98612fcb565b5b01541115611bd357600c8160038110611bb557611bb4612fcb565b5b015483611bc29190612607565b92508180611bcf90613097565b9250505b8080611bde90613097565b915050611b79565b5060008103611c0057611bf76112f7565b92505050611c11565b8082611c0c919061236e565b925050505b90565b611c1c610e3f565b15611c53576040517fd93c066500000000000000000000000000000000000000000000000000000000815260040160405180910390fd5b565b600260015403611c91576040517f3ee5aeb500000000000000000000000000000000000000000000000000000000815260040160405180910390fd5b6002600181905550565b60018081905550565b611cac611eb5565b73ffffffffffffffffffffffffffffffffffffffff16611cca6110f1565b73ffffffffffffffffffffffffffffffffffffffff1614611d2957611ced611eb5565b6040517f118cdaa7000000000000000000000000000000000000000000000000000000008152600401611d209190612195565b60405180910390fd5b565b611d33611ebd565b6000600260006101000a81548160ff0219169083151502179055507f5db9ee0a495bf2e6ff9c91a7834c1ba4fdd244a5e8aa4e537bd38aeae4b073aa611d77611eb5565b604051611d849190612195565b60405180910390a1565b60008060009054906101000a900473ffffffffffffffffffffffffffffffffffffffff169050816000806101000a81548173ffffffffffffffffffffffffffffffffffffffff021916908373ffffffffffffffffffffffffffffffffffffffff1602179055508173ffffffffffffffffffffffffffffffffffffffff168173ffffffffffffffffffffffffffffffffffffffff167f8be0079c531659141344cd1fd0a4f28419497f9722a3daafe3b4186f6b6457e060405160405180910390a35050565b611e5a611c14565b6001600260006101000a81548160ff0219169083151502179055507f62e78cea01bee320cd4e420270b5ea74000d11b0c9f74754ebdbfc544b05a258611e9e611eb5565b604051611eab9190612195565b60405180910390a1565b600033905090565b611ec5610e3f565b611efb576040517f8dfc202b00000000000000000000000000000000000000000000000000000000815260040160405180910390fd5b565b600082825260208201905092915050565b7f55736520627579576974684554482066756e6374696f6e20746f20707572636860008201527f61736520746f6b656e7300000000000000000000000000000000000000000000602082015250565b6000611f6a602a83611efd565b9150611f7582611f0e565b604082019050919050565b60006020820190508181036000830152611f9981611f5d565b9050919050565b7f46756e6374696f6e206e6f7420737570706f7274656400000000000000000000600082015250565b6000611fd6601683611efd565b9150611fe182611fa0565b602082019050919050565b6000602082019050818103600083015261200581611fc9565b9050919050565b600080fd5b6000819050919050565b61202481612011565b811461202f57600080fd5b50565b6000813590506120418161201b565b92915050565b60006020828403121561205d5761205c61200c565b5b600061206b84828501612032565b91505092915050565b61207d81612011565b82525050565b60006020820190506120986000830184612074565b92915050565b600073ffffffffffffffffffffffffffffffffffffffff82169050919050565b6000819050919050565b60006120e36120de6120d98461209e565b6120be565b61209e565b9050919050565b60006120f5826120c8565b9050919050565b6000612107826120ea565b9050919050565b612117816120fc565b82525050565b6000602082019050612132600083018461210e565b92915050565b6000612143826120ea565b9050919050565b61215381612138565b82525050565b600060208201905061216e600083018461214a565b92915050565b600061217f8261209e565b9050919050565b61218f81612174565b82525050565b60006020820190506121aa6000830184612186565b92915050565b6000806000606084860312156121c9576121c861200c565b5b60006121d786828701612032565b93505060206121e886828701612032565b92505060406121f986828701612032565b9150509250925092565b60008115159050919050565b61221881612203565b82525050565b6000602082019050612233600083018461220f565b92915050565b61224281612174565b811461224d57600080fd5b50565b60008135905061225f81612239565b92915050565b60006020828403121561227b5761227a61200c565b5b600061228984828501612250565b91505092915050565b600061229d826120ea565b9050919050565b6122ad81612292565b82525050565b60006020820190506122c860008301846122a4565b92915050565b7f4e487b7100000000000000000000000000000000000000000000000000000000600052601160045260246000fd5b600061230882612011565b915061231383612011565b925082820261232181612011565b91508282048414831517612338576123376122ce565b5b5092915050565b7f4e487b7100000000000000000000000000000000000000000000000000000000600052601260045260246000fd5b600061237982612011565b915061238483612011565b9250826123945761239361233f565b5b828204905092915050565b7f416d6f756e7420746f6f20736d616c6c20746f20707572636861736520616e7960008201527f20746f6b656e7300000000000000000000000000000000000000000000000000602082015250565b60006123fb602783611efd565b91506124068261239f565b604082019050919050565b6000602082019050818103600083015261242a816123ee565b9050919050565b7f50726573616c6520706572696f642068617320656e6465640000000000000000600082015250565b6000612467601883611efd565b915061247282612431565b602082019050919050565b600060208201905081810360008301526124968161245a565b9050919050565b7f45544820616d6f756e74206d7573742062652067726561746572207468616e2060008201527f3000000000000000000000000000000000000000000000000000000000000000602082015250565b60006124f9602183611efd565b91506125048261249d565b604082019050919050565b60006020820190508181036000830152612528816124ec565b9050919050565b7f50757263686173652062656c6f77206d696e696d756d20616d6f756e74000000600082015250565b6000612565601d83611efd565b91506125708261252f565b602082019050919050565b6000602082019050818103600083015261259481612558565b9050919050565b7f50757263686173652061626f7665206d6178696d756d20616d6f756e74000000600082015250565b60006125d1601d83611efd565b91506125dc8261259b565b602082019050919050565b60006020820190508181036000830152612600816125c4565b9050919050565b600061261282612011565b915061261d83612011565b9250828201905080821115612635576126346122ce565b5b92915050565b60006040820190506126506000830185612186565b61265d6020830184612074565b9392505050565b60006060820190506126796000830186612074565b6126866020830185612074565b6126936040830184612074565b949350505050565b7f507269636520616765206d75737420626520706f736974697665000000000000600082015250565b60006126d1601a83611efd565b91506126dc8261269b565b602082019050919050565b60006020820190508181036000830152612700816126c4565b9050919050565b7f446576696174696f6e206d757374206265206265747765656e20312d35302500600082015250565b600061273d601f83611efd565b915061274882612707565b602082019050919050565b6000602082019050818103600083015261276c81612730565b9050919050565b7f545741502077696e646f77206d757374206265206265747765656e20312d3300600082015250565b60006127a9601f83611efd565b91506127b482612773565b602082019050919050565b600060208201905081810360008301526127d88161279c565b9050919050565b7f4e657720656e642074696d65206d757374206265206c61746572207468616e2060008201527f63757272656e7400000000000000000000000000000000000000000000000000602082015250565b600061283b602783611efd565b9150612846826127df565b604082019050919050565b6000602082019050818103600083015261286a8161282e565b9050919050565b7f43616e6e6f7420657874656e64206265796f6e64206d6178696d756d2070726560008201527f73616c65206475726174696f6e00000000000000000000000000000000000000602082015250565b60006128cd602d83611efd565b91506128d882612871565b604082019050919050565b600060208201905081810360008301526128fc816128c0565b9050919050565b7f416c6c2070726573616c6520746f6b656e732068617665206265656e20736f6c60008201527f6400000000000000000000000000000000000000000000000000000000000000602082015250565b600061295f602183611efd565b915061296a82612903565b604082019050919050565b6000602082019050818103600083015261298e81612952565b9050919050565b60006040820190506129aa6000830185612074565b6129b76020830184612074565b9392505050565b7f54726561737572792077616c6c65742063616e6e6f74206265207a65726f206160008201527f6464726573730000000000000000000000000000000000000000000000000000602082015250565b6000612a1a602683611efd565b9150612a25826129be565b604082019050919050565b60006020820190508181036000830152612a4981612a0d565b9050919050565b6000604082019050612a656000830185612186565b612a726020830184612186565b9392505050565b7f507269636520666565642063616e6e6f74206265207a65726f2061646472657360008201527f7300000000000000000000000000000000000000000000000000000000000000602082015250565b6000612ad5602183611efd565b9150612ae082612a79565b604082019050919050565b60006020820190508181036000830152612b0481612ac8565b9050919050565b600069ffffffffffffffffffff82169050919050565b612b2a81612b0b565b8114612b3557600080fd5b50565b600081519050612b4781612b21565b92915050565b6000819050919050565b612b6081612b4d565b8114612b6b57600080fd5b50565b600081519050612b7d81612b57565b92915050565b600081519050612b928161201b565b92915050565b600080600080600060a08688031215612bb457612bb361200c565b5b6000612bc288828901612b38565b9550506020612bd388828901612b6e565b9450506040612be488828901612b83565b9350506060612bf588828901612b83565b9250506080612c0688828901612b38565b9150509295509295909350565b7f496e76616c696420455448207072696365000000000000000000000000000000600082015250565b6000612c49601183611efd565b9150612c5482612c13565b602082019050919050565b60006020820190508181036000830152612c7881612c3c565b9050919050565b6000612c8a82612011565b9150612c9583612011565b9250828203905081811115612cad57612cac6122ce565b5b92915050565b7f5072696365206461746120746f6f206f6c640000000000000000000000000000600082015250565b6000612ce9601283611efd565b9150612cf482612cb3565b602082019050919050565b60006020820190508181036000830152612d1881612cdc565b9050919050565b7f5553445420616d6f756e74206d7573742062652067726561746572207468616e60008201527f2030000000000000000000000000000000000000000000000000000000000000602082015250565b6000612d7b602283611efd565b9150612d8682612d1f565b604082019050919050565b60006020820190508181036000830152612daa81612d6e565b9050919050565b6000606082019050612dc66000830186612186565b612dd36020830185612186565b612de06040830184612074565b949350505050565b612df181612203565b8114612dfc57600080fd5b50565b600081519050612e0e81612de8565b92915050565b600060208284031215612e2a57612e2961200c565b5b6000612e3884828501612dff565b91505092915050565b7f55534454207472616e73666572206661696c6564000000000000000000000000600082015250565b6000612e77601483611efd565b9150612e8282612e41565b602082019050919050565b60006020820190508181036000830152612ea681612e6a565b9050919050565b7f4e6f2045544820617661696c61626c6520666f72207769746864726177616c00600082015250565b6000612ee3601f83611efd565b9150612eee82612ead565b602082019050919050565b60006020820190508181036000830152612f1281612ed6565b9050919050565b600081905092915050565b50565b6000612f34600083612f19565b9150612f3f82612f24565b600082019050919050565b6000612f5582612f27565b9150819050919050565b7f455448207472616e73666572206661696c656400000000000000000000000000600082015250565b6000612f95601383611efd565b9150612fa082612f5f565b602082019050919050565b60006020820190508181036000830152612fc481612f88565b9050919050565b7f4e487b7100000000000000000000000000000000000000000000000000000000600052603260045260246000fd5b600061300582612011565b915061301083612011565b9250826130205761301f61233f565b5b828206905092915050565b7f507269636520646576696174696f6e20746f6f20686967680000000000000000600082015250565b6000613061601883611efd565b915061306c8261302b565b602082019050919050565b6000602082019050818103600083015261309081613054565b9050919050565b60006130a282612011565b91507fffffffffffffffffffffffffffffffffffffffffffffffffffffffffffffffff82036130d4576130d36122ce565b5b60018201905091905056fea26469706673582212203b862ea269de4fb2ac36f062dac1f21382fc8c97b577208d367c46e785629a3f64736f6c63430008140033",
  "linkReferences": {},
  "deployedLinkReferences": {}
}