{
  "_format": "hh-sol-artifact-1",
  "contractName": "HanumanWaterTokenPresale",
  "sourceName": "contracts/HanumanWaterTokenPresale.sol",
  "abi": [
    {
      "inputs": [
        {
          "internalType": "address",
          "name": "_hwtToken",
          "type": "address"
        },
        {
          "internalType": "address",
          "name": "_usdtToken",
          "type": "address"
        },
        {
          "internalType": "address",
          "name": "_ethUsdPriceFeed",
          "type": "address"
        },
        {
          "internalType": "address",
          "name": "_treasuryWallet",
          "type": "address"
        },
        {
          "internalType": "uint256",
          "name": "_presaleDurationDays",
          "type": "uint256"
        }
      ],
      "stateMutability": "nonpayable",
      "type": "constructor"
    },
    {
      "inputs": [],
      "name": "EnforcedPause",
      "type": "error"
    },
    {
      "inputs": [],
      "name": "ExpectedPause",
      "type": "error"
    },
    {
      "inputs": [
        {
          "internalType": "address",
          "name": "owner",
          "type": "address"
        }
      ],
      "name": "OwnableInvalidOwner",
      "type": "error"
    },
    {
      "inputs": [
        {
          "internalType": "address",
          "name": "account",
          "type": "address"
        }
      ],
      "name": "OwnableUnauthorizedAccount",
      "type": "error"
    },
    {
      "inputs": [],
      "name": "ReentrancyGuardReentrantCall",
      "type": "error"
    },
    {
      "anonymous": false,
      "inputs": [
        {
          "indexed": true,
          "internalType": "address",
          "name": "previousOwner",
          "type": "address"
        },
        {
          "indexed": true,
          "internalType": "address",
          "name": "newOwner",
          "type": "address"
        }
      ],
      "name": "OwnershipTransferred",
      "type": "event"
    },
    {
      "anonymous": false,
      "inputs": [
        {
          "indexed": false,
          "internalType": "address",
          "name": "account",
          "type": "address"
        }
      ],
      "name": "Paused",
      "type": "event"
    },
    {
      "anonymous": false,
      "inputs": [
        {
          "indexed": false,
          "internalType": "uint256",
          "name": "oldEndTime",
          "type": "uint256"
        },
        {
          "indexed": false,
          "internalType": "uint256",
          "name": "newEndTime",
          "type": "uint256"
        }
      ],
      "name": "PresaleExtended",
      "type": "event"
    },
    {
      "anonymous": false,
      "inputs": [
        {
          "indexed": false,
          "internalType": "address",
          "name": "oldPriceFeed",
          "type": "address"
        },
        {
          "indexed": false,
          "internalType": "address",
          "name": "newPriceFeed",
          "type": "address"
        }
      ],
      "name": "PriceFeedUpdated",
      "type": "event"
    },
    {
      "anonymous": false,
      "inputs": [
        {
          "indexed": true,
          "internalType": "address",
          "name": "buyer",
          "type": "address"
        },
        {
          "indexed": false,
          "internalType": "uint256",
          "name": "ethAmount",
          "type": "uint256"
        },
        {
          "indexed": false,
          "internalType": "uint256",
          "name": "tokenAmount",
          "type": "uint256"
        },
        {
          "indexed": false,
          "internalType": "uint256",
          "name": "ethPrice",
          "type": "uint256"
        }
      ],
      "name": "TokensPurchasedWithETH",
      "type": "event"
    },
    {
      "anonymous": false,
      "inputs": [
        {
          "indexed": true,
          "internalType": "address",
          "name": "buyer",
          "type": "address"
        },
        {
          "indexed": false,
          "internalType": "uint256",
          "name": "usdtAmount",
          "type": "uint256"
        },
        {
          "indexed": false,
          "internalType": "uint256",
          "name": "tokenAmount",
          "type": "uint256"
        }
      ],
      "name": "TokensPurchasedWithUSDT",
      "type": "event"
    },
    {
      "anonymous": false,
      "inputs": [
        {
          "indexed": false,
          "internalType": "address",
          "name": "oldWallet",
          "type": "address"
        },
        {
          "indexed": false,
          "internalType": "address",
          "name": "newWallet",
          "type": "address"
        }
      ],
      "name": "TreasuryWalletUpdated",
      "type": "event"
    },
    {
      "anonymous": false,
      "inputs": [
        {
          "indexed": false,
          "internalType": "address",
          "name": "account",
          "type": "address"
        }
      ],
      "name": "Unpaused",
      "type": "event"
    },
    {
      "stateMutability": "payable",
      "type": "fallback"
    },
    {
      "inputs": [],
      "name": "MAX_PURCHASE_AMOUNT_USD",
      "outputs": [
        {
          "internalType": "uint256",
          "name": "",
          "type": "uint256"
        }
      ],
      "stateMutability": "view",
      "type": "function"
    },
    {
      "inputs": [],
      "name": "MIN_PURCHASE_AMOUNT_USD",
      "outputs": [
        {
          "internalType": "uint256",
          "name": "",
          "type": "uint256"
        }
      ],
      "stateMutability": "view",
      "type": "function"
    },
    {
      "inputs": [],
      "name": "TOKEN_PRICE_USD",
      "outputs": [
        {
          "internalType": "uint256",
          "name": "",
          "type": "uint256"
        }
      ],
      "stateMutability": "view",
      "type": "function"
    },
    {
      "inputs": [],
      "name": "buyWithETH",
      "outputs": [],
      "stateMutability": "payable",
      "type": "function"
    },
    {
      "inputs": [
        {
          "internalType": "uint256",
          "name": "usdtAmount",
          "type": "uint256"
        }
      ],
      "name": "buyWithUSDT",
      "outputs": [],
      "stateMutability": "nonpayable",
      "type": "function"
    },
    {
      "inputs": [
        {
          "internalType": "uint256",
          "name": "ethAmount",
          "type": "uint256"
        }
      ],
      "name": "calculateTokensForEth",
      "outputs": [
        {
          "internalType": "uint256",
          "name": "",
          "type": "uint256"
        }
      ],
      "stateMutability": "view",
      "type": "function"
    },
    {
      "inputs": [
        {
          "internalType": "uint256",
          "name": "usdtAmount",
          "type": "uint256"
        }
      ],
      "name": "calculateTokensForUsdt",
      "outputs": [
        {
          "internalType": "uint256",
          "name": "",
          "type": "uint256"
        }
      ],
      "stateMutability": "pure",
      "type": "function"
    },
    {
      "inputs": [],
      "name": "ethUsdPriceFeed",
      "outputs": [
        {
          "internalType": "contract AggregatorV3Interface",
          "name": "",
          "type": "address"
        }
      ],
      "stateMutability": "view",
      "type": "function"
    },
    {
      "inputs": [
        {
          "internalType": "uint256",
          "name": "_newEndTime",
          "type": "uint256"
        }
      ],
      "name": "extendPresale",
      "outputs": [],
      "stateMutability": "nonpayable",
      "type": "function"
    },
    {
      "inputs": [],
      "name": "getEthUsdPrice",
      "outputs": [
        {
          "internalType": "uint256",
          "name": "",
          "type": "uint256"
        }
      ],
      "stateMutability": "view",
      "type": "function"
    },
    {
      "inputs": [],
      "name": "hwtToken",
      "outputs": [
        {
          "internalType": "contract IHanumanWaterToken",
          "name": "",
          "type": "address"
        }
      ],
      "stateMutability": "view",
      "type": "function"
    },
    {
      "inputs": [],
      "name": "owner",
      "outputs": [
        {
          "internalType": "address",
          "name": "",
          "type": "address"
        }
      ],
      "stateMutability": "view",
      "type": "function"
    },
    {
      "inputs": [],
      "name": "pause",
      "outputs": [],
      "stateMutability": "nonpayable",
      "type": "function"
    },
    {
      "inputs": [],
      "name": "paused",
      "outputs": [
        {
          "internalType": "bool",
          "name": "",
          "type": "bool"
        }
      ],
      "stateMutability": "view",
      "type": "function"
    },
    {
      "inputs": [],
      "name": "presaleEndTime",
      "outputs": [
        {
          "internalType": "uint256",
          "name": "",
          "type": "uint256"
        }
      ],
      "stateMutability": "view",
      "type": "function"
    },
    {
      "inputs": [],
      "name": "renounceOwnership",
      "outputs": [],
      "stateMutability": "nonpayable",
      "type": "function"
    },
    {
      "inputs": [],
      "name": "totalTokensSold",
      "outputs": [
        {
          "internalType": "uint256",
          "name": "",
          "type": "uint256"
        }
      ],
      "stateMutability": "view",
      "type": "function"
    },
    {
      "inputs": [
        {
          "internalType": "address",
          "name": "newOwner",
          "type": "address"
        }
      ],
      "name": "transferOwnership",
      "outputs": [],
      "stateMutability": "nonpayable",
      "type": "function"
    },
    {
      "inputs": [],
      "name": "treasuryWallet",
      "outputs": [
        {
          "internalType": "address",
          "name": "",
          "type": "address"
        }
      ],
      "stateMutability": "view",
      "type": "function"
    },
    {
      "inputs": [],
      "name": "unpause",
      "outputs": [],
      "stateMutability": "nonpayable",
      "type": "function"
    },
    {
      "inputs": [
        {
          "internalType": "address",
          "name": "_newPriceFeed",
          "type": "address"
        }
      ],
      "name": "updatePriceFeed",
      "outputs": [],
      "stateMutability": "nonpayable",
      "type": "function"
    },
    {
      "inputs": [
        {
          "internalType": "address",
          "name": "_newTreasuryWallet",
          "type": "address"
        }
      ],
      "name": "updateTreasuryWallet",
      "outputs": [],
      "stateMutability": "nonpayable",
      "type": "function"
    },
    {
      "inputs": [],
      "name": "usdtToken",
      "outputs": [
        {
          "internalType": "contract IERC20",
          "name": "",
          "type": "address"
        }
      ],
      "stateMutability": "view",
      "type": "function"
    },
    {
      "stateMutability": "payable",
      "type": "receive"
    }
  ],
  "bytecode": "0x60806040523480156200001157600080fd5b5060405162002a8438038062002a84833981810160405281019062000037919062000545565b33600073ffffffffffffffffffffffffffffffffffffffff168173ffffffffffffffffffffffffffffffffffffffff1603620000ad5760006040517f1e4fbdf7000000000000000000000000000000000000000000000000000000008152600401620000a49190620005de565b60405180910390fd5b620000be81620003dc60201b60201c565b50600180819055506000600260006101000a81548160ff021916908315150217905550600073ffffffffffffffffffffffffffffffffffffffff168573ffffffffffffffffffffffffffffffffffffffff160362000153576040517f08c379a00000000000000000000000000000000000000000000000000000000081526004016200014a906200065c565b60405180910390fd5b600073ffffffffffffffffffffffffffffffffffffffff168473ffffffffffffffffffffffffffffffffffffffff1603620001c5576040517f08c379a0000000000000000000000000000000000000000000000000000000008152600401620001bc90620006f4565b60405180910390fd5b600073ffffffffffffffffffffffffffffffffffffffff168373ffffffffffffffffffffffffffffffffffffffff160362000237576040517f08c379a00000000000000000000000000000000000000000000000000000000081526004016200022e906200078c565b60405180910390fd5b600073ffffffffffffffffffffffffffffffffffffffff168273ffffffffffffffffffffffffffffffffffffffff1603620002a9576040517f08c379a0000000000000000000000000000000000000000000000000000000008152600401620002a090620007fe565b60405180910390fd5b84600260016101000a81548173ffffffffffffffffffffffffffffffffffffffff021916908373ffffffffffffffffffffffffffffffffffffffff16021790555083600360006101000a81548173ffffffffffffffffffffffffffffffffffffffff021916908373ffffffffffffffffffffffffffffffffffffffff16021790555082600460006101000a81548173ffffffffffffffffffffffffffffffffffffffff021916908373ffffffffffffffffffffffffffffffffffffffff16021790555081600760006101000a81548173ffffffffffffffffffffffffffffffffffffffff021916908373ffffffffffffffffffffffffffffffffffffffff1602179055506201518081620003be91906200084f565b42620003cb91906200089a565b6006819055505050505050620008d5565b60008060009054906101000a900473ffffffffffffffffffffffffffffffffffffffff169050816000806101000a81548173ffffffffffffffffffffffffffffffffffffffff021916908373ffffffffffffffffffffffffffffffffffffffff1602179055508173ffffffffffffffffffffffffffffffffffffffff168173ffffffffffffffffffffffffffffffffffffffff167f8be0079c531659141344cd1fd0a4f28419497f9722a3daafe3b4186f6b6457e060405160405180910390a35050565b600080fd5b600073ffffffffffffffffffffffffffffffffffffffff82169050919050565b6000620004d282620004a5565b9050919050565b620004e481620004c5565b8114620004f057600080fd5b50565b6000815190506200050481620004d9565b92915050565b6000819050919050565b6200051f816200050a565b81146200052b57600080fd5b50565b6000815190506200053f8162000514565b92915050565b600080600080600060a08688031215620005645762000563620004a0565b5b60006200057488828901620004f3565b95505060206200058788828901620004f3565b94505060406200059a88828901620004f3565b9350506060620005ad88828901620004f3565b9250506080620005c0888289016200052e565b9150509295509295909350565b620005d881620004c5565b82525050565b6000602082019050620005f56000830184620005cd565b92915050565b600082825260208201905092915050565b7f48575420746f6b656e20616464726573732063616e6e6f74206265207a65726f600082015250565b600062000644602083620005fb565b915062000651826200060c565b602082019050919050565b60006020820190508181036000830152620006778162000635565b9050919050565b7f5553445420746f6b656e20616464726573732063616e6e6f74206265207a657260008201527f6f00000000000000000000000000000000000000000000000000000000000000602082015250565b6000620006dc602183620005fb565b9150620006e9826200067e565b604082019050919050565b600060208201905081810360008301526200070f81620006cd565b9050919050565b7f5072696365206665656420616464726573732063616e6e6f74206265207a657260008201527f6f00000000000000000000000000000000000000000000000000000000000000602082015250565b600062000774602183620005fb565b9150620007818262000716565b604082019050919050565b60006020820190508181036000830152620007a78162000765565b9050919050565b7f54726561737572792077616c6c65742063616e6e6f74206265207a65726f0000600082015250565b6000620007e6601e83620005fb565b9150620007f382620007ae565b602082019050919050565b600060208201905081810360008301526200081981620007d7565b9050919050565b7f4e487b7100000000000000000000000000000000000000000000000000000000600052601160045260246000fd5b60006200085c826200050a565b915062000869836200050a565b925082820262000879816200050a565b9150828204841483151762000893576200089262000820565b5b5092915050565b6000620008a7826200050a565b9150620008b4836200050a565b9250828201905080821115620008cf57620008ce62000820565b5b92915050565b61219f80620008e56000396000f3fe6080604052600436106101445760003560e01c80637d81d14c116100b6578063a0a8045e1161006f578063a0a8045e1461045b578063a7c6016014610486578063a98ad46c146104af578063bc4056ed146104da578063f2fde38b14610505578063f7a182f51461052e57610184565b80637d81d14c14610361578063809d458d1461038a5780638456cb59146103b35780638da5cb5b146103ca57806395877f78146103f55780639e8805791461041e57610184565b80633f4ba83a116101085780633f4ba83a1461028757806342f6fb291461029e5780634626402b146102c95780635c975abb146102f457806363b201171461031f578063715018a61461034a57610184565b806306fd9bf6146101bf578063150d283d146101fc578063249b7c191461020657806326ab50b4146102315780633cdab2a81461025c57610184565b36610184576040517f08c379a000000000000000000000000000000000000000000000000000000000815260040161017b90611577565b60405180910390fd5b6040517f08c379a00000000000000000000000000000000000000000000000000000000081526004016101b6906115e3565b60405180910390fd5b3480156101cb57600080fd5b506101e660048036038101906101e1919061163e565b610559565b6040516101f3919061167a565b60405180910390f35b6102046105c7565b005b34801561021257600080fd5b5061021b610919565b604051610228919061167a565b60405180910390f35b34801561023d57600080fd5b5061024661091f565b604051610253919061167a565b60405180910390f35b34801561026857600080fd5b50610271610926565b60405161027e9190611714565b60405180910390f35b34801561029357600080fd5b5061029c61094c565b005b3480156102aa57600080fd5b506102b361095e565b6040516102c09190611750565b60405180910390f35b3480156102d557600080fd5b506102de610984565b6040516102eb919061178c565b60405180910390f35b34801561030057600080fd5b506103096109aa565b60405161031691906117c2565b60405180910390f35b34801561032b57600080fd5b506103346109c1565b604051610341919061167a565b60405180910390f35b34801561035657600080fd5b5061035f6109c7565b005b34801561036d57600080fd5b506103886004803603810190610383919061163e565b6109db565b005b34801561039657600080fd5b506103b160048036038101906103ac9190611809565b610a72565b005b3480156103bf57600080fd5b506103c8610b8e565b005b3480156103d657600080fd5b506103df610ba0565b6040516103ec919061178c565b60405180910390f35b34801561040157600080fd5b5061041c60048036038101906104179190611809565b610bc9565b005b34801561042a57600080fd5b506104456004803603810190610440919061163e565b610ce5565b604051610452919061167a565b60405180910390f35b34801561046757600080fd5b50610470610d27565b60405161047d919061167a565b60405180910390f35b34801561049257600080fd5b506104ad60048036038101906104a8919061163e565b610e0b565b005b3480156104bb57600080fd5b506104c4611155565b6040516104d19190611857565b60405180910390f35b3480156104e657600080fd5b506104ef61117b565b6040516104fc919061167a565b60405180910390f35b34801561051157600080fd5b5061052c60048036038101906105279190611809565b611180565b005b34801561053a57600080fd5b50610543611206565b604051610550919061167a565b60405180910390f35b600080610564610d27565b90506000670de0b6b3a7640000828561057d91906118a1565b6105879190611912565b905060006305f5e100600261059c91906118a1565b670de0b6b3a7640000836105b091906118a1565b6105ba9190611912565b9050809350505050919050565b60065442111561060c576040517f08c379a00000000000000000000000000000000000000000000000000000000081526004016106039061198f565b60405180910390fd5b61061461120b565b61061c61124c565b6000341161065f576040517f08c379a000000000000000000000000000000000000000000000000000000000815260040161065690611a21565b60405180910390fd5b600061066a34610559565b90506000610676610d27565b90506000670de0b6b3a7640000823461068f91906118a1565b6106999190611912565b90506305f5e10060026106ac91906118a1565b8110156106ee576040517f08c379a00000000000000000000000000000000000000000000000000000000081526004016106e590611a8d565b60405180910390fd5b6305f5e100620186a061070191906118a1565b811115610743576040517f08c379a000000000000000000000000000000000000000000000000000000000815260040161073a90611af9565b60405180910390fd5b6000600760009054906101000a900473ffffffffffffffffffffffffffffffffffffffff1673ffffffffffffffffffffffffffffffffffffffff163460405161078b90611b4a565b60006040518083038185875af1925050503d80600081146107c8576040519150601f19603f3d011682016040523d82523d6000602084013e6107cd565b606091505b5050905080610811576040517f08c379a000000000000000000000000000000000000000000000000000000000815260040161080890611bab565b60405180910390fd5b600260019054906101000a900473ffffffffffffffffffffffffffffffffffffffff1673ffffffffffffffffffffffffffffffffffffffff166330b2b8aa33866040518363ffffffff1660e01b815260040161086e929190611bcb565b600060405180830381600087803b15801561088857600080fd5b505af115801561089c573d6000803e3d6000fd5b5050505083600560008282546108b29190611bf4565b925050819055503373ffffffffffffffffffffffffffffffffffffffff167fec6490c6ef89b23df34763d6ade6b4444edea66522e35ce0e085dde9891789ce34868660405161090393929190611c28565b60405180910390a250505050610917611292565b565b60065481565b620186a081565b600260019054906101000a900473ffffffffffffffffffffffffffffffffffffffff1681565b61095461129b565b61095c611322565b565b600460009054906101000a900473ffffffffffffffffffffffffffffffffffffffff1681565b600760009054906101000a900473ffffffffffffffffffffffffffffffffffffffff1681565b6000600260009054906101000a900460ff16905090565b60055481565b6109cf61129b565b6109d96000611385565b565b6109e361129b565b6006548111610a27576040517f08c379a0000000000000000000000000000000000000000000000000000000008152600401610a1e90611cd1565b60405180910390fd5b60006006549050816006819055507f36590996dea047dc12d17ec2643248f8b86eb37e78941b43d9e9049180efb7b08183604051610a66929190611cf1565b60405180910390a15050565b610a7a61129b565b600073ffffffffffffffffffffffffffffffffffffffff168173ffffffffffffffffffffffffffffffffffffffff1603610ae9576040517f08c379a0000000000000000000000000000000000000000000000000000000008152600401610ae090611d8c565b60405180910390fd5b6000600760009054906101000a900473ffffffffffffffffffffffffffffffffffffffff16905081600760006101000a81548173ffffffffffffffffffffffffffffffffffffffff021916908373ffffffffffffffffffffffffffffffffffffffff1602179055507fa982575859d7ad2f390dc12b23f7dab8bbda047f9d0140ac68344b27bf34bfb48183604051610b82929190611dac565b60405180910390a15050565b610b9661129b565b610b9e611449565b565b60008060009054906101000a900473ffffffffffffffffffffffffffffffffffffffff16905090565b610bd161129b565b600073ffffffffffffffffffffffffffffffffffffffff168173ffffffffffffffffffffffffffffffffffffffff1603610c40576040517f08c379a0000000000000000000000000000000000000000000000000000000008152600401610c3790611e47565b60405180910390fd5b6000600460009054906101000a900473ffffffffffffffffffffffffffffffffffffffff16905081600460006101000a81548173ffffffffffffffffffffffffffffffffffffffff021916908373ffffffffffffffffffffffffffffffffffffffff1602179055507fa8abe0398416476db5b05737cd4da3b3cbde5012d978a6a6c3fd49d3217535368183604051610cd9929190611dac565b60405180910390a15050565b600080620f424083610cf79190611912565b905060006002670de0b6b3a764000083610d1191906118a1565b610d1b9190611912565b90508092505050919050565b600080600460009054906101000a900473ffffffffffffffffffffffffffffffffffffffff1673ffffffffffffffffffffffffffffffffffffffff1663feaf968c6040518163ffffffff1660e01b815260040160a060405180830381865afa158015610d97573d6000803e3d6000fd5b505050506040513d601f19601f82011682018060405250810190610dbb9190611ef4565b50505091505060008113610e04576040517f08c379a0000000000000000000000000000000000000000000000000000000008152600401610dfb90611fbb565b60405180910390fd5b8091505090565b600654421115610e50576040517f08c379a0000000000000000000000000000000000000000000000000000000008152600401610e479061198f565b60405180910390fd5b610e5861120b565b610e6061124c565b60008111610ea3576040517f08c379a0000000000000000000000000000000000000000000000000000000008152600401610e9a9061204d565b60405180910390fd5b6000610eae82610ce5565b90506000620f424083610ec19190611912565b90506002811015610f07576040517f08c379a0000000000000000000000000000000000000000000000000000000008152600401610efe90611a8d565b60405180910390fd5b620186a0811115610f4d576040517f08c379a0000000000000000000000000000000000000000000000000000000008152600401610f4490611af9565b60405180910390fd5b600360009054906101000a900473ffffffffffffffffffffffffffffffffffffffff1673ffffffffffffffffffffffffffffffffffffffff166323b872dd33600760009054906101000a900473ffffffffffffffffffffffffffffffffffffffff16866040518463ffffffff1660e01b8152600401610fce9392919061206d565b6020604051808303816000875af1158015610fed573d6000803e3d6000fd5b505050506040513d601f19601f8201168201806040525081019061101191906120d0565b611050576040517f08c379a000000000000000000000000000000000000000000000000000000000815260040161104790612149565b60405180910390fd5b600260019054906101000a900473ffffffffffffffffffffffffffffffffffffffff1673ffffffffffffffffffffffffffffffffffffffff166330b2b8aa33846040518363ffffffff1660e01b81526004016110ad929190611bcb565b600060405180830381600087803b1580156110c757600080fd5b505af11580156110db573d6000803e3d6000fd5b5050505081600560008282546110f19190611bf4565b925050819055503373ffffffffffffffffffffffffffffffffffffffff167f833d36ff76cee2402a2c098cd9372e97af294378965dbaef4fa1ea739ceb355e8484604051611140929190611cf1565b60405180910390a25050611152611292565b50565b600360009054906101000a900473ffffffffffffffffffffffffffffffffffffffff1681565b600281565b61118861129b565b600073ffffffffffffffffffffffffffffffffffffffff168173ffffffffffffffffffffffffffffffffffffffff16036111fa5760006040517f1e4fbdf70000000000000000000000000000000000000000000000000000000081526004016111f1919061178c565b60405180910390fd5b61120381611385565b50565b600281565b6112136109aa565b1561124a576040517fd93c066500000000000000000000000000000000000000000000000000000000815260040160405180910390fd5b565b600260015403611288576040517f3ee5aeb500000000000000000000000000000000000000000000000000000000815260040160405180910390fd5b6002600181905550565b60018081905550565b6112a36114ac565b73ffffffffffffffffffffffffffffffffffffffff166112c1610ba0565b73ffffffffffffffffffffffffffffffffffffffff1614611320576112e46114ac565b6040517f118cdaa7000000000000000000000000000000000000000000000000000000008152600401611317919061178c565b60405180910390fd5b565b61132a6114b4565b6000600260006101000a81548160ff0219169083151502179055507f5db9ee0a495bf2e6ff9c91a7834c1ba4fdd244a5e8aa4e537bd38aeae4b073aa61136e6114ac565b60405161137b919061178c565b60405180910390a1565b60008060009054906101000a900473ffffffffffffffffffffffffffffffffffffffff169050816000806101000a81548173ffffffffffffffffffffffffffffffffffffffff021916908373ffffffffffffffffffffffffffffffffffffffff1602179055508173ffffffffffffffffffffffffffffffffffffffff168173ffffffffffffffffffffffffffffffffffffffff167f8be0079c531659141344cd1fd0a4f28419497f9722a3daafe3b4186f6b6457e060405160405180910390a35050565b61145161120b565b6001600260006101000a81548160ff0219169083151502179055507f62e78cea01bee320cd4e420270b5ea74000d11b0c9f74754ebdbfc544b05a2586114956114ac565b6040516114a2919061178c565b60405180910390a1565b600033905090565b6114bc6109aa565b6114f2576040517f8dfc202b00000000000000000000000000000000000000000000000000000000815260040160405180910390fd5b565b600082825260208201905092915050565b7f55736520627579576974684554482066756e6374696f6e20746f20707572636860008201527f61736520746f6b656e7300000000000000000000000000000000000000000000602082015250565b6000611561602a836114f4565b915061156c82611505565b604082019050919050565b6000602082019050818103600083015261159081611554565b9050919050565b7f46756e6374696f6e206e6f7420737570706f7274656400000000000000000000600082015250565b60006115cd6016836114f4565b91506115d882611597565b602082019050919050565b600060208201905081810360008301526115fc816115c0565b9050919050565b600080fd5b6000819050919050565b61161b81611608565b811461162657600080fd5b50565b60008135905061163881611612565b92915050565b60006020828403121561165457611653611603565b5b600061166284828501611629565b91505092915050565b61167481611608565b82525050565b600060208201905061168f600083018461166b565b92915050565b600073ffffffffffffffffffffffffffffffffffffffff82169050919050565b6000819050919050565b60006116da6116d56116d084611695565b6116b5565b611695565b9050919050565b60006116ec826116bf565b9050919050565b60006116fe826116e1565b9050919050565b61170e816116f3565b82525050565b60006020820190506117296000830184611705565b92915050565b600061173a826116e1565b9050919050565b61174a8161172f565b82525050565b60006020820190506117656000830184611741565b92915050565b600061177682611695565b9050919050565b6117868161176b565b82525050565b60006020820190506117a1600083018461177d565b92915050565b60008115159050919050565b6117bc816117a7565b82525050565b60006020820190506117d760008301846117b3565b92915050565b6117e68161176b565b81146117f157600080fd5b50565b600081359050611803816117dd565b92915050565b60006020828403121561181f5761181e611603565b5b600061182d848285016117f4565b91505092915050565b6000611841826116e1565b9050919050565b61185181611836565b82525050565b600060208201905061186c6000830184611848565b92915050565b7f4e487b7100000000000000000000000000000000000000000000000000000000600052601160045260246000fd5b60006118ac82611608565b91506118b783611608565b92508282026118c581611608565b915082820484148315176118dc576118db611872565b5b5092915050565b7f4e487b7100000000000000000000000000000000000000000000000000000000600052601260045260246000fd5b600061191d82611608565b915061192883611608565b925082611938576119376118e3565b5b828204905092915050565b7f50726573616c6520706572696f642068617320656e6465640000000000000000600082015250565b60006119796018836114f4565b915061198482611943565b602082019050919050565b600060208201905081810360008301526119a88161196c565b9050919050565b7f45544820616d6f756e74206d7573742062652067726561746572207468616e2060008201527f3000000000000000000000000000000000000000000000000000000000000000602082015250565b6000611a0b6021836114f4565b9150611a16826119af565b604082019050919050565b60006020820190508181036000830152611a3a816119fe565b9050919050565b7f50757263686173652062656c6f77206d696e696d756d20616d6f756e74000000600082015250565b6000611a77601d836114f4565b9150611a8282611a41565b602082019050919050565b60006020820190508181036000830152611aa681611a6a565b9050919050565b7f50757263686173652061626f7665206d6178696d756d20616d6f756e74000000600082015250565b6000611ae3601d836114f4565b9150611aee82611aad565b602082019050919050565b60006020820190508181036000830152611b1281611ad6565b9050919050565b600081905092915050565b50565b6000611b34600083611b19565b9150611b3f82611b24565b600082019050919050565b6000611b5582611b27565b9150819050919050565b7f455448207472616e73666572206661696c656400000000000000000000000000600082015250565b6000611b956013836114f4565b9150611ba082611b5f565b602082019050919050565b60006020820190508181036000830152611bc481611b88565b9050919050565b6000604082019050611be0600083018561177d565b611bed602083018461166b565b9392505050565b6000611bff82611608565b9150611c0a83611608565b9250828201905080821115611c2257611c21611872565b5b92915050565b6000606082019050611c3d600083018661166b565b611c4a602083018561166b565b611c57604083018461166b565b949350505050565b7f4e657720656e642074696d65206d757374206265206c61746572207468616e2060008201527f63757272656e7400000000000000000000000000000000000000000000000000602082015250565b6000611cbb6027836114f4565b9150611cc682611c5f565b604082019050919050565b60006020820190508181036000830152611cea81611cae565b9050919050565b6000604082019050611d06600083018561166b565b611d13602083018461166b565b9392505050565b7f54726561737572792077616c6c65742063616e6e6f74206265207a65726f206160008201527f6464726573730000000000000000000000000000000000000000000000000000602082015250565b6000611d766026836114f4565b9150611d8182611d1a565b604082019050919050565b60006020820190508181036000830152611da581611d69565b9050919050565b6000604082019050611dc1600083018561177d565b611dce602083018461177d565b9392505050565b7f507269636520666565642063616e6e6f74206265207a65726f2061646472657360008201527f7300000000000000000000000000000000000000000000000000000000000000602082015250565b6000611e316021836114f4565b9150611e3c82611dd5565b604082019050919050565b60006020820190508181036000830152611e6081611e24565b9050919050565b600069ffffffffffffffffffff82169050919050565b611e8681611e67565b8114611e9157600080fd5b50565b600081519050611ea381611e7d565b92915050565b6000819050919050565b611ebc81611ea9565b8114611ec757600080fd5b50565b600081519050611ed981611eb3565b92915050565b600081519050611eee81611612565b92915050565b600080600080600060a08688031215611f1057611f0f611603565b5b6000611f1e88828901611e94565b9550506020611f2f88828901611eca565b9450506040611f4088828901611edf565b9350506060611f5188828901611edf565b9250506080611f6288828901611e94565b9150509295509295909350565b7f496e76616c696420455448207072696365000000000000000000000000000000600082015250565b6000611fa56011836114f4565b9150611fb082611f6f565b602082019050919050565b60006020820190508181036000830152611fd481611f98565b9050919050565b7f5553445420616d6f756e74206d7573742062652067726561746572207468616e60008201527f2030000000000000000000000000000000000000000000000000000000000000602082015250565b60006120376022836114f4565b915061204282611fdb565b604082019050919050565b600060208201905081810360008301526120668161202a565b9050919050565b6000606082019050612082600083018661177d565b61208f602083018561177d565b61209c604083018461166b565b949350505050565b6120ad816117a7565b81146120b857600080fd5b50565b6000815190506120ca816120a4565b92915050565b6000602082840312156120e6576120e5611603565b5b60006120f4848285016120bb565b91505092915050565b7f55534454207472616e73666572206661696c6564000000000000000000000000600082015250565b60006121336014836114f4565b915061213e826120fd565b602082019050919050565b6000602082019050818103600083015261216281612126565b905091905056fea2646970667358221220443c0d751c3d739825513f64cb6d0c413877d7eaeebbd2b2994b84d0be8e2bfc64736f6c63430008140033",
  "linkReferences": {},
  "deployedLinkReferences": {}
}