{
  "_format": "hh-sol-artifact-1",
  "contractName": "HanumanWaterTokenPresale",
  "sourceName": "contracts/HanumanWaterTokenPresale.sol",
  "abi": [
    {
      "inputs": [
        {
          "internalType": "address",
          "name": "_hwtToken",
          "type": "address"
        },
        {
          "internalType": "address",
          "name": "_usdtToken",
          "type": "address"
        },
        {
          "internalType": "address",
          "name": "_ethUsdPriceFeed",
          "type": "address"
        },
        {
          "internalType": "address",
          "name": "_treasuryWallet",
          "type": "address"
        },
        {
          "internalType": "uint256",
          "name": "_presaleDurationDays",
          "type": "uint256"
        }
      ],
      "stateMutability": "nonpayable",
      "type": "constructor"
    },
    {
      "inputs": [],
      "name": "EnforcedPause",
      "type": "error"
    },
    {
      "inputs": [],
      "name": "ExpectedPause",
      "type": "error"
    },
    {
      "inputs": [
        {
          "internalType": "address",
          "name": "owner",
          "type": "address"
        }
      ],
      "name": "OwnableInvalidOwner",
      "type": "error"
    },
    {
      "inputs": [
        {
          "internalType": "address",
          "name": "account",
          "type": "address"
        }
      ],
      "name": "OwnableUnauthorizedAccount",
      "type": "error"
    },
    {
      "inputs": [],
      "name": "ReentrancyGuardReentrantCall",
      "type": "error"
    },
    {
      "anonymous": false,
      "inputs": [
        {
          "indexed": false,
          "internalType": "uint256",
          "name": "amount",
          "type": "uint256"
        }
      ],
      "name": "ETHDeposited",
      "type": "event"
    },
    {
      "anonymous": false,
      "inputs": [
        {
          "indexed": true,
          "internalType": "address",
          "name": "to",
          "type": "address"
        },
        {
          "indexed": false,
          "internalType": "uint256",
          "name": "amount",
          "type": "uint256"
        }
      ],
      "name": "ETHWithdrawn",
      "type": "event"
    },
    {
      "anonymous": false,
      "inputs": [
        {
          "indexed": true,
          "internalType": "address",
          "name": "previousOwner",
          "type": "address"
        },
        {
          "indexed": true,
          "internalType": "address",
          "name": "newOwner",
          "type": "address"
        }
      ],
      "name": "OwnershipTransferred",
      "type": "event"
    },
    {
      "anonymous": false,
      "inputs": [
        {
          "indexed": false,
          "internalType": "address",
          "name": "account",
          "type": "address"
        }
      ],
      "name": "Paused",
      "type": "event"
    },
    {
      "anonymous": false,
      "inputs": [
        {
          "indexed": false,
          "internalType": "uint256",
          "name": "oldEndTime",
          "type": "uint256"
        },
        {
          "indexed": false,
          "internalType": "uint256",
          "name": "newEndTime",
          "type": "uint256"
        }
      ],
      "name": "PresaleExtended",
      "type": "event"
    },
    {
      "anonymous": false,
      "inputs": [
        {
          "indexed": false,
          "internalType": "address",
          "name": "oldPriceFeed",
          "type": "address"
        },
        {
          "indexed": false,
          "internalType": "address",
          "name": "newPriceFeed",
          "type": "address"
        }
      ],
      "name": "PriceFeedUpdated",
      "type": "event"
    },
    {
      "anonymous": false,
      "inputs": [
        {
          "indexed": true,
          "internalType": "address",
          "name": "buyer",
          "type": "address"
        },
        {
          "indexed": false,
          "internalType": "uint256",
          "name": "ethAmount",
          "type": "uint256"
        },
        {
          "indexed": false,
          "internalType": "uint256",
          "name": "tokenAmount",
          "type": "uint256"
        },
        {
          "indexed": false,
          "internalType": "uint256",
          "name": "ethPrice",
          "type": "uint256"
        }
      ],
      "name": "TokensPurchasedWithETH",
      "type": "event"
    },
    {
      "anonymous": false,
      "inputs": [
        {
          "indexed": true,
          "internalType": "address",
          "name": "buyer",
          "type": "address"
        },
        {
          "indexed": false,
          "internalType": "uint256",
          "name": "usdtAmount",
          "type": "uint256"
        },
        {
          "indexed": false,
          "internalType": "uint256",
          "name": "tokenAmount",
          "type": "uint256"
        }
      ],
      "name": "TokensPurchasedWithUSDT",
      "type": "event"
    },
    {
      "anonymous": false,
      "inputs": [
        {
          "indexed": false,
          "internalType": "address",
          "name": "oldWallet",
          "type": "address"
        },
        {
          "indexed": false,
          "internalType": "address",
          "name": "newWallet",
          "type": "address"
        }
      ],
      "name": "TreasuryWalletUpdated",
      "type": "event"
    },
    {
      "anonymous": false,
      "inputs": [
        {
          "indexed": false,
          "internalType": "address",
          "name": "account",
          "type": "address"
        }
      ],
      "name": "Unpaused",
      "type": "event"
    },
    {
      "stateMutability": "payable",
      "type": "fallback"
    },
    {
      "inputs": [],
      "name": "MAX_PRESALE_DURATION",
      "outputs": [
        {
          "internalType": "uint256",
          "name": "",
          "type": "uint256"
        }
      ],
      "stateMutability": "view",
      "type": "function"
    },
    {
      "inputs": [],
      "name": "MAX_PURCHASE_AMOUNT_USD",
      "outputs": [
        {
          "internalType": "uint256",
          "name": "",
          "type": "uint256"
        }
      ],
      "stateMutability": "view",
      "type": "function"
    },
    {
      "inputs": [],
      "name": "MIN_PURCHASE_AMOUNT_USD",
      "outputs": [
        {
          "internalType": "uint256",
          "name": "",
          "type": "uint256"
        }
      ],
      "stateMutability": "view",
      "type": "function"
    },
    {
      "inputs": [],
      "name": "TOKEN_PRICE_USD",
      "outputs": [
        {
          "internalType": "uint256",
          "name": "",
          "type": "uint256"
        }
      ],
      "stateMutability": "view",
      "type": "function"
    },
    {
      "inputs": [],
      "name": "TOTAL_PRESALE_TOKENS",
      "outputs": [
        {
          "internalType": "uint256",
          "name": "",
          "type": "uint256"
        }
      ],
      "stateMutability": "view",
      "type": "function"
    },
    {
      "inputs": [],
      "name": "buyWithETH",
      "outputs": [],
      "stateMutability": "payable",
      "type": "function"
    },
    {
      "inputs": [
        {
          "internalType": "uint256",
          "name": "usdtAmount",
          "type": "uint256"
        }
      ],
      "name": "buyWithUSDT",
      "outputs": [],
      "stateMutability": "nonpayable",
      "type": "function"
    },
    {
      "inputs": [
        {
          "internalType": "uint256",
          "name": "ethAmount",
          "type": "uint256"
        }
      ],
      "name": "calculateTokensForEth",
      "outputs": [
        {
          "internalType": "uint256",
          "name": "",
          "type": "uint256"
        }
      ],
      "stateMutability": "view",
      "type": "function"
    },
    {
      "inputs": [
        {
          "internalType": "uint256",
          "name": "usdtAmount",
          "type": "uint256"
        }
      ],
      "name": "calculateTokensForUsdt",
      "outputs": [
        {
          "internalType": "uint256",
          "name": "",
          "type": "uint256"
        }
      ],
      "stateMutability": "pure",
      "type": "function"
    },
    {
      "inputs": [],
      "name": "calculateTwapPrice",
      "outputs": [
        {
          "internalType": "uint256",
          "name": "",
          "type": "uint256"
        }
      ],
      "stateMutability": "view",
      "type": "function"
    },
    {
      "inputs": [],
      "name": "ethUsdPriceFeed",
      "outputs": [
        {
          "internalType": "contract AggregatorV3Interface",
          "name": "",
          "type": "address"
        }
      ],
      "stateMutability": "view",
      "type": "function"
    },
    {
      "inputs": [
        {
          "internalType": "uint256",
          "name": "_newEndTime",
          "type": "uint256"
        }
      ],
      "name": "extendPresale",
      "outputs": [],
      "stateMutability": "nonpayable",
      "type": "function"
    },
    {
      "inputs": [
        {
          "internalType": "uint256",
          "name": "tokenAmount",
          "type": "uint256"
        }
      ],
      "name": "getEthAmountForTokens",
      "outputs": [
        {
          "internalType": "uint256",
          "name": "",
          "type": "uint256"
        }
      ],
      "stateMutability": "view",
      "type": "function"
    },
    {
      "inputs": [],
      "name": "getEthUsdPrice",
      "outputs": [
        {
          "internalType": "uint256",
          "name": "",
          "type": "uint256"
        }
      ],
      "stateMutability": "view",
      "type": "function"
    },
    {
      "inputs": [],
      "name": "getPendingETHWithdrawals",
      "outputs": [
        {
          "internalType": "uint256",
          "name": "",
          "type": "uint256"
        }
      ],
      "stateMutability": "view",
      "type": "function"
    },
    {
      "inputs": [
        {
          "internalType": "uint256",
          "name": "ethAmount",
          "type": "uint256"
        }
      ],
      "name": "getTokensForEthAmount",
      "outputs": [
        {
          "internalType": "uint256",
          "name": "",
          "type": "uint256"
        }
      ],
      "stateMutability": "view",
      "type": "function"
    },
    {
      "inputs": [
        {
          "internalType": "uint256",
          "name": "usdtAmount",
          "type": "uint256"
        }
      ],
      "name": "getTokensForUsdtAmount",
      "outputs": [
        {
          "internalType": "uint256",
          "name": "",
          "type": "uint256"
        }
      ],
      "stateMutability": "pure",
      "type": "function"
    },
    {
      "inputs": [
        {
          "internalType": "uint256",
          "name": "tokenAmount",
          "type": "uint256"
        }
      ],
      "name": "getUsdtAmountForTokens",
      "outputs": [
        {
          "internalType": "uint256",
          "name": "",
          "type": "uint256"
        }
      ],
      "stateMutability": "pure",
      "type": "function"
    },
    {
      "inputs": [],
      "name": "hwtToken",
      "outputs": [
        {
          "internalType": "contract IHanumanWaterToken",
          "name": "",
          "type": "address"
        }
      ],
      "stateMutability": "view",
      "type": "function"
    },
    {
      "inputs": [],
      "name": "maxPriceAge",
      "outputs": [
        {
          "internalType": "uint256",
          "name": "",
          "type": "uint256"
        }
      ],
      "stateMutability": "view",
      "type": "function"
    },
    {
      "inputs": [],
      "name": "maxPriceDeviation",
      "outputs": [
        {
          "internalType": "uint256",
          "name": "",
          "type": "uint256"
        }
      ],
      "stateMutability": "view",
      "type": "function"
    },
    {
      "inputs": [],
      "name": "owner",
      "outputs": [
        {
          "internalType": "address",
          "name": "",
          "type": "address"
        }
      ],
      "stateMutability": "view",
      "type": "function"
    },
    {
      "inputs": [],
      "name": "pause",
      "outputs": [],
      "stateMutability": "nonpayable",
      "type": "function"
    },
    {
      "inputs": [],
      "name": "paused",
      "outputs": [
        {
          "internalType": "bool",
          "name": "",
          "type": "bool"
        }
      ],
      "stateMutability": "view",
      "type": "function"
    },
    {
      "inputs": [],
      "name": "pendingETHWithdrawals",
      "outputs": [
        {
          "internalType": "uint256",
          "name": "",
          "type": "uint256"
        }
      ],
      "stateMutability": "view",
      "type": "function"
    },
    {
      "inputs": [],
      "name": "presaleEndTime",
      "outputs": [
        {
          "internalType": "uint256",
          "name": "",
          "type": "uint256"
        }
      ],
      "stateMutability": "view",
      "type": "function"
    },
    {
      "inputs": [],
      "name": "renounceOwnership",
      "outputs": [],
      "stateMutability": "nonpayable",
      "type": "function"
    },
    {
      "inputs": [],
      "name": "totalTokensSold",
      "outputs": [
        {
          "internalType": "uint256",
          "name": "",
          "type": "uint256"
        }
      ],
      "stateMutability": "view",
      "type": "function"
    },
    {
      "inputs": [
        {
          "internalType": "address",
          "name": "newOwner",
          "type": "address"
        }
      ],
      "name": "transferOwnership",
      "outputs": [],
      "stateMutability": "nonpayable",
      "type": "function"
    },
    {
      "inputs": [],
      "name": "treasuryWallet",
      "outputs": [
        {
          "internalType": "address",
          "name": "",
          "type": "address"
        }
      ],
      "stateMutability": "view",
      "type": "function"
    },
    {
      "inputs": [],
      "name": "twapWindow",
      "outputs": [
        {
          "internalType": "uint256",
          "name": "",
          "type": "uint256"
        }
      ],
      "stateMutability": "view",
      "type": "function"
    },
    {
      "inputs": [],
      "name": "unpause",
      "outputs": [],
      "stateMutability": "nonpayable",
      "type": "function"
    },
    {
      "inputs": [],
      "name": "updateAndGetTwapPrice",
      "outputs": [
        {
          "internalType": "uint256",
          "name": "",
          "type": "uint256"
        }
      ],
      "stateMutability": "nonpayable",
      "type": "function"
    },
    {
      "inputs": [
        {
          "internalType": "address",
          "name": "_newPriceFeed",
          "type": "address"
        }
      ],
      "name": "updatePriceFeed",
      "outputs": [],
      "stateMutability": "nonpayable",
      "type": "function"
    },
    {
      "inputs": [
        {
          "internalType": "uint256",
          "name": "_maxPriceAge",
          "type": "uint256"
        },
        {
          "internalType": "uint256",
          "name": "_maxPriceDeviation",
          "type": "uint256"
        },
        {
          "internalType": "uint256",
          "name": "_twapWindow",
          "type": "uint256"
        }
      ],
      "name": "updatePriceProtectionParams",
      "outputs": [],
      "stateMutability": "nonpayable",
      "type": "function"
    },
    {
      "inputs": [
        {
          "internalType": "address",
          "name": "_newTreasuryWallet",
          "type": "address"
        }
      ],
      "name": "updateTreasuryWallet",
      "outputs": [],
      "stateMutability": "nonpayable",
      "type": "function"
    },
    {
      "inputs": [],
      "name": "usdtToken",
      "outputs": [
        {
          "internalType": "contract IERC20",
          "name": "",
          "type": "address"
        }
      ],
      "stateMutability": "view",
      "type": "function"
    },
    {
      "inputs": [],
      "name": "withdrawETH",
      "outputs": [],
      "stateMutability": "nonpayable",
      "type": "function"
    },
    {
      "stateMutability": "payable",
      "type": "receive"
    }
  ],
  "bytecode": "0x6080604052610e10600955600a80556003600b5560006012553480156200002557600080fd5b5060405162003b0338038062003b0383398181016040528101906200004b91906200057d565b33600073ffffffffffffffffffffffffffffffffffffffff168173ffffffffffffffffffffffffffffffffffffffff1603620000c15760006040517f1e4fbdf7000000000000000000000000000000000000000000000000000000008152600401620000b8919062000616565b60405180910390fd5b620000d2816200041460201b60201c565b50600180819055506000600260006101000a81548160ff021916908315150217905550600073ffffffffffffffffffffffffffffffffffffffff168573ffffffffffffffffffffffffffffffffffffffff160362000167576040517f08c379a00000000000000000000000000000000000000000000000000000000081526004016200015e9062000694565b60405180910390fd5b600073ffffffffffffffffffffffffffffffffffffffff168473ffffffffffffffffffffffffffffffffffffffff1603620001d9576040517f08c379a0000000000000000000000000000000000000000000000000000000008152600401620001d0906200072c565b60405180910390fd5b600073ffffffffffffffffffffffffffffffffffffffff168373ffffffffffffffffffffffffffffffffffffffff16036200024b576040517f08c379a00000000000000000000000000000000000000000000000000000000081526004016200024290620007c4565b60405180910390fd5b600073ffffffffffffffffffffffffffffffffffffffff168273ffffffffffffffffffffffffffffffffffffffff1603620002bd576040517f08c379a0000000000000000000000000000000000000000000000000000000008152600401620002b49062000836565b60405180910390fd5b84600260016101000a81548173ffffffffffffffffffffffffffffffffffffffff021916908373ffffffffffffffffffffffffffffffffffffffff16021790555083600360006101000a81548173ffffffffffffffffffffffffffffffffffffffff021916908373ffffffffffffffffffffffffffffffffffffffff16021790555082600460006101000a81548173ffffffffffffffffffffffffffffffffffffffff021916908373ffffffffffffffffffffffffffffffffffffffff16021790555081600760006101000a81548173ffffffffffffffffffffffffffffffffffffffff021916908373ffffffffffffffffffffffffffffffffffffffff16021790555060006201518082620003d4919062000887565b905060006301e133808211620003eb5781620003f1565b6301e133805b90508042620004019190620008d2565b600681905550505050505050506200090d565b60008060009054906101000a900473ffffffffffffffffffffffffffffffffffffffff169050816000806101000a81548173ffffffffffffffffffffffffffffffffffffffff021916908373ffffffffffffffffffffffffffffffffffffffff1602179055508173ffffffffffffffffffffffffffffffffffffffff168173ffffffffffffffffffffffffffffffffffffffff167f8be0079c531659141344cd1fd0a4f28419497f9722a3daafe3b4186f6b6457e060405160405180910390a35050565b600080fd5b600073ffffffffffffffffffffffffffffffffffffffff82169050919050565b60006200050a82620004dd565b9050919050565b6200051c81620004fd565b81146200052857600080fd5b50565b6000815190506200053c8162000511565b92915050565b6000819050919050565b620005578162000542565b81146200056357600080fd5b50565b60008151905062000577816200054c565b92915050565b600080600080600060a086880312156200059c576200059b620004d8565b5b6000620005ac888289016200052b565b9550506020620005bf888289016200052b565b9450506040620005d2888289016200052b565b9350506060620005e5888289016200052b565b9250506080620005f88882890162000566565b9150509295509295909350565b6200061081620004fd565b82525050565b60006020820190506200062d600083018462000605565b92915050565b600082825260208201905092915050565b7f48575420746f6b656e20616464726573732063616e6e6f74206265207a65726f600082015250565b60006200067c60208362000633565b9150620006898262000644565b602082019050919050565b60006020820190508181036000830152620006af816200066d565b9050919050565b7f5553445420746f6b656e20616464726573732063616e6e6f74206265207a657260008201527f6f00000000000000000000000000000000000000000000000000000000000000602082015250565b60006200071460218362000633565b91506200072182620006b6565b604082019050919050565b60006020820190508181036000830152620007478162000705565b9050919050565b7f5072696365206665656420616464726573732063616e6e6f74206265207a657260008201527f6f00000000000000000000000000000000000000000000000000000000000000602082015250565b6000620007ac60218362000633565b9150620007b9826200074e565b604082019050919050565b60006020820190508181036000830152620007df816200079d565b9050919050565b7f54726561737572792077616c6c65742063616e6e6f74206265207a65726f0000600082015250565b60006200081e601e8362000633565b91506200082b82620007e6565b602082019050919050565b6000602082019050818103600083015262000851816200080f565b9050919050565b7f4e487b7100000000000000000000000000000000000000000000000000000000600052601160045260246000fd5b6000620008948262000542565b9150620008a18362000542565b9250828202620008b18162000542565b91508282048414831517620008cb57620008ca62000858565b5b5092915050565b6000620008df8262000542565b9150620008ec8362000542565b925082820190508082111562000907576200090662000858565b5b92915050565b6131e6806200091d6000396000f3fe6080604052600436106102295760003560e01c80638107e13311610123578063a98ad46c116100ab578063e086e5ec1161006f578063e086e5ec14610834578063e66879831461084b578063f2fde38b14610876578063f7a182f51461089f578063fa2a2b7c146108ca57610269565b8063a98ad46c1461074b578063b26735ae14610776578063bc4056ed146107b3578063c147a55b146107de578063d744b7021461080957610269565b8063975b8662116100f2578063975b8662146106525780639d5df4ca1461067d5780639e880579146106ba578063a0a8045e146106f7578063a7c601601461072257610269565b80638107e133146105bc5780638456cb59146105e75780638da5cb5b146105fe57806395877f781461062957610269565b80633f4ba83a116101b157806363b201171161017557806363b20117146104fd578063715018a614610528578063763fd2ab1461053f5780637d81d14c1461056a578063809d458d1461059357610269565b80633f4ba83a1461043c57806342f6fb29146104535780634626402b1461047e57806353f48812146104a95780635c975abb146104d257610269565b80631f716f77116101f85780631f716f7714610353578063249b7c191461039057806326ab50b4146103bb5780632c2d4af1146103e65780633cdab2a81461041157610269565b806306fd9bf6146102a4578063150d283d146102e15780631584410a146102eb5780631e1721fa1461031657610269565b36610269576040517f08c379a000000000000000000000000000000000000000000000000000000000815260040161026090611fe5565b60405180910390fd5b6040517f08c379a000000000000000000000000000000000000000000000000000000000815260040161029b90612051565b60405180910390fd5b3480156102b057600080fd5b506102cb60048036038101906102c691906120ac565b6108f5565b6040516102d891906120e8565b60405180910390f35b6102e96109a6565b005b3480156102f757600080fd5b50610300610c79565b60405161030d91906120e8565b60405180910390f35b34801561032257600080fd5b5061033d600480360381019061033891906120ac565b610c7f565b60405161034a91906120e8565b60405180910390f35b34801561035f57600080fd5b5061037a600480360381019061037591906120ac565b610c91565b60405161038791906120e8565b60405180910390f35b34801561039c57600080fd5b506103a5610ca3565b6040516103b291906120e8565b60405180910390f35b3480156103c757600080fd5b506103d0610ca9565b6040516103dd91906120e8565b60405180910390f35b3480156103f257600080fd5b506103fb610cb0565b60405161040891906120e8565b60405180910390f35b34801561041d57600080fd5b50610426610cb6565b6040516104339190612182565b60405180910390f35b34801561044857600080fd5b50610451610cdc565b005b34801561045f57600080fd5b50610468610cee565b60405161047591906121be565b60405180910390f35b34801561048a57600080fd5b50610493610d14565b6040516104a091906121fa565b60405180910390f35b3480156104b557600080fd5b506104d060048036038101906104cb9190612215565b610d3a565b005b3480156104de57600080fd5b506104e7610e3f565b6040516104f49190612283565b60405180910390f35b34801561050957600080fd5b50610512610e56565b60405161051f91906120e8565b60405180910390f35b34801561053457600080fd5b5061053d610e5c565b005b34801561054b57600080fd5b50610554610e70565b60405161056191906120e8565b60405180910390f35b34801561057657600080fd5b50610591600480360381019061058c91906120ac565b610e7f565b005b34801561059f57600080fd5b506105ba60048036038101906105b591906122ca565b610fbd565b005b3480156105c857600080fd5b506105d16110d9565b6040516105de91906120e8565b60405180910390f35b3480156105f357600080fd5b506105fc6110df565b005b34801561060a57600080fd5b506106136110f1565b60405161062091906121fa565b60405180910390f35b34801561063557600080fd5b50610650600480360381019061064b91906122ca565b61111a565b005b34801561065e57600080fd5b50610667611236565b60405161067491906120e8565b60405180910390f35b34801561068957600080fd5b506106a4600480360381019061069f91906120ac565b61123c565b6040516106b191906120e8565b60405180910390f35b3480156106c657600080fd5b506106e160048036038101906106dc91906120ac565b611278565b6040516106ee91906120e8565b60405180910390f35b34801561070357600080fd5b5061070c6112f7565b60405161071991906120e8565b60405180910390f35b34801561072e57600080fd5b50610749600480360381019061074491906120ac565b611494565b005b34801561075757600080fd5b506107606117de565b60405161076d9190612318565b60405180910390f35b34801561078257600080fd5b5061079d600480360381019061079891906120ac565b611804565b6040516107aa91906120e8565b60405180910390f35b3480156107bf57600080fd5b506107c8611863565b6040516107d591906120e8565b60405180910390f35b3480156107ea57600080fd5b506107f3611868565b60405161080091906120e8565b60405180910390f35b34801561081557600080fd5b5061081e611872565b60405161082b91906120e8565b60405180910390f35b34801561084057600080fd5b5061084961187a565b005b34801561085757600080fd5b50610860611a2d565b60405161086d91906120e8565b60405180910390f35b34801561088257600080fd5b5061089d600480360381019061089891906122ca565b611b48565b005b3480156108ab57600080fd5b506108b4611bce565b6040516108c191906120e8565b60405180910390f35b3480156108d657600080fd5b506108df611bd3565b6040516108ec91906120e8565b60405180910390f35b600080610900611bd3565b90506000670de0b6b3a764000082856109199190612362565b61092391906123d3565b905060006305f5e10060026109389190612362565b670de0b6b3a76400008361094c9190612362565b61095691906123d3565b90506000811161099b576040517f08c379a000000000000000000000000000000000000000000000000000000000815260040161099290612476565b60405180910390fd5b809350505050919050565b6006544211156109eb576040517f08c379a00000000000000000000000000000000000000000000000000000000081526004016109e2906124e2565b60405180910390fd5b6109f3611c79565b6109fb611cba565b60003411610a3e576040517f08c379a0000000000000000000000000000000000000000000000000000000008152600401610a3590612574565b60405180910390fd5b6000610a48611a2d565b90506000610a55346108f5565b90506000670de0b6b3a76400008334610a6e9190612362565b610a7891906123d3565b90506305f5e100600a610a8b9190612362565b811015610acd576040517f08c379a0000000000000000000000000000000000000000000000000000000008152600401610ac4906125e0565b60405180910390fd5b6305f5e100620186a0610ae09190612362565b811115610b22576040517f08c379a0000000000000000000000000000000000000000000000000000000008152600401610b199061264c565b60405180910390fd5b3460086000828254610b34919061266c565b925050819055507fadb6a3fe015de6cf14b532348b91a6202eb862af051124a853b5935e034cfd7b34604051610b6a91906120e8565b60405180910390a1600260019054906101000a900473ffffffffffffffffffffffffffffffffffffffff1673ffffffffffffffffffffffffffffffffffffffff166330b2b8aa33846040518363ffffffff1660e01b8152600401610bcf9291906126a0565b600060405180830381600087803b158015610be957600080fd5b505af1158015610bfd573d6000803e3d6000fd5b505050508160056000828254610c13919061266c565b925050819055503373ffffffffffffffffffffffffffffffffffffffff167fec6490c6ef89b23df34763d6ade6b4444edea66522e35ce0e085dde9891789ce348486604051610c64939291906126c9565b60405180910390a2505050610c77611d00565b565b60095481565b6000610c8a826108f5565b9050919050565b6000610c9c82611278565b9050919050565b60065481565b620186a081565b60085481565b600260019054906101000a900473ffffffffffffffffffffffffffffffffffffffff1681565b610ce4611d09565b610cec611d90565b565b600460009054906101000a900473ffffffffffffffffffffffffffffffffffffffff1681565b600760009054906101000a900473ffffffffffffffffffffffffffffffffffffffff1681565b610d42611d09565b60008311610d85576040517f08c379a0000000000000000000000000000000000000000000000000000000008152600401610d7c9061274c565b60405180910390fd5b600082118015610d96575060328211155b610dd5576040517f08c379a0000000000000000000000000000000000000000000000000000000008152600401610dcc906127b8565b60405180910390fd5b600081118015610de6575060038111155b610e25576040517f08c379a0000000000000000000000000000000000000000000000000000000008152600401610e1c90612824565b60405180910390fd5b8260098190555081600a8190555080600b81905550505050565b6000600260009054906101000a900460ff16905090565b60055481565b610e64611d09565b610e6e6000611df3565b565b6a52b7d2dcc80cd2e400000081565b610e87611d09565b6006548111610ecb576040517f08c379a0000000000000000000000000000000000000000000000000000000008152600401610ec2906128b6565b60405180910390fd5b60006301e1338042610edd919061266c565b905080821115610f22576040517f08c379a0000000000000000000000000000000000000000000000000000000008152600401610f1990612948565b60405180910390fd5b6a52b7d2dcc80cd2e400000060055410610f71576040517f08c379a0000000000000000000000000000000000000000000000000000000008152600401610f68906129da565b60405180910390fd5b60006006549050826006819055507f36590996dea047dc12d17ec2643248f8b86eb37e78941b43d9e9049180efb7b08184604051610fb09291906129fa565b60405180910390a1505050565b610fc5611d09565b600073ffffffffffffffffffffffffffffffffffffffff168173ffffffffffffffffffffffffffffffffffffffff1603611034576040517f08c379a000000000000000000000000000000000000000000000000000000000815260040161102b90612a95565b60405180910390fd5b6000600760009054906101000a900473ffffffffffffffffffffffffffffffffffffffff16905081600760006101000a81548173ffffffffffffffffffffffffffffffffffffffff021916908373ffffffffffffffffffffffffffffffffffffffff1602179055507fa982575859d7ad2f390dc12b23f7dab8bbda047f9d0140ac68344b27bf34bfb481836040516110cd929190612ab5565b60405180910390a15050565b600b5481565b6110e7611d09565b6110ef611eb7565b565b60008060009054906101000a900473ffffffffffffffffffffffffffffffffffffffff16905090565b611122611d09565b600073ffffffffffffffffffffffffffffffffffffffff168173ffffffffffffffffffffffffffffffffffffffff1603611191576040517f08c379a000000000000000000000000000000000000000000000000000000000815260040161118890612b50565b60405180910390fd5b6000600460009054906101000a900473ffffffffffffffffffffffffffffffffffffffff16905081600460006101000a81548173ffffffffffffffffffffffffffffffffffffffff021916908373ffffffffffffffffffffffffffffffffffffffff1602179055507fa8abe0398416476db5b05737cd4da3b3cbde5012d978a6a6c3fd49d321753536818360405161122a929190612ab5565b60405180910390a15050565b600a5481565b600080670de0b6b3a7640000620f42406002856112599190612362565b6112639190612362565b61126d91906123d3565b905080915050919050565b600080620f4240600261128b9190612362565b670de0b6b3a76400008461129f9190612362565b6112a991906123d3565b9050600081116112ee576040517f08c379a00000000000000000000000000000000000000000000000000000000081526004016112e590612476565b60405180910390fd5b80915050919050565b600080600080600080600460009054906101000a900473ffffffffffffffffffffffffffffffffffffffff1673ffffffffffffffffffffffffffffffffffffffff1663feaf968c6040518163ffffffff1660e01b815260040160a060405180830381865afa15801561136d573d6000803e3d6000fd5b505050506040513d601f19601f820116820180604052508101906113919190612bfd565b94509450945094509450600084136113de576040517f08c379a00000000000000000000000000000000000000000000000000000000081526004016113d590612cc4565b60405180910390fd5b8469ffffffffffffffffffff168169ffffffffffffffffffff161015611439576040517f08c379a000000000000000000000000000000000000000000000000000000000815260040161143090612d30565b60405180910390fd5b60095482426114489190612d50565b1115611489576040517f08c379a000000000000000000000000000000000000000000000000000000000815260040161148090612dd0565b60405180910390fd5b839550505050505090565b6006544211156114d9576040517f08c379a00000000000000000000000000000000000000000000000000000000081526004016114d0906124e2565b60405180910390fd5b6114e1611c79565b6114e9611cba565b6000811161152c576040517f08c379a000000000000000000000000000000000000000000000000000000000815260040161152390612e62565b60405180910390fd5b600061153782611278565b90506000620f42408361154a91906123d3565b9050600a811015611590576040517f08c379a0000000000000000000000000000000000000000000000000000000008152600401611587906125e0565b60405180910390fd5b620186a08111156115d6576040517f08c379a00000000000000000000000000000000000000000000000000000000081526004016115cd9061264c565b60405180910390fd5b600360009054906101000a900473ffffffffffffffffffffffffffffffffffffffff1673ffffffffffffffffffffffffffffffffffffffff166323b872dd33600760009054906101000a900473ffffffffffffffffffffffffffffffffffffffff16866040518463ffffffff1660e01b815260040161165793929190612e82565b6020604051808303816000875af1158015611676573d6000803e3d6000fd5b505050506040513d601f19601f8201168201806040525081019061169a9190612ee5565b6116d9576040517f08c379a00000000000000000000000000000000000000000000000000000000081526004016116d090612f5e565b60405180910390fd5b600260019054906101000a900473ffffffffffffffffffffffffffffffffffffffff1673ffffffffffffffffffffffffffffffffffffffff166330b2b8aa33846040518363ffffffff1660e01b81526004016117369291906126a0565b600060405180830381600087803b15801561175057600080fd5b505af1158015611764573d6000803e3d6000fd5b50505050816005600082825461177a919061266c565b925050819055503373ffffffffffffffffffffffffffffffffffffffff167f833d36ff76cee2402a2c098cd9372e97af294378965dbaef4fa1ea739ceb355e84846040516117c99291906129fa565b60405180910390a250506117db611d00565b50565b600360009054906101000a900473ffffffffffffffffffffffffffffffffffffffff1681565b60008061180f611bd3565b905060006002846118209190612362565b90506402540be4008161183391906123d3565b9050600082670de0b6b3a76400008361184c9190612362565b61185691906123d3565b9050809350505050919050565b600a81565b6000600854905090565b6301e1338081565b611882611d09565b61188a611cba565b60006008549050600081116118d4576040517f08c379a00000000000000000000000000000000000000000000000000000000081526004016118cb90612fca565b60405180910390fd5b60006008819055506000600760009054906101000a900473ffffffffffffffffffffffffffffffffffffffff1673ffffffffffffffffffffffffffffffffffffffff16826040516119249061301b565b60006040518083038185875af1925050503d8060008114611961576040519150601f19603f3d011682016040523d82523d6000602084013e611966565b606091505b50509050806119b157816008819055506040517f08c379a00000000000000000000000000000000000000000000000000000000081526004016119a89061307c565b60405180910390fd5b600760009054906101000a900473ffffffffffffffffffffffffffffffffffffffff1673ffffffffffffffffffffffffffffffffffffffff167f94b2de810873337ed265c5f8cf98c9cffefa06b8607f9a2f1fbaebdfbcfbef1c83604051611a1991906120e8565b60405180910390a25050611a2b611d00565b565b600080611a386112f7565b905080600c60125460038110611a5157611a5061309c565b5b018190555042600f60125460038110611a6d57611a6c61309c565b5b0181905550600b546001601254611a84919061266c565b611a8e91906130cb565b6012819055506000611a9e611bd3565b9050600082821115611ad4578160648484611ab99190612d50565b611ac39190612362565b611acd91906123d3565b9050611afa565b8160648385611ae39190612d50565b611aed9190612362565b611af791906123d3565b90505b600a54811115611b3f576040517f08c379a0000000000000000000000000000000000000000000000000000000008152600401611b3690613148565b60405180910390fd5b81935050505090565b611b50611d09565b600073ffffffffffffffffffffffffffffffffffffffff168173ffffffffffffffffffffffffffffffffffffffff1603611bc25760006040517f1e4fbdf7000000000000000000000000000000000000000000000000000000008152600401611bb991906121fa565b60405180910390fd5b611bcb81611df3565b50565b600281565b600080600090506000805b600b54811015611c4b576000600f8260038110611bfe57611bfd61309c565b5b01541115611c3857600c8160038110611c1a57611c1961309c565b5b015483611c27919061266c565b92508180611c3490613168565b9250505b8080611c4390613168565b915050611bde565b5060008103611c6557611c5c6112f7565b92505050611c76565b8082611c7191906123d3565b925050505b90565b611c81610e3f565b15611cb8576040517fd93c066500000000000000000000000000000000000000000000000000000000815260040160405180910390fd5b565b600260015403611cf6576040517f3ee5aeb500000000000000000000000000000000000000000000000000000000815260040160405180910390fd5b6002600181905550565b60018081905550565b611d11611f1a565b73ffffffffffffffffffffffffffffffffffffffff16611d2f6110f1565b73ffffffffffffffffffffffffffffffffffffffff1614611d8e57611d52611f1a565b6040517f118cdaa7000000000000000000000000000000000000000000000000000000008152600401611d8591906121fa565b60405180910390fd5b565b611d98611f22565b6000600260006101000a81548160ff0219169083151502179055507f5db9ee0a495bf2e6ff9c91a7834c1ba4fdd244a5e8aa4e537bd38aeae4b073aa611ddc611f1a565b604051611de991906121fa565b60405180910390a1565b60008060009054906101000a900473ffffffffffffffffffffffffffffffffffffffff169050816000806101000a81548173ffffffffffffffffffffffffffffffffffffffff021916908373ffffffffffffffffffffffffffffffffffffffff1602179055508173ffffffffffffffffffffffffffffffffffffffff168173ffffffffffffffffffffffffffffffffffffffff167f8be0079c531659141344cd1fd0a4f28419497f9722a3daafe3b4186f6b6457e060405160405180910390a35050565b611ebf611c79565b6001600260006101000a81548160ff0219169083151502179055507f62e78cea01bee320cd4e420270b5ea74000d11b0c9f74754ebdbfc544b05a258611f03611f1a565b604051611f1091906121fa565b60405180910390a1565b600033905090565b611f2a610e3f565b611f60576040517f8dfc202b00000000000000000000000000000000000000000000000000000000815260040160405180910390fd5b565b600082825260208201905092915050565b7f55736520627579576974684554482066756e6374696f6e20746f20707572636860008201527f61736520746f6b656e7300000000000000000000000000000000000000000000602082015250565b6000611fcf602a83611f62565b9150611fda82611f73565b604082019050919050565b60006020820190508181036000830152611ffe81611fc2565b9050919050565b7f46756e6374696f6e206e6f7420737570706f7274656400000000000000000000600082015250565b600061203b601683611f62565b915061204682612005565b602082019050919050565b6000602082019050818103600083015261206a8161202e565b9050919050565b600080fd5b6000819050919050565b61208981612076565b811461209457600080fd5b50565b6000813590506120a681612080565b92915050565b6000602082840312156120c2576120c1612071565b5b60006120d084828501612097565b91505092915050565b6120e281612076565b82525050565b60006020820190506120fd60008301846120d9565b92915050565b600073ffffffffffffffffffffffffffffffffffffffff82169050919050565b6000819050919050565b600061214861214361213e84612103565b612123565b612103565b9050919050565b600061215a8261212d565b9050919050565b600061216c8261214f565b9050919050565b61217c81612161565b82525050565b60006020820190506121976000830184612173565b92915050565b60006121a88261214f565b9050919050565b6121b88161219d565b82525050565b60006020820190506121d360008301846121af565b92915050565b60006121e482612103565b9050919050565b6121f4816121d9565b82525050565b600060208201905061220f60008301846121eb565b92915050565b60008060006060848603121561222e5761222d612071565b5b600061223c86828701612097565b935050602061224d86828701612097565b925050604061225e86828701612097565b9150509250925092565b60008115159050919050565b61227d81612268565b82525050565b60006020820190506122986000830184612274565b92915050565b6122a7816121d9565b81146122b257600080fd5b50565b6000813590506122c48161229e565b92915050565b6000602082840312156122e0576122df612071565b5b60006122ee848285016122b5565b91505092915050565b60006123028261214f565b9050919050565b612312816122f7565b82525050565b600060208201905061232d6000830184612309565b92915050565b7f4e487b7100000000000000000000000000000000000000000000000000000000600052601160045260246000fd5b600061236d82612076565b915061237883612076565b925082820261238681612076565b9150828204841483151761239d5761239c612333565b5b5092915050565b7f4e487b7100000000000000000000000000000000000000000000000000000000600052601260045260246000fd5b60006123de82612076565b91506123e983612076565b9250826123f9576123f86123a4565b5b828204905092915050565b7f416d6f756e7420746f6f20736d616c6c20746f20707572636861736520616e7960008201527f20746f6b656e7300000000000000000000000000000000000000000000000000602082015250565b6000612460602783611f62565b915061246b82612404565b604082019050919050565b6000602082019050818103600083015261248f81612453565b9050919050565b7f50726573616c6520706572696f642068617320656e6465640000000000000000600082015250565b60006124cc601883611f62565b91506124d782612496565b602082019050919050565b600060208201905081810360008301526124fb816124bf565b9050919050565b7f45544820616d6f756e74206d7573742062652067726561746572207468616e2060008201527f3000000000000000000000000000000000000000000000000000000000000000602082015250565b600061255e602183611f62565b915061256982612502565b604082019050919050565b6000602082019050818103600083015261258d81612551565b9050919050565b7f50757263686173652062656c6f77206d696e696d756d20616d6f756e74000000600082015250565b60006125ca601d83611f62565b91506125d582612594565b602082019050919050565b600060208201905081810360008301526125f9816125bd565b9050919050565b7f50757263686173652061626f7665206d6178696d756d20616d6f756e74000000600082015250565b6000612636601d83611f62565b915061264182612600565b602082019050919050565b6000602082019050818103600083015261266581612629565b9050919050565b600061267782612076565b915061268283612076565b925082820190508082111561269a57612699612333565b5b92915050565b60006040820190506126b560008301856121eb565b6126c260208301846120d9565b9392505050565b60006060820190506126de60008301866120d9565b6126eb60208301856120d9565b6126f860408301846120d9565b949350505050565b7f507269636520616765206d75737420626520706f736974697665000000000000600082015250565b6000612736601a83611f62565b915061274182612700565b602082019050919050565b6000602082019050818103600083015261276581612729565b9050919050565b7f446576696174696f6e206d757374206265206265747765656e20312d35302500600082015250565b60006127a2601f83611f62565b91506127ad8261276c565b602082019050919050565b600060208201905081810360008301526127d181612795565b9050919050565b7f545741502077696e646f77206d757374206265206265747765656e20312d3300600082015250565b600061280e601f83611f62565b9150612819826127d8565b602082019050919050565b6000602082019050818103600083015261283d81612801565b9050919050565b7f4e657720656e642074696d65206d757374206265206c61746572207468616e2060008201527f63757272656e7400000000000000000000000000000000000000000000000000602082015250565b60006128a0602783611f62565b91506128ab82612844565b604082019050919050565b600060208201905081810360008301526128cf81612893565b9050919050565b7f43616e6e6f7420657874656e64206265796f6e64206d6178696d756d2070726560008201527f73616c65206475726174696f6e00000000000000000000000000000000000000602082015250565b6000612932602d83611f62565b915061293d826128d6565b604082019050919050565b6000602082019050818103600083015261296181612925565b9050919050565b7f416c6c2070726573616c6520746f6b656e732068617665206265656e20736f6c60008201527f6400000000000000000000000000000000000000000000000000000000000000602082015250565b60006129c4602183611f62565b91506129cf82612968565b604082019050919050565b600060208201905081810360008301526129f3816129b7565b9050919050565b6000604082019050612a0f60008301856120d9565b612a1c60208301846120d9565b9392505050565b7f54726561737572792077616c6c65742063616e6e6f74206265207a65726f206160008201527f6464726573730000000000000000000000000000000000000000000000000000602082015250565b6000612a7f602683611f62565b9150612a8a82612a23565b604082019050919050565b60006020820190508181036000830152612aae81612a72565b9050919050565b6000604082019050612aca60008301856121eb565b612ad760208301846121eb565b9392505050565b7f507269636520666565642063616e6e6f74206265207a65726f2061646472657360008201527f7300000000000000000000000000000000000000000000000000000000000000602082015250565b6000612b3a602183611f62565b9150612b4582612ade565b604082019050919050565b60006020820190508181036000830152612b6981612b2d565b9050919050565b600069ffffffffffffffffffff82169050919050565b612b8f81612b70565b8114612b9a57600080fd5b50565b600081519050612bac81612b86565b92915050565b6000819050919050565b612bc581612bb2565b8114612bd057600080fd5b50565b600081519050612be281612bbc565b92915050565b600081519050612bf781612080565b92915050565b600080600080600060a08688031215612c1957612c18612071565b5b6000612c2788828901612b9d565b9550506020612c3888828901612bd3565b9450506040612c4988828901612be8565b9350506060612c5a88828901612be8565b9250506080612c6b88828901612b9d565b9150509295509295909350565b7f496e76616c696420455448207072696365000000000000000000000000000000600082015250565b6000612cae601183611f62565b9150612cb982612c78565b602082019050919050565b60006020820190508181036000830152612cdd81612ca1565b9050919050565b7f5374616c65207072696365000000000000000000000000000000000000000000600082015250565b6000612d1a600b83611f62565b9150612d2582612ce4565b602082019050919050565b60006020820190508181036000830152612d4981612d0d565b9050919050565b6000612d5b82612076565b9150612d6683612076565b9250828203905081811115612d7e57612d7d612333565b5b92915050565b7f5072696365206461746120746f6f206f6c640000000000000000000000000000600082015250565b6000612dba601283611f62565b9150612dc582612d84565b602082019050919050565b60006020820190508181036000830152612de981612dad565b9050919050565b7f5553445420616d6f756e74206d7573742062652067726561746572207468616e60008201527f2030000000000000000000000000000000000000000000000000000000000000602082015250565b6000612e4c602283611f62565b9150612e5782612df0565b604082019050919050565b60006020820190508181036000830152612e7b81612e3f565b9050919050565b6000606082019050612e9760008301866121eb565b612ea460208301856121eb565b612eb160408301846120d9565b949350505050565b612ec281612268565b8114612ecd57600080fd5b50565b600081519050612edf81612eb9565b92915050565b600060208284031215612efb57612efa612071565b5b6000612f0984828501612ed0565b91505092915050565b7f55534454207472616e73666572206661696c6564000000000000000000000000600082015250565b6000612f48601483611f62565b9150612f5382612f12565b602082019050919050565b60006020820190508181036000830152612f7781612f3b565b9050919050565b7f4e6f2045544820617661696c61626c6520666f72207769746864726177616c00600082015250565b6000612fb4601f83611f62565b9150612fbf82612f7e565b602082019050919050565b60006020820190508181036000830152612fe381612fa7565b9050919050565b600081905092915050565b50565b6000613005600083612fea565b915061301082612ff5565b600082019050919050565b600061302682612ff8565b9150819050919050565b7f455448207472616e73666572206661696c656400000000000000000000000000600082015250565b6000613066601383611f62565b915061307182613030565b602082019050919050565b6000602082019050818103600083015261309581613059565b9050919050565b7f4e487b7100000000000000000000000000000000000000000000000000000000600052603260045260246000fd5b60006130d682612076565b91506130e183612076565b9250826130f1576130f06123a4565b5b828206905092915050565b7f507269636520646576696174696f6e20746f6f20686967680000000000000000600082015250565b6000613132601883611f62565b915061313d826130fc565b602082019050919050565b6000602082019050818103600083015261316181613125565b9050919050565b600061317382612076565b91507fffffffffffffffffffffffffffffffffffffffffffffffffffffffffffffffff82036131a5576131a4612333565b5b60018201905091905056fea2646970667358221220da67d08be8a1bf3671b44c5a812e932cdfbb5320d686b3bcb18aac90416c100464736f6c63430008140033",
  "linkReferences": {},
  "deployedLinkReferences": {}
}